:020000040800F2
:10000000B02E0020D50100081505000817050008CE
:10001000190500081B0500081D0500080000000068
:10002000000000000000000000000000B101000816
:100030001F050008000000001F2200081D22000804
:10004000EF010008EF010008EF010008EF010008D0
:10005000EF010008EF010008EF010008EF010008C0
:10006000EF010008EF010008EF010008EF010008B0
:10007000EF010008EF010008EF010008EF010008A0
:10008000EF010008EF010008EF010008EF01000890
:10009000EF010008EF010008EF010008EF01000880
:1000A000EF010008EF010008EF010008EF01000870
:1000B0008321000885210008A3210008EF01000822
:1000C000EF010008EF010008EF010008EF01000850
:1000D000EF010008F11A0008071C0008F11C0008D5
:1000E000EF010008EF010008EF010008EF01000830
:1000F000EF010008EF010008EF010008EF01000820
:10010000EF010008EF010008EF010008EF0100080F
:10011000751D0008AD1D0008EF010008EF01000883
:10012000EF010008EF010008EF010008EF010008EF
:10013000DFF80CD002F0C0FE00480047512600084E
:10014000B02E002006480068006880F3088862B678
:1001500061B6BFF34F8FBFF36F8F00DF00BF00BFEB
:1001600008ED00E0EFF30980BFF36F8F0F4B1A68C3
:1001700020E9F00F106008B54FF0000080F31188FF
:10018000BFF34F8FBFF36F8F02F03CF84FF00000CA
:1001900080F31188BDE8084019680868B0E8F00FDE
:1001A00080F30988BFF36F8F704700BF34000020D1
:1001B000074B19680868B0E8F00F80F30988BFF3AF
:1001C0006F8F4FF0000080F311884EF00D0E7047D6
:1001D000340000200648804706480047FEE7704785
:1001E000FEE7FEE7FEE7FEE7FEE7FEE7FEE7FEE7E7
:1001F0009116000831010008284908432849086081
:10020000704770B50F23C47801780122F4B1244CF3
:100210002468457804F4E064C4F5E064240AC4F179
:100220000406E3408478B5401C402C4301F1E021F2
:10023000230181F80034007800F01F018A40400952
:10024000800000F1E020C0F8002170BD01F01F0027
:1002500082404809800000F1E020C0F8802170BD94
:10026000104A114001430E48001F016070470C4ABC
:10027000121D0029116801D0014300E08143116083
:1002800070474FF0E0210428086903D020F00400F3
:100290000861704740F00400FAE700000000FA052A
:1002A0000CED00E080FFFF1F914910B5884206D198
:1002B0000121042000F051FA002104203BE08D4987
:1002C000884206D10121082000F047FA00210820C9
:1002D00031E08949884206D10121102000F03DFA21
:1002E0000021102027E08549884206D101212020E5
:1002F00000F033FA002120201DE08149884206D118
:100300000121402000F029FA0021402013E07D491E
:10031000884206D10121802000F01FFA00218020B0
:1003200009E0794988420AD184150121204600F06C
:1003300014FA00212046BDE8104000F00EBA10BDAE
:1003400010B50121084600F008FA0021BDE8104070
:10035000012000F002BAF0B5CA78002502F00F03C0
:10036000D20601D58A7813430A784FF00F0E12F0A7
:10037000FF0F4FF001021DD0D0F800400F8802FAA5
:1003800005F63740B74211D14FEA850C0EFA0CF74B
:1003900024EA070703FA0CF43C43CF78282F02D055
:1003A000482F02D002E0466100E006616D1C082D76
:1003B000E4D304600C88FF2C1ED944685FF000066B
:1003C00006F1080702FA07F50F882F40AF420FD158
:1003D0004FEA860C0EFA0CF7BC4303FA0CF73C43C9
:1003E000CF78282F00D14561CF78482F00D1056103
:1003F000761C082EE4D34460F0BD4FF6FF710180F7
:10040000022181700421C170704702460020926869
:100410000A4200D001207047806880B270470246CF
:100420000020D2680A4200D001207047C06880B224
:10043000704701617047416170470AB101617047BF
:1004400041617047C160704741F4803282618161CF
:1004500082618169806970472C4B10B51A684FF62C
:100460008074224042EA00100843186010BD2849F9
:10047000C8617047F0B5254C002801DAE36900E057
:100480006368420D120185B2C0F301579540C0F375
:100490000346032F05D0C2020AD50322B24093437C
:1004A00007E023F07062636823F07063636002E02A
:1004B000AB4343F0706201B12A43002801DAE261E4
:1004C000F0BD6260F0BD10B58A0721F003040F494A
:1004D000130F21440F228C689A4094438C608A68E1
:1004E000984002438A6010BD0949C1F8DC0070479A
:1004F00000080140000C01400010014000140140C0
:1005000000180140001C0140002001400000014093
:100510000000204270477047FEE7FEE7FEE77047A5
:10052000A448016841F0010101604168A24A1140FC
:1005300041600168A14A11400160016821F48021F5
:100540000160416821F4FE0141604FF41F018160A8
:10055000704798490A6822F480320A600A6822F4D7
:1005600080220A60B0F5803F07D0B0F5802F03D11C
:10057000086840F4A02008607047086840F48030A4
:10058000F9E70246002053098A49012B0AD0022BC1
:100590000AD0496A02F01F02012393400B4200D0A7
:1005A000012070470968F5E7096AF3E718B50020EC
:1005B0004FF4A06400903120FFF7E3FF0099491C3D
:1005C0000091A14201D00028F5D03120FFF7D9FFDA
:1005D000002800D0012018BD76490A6822F0F802F0
:1005E00042EAC00008607047754908607047714A68
:1005F0005368084323F47C131843506070477049D4
:10060000086670476B4A516821F00301014351604D
:1006100070476848406800F00C007047654A5168B0
:1006200021F0F001014351607047624A516821F4A2
:10063000E0610143516070475E494A6822F46052AC
:1006400042EAC000486070475A4A0029517A01D0F6
:10065000014300E08143517270475949C1F8D80005
:100660007047544A516821F440410143516070473A
:100670005049002281F8202081F82020012802D052
:10068000042802D1052081F8200070474D490860F8
:10069000704748490A6A02430A6270474949443927
:1006A0000860704730B543494A6812F00C03464A67
:1006B00003D0042B01D0082B21D002604A680F23FD
:1006C000424C03EA1212A35C0268DA4042604B68B3
:1006D000072505EA1323E35C22FA03F383604B68E2
:1006E00005EAD323E35CDA40C2604968032303EAE6
:1006F0009131231F595CB2FBF1F1016130BD4A68B1
:100700004B6802F470124FF0020413F4803F04EBC4
:10071000924202D04B689B0301D52D4B00E02A4B3F
:100720005A43CAE7234A0029516901D0014300E036
:100730008143516170471F4A0029916901D00143EB
:1007400000E08143916170471A4A0029D16901D0C4
:10075000014300E08143D1617047164A0029D16806
:1007600001D0014300E08143D1607047114A002964
:10077000116901D0014300E08143116170471149C3
:100780004039086070470E49C86470470949C8710C
:1007900070470848416A41F0807141627047054ADC
:1007A0000146002092680A4200D0012070470149AA
:1007B00088727047001002400000FFF8FFFFF6FE4D
:1007C000000042428004424200127A0004000020ED
:1007D00000093D00F94910B5884202D10121C41435
:1007E00086E0B0F1804F09D0F54988420DD1012152
:1007F0000220FFF7BBFF0021022064E00121084630
:10080000FFF7B4FF002101205DE0EE49884206D1E8
:1008100001210420FFF7AAFF0021042053E0EA4948
:10082000884206D101210820FFF7A0FF00210820FF
:1008300049E0E649884206D101211020FFF796FFE2
:10084000002110203FE0E249884206D1012120200A
:10085000FFF78CFF0021202035E0DE49884202D1DD
:100860000121441444E0DC49884202D10121CC0436
:100870003EE0DA49884202D101210C0538E0D8492E
:10088000884202D101214C0532E0D649884206D186
:1008900001214020FFF76AFF0021402013E0D249E8
:1008A000884206D101218020FFF760FF00218020CF
:1008B00009E0CE4988420AD1841501212046FFF77C
:1008C00055FF00212046BDE81040FFF74FBFC84943
:1008D000884202D101210C040AE0C649884202D1B3
:1008E00001214C0404E0C44988420AD101218C044E
:1008F0002046FFF732FF2046BDE810400021FFF7F9
:100900002CBF10BD30B50288AC4BB24C98420DD014
:10091000A0420BD0B0F1804F08D0A94DA84205D01D
:10092000A84DA84202D0A84DA84203D122F07005DC
:100930004A882A43A54DA84206D0A54DA84203D017
:1009400022F44075CA882A4302808A8882850A88F0
:10095000028598420AD0A04208D0A54A904205D00C
:10096000A44A904202D0A44A904201D1097A018659
:100970000121818230BD30B5028C22F00102028457
:10098000028C8388048B22F0020224F073050C8809
:100990002C430D8915434A882A43884DA8420BD021
:1009A0008C4DA84208D0924DA84205D0914DA84246
:1009B00002D0914DA8420DD122F008054A8923F4B6
:1009C00040732A4322F004058A882A438D891D43F7
:1009D000CB892B4383800483C9888186028430BD00
:1009E00070B5028C22F010020284028C8488038B82
:1009F0000D8823F4E6464FF6FF7303EA05253543D9
:100A00000E8922F0200203EA061616434A8803EAFA
:100A100002123243694EB04202D06E4EB04215D13E
:100A200022F080064A8924F4406403EA0212324329
:100A300022F040068A8803EA021232438E8903EAD2
:100A400086062643CC8903EA8404344384800583E4
:100A5000C9880187028470BD70B5028C22F480724F
:100A60000284028C8488838B0D8823F073031D43DA
:100A700022F400730E894FF6FF7202EA06261E4327
:100A80004B8802EA032333434C4EB04202D0514E0E
:100A9000B04215D123F400664B8924F4405402EA95
:100AA0000323334323F480668B8802EA0323334312
:100AB0008E8902EA06162643CC8902EA04143443DE
:100AC00084808583C9888187038470BD70B5028C5A
:100AD00022F480520284048C8288838B0D8823F454
:100AE000E6464FF6FF7303EA0525354324F4005626
:100AF0000C8903EA043434434E8803EA063626435D
:100B00002E4CA04202D0334CA04205D122F48044A6
:100B10008A8903EA8212224382808583C988A0F8E9
:100B20004010068470BD828B22F440628283828BE7
:100B30004FF6FF7303EA01210A4382837047828BD9
:100B400022F00C028283828B0A4382837047028BDD
:100B500022F440620283028B4FF6FF7303EA012105
:100B60000A4302837047F0B5048C24F01004048417
:100B7000078B048C4FF6FF7527F4734705EA0333A0
:100B80003B4305EA02221A430C4B05EA0116984240
:100B90000ED0104B98420BD0B0F1804F08D0084BCC
:100BA000984205D0074B984202D0074B984225D176
:100BB00024F02001314341F0100124E0002C0140D9
:100BC0000004004000080040000C004000100040FD
:100BD0000014004000340140004C0140005001402E
:100BE0000054014000180040001C0040002000405C
:100BF00000400140004401400048014024F0A003AF
:100C00000B4343F0100102830184F0BD028B22F0FC
:100C10000C020283028B0A430283704770B5048C76
:100C200024F001040484058B048C4FF6FF7606EA59
:100C30000313134325F0F305F94A2B4390420ED0DA
:100C4000F84A90420BD0B0F1804F08D0F64A90425B
:100C500005D0F64A904202D0F54A904202D124F0E3
:100C6000020201E024F00A020A4342F00101038378
:100C7000018470BD2DE9F05F0D4604460888E84FF9
:100C8000DFF8A0C3DFF8A0834988AA882B894FF03A
:100C9000804960B3042832D04FF6FF7E082836D052
:100CA000208C9B4620F480502084A38B268C704699
:100CB00000EA022223F473431A4300EA0B30104384
:100CC0000EEA013EBC420BD0644509D04C4507D02A
:100CD000444505D0D54A944202D0D54B9C4245D1DB
:100CE00026F4005141EA0E0141F4805143E02046D0
:100CF000FFF794FFE9882046BDE8F05F86E72046CD
:100D0000FFF731FFE9882046BDE8F05F1FE7208C40
:100D100020F480702084B4F81CA0208C0EEA031309
:100D200013432AF0F30A0EEA012B43EA0A03BC42FA
:100D30000BD0644509D04C4507D0444505D0BB4A8B
:100D4000944202D0BA4A944204D120F4007040EA9E
:100D50000B0002E020F42060084340F48070A3837D
:100D60002084E9882046BDE8F05FE8E626F40242E8
:100D70000A4342F48051A08320462184E988BDE8DB
:100D8000F05FD0E62DE9F0410C4600264988074681
:100D9000012501B90226A288012A00D10225208856
:100DA00023890028384610D0FFF7DDFEE188384659
:100DB000FFF7CDFE23892A4631463846FFF72EFF3E
:100DC000E1883846BDE8F04120E7FFF727FFE188DA
:100DD0003846FFF71BFF23892A4631463846FFF77E
:100DE000C2FEE1883846BDE8F041B0E610B50A8899
:100DF0004B88CC881A438B8823431A430B891A43A8
:100E00004B8989891A430A43A0F8442010BD4FF644
:100E1000FF71818000210180C18041800172704793
:100E20000021018041808180C180018141818181D7
:100E3000C181704700210180418001228280C180F0
:100E4000018170470021018041808180C180018142
:100E50004181818170470029018802D041F0010160
:100E600001E021F0010101807047002930F8441FA2
:100E700002D041F4004101E0C1F30E01018070474E
:100E8000002A828901D00A4300E08A4382817047A8
:100E9000818270471143A0F848107047002A828968
:100EA00001D00A4300E08A4382817047018921F022
:100EB000070101817047028922F070020A43028112
:100EC000704700B50346FFF7F6FF188940F00700AA
:100ED000188100BD70B516460D46602904464FF0D6
:100EE000010231460AD0FFF799FE29462046FFF756
:100EF000E2FF208940F00700208170BDFFF733FE3C
:100F0000F3E730B504894FF6FF7505EA0323134371
:100F1000E4B20B432343038130BD10B50446FFF711
:100F2000F0FF208940F07700208110BD10B5044605
:100F3000FFF7E7FF208940F48040208110BD018544
:100F400082827047028822F070020A430280704752
:100F500070B50589048B068C25F007050D434FF607
:100F6000FC410C4040F201110C434FF6FF7101EAC5
:100F7000031126F0220611433143058104830184C5
:100F800070BD028B22F070020A4302837047028B0D
:100F90004FF6FF7322F4E04203EA0121114301837B
:100FA0007047828B22F070020A4382837047828BE3
:100FB0004FF6FF7322F4E04203EA012111438183DB
:100FC00070470029018802D041F0800101E021F042
:100FD0008001018070470029818802D041F004011E
:100FE00001E021F00401818070470029818802D04E
:100FF00041F0080101E021F00801818070470029DB
:10100000818802D041F0010101E021F001018180DD
:101010007047028B22F008020A43028370470000E7
:10102000002C014000340140000400400008004052
:10103000000C0040028B4FF6FF7322F4006203EABB
:10104000012111430183E9E7828B22F008020A4360
:101050008283E3E7828B4FF6FF7322F4006203EA98
:10106000012111438183D9E7028B22F004020A4354
:101070000283D3E7028B4FF6FF7322F4806203EA08
:10108000012111430183C9E7828B22F004020A4344
:101090008283C3E7828B4FF6FF7322F4806203EAF8
:1010A000012111438183B9E7028B22F080020A43B8
:1010B0000283B3E7028B4FF6FF73C2F30E0203EA1B
:1010C000012111430183A9E7828B22F080020A43A8
:1010D0008283A3E7828B4FF6FF73C2F30E0203EA0B
:1010E00001211143818399E7028C22F002020A4315
:1010F000028493E7028C22F008020A4302848DE7FF
:10110000028C4FF6FF7322F0200203EA0111114313
:10111000018483E7028C4FF6FF7322F0800203EA1A
:1011200001111143018479E7028C4FF6FF7322F419
:10113000007203EA0121114301846FE7028C4FF62C
:10114000FF7322F4006203EA01211143018465E781
:10115000028C4FF6FF7322F4005203EA013111436F
:1011600001845BE710B50123048C8B409C4304840D
:10117000038C8A401343038410BD10B50423048CF0
:101180008B409C430484038C8A401343038410BD2A
:1011900030B50124058C00F118038C40A54305846B
:1011A00089B108290FD0091FC1F34E001844016806
:1011B00021F4E041016001684FF6FF7303EA022267
:1011C0001143016030BD03EB5100016821F0700153
:1011D00001600168F4E70029018802D041F00201B2
:1011E00001E021F00201018018E70029018802D006
:1011F00041F0040101E021F0040101800EE7002923
:10120000818802D041F0800101E021F080018180DD
:1012100004E7028822F00802028002880A43028062
:10122000FCE6828822F07002828082880A438280F3
:10123000F4E6028922F00702028102890A43028150
:10124000ECE6028922F08002028102890A430281CF
:10125000E4E68184E2E68185E0E68186DEE60187D8
:10126000DCE68187DAE6A0F84010D7E6028822F4AF
:101270004072028002880A430280CFE6808ECDE66B
:10128000008FCBE6808FC9E6B0F84000C6E6808CC0
:10129000C4E6008DC2E602460020128A0A4200D04F
:1012A0000120BBE6C9430182B8E602460020138A4A
:1012B00092890B4202EA010202D0002A00D00120EA
:1012C000ACE6C9430182A9E6C44910B588420AD1F7
:1012D00001218C032046FFF740FA2046BDE810406C
:1012E0000021FFF73ABABE49884202D101214C04DD
:1012F00010E0BC49884202D101218C040AE0BA49BD
:10130000884202D10121CC0404E0B84988420AD1C4
:1013100001210C052046FFF729FA2046BDE81040C0
:101320000021FFF723BA10BD30B50446008A85B00E
:101330000D464CF6FF710840E98801432182A189DE
:101340004EF6F3100140A8882A8910436A890A439F
:101350001043A081A08A4FF6FF410840A9890143AC
:10136000A1826846FFF79EF99C48844201D1039808
:1013700000E00298A189090400EBC00101EB001014
:10138000296801D5490000E08900B0FBF1F0642232
:10139000B0FBF2F109010B096FF018056B4300EB8C
:1013A0008300A3891D044FF0320306D503EBC00070
:1013B000B0FBF2F000F0070005E003EB0010B0FB1B
:1013C000F2F000F00F000843208105B030BD4FF46B
:1013D0001651016000218180C18001810C2242816F
:1013E0008181704710B5038A4FF2FF0213400A88CB
:1013F0004C8822438C88C9880C4322431A430282BA
:1014000010BD0021018041808180C180704700298A
:10141000818902D041F4005101E021F40051818121
:10142000704710B5C1F3421301F01F040121A14020
:10143000012B07D0022B07D01430002A026805D0F8
:101440000A4304E00C30F8E71030F6E78A43026004
:1014500010BD002A828A01D00A4300E08A438282BA
:101460007047028A22F00F020282028A0A43028235
:101470007047828922F40062828182890A438281D4
:1014800070470029818902D041F0020101E021F07A
:10149000020181817047028A22F020020282028AC0
:1014A0000A43028270470029018A02D041F4804138
:1014B00001E021F4804101827047C1F3080181807D
:1014C00070478088C0F308007047818941F00101AE
:1014D00081817047028BD2B20283028B42EA0121E2
:1014E00001837047028B02F47F420283028B0A431E
:1014F000028370470029818A02D041F0200101E077
:1015000021F02001818270470029818A02D041F0B8
:10151000100101E021F01001818270470029818AC9
:1015200002D041F0080101E021F0080181827047FA
:101530000029818902D041F4004101E0C1F30E018C
:10154000818170470029818A02D041F4006101E065
:1015500021F4006181827047828A22F00402828233
:10156000828A0A43828270470029818A02D041F030
:10157000020101E021F00201818270470246002051
:1015800012880A4200D001207047C9430180704789
:1015900030B501F01F0201240025C1F3421304FA03
:1015A00002F2012B0FD0022B0FD0838A4FEA1121B8
:1015B0000088134204FA01F400EA040001D000B1EB
:1015C0000125284630BD8389F0E7038AEEE70A0A41
:1015D00001219140C943018070470000003801405B
:1015E0000044004000480040004C004000500040D3
:1015F0000CB500214B4801910091026842F4803201
:1016000002604FF4A063026802F400320092019A73
:10161000521C0192009A12B9019A9A42F3D10268BF
:10162000920333D5012100913F490A6842F010022C
:101630000A600A6822F003020A600A6842F00202A5
:101640000A604168416041684160416841F48061DD
:101650004160416821F47C114160416841F4E81126
:101660004160016841F08071016001688901FCD529
:10167000416821F003014160416841F0020141608D
:101680004168C1F381010229FAD10CBD00910CBD62
:10169000244810B5016841F0010101604168234A06
:1016A000114041600168224A11400160016821F443
:1016B00080210160416821F4FE0141604FF41F0167
:1016C0008160FFF795FF1B494FF00060086010BD77
:1016D000144910B54868184A10F00C03174803D095
:1016E000042B01D0082B0AD002604968134AC1F3C9
:1016F0000311121D515C0268CA40026010BD4A68A5
:101700004B6802F470124FF0020413F4803F04EBB4
:10171000924202D04B689B0301D5094B00E0064B77
:101720005A43E1E700100240002002400000FFF8A9
:10173000FFFFF6FE08ED00E000127A001400002022
:1017400000093D00F0B5054687B001210520FEF7F0
:10175000F2FF01218803FEF7EEFFFE4E3046FFF751
:10176000B3FD7015ADF8100018208DF81300FA4F76
:1017700003248DF8124004A93846FEF7ECFD30151D
:10178000ADF8100004208DF8130004A93846FEF7C8
:10179000E2FD25208DF814008DF815408DF81640D7
:1017A00001208DF8170005A8FEF72BFD0020ADF8ED
:1017B0000400ADF80600ADF80800ADF80C000C20F0
:1017C000ADF80A00009569463046FFF7ADFD0122ED
:1017D00040F225513046FFF724FE01213046FFF745
:1017E00016FE40213046FFF7D0FE07B0F0BD70B5C1
:1017F0000546012186B04804FEF7A6FF012104201A
:10180000FEF799FF0420ADF8100018208DF81300A2
:10181000D14E03248DF8124004A93046FEF79BFDFB
:101820000820ADF8100048208DF8130004A93046B8
:10183000FEF791FD26208DF814008DF815408DF8E7
:10184000164001208DF8170005A8FEF7DAFC0020ED
:10185000ADF80400ADF80600ADF80800ADF80C00D6
:101860000C20BE4CADF80A00009569462046FFF7F3
:101870005BFD012240F225512046FFF7D2FD0121F8
:101880002046FFF7C4FD40212046FFF77EFE06B04C
:1018900070BD70B50546012186B08804FEF754FF7F
:1018A00001210820FEF747FF4FF48060ADF81000DB
:1018B00018208DF81300AA4E03248DF8124004A9B5
:1018C0003046FEF748FDF014ADF8100048208DF8C2
:1018D000130004A93046FEF73EFD27208DF81400C2
:1018E0008DF815408DF8164001208DF8170005A8D9
:1018F000FEF787FC0020ADF80400ADF80600ADF857
:101900000800ADF80C000C20964CADF80A000095CC
:1019100069462046FFF708FD012240F22551204686
:10192000FFF77FFD01212046FFF771FD4021204692
:10193000FFF72BFEABE730B50446012185B0C804A4
:10194000FEF702FF01211020FEF7F5FE4FF4806044
:10195000ADF8100018208DF813000320824D8DF88B
:10196000120004A92846FEF7F6FCE814ADF81000B2
:1019700004208DF8130004A92846FEF7ECFC002093
:10198000ADF804000094ADF80600ADF80800ADF81D
:101990000C000C20754CADF80A0069462046FFF794
:1019A000C3FC012240F225512046FFF73AFD0121F8
:1019B0002046FFF72CFD40212046FFF7E6FD05B04D
:1019C00030BD10B50446012186B00805FEF7BCFE07
:1019D00001211020FEF7AFFE4FF48050ADF810004B
:1019E00018208DF8130003208DF8120004A95E481A
:1019F000FEF7B1FC0420ADF810008DF8130004A927
:101A00005B48FEF7A8FC0020ADF804000094ADF898
:101A10000600ADF80800ADF80C000C20554CADF8F0
:101A20000A0069462046FFF77FFC012240F225515B
:101A30002046FFF7F6FC01212046FFF7E8FC402195
:101A40002046FFF7A2FD06B010BD10B50446FFF713
:101A500034FD80212046FFF791FD0028F9D010BD0C
:101A600070B50C46064600250AE03046FFF725FD16
:101A700080213046FFF782FD0028F9D0641C6D1CE0
:101A800021780029F1D1284670BD10B53A4A9188D5
:101A90008029FCD2518853181873491CC81701EBD0
:101AA000506020F07F00081A508072B69088401C69
:101AB0009080012240F227712648FFF7B2FC62B6FF
:101AC000002010BD2C4A50890028FCD0D188501825
:101AD00090F88C00491CCB1701EB536323F07F0374
:101AE000C91AD18072B65189491E518162B67047B8
:101AF00070B5184D40F2255631462846FFF748FD8F
:101B00001D4C012814D12846FFF7DBFCC1B26089C7
:101B1000802809D2401C60812089221882F88C100C
:101B2000401C00F07F00208131462846FFF74FFD22
:101B300040F2277631462846FFF72AFD012823D1B7
:101B4000A288521E21D3A2802688A019017B284694
:101B500014E000000038014000080140004400404B
:101B6000000C01400048004000100140004C0040C3
:101B7000001401400050004048000020FFF765FFBE
:101B8000761C06F07F00208070BD0022314628467A
:101B9000FFF747FC31462846BDE87040FFF717BD08
:101BA00010B5904A91888029FCD251885318187337
:101BB000491CC81701EB506020F07F00081A5080C4
:101BC00072B69088401C9080012240F227718648AE
:101BD000FFF727FC62B6002010BD824A508900281A
:101BE000FCD0D188501890F88C00491CCB1701EB21
:101BF000536323F07F03C91AD18072B65189491EFD
:101C0000518162B6704770B5774D40F22556314626
:101C10002846FFF7BDFC734C012814D12846FFF776
:101C200050FCC1B26089802809D2401C60812089A3
:101C3000221882F88C10401C00F07F002081314671
:101C40002846FFF7C4FC40F2277631462846FFF7C6
:101C50009FFC01280DD1A288521E0BD3A28026889A
:101C6000A019017B2846FFF7F0FE761C06F07F00E6
:101C7000208070BD002231462846FFF7D2FB314656
:101C80002846BDE87040FFF7A2BC10B5574A9188BE
:101C90008029FCD2518853181873491CC81701EBCE
:101CA000506020F07F00081A508072B69088401C67
:101CB0009080012240F227714D48FFF7B2FB62B6D7
:101CC000002010BD494A50890028FCD0D188501806
:101CD00090F88C00491CCB1701EB536323F07F0372
:101CE000C91AD18072B65189491E518162B67047B6
:101CF00070B53F4D40F2255631462846FFF748FC67
:101D00003A4C012814D12846FFF7DBFBC1B26089A9
:101D1000802809D2401C60812089221882F88C100A
:101D2000401C00F07F00208131462846FFF74FFC21
:101D300040F2277631462846FFF72AFC01280DD1CC
:101D4000A288521E0BD3A2802688A019017B2846A8
:101D5000FFF77BFE761C06F07F00208070BD00221E
:101D600031462846FFF75DFB31462846BDE8704006
:101D7000FFF72DBC70B51F4C40F225552946204673
:101D8000FFF706FC18B929462046FFF720FC40F271
:101D9000277529462046FFF7FBFB002805D1294679
:101DA0002046BDE87040FFF712BC70BD70B5124C04
:101DB00040F2255529462046FFF7EAFB18B9294687
:101DC0002046FFF704FC40F2277529462046FFF71E
:101DD000DFFB002805D129462046BDE87040FFF70B
:101DE000F6BB70BD5401002000440040600200209A
:101DF00000480040004C0040005000402DE9F041F8
:101E00000F461D46164604460121FFF7E4F9A78553
:101E1000268500212046FFF7DEF9002D05D120465A
:101E2000BDE8F0410121FFF733B8BDE8F0810121A1
:101E3000FFF711B80021FFF70EB8FEF7CBBC7FB556
:101E40000C4605460121C802FEF77EFCADF80040B5
:101E50000020ADF80450DB4CADF80600ADF80200F0
:101E600069462046FEF74EFD012211462046FFF747
:101E700007F800212046FFF7B8F918208DF80C006C
:101E800001208DF80D0003218DF80E108DF80F0044
:101E900003A8FEF7B6F97FBD7FB50C4605460121C4
:101EA0000846FEF751FCADF800400020ADF80450A4
:101EB000ADF80600ADF802004FF0804469462046B8
:101EC000FEF720FD012211462046FEF7D9FF002132
:101ED0002046FFF78AF91C208DF80C0001208DF8B0
:101EE0000D0003218DF80E108DF80F0003A8FEF7EA
:101EF00088F97FBD7FB50C46054601210220FEF71B
:101F000023FCADF800400020ADF80450AE4CADF815
:101F10000600ADF8020069462046FEF7F3FC0122F8
:101F200011462046FEF7ACFF00212046FFF75DF981
:101F30001D208DF80C0001208DF80D0003218DF877
:101F40000E108DF80F0003A8FEF75BF97FBD7FB57B
:101F50000C46054601210420FEF7F6FBADF80040D3
:101F60000020ADF80450994CADF80600ADF8020021
:101F700069462046FEF7C6FC012211462046FEF7C0
:101F80007FFF00212046FFF730F91E208DF80C005E
:101F900001208DF80D0003218DF80E108DF80F0033
:101FA00003A8FEF72EF97FBD30B50C46054601218A
:101FB00089B0C802FEF7BFFB01210420FEF7BBFB7E
:101FC0004FF48070ADF81C0018208DF81F0003201E
:101FD0008DF81E0007A97E48FEF7BDF9ADF8145034
:101FE000ADF810400024774DADF81640ADF8124022
:101FF00004A92846FEF786FC7020ADF800000120F9
:10200000ADF802000220ADF80800ADF806406946C0
:102010002846FEF7B0FC01212846FEF726FF0821DE
:102020002846FEF7F6FF01212846FEF7CAFF09B051
:1020300030BD00240125214640F28330FFF7B4FF74
:10204000604E4FF41677641C00E0641EA4B2BC42DC
:1020500000D9002534B121463046FFF7FEF8002DA7
:10206000F1D1F2E7012521463046FFF7F6F8EAE71D
:1020700030B589B00C460546FFF73CFF0121022030
:10208000FEF762FB01210920FEF755FB01215148B3
:10209000FEF7F0F92020ADF81C0018208DF81F0085
:1020A00003208DF81E0007A94B48FEF754F9ADF840
:1020B0000450ADF800400024434DADF80640ADF8A3
:1020C000024069462846FEF71DFC7020ADF80C0062
:1020D0000120ADF80E00ADF8144003A92846FEF724
:1020E0007FFC08212846FEF7A5FF01212846FEF7C0
:1020F000B2FE9CE72DE9F0413849154691FBF0F01E
:102100001E46A0F101080022354B2846314600F05A
:102110009DFC04460F460022324B2846314600F013
:102120003CFD22463B4600F0AAFD00F017FE0446A7
:102130001FFA88F140F2CF20FFF79AFFA1B2BDE865
:10214000F0412148FFF78BB82DE9F04105460E46D6
:102150000022234B00F07AFC04460F460022214B5C
:102160002846314600F019FD22463B4600F087FD27
:1021700000F0F4FDBDE8F04181B21348FFF76FB8FD
:102180007047704710B5104C01212046FFF78DF8BD
:10219000002805D02046BDE810400121FFF791B886
:1021A00010BD704701B5009800280AD04CF250329B
:1021B00010460221491C8142FCD30098401E009029
:1021C000F6D108BD002C014000040040000800408A
:1021D0000008014000081A00000C0140A086010020
:1021E0000000F03F008086400E48016841F0FF018A
:1021F0000160016841F0FF010160FDF7A3BF40F8F5
:10220000081C704700F02CB906494FF080501C396B
:102210000860BFF34F8FBFF36F8F7047F4E7FDF790
:10222000A1BF000020ED00E010B50C2000F080F808
:10223000002803D0002101608060406010BD02468C
:10224000884207D0906802E0884203D080689042BC
:10225000FAD10020704700B5030007D031B1FFF775
:10226000EEFF18B1984203D180604060012000BDAC
:10227000D0E901128A60826851600021816041606A
:10228000084600BD10B50C4658B1216849B1FFF7AA
:10229000E2FF002804D10C21206800F091F8002012
:1022A00010BD012010BD10B50C46030003D014B1C1
:1022B000FFF7C5FF08B1012010BD9868984207D10B
:1022C0005968994204D19C605C606360A36004E03B
:1022D00044609868C4E901309C60002010BD000093
:1022E0002DE9F041044615460E46800704D00C2225
:1022F00043A149A000F0ACFAB00700D0012000EBE8
:1023000096026009C4F38201484B01260CE00829BB
:1023100001D10021401C25B11C5C06FA01F73C43A9
:102320001C54491CC9B2521E002AF0D1BDE8F081EC
:102330002DE9F04700233D4E814604460122002747
:102340003D46C3F3471103F01F0006E0401CC0B236
:10235000082802D10020491CC9B202FA00FC16F874
:10236000018008EA0C08B845F0D100EBC10C4FEA37
:102370008C0A0CE0401CC0B26D1C082802D1002061
:10238000491CC9B2B4EB450F01D86C0007E016F840
:1023900001C002FA00F80CEA080CBC45EAD0484635
:1023A000A14503D90AEB04000344C8E70146012212
:1023B0005046FFF795FF1E4901EB0A00BDE8F08784
:1023C0001B4A801A00228BE7002807D0002A05D07C
:1023D000C9B28318521E03F8011CFAD1704710B518
:1023E00000280BD0002909D0002A07D08B188418A8
:1023F00013F8013C04F8013C521EF5E710BD000043
:102400002E2E5C6F735C6F6E656F735C636F7265AD
:102410005C6D656D2E630000617373657274206678
:1024200061696C65643A25732C2564006C2B00206F
:102430006C03002070B50C4682B178B174B1A04233
:1024400001D1002070BD15461146FFF704FF28B9E1
:1024500029462046FFF727FF0028F3D0012070BD52
:1024600070B57A4D0124E9682868A8B1A1B1096066
:10247000FFF719FF00280ED1E9680220487128688B
:10248000416809680E0007D030B1FFF7E4FE00286C
:1024900001D17071EE6070BD204670BD2DE9F04134
:1024A00007461D46164688461420FFF741FF0400E4
:1024B00024D0277184F80D80102E01D8102000E060
:1024C00030462073E5B130462561FFF731FFA0604B
:1024D000002813D029462060FFF791FE022060718A
:1024E0005A4805680C20FFF723FF010005D025B1ED
:1024F00028460C60FFF7D7FE28B10020BDE8F08128
:1025000000202061F9E72046F8E770B5040010D0FC
:102510004E4DE868844207D1D5E900012246FFF715
:1025200089FF30B9FFF770FE2146286800F082F875
:1025300008B1012070BDD5E900012246BDE8704018
:1025400078E770B5040010D0404DE868844201D1AE
:10255000002070BD2146286800F06CF80028F8D0F3
:102560002146686800F066F808B1012070BDD5E921
:1025700000102246BDE870405CE770B5050015D03C
:10258000324CE068854207D12A46A1682068FFF7EF
:1025900051FF58B9FFF738FE2946206800F04AF885
:1025A00030B12946606800F045F828B1012070BDBF
:1025B0002A46A168206802E0D4E901012A46BDE864
:1025C000704037E738B5214C0020A168009111B167
:1025D0008968009108E0012038BD69461046FFF780
:1025E00051FE0028F8D10099A2689142F5D138BD7A
:1025F000FFF7E8FFFCE710B5FFF716FE134C20606D
:10260000FFF712FE6060FFF70FFEA060216869B15E
:10261000616859B150B1AFF227030021202208466A
:10262000FFF73CFF2061E060002010BD012010BDDD
:10263000FFF7DABD10B539B130B10C46FFF7FFFD39
:10264000A04201D1002010BD012010BD28000020B3
:1026500010B5FFF7D0FFBDE81040FFF7E9BF00005D
:1026600010B504460A2802D10D20FFF7F9FFEE4904
:102670004A681AB102F8014B4A6010BD0968002986
:10268000FBD02046BDE81040084710B5044602E0E4
:10269000641CFFF7E5FF20780028F9D110BD70B564
:1026A000E14D0C462E68286002E0641CFFF7D8FF5D
:1026B00020780028F9D12E6070BD2DE9FF5F8A4691
:1026C0000546E94615F8010B00286FD0252802D0F1
:1026D000FFF7C6FFF6E715F8010B4FF000083028AA
:1026E00002D02D2802D005E0012000E00220804623
:1026F00015F8010B002606E006EB860100EB41060B
:1027000015F8010B303EA0F130010929F4D96C28ED
:1027100001D04C2803D115F8010B48F0040800281B
:1027200044D00246612801D3203AD2B24F2A3ED08B
:1027300006DC422A38D0432A33D0442AC8D138E0B4
:10274000532A0FD0552A34D0582AC1D15FF0100334
:102750005FEA487101D4442A2DD05AF8041B442A58
:102760002BD02FE05AF8047B002400E0641C385D75
:102770000028FBD102E02020FFF772FF5FEA88709B
:1027800003D42046641CB042F5D33846FFF77DFFE2
:1027900002E02020FFF764FF2046641CB04291D283
:1027A000F7E71AF8040B93E70223D1E74EE008237A
:1027B000CEE70A23CCE75AF8041B002902DA494283
:1027C00048F0080800244F46B1FBF3F203FB121255
:1027D000B1FBF3F1D2B2092A05D9782816D04FF00F
:1027E000070C6244D2B230323A55641C09B1102C45
:1027F000EAD35FEA087003D52D2009F80400641CB1
:1028000027465FEAC87004D0302003E04FF0270C61
:10281000E7E72020834602E05846FFF721FF5FEA02
:10282000887003D438467F1CB042F5D3641E19F873
:102830000400FFF715FF002CF8D102E02020FFF77D
:102840000FFF38467F1CB042A9D2F7E7BDE8FF9FD3
:102850000FB410B503A90298FFF72FFF10BC5DF865
:1028600014FB0FB410B5704C04A960600398FFF717
:1028700024FF6168002008706060EFE70FB470B556
:10288000694C06A9256820600598FFF716FF2560AA
:1028900070BC5DF814FB70B504461E46154663A077
:1028A000FFF7D6FF012E04D0022E1DD0042E29D111
:1028B00022E02646002404E0315D5EA0FFF7C8FF59
:1028C000641CAC42F8DB2020FFF7CAFE002408E0BD
:1028D000305DA0F120015E2900D92E20FFF7C0FE57
:1028E000641CAC42F4DB0DE034F8021B53A0FFF78C
:1028F000AFFF6D1EF8D105E002CC52A0FFF7A8FF94
:102900006D1EF9D10D20FFF7ABFEBDE870400A2027
:10291000A6E645488068002800D0004770472DE9AA
:10292000F041414E0746B068002822D000244D1ED9
:10293000B068804700281CD00D2811D0082801D08D
:102940007F2803D114B1C0B2641E06E02028EFDB5B
:10295000AC42EDDAC0B23855641CFFF781FEE7E700
:10296000002038550D20FFF77BFE0A20FFF778FE88
:102970000120BDE8F08170B52B4C0B461146A568CF
:10298000A0601846FFF7CBFFA56070BD30B50025ED
:102990000D60036801E05B1C03601A78202AFAD0FE
:1029A0002D2A03D101255A1C02605A78302A06D0FC
:1029B000A2F130030A2B29D20A2300242EE0046856
:1029C000641C04602278622A07D0782A03D0202A67
:1029D00008D8012030BD102300E00223641C0460ED
:1029E0002278EAE7A2F130030A2B0FD20823E4E7AA
:1029F000612A01D3203AD2B2303AD2B2112A03D39B
:102A0000D21FD2B2092A01D99A4201D3002030BD87
:102A100004FB03240268521C02601278202AE7D8C3
:102A200005B164420C60D4E73C0000202530386CCE
:102A3000583A00002025303258000000202530345C
:102A400058000000202530384C5800002DE9FE4F7A
:102A5000804681EA0300C00F0C46009021F000413F
:102A600023F00045B8EB0200A94105D240462146BB
:102A700090461C460B46024623F00040104347D0C8
:102A8000270DC7F30A00C3F30A510290401A0190C0
:102A900040286BDAC3F3130040F4801B0098924681
:102AA00020B10023D2EB030A63EB0B0B01985946CC
:102AB000C0F14002504600F070F906460D465046FF
:102AC0005946019A00F088F910EB08006141002492
:102AD00087EA115284EAE7731A4340D0009A62B33E
:102AE000019A012A4FEA075215DC001B61EB020133
:102AF0004FF0004202EA0752CDE90042001C41F5C6
:102B0000801132462B4600F088F903B0BDE8F08F03
:102B100040462146F9E7001B61EB0201001C41F52C
:102B2000801300185B412018A2F5001747EB030142
:102B300040EAD570B6196D4111E06D084FEA3606CE
:102B400045EAC0754FEA0752001B61EB0201001C09
:102B500041F5801149084FEA3000001951413246D1
:102B60002B4603B0BDE8F04F00F048B900980122B1
:102B700040000023D0EB020263EBE0730098214693
:102B80004FEAE074B8EB000061EB0401E9E783F081
:102B900000435BE781F0004158E72DE9FE4F81EAF1
:102BA000030404F0004421F0004100944FF0000BB6
:102BB00023F0004350EA01045ED052EA03045BD0E4
:102BC000C3F30A54C1F30A552C44A4F2F33401941C
:102BD000A0FB0254C1F3130141F48011C3F31303AA
:102BE00043F4801301FB024400FB034E840A970A5E
:102BF00044EA815447EA8357A4FB076802958D0A8B
:102C000005FB07854FEA932C04FB0C542705029D16
:102C10004FEA065847EA1637B5EB08056EEB070C86
:102C2000870E920E47EA811742EA8312A7FB020140
:102C3000B6EB0B0164EB00042B0D43EA0C335E187A
:102C400044EB1C50DA465146E7FB0201C5F313047E
:102C50004FEA0B3343EA14534FEA0432019C43EA30
:102C60000603A4F10C040294009CCDE900B400F02A
:102C7000D4F803B0BDE8F08F00200146F9E72DE954
:102C8000F04D81EA030404F0004B21F000451446A6
:102C90004FF0000A23F0004150EA050220D054EA28
:102CA00001021DD0C5F30A570246C5F31303C1F351
:102CB0001300C1F30A5640F4801543F48013A7EBC8
:102CC0000608101BD64608F2FD3873EB050002D348
:102CD00008F1010801E092185B41B8F1000F03DA36
:102CE00000200146BDE8F08D00204FF4801106461B
:102CF00084460EE0171B73EB050705D3121B63EB2D
:102D0000050306434CEA010C49084FEA30009218CB
:102D10005B4150EA0107EDD152EA030012D082EA8A
:102D2000040083EA0501084305D0101BAB4106D21D
:102D30000122002306E000224FF0004302E06FF082
:102D4000010253101AEB06004CEB085110EB0A007D
:102D500041EB0B01BDE8F04D00F050B870B5C1F388
:102D60000A5201F000450024C1F3130140F2FF3381
:102D700041F480119A4201DA002070BD40F23343E1
:102D80009A42A2F2334203DC524200F015F800E00E
:102D900090402C43F1D0404270BD202A04DB203A01
:102DA00000FA02F1002070479140C2F1200320FA9E
:102DB00003F3194390407047202A04DB203A21FA9C
:102DC00002F00021704721FA02F3D040C2F1200244
:102DD0009140084319467047202A06DBCB17203A5A
:102DE00041FA02F043EAE07306E041FA02F3D04010
:102DF000C2F12002914008431946704710B5141ED5
:102E000073F1000408DA401C41F1000192185B41A3
:102E10001A4301D120F0010010BD2DE9F04D92467A
:102E20009B4611B1B1FA81F202E0B0FA80F2203291
:102E30009046FFF7B2FF04460F4640EA0A0041EA17
:102E40000B0153465A46084313D0114653EA01007A
:102E500019D0C8F140025046FFF7AEFF05460E46B6
:102E6000504659464246FFF798FF084305D00120D7
:102E700004E020463946BDE8F08D0020054346EACF
:102E8000E0762C4337430A986305E40AA0EB080078
:102E90000022FD0A44EA47540A3002D500200146C8
:102EA000E9E7010510196941DDE9084500196941A3
:102EB000BDE8F04DA2E70000064C074D06E0E068D3
:102EC00040F0010394E8070098471034AC42F6D371
:102ED000FDF732F9FC2E00081C2F000802E008C89C
:102EE000121F08C1002AFAD170477047002001E084
:102EF00001C1121F002AFBD1704700001C2F0008DF
:102F00000000002048000000DC2E0008642F0008AC
:102F100048000020682E0000EC2E0008020406087D
:102F2000000000000102030401020304060708096F
:102F300000A24A0400000000000000000102030497
:102F40000607080900000000000000000000000063
:102F50000000000000000000000000000000000071
:042F6000000000006D
:0400000508000131BD
:00000001FF
