:020000040800F2
:1000000000080020E9010008691500086B150008C8
:100010006D1500086F15000871150008000000003C
:10002000000000000000000000000000490100087E
:1000300073150008000000008D010008E158000859
:1000400067510008030200080302000803020008C9
:100050000302000803020008394800086548000848
:1000600091480008BD480008E9480008934D000881
:10007000CD4D0008094E00084F4E0008954E00086F
:10008000DB4E00081F4F00080302000803020008AF
:10009000030200080302000803020008F1660108D9
:1000A000030200080302000803020008030200081C
:1000B000594300085B430008794300083B380008B7
:1000C000E73800080302000803020008F73B0008B5
:1000D00003020008BB2F0008CF300008BD31000824
:1000E0001549000803020008030200080302000883
:1000F00003020008030200080302000803020008CC
:1001000003020008030200087B4300080302000802
:10011000AB3200089D330008014400082744000862
:10012000654F0008A74F0008ED4F00082F5000084A
:10013000DFF810D018F0CAFC18F0D2F900480047D8
:100140003157000800080020224B19680868B0E801
:10015000F00F80F30988BFF36F8F4FF0000080F33A
:1001600011884EF00D0E7047000000000648006830
:10017000006880F3088862B661B6BFF34F8FBFF3A3
:100180006F8F00DF00BF00BF08ED00E0EFF30980D4
:10019000BFF36F8F0F4B1A6820E9F00F106008B59E
:1001A0004FF0500080F31188BFF34F8FBFF36F8F74
:1001B00006F059FD4FF0000080F31188BDE80840BB
:1001C00019680868B0E8F00F80F30988BFF36F8FF3
:1001D000704700BFC8000068EFF30580704700005B
:1001E000EFF3148070470000064880470648004738
:1001F000FEE7FEE7FEE7FEE7FEE7FEE7FEE7FEE7D7
:10020000FEE7FEE7BD2A00083101000830B40446CD
:100210000068056803698D420DD00AE01D688D42B3
:1002200006D163609968002908D030BC10460847A1
:100230001B699842F2D160608168F4E730BC704776
:100240004068704730B44368DC688C42F6D1196965
:10025000416089680029F1D030BC10460847EDE7BD
:10026000016011681A46D1E770B51F4C0023221DAA
:10027000206811464569A8472068406841681BA06E
:1002800016F095FB002208212068FFF7DBFF2068AD
:100290001AA1406842681EA016F089FB00220221C4
:1002A0002068FFF7CFFF206820A14068426818A0AF
:1002B00016F07DFB002204212068FFF7C3FF2068B1
:1002C0001CA14068426812A016F071FB00220121B7
:1002D0002068FFF7B7FF20681BA140684268BDE8AF
:1002E00070400BA016F063BB3C000068B5B1C7B00E
:1002F000D7B4CCAC3A25730D0A000000756E737448
:1003000061626C655F6C6F775F6C6F7600000000F8
:10031000B7A2C9FACAC2BCFE25732CB5B1C7B0D703
:10032000B4CCAC3A25730D0A000000006C6F775F07
:10033000766F6C00756E737461626C655F68696777
:10034000685F6C6F76000000686967685F766F6C45
:10035000000000002849084328490860704770B52C
:100360000F23C47801780122F4B1244C2468457825
:1003700004F4E064C4F5E064240AC4F10406E34034
:100380008478B5401C402C4301F1E021230181F821
:100390000034007800F01F018A404009800000F11D
:1003A000E020C0F8002170BD01F01F008240480924
:1003B000800000F1E020C0F8802170BD104A11409B
:1003C00001430E48001F016070470C4A121D0029AE
:1003D000116801D0014300E08143116070474FF084
:1003E000E0210428086903D020F004000861704768
:1003F00040F00400FAE700000000FA050CED00E010
:1004000080FFFF1F0E490120886070470C4908607B
:100410000868704710B50022094B03E050F82240ED
:100420001C60521C8A42F9D3186810BD0448006849
:100430007047034908717047014800797047000010
:100440000030024001684FF6FE7211400160002149
:10045000016041608160C1606A496A4A083990421E
:1004600003D1486840F00F0006E0664A143290421B
:1004700004D1486840F0F00048607047614A283273
:10048000904203D1486840F47060F5E75D4A3C3221
:10049000904203D1486840F47040EDE7594A503229
:1004A000904203D1486840F47020E5E7554A643231
:1004B000904203D1486840F47000DDE7514A783239
:1004C000904203D1486840F07060D5E74E4A111F52
:1004D000904203D1086840F00F0006E04A4A143207
:1004E000904204D1086840F0F00008607047464A26
:1004F0002832904203D1086840F47060F5E7424A20
:100500003C32904203D1086840F47040EDE73E4A27
:1005100050329042EAD1086840F47020E5E730B5E7
:10052000036847F6F07293430C6A8A682243D1E964
:1005300004452C4322438C692243CC6922434C6AF4
:1005400022438C6A22431A430260CA6842600A68E6
:1005500082604968C16030BD0021016041608160F6
:10056000C160016141618161C16101624162816279
:1005700070470029016802D041F0010102E04FF606
:10058000FE72114001607047002A026801D00A43E0
:1005900000E08A430260704741607047406880B263
:1005A000704701460020CA0002D5174A083A01E008
:1005B000144A083A12680A4200D001207047C1006C
:1005C00003D51149091F086070470E490839486072
:1005D000704701460020CA0002D50B4A083A01E0E4
:1005E000084A083A12680A4200D001207047C10048
:1005F00003D50549091F086070470249083948605A
:1006000070470000080002400804024037490020FB
:100610000860091D0860091D0860091D086033494C
:10062000334814310860704730B530498379026827
:1006300053B30B6893430B600A1D13680468A3430C
:10064000136002790A441368046823431360274A3D
:10065000083213680468A3431360131D1C680568FF
:10066000AC431C604479102C05D021440A68006812
:1006700002430A6030BD11680468214311601968A3
:1006800000680143196030BD007908440168914356
:10069000016030BD0021016001710C224271817145
:1006A0007047124910310A6802430A6070470146D8
:1006B0000E4A0020143212680A4200D0012070470E
:1006C0000A49143108607047084A01460020126840
:1006D000064B0A4014331B680B4202D0002A00D09C
:1006E000012070470149143108607047000401403F
:1006F000FFFF0F00FC4A116801F03801014311604F
:100700007047F9490A6822F008020A600A68024341
:100710000A607047F4490A6822F010020A600A6809
:1007200002430A607047F048F0494160F049416077
:100730007047ED48ED494160ED4941607047EA4836
:10074000016941F0800101617047E748016941F0AA
:10075000800101617047E4490420CA68D20701D0D2
:1007600001207047CA68520701D502207047C96846
:10077000C906FBD50320704700B50346FFF7EBFF22
:1007800003E000BFFFF7E7FF5B1E012803D0002B4B
:1007900000D1052000BD002BF4D1FAE770B5054665
:1007A0004FF430263046FFF7E7FF042811D1CE4C36
:1007B000206940F0020020616561206940F040003E
:1007C00020613046FFF7D8FF216941F6FD721140E4
:1007D000216170BD30B54FF430252846FFF7CCFFBE
:1007E000042810D1C04C206940F004002061206929
:1007F00040F0400020612846FFF7BEFF216941F626
:10080000FB721140216130BD00B50346FFF7A3FF25
:1008100003E000BFFFF79FFF5B1E012803D0002B02
:1008200000D1052000BD002BF4D1FAE730B54FF41C
:1008300030252846FFF7E8FF042810D1AA4C20698C
:1008400040F004002061206940F04000206128460B
:10085000FFF7DAFF216941F6FB721140216130BDDB
:10086000A1490020C969890700D50120704770B5EA
:10087000A525FFF7F5FF00B100254FF430263046DF
:10088000FFF77AFF042827D1974C9848A060984832
:10089000A060206940F020002061206940F0400005
:1008A00020613046FFF768FF41F6EF7604280ED14D
:1008B000206941F6DF7108402061206940F0100096
:1008C00020618C4805804FF40050FFF755FF052844
:1008D00002D021693140216170BDF8B50646002083
:1008E0004FF4005C00900D466046FFF745FF04287A
:1008F00016D17D4C206940F00100206135806046B2
:10090000FFF73AFF41F6FE77042806D1B61C280C03
:10091000009630806046FFF72FFF21693940216142
:10092000F8BDF0B506464FF400570D463846FFF7C0
:1009300023FF04280CD16C4C206940F00100206199
:1009400035803846FFF718FF2169BA1E1140216132
:10095000F0BDF0B506464FF400570D463846FFF798
:100960000BFF042813D1604C6048A0606048A06071
:10097000206940F01000206135803846FFF7FCFE0A
:10098000052804D0216941F6EF7211402161F0BDC4
:100990002DE9F041C04300F0FF0CC0F30727C0F37E
:1009A0000746050E4FF400584046FFF7E5FE0428C1
:1009B00037D14D4C4D49A1604D49A160216941F0AD
:1009C00010012161BCF1FF0F08D04A480830A0F89F
:1009D00000C04046FFF7D0FE04281BD1FF2F07D0F0
:1009E00044480A3007804046FFF7C6FE042811D16C
:1009F000FF2E07D03F480C3006804046FFF7BCFE74
:100A0000042807D1FF2D07D03A480E300580404614
:100A1000FFF7B2FE052804D0216941F6EF721140BC
:100A20002161BDE8F08170B505464FF430263046AF
:100A3000FFF7A2FE042818D12B4C2C48A0602C48AC
:100A4000A060206940F020002061206940F0400053
:100A500020613046FFF790FE41F6DF71042805D093
:100A6000052802D022690A40226170BD2069084031
:100A70002061206940F0100020611E480DB1002166
:100A800000E0A52101803046FFF776FE0528ECD076
:100A9000216941F6EF721140216170BDF0B5124C31
:100AA0000746124816460D46A0601148A0604FF454
:100AB000005C6046FFF760FE042814D1206940F016
:100AC0001000206135430B493D43891C45F0F80077
:100AD00008806046FFF750FE052804D0216941F6E2
:100AE000EF7211402161F0BD0020024023016745F3
:100AF000AB89EFCD00F8FF1F1C48C0698008704724
:100B00001A48006A7047194900200968890600D50B
:100B100001207047154A0029116901D0014300E006
:100B200081431161704701460020104A012903D01A
:100B3000D2680A4203D17047D169C907FBD00120AE
:100B400070470A49C860704708490420CA68D2073C
:100B500001D001207047CA68520701D502207047B2
:100B6000C968C906FBD50320704700000020024079
:100B70008100A1F1C04148B143F2D200C1F80000A8
:100B80006FF070404860C1F8040170474FF0204298
:100B900043F2DB001060F3E710B5182440234FF058
:100BA00020414FF0FC32102805D041F8804F4B60B7
:100BB0008A60CA6010BD0C664B668A66CA6610BD44
:100BC0004FF02040182140F8A01F002141604FF055
:100BD000FC318160C1600161704710B5D0E901123C
:100BE0001143D0E903231A43114342691143826937
:100BF0001143C2691143026A1143426A1143826A76
:100C00001143C26A1143026B114302689200A2F1C0
:100C1000C04211608168082907D101688900A1F1EB
:100C2000C0410A6842F040020A60416BD1E90023EA
:100C300042EA03128B688C891B0243EA04431A437D
:100C40000B8A42EA03520B7D896942EA03620A4336
:100C500001688900A1F1C0414A60C16AB1F5804FC5
:100C600008D000686FF070418000A0F1C040C0F86B
:100C7000041110BD816BD1E9002342EA03128B6895
:100C80000C8A1B0243EA04531A430B7D896942EA2A
:100C9000036200680A438000A0F1C040C0F804214C
:100CA00010BD30B5D0E901121143D0E903231A4336
:100CB0001143426941EA4221826941EA4231C269F3
:100CC00041F00804D2E9001341EA03211389127BA1
:100CD0001B0443EA0262036A1143D3E9002542EA96
:100CE00005221D891B7B2D0445EA03631A43036813
:100CF0004FF02040102B04D040F8804F8160C2603C
:100D000030BD04668166C26630BD10B5D0E9001200
:100D100041EA42228168102343EA41310A434FF0FD
:100D2000204141F8A02FC268D2E9003443EA0423ED
:100D30001489127B240444EA026213438B60026923
:100D4000D2E9003443EA04231489127B240444EAE0
:100D500002621343CB604069D0E9002342EA0322D8
:100D60000389007B1B0443EA006002430A6110BD53
:100D700010B500210222C0E900128160C16001614A
:100D800041618161D202C161C0E908125200C0E92B
:100D90000A210163436B0F221A60436B5A60446B54
:100DA000FF23A360446BE260446B2261446B626189
:100DB000446BA161846B2260846B6260846BA3606E
:100DC000836BDA60836B1A61836B5A61806B81611C
:100DD00010BD10210160002141608160C16001618E
:100DE00041618161C269FC211160C2695160C269BF
:100DF0009160C269D160026A1160026A5160026A40
:100E00009160006AC16070470021016041608160AB
:100E1000C268FC211160C2685160C2689160C268FA
:100E2000D1600269116002695160026991600269D2
:100E3000D1604269116042695160426991604069C4
:100E4000C16070478000A0F1C0400029016802D055
:100E500041F0010101E0644A1140016070474FF028
:100E6000204251B1102804D052F8800F40F0040005
:100E70000AE0106E40F004000AE05B49C91E102829
:100E800004D052F8800F084010607047106E084080
:100E9000106670474FF02041002851F8A00F02D093
:100EA00040F0040002E0504AD21E10400860704733
:100EB0004FF0204251B1102804D052F8800F40F07A
:100EC00040000AE0106E40F040000AE046493F3919
:100ED000102804D052F8800F084010607047106E40
:100EE0000840106670474FF02041102802D0D1F81A
:100EF00094007047486F704710B54FF480744FF0FE
:100F0000204372B1102804D0A04205D153F8840FB9
:100F100004E0586E08430DE053F8A40F084318602E
:100F200010BD102804D0A04206D153F8840F05E06C
:100F3000586E8843586610BD53F8A40F8843EEE7F7
:100F4000034600204FF02042102B08D0B3F5807FDD
:100F500007D0D2F8A4200A4200D001207047526E78
:100F6000F9E7D2F88420F6E74FF02042102807D0A6
:100F7000B0F5807F08D052F8A40F88431060704706
:100F8000506E88435066704752F8840FF5E7034669
:100F900000204FF02042102B0CD0B3F5807F0BD0F7
:100FA000D2F8A4200A4202EAD10102D0002900D0DE
:100FB00001207047526EF5E7D2F88420F2E74FF037
:100FC0002042102808D0B0F5807F0AD052F8A40F34
:100FD00020EAD10010607047506E20EAD1005066C0
:100FE000704752F8840FF3E7FEFF0F00914910B5E8
:100FF000884206D10121042000F04DFC002104208C
:101000003BE08D49884206D10121082000F043FCD5
:101010000021082031E08949884206D101211020B1
:1010200000F039FC0021102027E08549884206D1D4
:101030000121202000F02FFC002120201DE081490B
:10104000884206D10121402000F025FC00214020EB
:1010500013E07D49884206D10121802000F01BFC6D
:101060000021802009E0794988420AD184150121B4
:10107000204600F010FC00212046BDE8104000F0A2
:101080000ABC10BD10B50121084600F004FC002187
:10109000BDE81040012000F0FEBBF0B5CA78002585
:1010A00002F00F03D20601D58A7813430A784FF075
:1010B0000F0E12F0FF0F4FF001021DD0D0F80040CC
:1010C0000F8802FA05F63740B74211D14FEA850C76
:1010D0000EFA0CF724EA070703FA0CF43C43CF7826
:1010E000282F02D0482F02D002E0466100E00661BE
:1010F0006D1C082DE4D304600C88FF2C1ED94468B5
:101100005FF0000606F1080702FA07F50F882F4086
:10111000AF420FD14FEA860C0EFA0CF7BC4303FA2C
:101120000CF73C43CF78282F00D14561CF78482F6A
:1011300000D10561761C082EE4D34460F0BD4FF663
:10114000FF710180022181700421C1707047024645
:10115000002092680A4200D001207047806880B267
:10116000704702460020D2680A4200D00120704732
:10117000C06880B2704701617047416170470AB131
:101180000161704741617047C160704741F480322E
:101190008261816182618169806970472C4B10B5E1
:1011A0001A684FF68074224042EA00100843186023
:1011B00010BD2849C8617047F0B5254C002801DAF8
:1011C000E36900E06368420D120185B2C0F3015784
:1011D0009540C0F30346032F05D0C2020AD503226F
:1011E000B240934307E023F07062636823F07063BA
:1011F000636002E0AB4343F0706201B12A43002810
:1012000001DAE261F0BD6260F0BD10B58A0721F03D
:1012100003040F49130F21440F228C689A40944312
:101220008C608A68984002438A6010BD0949C1F801
:10123000DC00704700080140000C01400010014034
:101240000014014000180140001C01400020014032
:101250000000014000002042C04910B588424FF014
:10126000010101D14C0501E04FF48004204600F05B
:101270001BFB2046BDE81040002100F015BB70B5F7
:101280000446808886B00D4620F03F06684600F090
:10129000A7FAB3490298B0FBF1F189B20E43A680D8
:1012A000228822F001022280AE4B2A689A421CD882
:1012B0005200B0FBF2F080B2042800D20420491C96
:1012C0002184A083208840F00100208021884FF6EF
:1012D000F5300140A8886A89104308432080A88916
:1012E00029890843208106B070BDEB88A3F53F46ED
:1012F000FF3E0BD002EBC20303EB0212B0FBF2F095
:1013000080B240F48040020506D007E002EB4202C2
:10131000B0FBF2F080B2F6E740F001004FF49672B5
:1013200051434FF47A72B1FBF2F140F40040C6E74A
:1013300041F288310160002181804BF6FF72C2804A
:10134000018141814FF480418181704700290188EA
:1013500002D041F0010101E021F00101018070475C
:101360000029818802D041F4006101E021F400618C
:10137000818070470029818802D041F4805101E0CA
:1013800021F48051818070470029018802D041F406
:10139000807101E021F4807101807047002901888B
:1013A00002D041F4007101E021F400710180704726
:1013B0000029018802D041F4806101E021F48061BC
:1013C00001807047828901F0FE0122F0FE02114384
:1013D000818170470029818902D041F0010101E03B
:1013E00021F00101818170470029018802D041F07C
:1013F000400101E021F0400101807047002A82880D
:1014000001D00A4300E08A4382807047018270471E
:10141000008AC0B2704712B141F0010101E001F051
:10142000FE010182704708B508440090008808BD9D
:101430000029018802D041F4004101E0C1F30E010E
:1014400001807047B1F5005F018803D021F400519D
:101450000180704741F40051FAE70029018802D069
:1014600041F4805101E021F4805101807047B1F5D1
:10147000006F018803D021F400610180704741F4BE
:101480000061FAE70029018802D041F0200101E063
:1014900021F0200101807047008B000A704700296D
:1014A000018802D041F0100101E021F0100101801B
:1014B00070470029018803D021F080010180704726
:1014C00041F08001FAE7B1F5804F818B02D021F421
:1014D000804101E041F48041818370470246002051
:1014E000938A128B43EA024323F07F42914300D157
:1014F00001207047818A008B41EA004121F07F4042
:1015000070470CB50246002000920A0F21F07F417F
:10151000019202D0009A143202E0009A090C1832AB
:10152000009212680A4200D001200CBDC94381829A
:10153000704710B5034600209A884FF4E06404EA2F
:1015400011449B8A224021F07F410B4202D0002AA5
:1015500000D0012010BDC943818270470054004073
:1015600040420F00A08601007047FEE7FEE7FEE75D
:10157000FEE770470D49086070470C4948607047A6
:101580000A498860704709494AF6AA2008607047EE
:1015900006494CF6CC4008607047044A01460020DA
:1015A000D2680A4200D0012070470000003000409D
:1015B00010B501210C07204600F076F92046BDE861
:1015C0001040002100F070B921490862704720499D
:1015D000086170471F4A116821F0E0010143116062
:1015E00070471B49C1F8A00070471A4B1A6822F0D7
:1015F000030202431A601848026842F004020260C3
:10160000012905D020BF016821F004010160704765
:1016100030BFF8E70F48016841F00401016001683C
:1016200041F0020101600C48016841F004010160D1
:1016300030BF7047074A0146002052680A4200D076
:101640000120704703490A6842EA80000860704739
:1016500000000E420070004010ED00E0A448016858
:1016600041F0010101604168A24A114041600168F6
:10167000A14A11400160016821F4802101604168A4
:1016800021F4FE0141604FF41F01816070479849C9
:101690000A6822F480320A600A6822F480220A6012
:1016A000B0F5803F07D0B0F5802F03D1086840F433
:1016B000A02008607047086840F48030F9E70246CF
:1016C000002053098A49012B0AD0022B0AD0496A0B
:1016D00002F01F02012393400B4200D0012070470B
:1016E0000968F5E7096AF3E718B500204FF4A0642C
:1016F00000903120FFF7E3FF0099491C0091A142BF
:1017000001D00028F5D03120FFF7D9FF002800D004
:10171000012018BD76490A6822F0F80242EAC000AA
:1017200008607047754908607047714A53680843FC
:1017300023F47C1318435060704770490866704763
:101740006B4A516821F003010143516070476848BA
:10175000406800F00C007047654A516821F0F001C4
:10176000014351607047624A516821F4E0610143CE
:10177000516070475E494A6822F4605242EAC000F4
:10178000486070475A4A0029517A01D0014300E06D
:101790008143517270475949C1F8D8007047544A83
:1017A000516821F440410143516070475049002283
:1017B00081F8202081F82020012802D0042802D1BD
:1017C000052081F8200070474D490860704748495E
:1017D0000A6A02430A6270474949443908607047FF
:1017E00030B543494A6812F00C03464A03D0042B33
:1017F00001D0082B21D002604A680F23424C03EA33
:101800001212A35C0268DA4042604B68072505EAC1
:101810001323E35C22FA03F383604B6805EAD323C6
:10182000E35CDA40C2604968032303EA9131231F75
:10183000595CB2FBF1F1016130BD4A684B6802F4BA
:1018400070124FF0020413F4803F04EB924202D076
:101850004B689B0301D52D4B00E02A4B5A43CAE746
:10186000234A0029516901D0014300E081435161BD
:1018700070471F4A0029916901D0014300E081436C
:10188000916170471A4A0029D16901D0014300E0F3
:101890008143D1617047164A0029D16801D00143C4
:1018A00000E08143D1607047114A0029116901D0DD
:1018B000014300E0814311617047114940390860DC
:1018C00070470E49C86470470949C8717047084895
:1018D000416A41F0807141627047054A014600202B
:1018E00092680A4200D0012070470149887270470F
:1018F000001002400000FFF8FFFFF6FE0000424229
:101900008004424200127A007000006800093D0025
:10191000994910B588420AD1841401212046FFF765
:10192000BAFF2046BDE810400021FFF7B4BF93493D
:10193000884202D10121041404E0914988420AD16D
:101940000121C4132046FFF7AFFF2046BDE8104039
:101950000021FFF7A9BF10BD30B502884C8802F402
:1019600041530A88CD8822438C882C4322430C891A
:1019700022434C8922438C892243CC8922431A4337
:101980000280828B22F400628283098A018230BD48
:10199000F0B505460C4602200021AA8B85B0012631
:1019A0004FF240031A40AA832884AF8BA268022A10
:1019B00027D0A08800B102266846FFF711FFE18812
:1019C0000098B1F5007F2DD07101B0FBF1F000BFA0
:1019D00000EB8000A1684000B0FBF1F0401D80B238
:1019E0000A21B0FBF1F000F00101401A4FF6FF723E
:1019F000C0F34F0002EA0121821EFE2A01D3022019
:101A00000021E288084302432A8420886188A28951
:101A10000843A18811430843384340F40060A88379
:101A200005B0F0BD000AD3E700210180418081802C
:101A3000C180018141818181C1810721018270477B
:101A40000021018041808180C180022282608181E9
:101A500070470029018802D041F0400101E021F0E7
:101A60004001018070470029818B02D041F48061E0
:101A700001E021F4806181837047090901238B40D3
:101A8000002A828899B201D00A4300E08A4382800A
:101A90007047002A828801D00A4300E08A4382808E
:101AA00070478181704780897047A1F57E42018827
:101AB000FF3A02D041F4807101E021F4807101808D
:101AC00070470029818802D041F0040101E021F033
:101AD000040181807047028822F40062028002883B
:101AE0000A4302807047018841F4805101807047A9
:101AF0000029018802D041F4005101E021F4005195
:101B000001807047012901D0008B7047808A70479F
:101B1000008A7047B1F5804F018803D021F48041DD
:101B20000180704741F48041FAE7024600201289A3
:101B30000A4200D001207047C9430181704710B5A7
:101B400001F00F040122034602FA04F400200909FF
:101B50008A4091B29A88A4B20A401989214202D0DF
:101B6000002A00D0012010BD01F00F020121914098
:101B7000C943018170470000003001400038004037
:101B8000003C0040F94910B5884202D10121C4143B
:101B900086E0B0F1804F09D0F54988420DD101218E
:101BA0000220FFF781FE0021022064E001210846A7
:101BB000FFF77AFE002101205DE0EE49884206D160
:101BC00001210420FFF770FE0021042053E0EA49C0
:101BD000884206D101210820FFF766FE0021082077
:101BE00049E0E649884206D101211020FFF75CFE5A
:101BF000002110203FE0E249884206D10121202047
:101C0000FFF752FE0021202035E0DE49884202D154
:101C10000121441444E0DC49884202D10121CC0472
:101C20003EE0DA49884202D101210C0538E0D8496A
:101C3000884202D101214C0532E0D649884206D1C2
:101C400001214020FFF730FE0021402013E0D2495F
:101C5000884206D101218020FFF726FE0021802046
:101C600009E0CE4988420AD1841501212046FFF7B8
:101C70001BFE00212046BDE81040FFF715BEC849F5
:101C8000884202D101210C040AE0C649884202D1EF
:101C900001214C0404E0C44988420AD101218C048A
:101CA0002046FFF7F8FD2046BDE810400021FFF771
:101CB000F2BD10BD30B50288AC4BB24C98420DD08D
:101CC000A0420BD0B0F1804F08D0A94DA84205D05A
:101CD000A84DA84202D0A84DA84203D122F0700519
:101CE0004A882A43A54DA84206D0A54DA84203D054
:101CF00022F44075CA882A4302808A8882850A882D
:101D0000028598420AD0A04208D0A54A904205D048
:101D1000A44A904202D0A44A904201D1097A018695
:101D20000121818230BD30B5028C22F00102028493
:101D3000028C8388048B22F0020224F073050C8845
:101D40002C430D8915434A882A43884DA8420BD05D
:101D50008C4DA84208D0924DA84205D0914DA84282
:101D600002D0914DA8420DD122F008054A8923F4F2
:101D700040732A4322F004058A882A438D891D4333
:101D8000CB892B4383800483C9888186028430BD3C
:101D900070B5028C22F010020284028C8488038BBE
:101DA0000D8823F4E6464FF6FF7303EA0525354315
:101DB0000E8922F0200203EA061616434A8803EA37
:101DC00002123243694EB04202D06E4EB04215D17B
:101DD00022F080064A8924F4406403EA0212324366
:101DE00022F040068A8803EA021232438E8903EA0F
:101DF00086062643CC8903EA840434438480058321
:101E0000C9880187028470BD70B5028C22F480728B
:101E10000284028C8488838B0D8823F073031D4316
:101E200022F400730E894FF6FF7202EA06261E4363
:101E30004B8802EA032333434C4EB04202D0514E4A
:101E4000B04215D123F400664B8924F4405402EAD1
:101E50000323334323F480668B8802EA032333434E
:101E60008E8902EA06162643CC8902EA041434431A
:101E700084808583C9888187038470BD70B5028C96
:101E800022F480520284048C8288838B0D8823F490
:101E9000E6464FF6FF7303EA0525354324F4005662
:101EA0000C8903EA043434434E8803EA0636264399
:101EB0002E4CA04202D0334CA04205D122F48044E3
:101EC0008A8903EA8212224382808583C988A0F826
:101ED0004010068470BD828B22F440628283828B24
:101EE0004FF6FF7303EA01210A4382837047828B16
:101EF00022F00C028283828B0A4382837047028B1A
:101F000022F440620283028B4FF6FF7303EA012141
:101F10000A4302837047F0B5048C24F01004048453
:101F2000078B048C4FF6FF7527F4734705EA0333DC
:101F30003B4305EA02221A430C4B05EA011698427C
:101F40000ED0104B98420BD0B0F1804F08D0084B08
:101F5000984205D0074B984202D0074B984225D1B2
:101F600024F02001314341F0100124E0002C014015
:101F70000004004000080040000C00400010004039
:101F80000014004000340140004C0140005001406A
:101F90000054014000180040001C00400020004098
:101FA00000400140004401400048014024F0A003EB
:101FB0000B4343F0100102830184F0BD028B22F039
:101FC0000C020283028B0A430283704770B5048CB3
:101FD00024F001040484058B048C4FF6FF7606EA96
:101FE0000313134325F0F305F94A2B4390420ED017
:101FF000F84A90420BD0B0F1804F08D0F64A904298
:1020000005D0F64A904202D0F54A904202D124F01F
:10201000020201E024F00A020A4342F001010383B4
:10202000018470BD2DE9F05F0D4604460888E84F35
:10203000DFF8A0C3DFF8A0834988AA882B894FF076
:10204000804960B3042832D04FF6FF7E082836D08E
:10205000208C9B4620F480502084A38B268C7046D5
:1020600000EA022223F473431A4300EA0B301043C0
:102070000EEA013EBC420BD0644509D04C4507D066
:10208000444505D0D54A944202D0D54B9C4245D117
:1020900026F4005141EA0E0141F4805143E020460C
:1020A000FFF794FFE9882046BDE8F05F86E7204609
:1020B000FFF731FFE9882046BDE8F05F1FE7208C7D
:1020C00020F480702084B4F81CA0208C0EEA031346
:1020D00013432AF0F30A0EEA012B43EA0A03BC4237
:1020E0000BD0644509D04C4507D0444505D0BB4AC8
:1020F000944202D0BA4A944204D120F4007040EADB
:102100000B0002E020F42060084340F48070A383B9
:102110002084E9882046BDE8F05FE8E626F4024224
:102120000A4342F48051A08320462184E988BDE817
:10213000F05FD0E62DE9F0410C46002649880746BD
:10214000012501B90226A288012A00D10225208892
:1021500023890028384610D0FFF7DDFEE188384695
:10216000FFF7CDFE23892A4631463846FFF72EFF7A
:10217000E1883846BDE8F04120E7FFF727FFE18816
:102180003846FFF71BFF23892A4631463846FFF7BA
:10219000C2FEE1883846BDE8F041B0E610B50A88D5
:1021A0004B88CC881A438B8823431A430B891A43E4
:1021B0004B8989891A430A43A0F8442010BD4FF681
:1021C000FF71818000210180C180418001727047D0
:1021D0000021018041808180C18001814181818114
:1021E000C181704700210180418001228280C1802D
:1021F000018170470021018041808180C18001817F
:102200004181818170470029018802D041F001019C
:1022100001E021F0010101807047002930F8441FDE
:1022200002D041F4004101E0C1F30E01018070478A
:10223000002A828901D00A4300E08A4382817047E4
:10224000818270471143A0F848107047002A8289A4
:1022500001D00A4300E08A4382817047018921F05E
:10226000070101817047028922F070020A4302814E
:10227000704700B50346FFF7F6FF188940F00700E6
:10228000188100BD70B516460D46602904464FF012
:10229000010231460AD0FFF799FE29462046FFF792
:1022A000E2FF208940F00700208170BDFFF733FE78
:1022B000F3E730B504894FF6FF7505EA03231343AE
:1022C000E4B20B432343038130BD10B50446FFF74E
:1022D000F0FF208940F07700208110BD10B5044642
:1022E000FFF7E7FF208940F48040208110BD018581
:1022F00082827047028822F070020A43028070478F
:1023000070B50589048B068C25F007050D434FF643
:10231000FC410C4040F201110C434FF6FF7101EA01
:10232000031126F022061143314305810483018401
:1023300070BD028B22F070020A4302837047028B49
:102340004FF6FF7322F4E04203EA012111430183B7
:102350007047828B22F070020A4382837047828B1F
:102360004FF6FF7322F4E04203EA01211143818317
:1023700070470029018802D041F0800101E021F07E
:102380008001018070470029818802D041F004015A
:1023900001E021F00401818070470029818802D08A
:1023A00041F0080101E021F0080181807047002917
:1023B000818802D041F0010101E021F0010181801A
:1023C0007047028B22F008020A4302837047000024
:1023D000002C01400034014000040040000800408F
:1023E000000C0040028B4FF6FF7322F4006203EAF8
:1023F000012111430183E9E7828B22F008020A439D
:102400008283E3E7828B4FF6FF7322F4006203EAD4
:10241000012111438183D9E7028B22F004020A4390
:102420000283D3E7028B4FF6FF7322F4806203EA44
:10243000012111430183C9E7828B22F004020A4380
:102440008283C3E7828B4FF6FF7322F4806203EA34
:10245000012111438183B9E7028B22F080020A43F4
:102460000283B3E7028B4FF6FF73C2F30E0203EA57
:10247000012111430183A9E7828B22F080020A43E4
:102480008283A3E7828B4FF6FF73C2F30E0203EA47
:1024900001211143818399E7028C22F002020A4351
:1024A000028493E7028C22F008020A4302848DE73B
:1024B000028C4FF6FF7322F0200203EA0111114350
:1024C000018483E7028C4FF6FF7322F0800203EA57
:1024D00001111143018479E7028C4FF6FF7322F456
:1024E000007203EA0121114301846FE7028C4FF669
:1024F000FF7322F4006203EA01211143018465E7BE
:10250000028C4FF6FF7322F4005203EA01311143AB
:1025100001845BE710B50123048C8B409C43048449
:10252000038C8A401343038410BD10B50423048C2C
:102530008B409C430484038C8A401343038410BD66
:1025400030B50124058C00F118038C40A5430584A7
:1025500089B108290FD0091FC1F34E001844016842
:1025600021F4E041016001684FF6FF7303EA0222A3
:102570001143016030BD03EB5100016821F070018F
:1025800001600168F4E70029018802D041F00201EE
:1025900001E021F00201018018E70029018802D042
:1025A00041F0040101E021F0040101800EE700295F
:1025B000818802D041F0800101E021F0800181801A
:1025C00004E7028822F00802028002880A4302809F
:1025D000FCE6828822F07002828082880A43828030
:1025E000F4E6028922F00702028102890A4302818D
:1025F000ECE6028922F08002028102890A4302810C
:10260000E4E68184E2E68185E0E68186DEE6018714
:10261000DCE68187DAE6A0F84010D7E6028822F4EB
:102620004072028002880A430280CFE6808ECDE6A7
:10263000008FCBE6808FC9E6B0F84000C6E6808CFC
:10264000C4E6008DC2E602460020128A0A4200D08B
:102650000120BBE6C9430182B8E602460020138A86
:1026600092890B4202EA010202D0002A00D0012026
:10267000ACE6C9430182A9E6C44910B588420AD133
:1026800001218C032046FFF706F92046BDE81040E3
:102690000021FFF700B9BE49884202D101214C0454
:1026A00010E0BC49884202D101218C040AE0BA49F9
:1026B000884202D10121CC0404E0B84988420AD101
:1026C00001210C052046FFF7EFF82046BDE8104039
:1026D0000021FFF7E9B810BD30B50446008A85B087
:1026E0000D464CF6FF710840E98801432182A1891B
:1026F0004EF6F3100140A8882A8910436A890A43DC
:102700001043A081A08A4FF6FF410840A9890143E8
:10271000A1826846FFF764F89C48844201D103987F
:1027200000E00298A189090400EBC00101EB001050
:10273000296801D5490000E08900B0FBF1F064226E
:10274000B0FBF2F109010B096FF018056B4300EBC8
:102750008300A3891D044FF0320306D503EBC000AC
:10276000B0FBF2F000F0070005E003EB0010B0FB57
:10277000F2F000F00F000843208105B030BD4FF4A7
:102780001651016000218180C18001810C224281AB
:102790008181704710B5038A4FF2FF0213400A8807
:1027A0004C8822438C88C9880C4322431A430282F6
:1027B00010BD0021018041808180C18070470029C7
:1027C000818902D041F4005101E021F4005181815E
:1027D000704710B5C1F3421301F01F040121A1405D
:1027E000012B07D0022B07D01430002A026805D035
:1027F0000A4304E00C30F8E71030F6E78A43026041
:1028000010BD002A828A01D00A4300E08A438282F6
:102810007047028A22F00F020282028A0A43028271
:102820007047828922F40062828182890A43828110
:1028300070470029818902D041F0020101E021F0B6
:10284000020181817047028A22F020020282028AFC
:102850000A43028270470029018A02D041F4804174
:1028600001E021F4804101827047C1F308018180B9
:1028700070478088C0F308007047818941F00101EA
:1028800081817047028BD2B20283028B42EA01211E
:1028900001837047028B02F47F420283028B0A435A
:1028A000028370470029818A02D041F0200101E0B3
:1028B00021F02001818270470029818A02D041F0F5
:1028C000100101E021F01001818270470029818A06
:1028D00002D041F0080101E021F008018182704737
:1028E0000029818902D041F4004101E0C1F30E01C9
:1028F000818170470029818A02D041F4006101E0A2
:1029000021F4006181827047828A22F0040282826F
:10291000828A0A43828270470029818A02D041F06C
:10292000020101E021F0020181827047024600208D
:1029300012880A4200D001207047C94301807047C5
:1029400030B501F01F0201240025C1F3421304FA3F
:1029500002F2012B0FD0022B0FD0838A4FEA1121F4
:102960000088134204FA01F400EA040001D000B127
:102970000125284630BD8389F0E7038AEEE70A0A7D
:1029800001219140C9430180704700000038014097
:102990000044004000480040004C0040005000400F
:1029A00010B50121CC022046FEF77EFF2046BDE88F
:1029B00010400021FEF778BF164A116821F4C0715B
:1029C000014311607047134908B50A6800F07F00A1
:1029D00022F07F0210430090086008BD0E490120DC
:1029E000C1F8A40070470B4900F07F00091F086080
:1029F0007047084940F08000091F0860704705488B
:102A0000001D0068C0B2704702490020091D08601F
:102A100070470000042C0040008005420CB50021E6
:102A20005D4801910091026842F4803202604FF4E7
:102A3000A063026802F400320092019A521C0192D3
:102A4000009A12B9019A9A42F3D10268920333D5DF
:102A50000121009151490A6842F010020A600A6897
:102A600022F003020A600A6842F002020A6041682A
:102A7000416041684160416841F480614160416862
:102A800021F47C114160416841F4E8114160016822
:102A900041F08071016001688901FCD5416821F035
:102AA00003014160416841F0020141604168C1F3A6
:102AB00081010229FAD10CBD00910CBD364810B538
:102AC000016841F0010101604168354A11404160EF
:102AD0000168344A11400160016821F480210160DD
:102AE000416821F4FE0141604FF41F0181604FF401
:102AF0008A7141614FF4F07181612C492A48086064
:102B0000091D4FF0BB3008602A4A29491160111D88
:102B100008602A4928480860284A2949121D11607E
:102B200028490860284848604FF0204041F21101D0
:102B3000016151154161FFF771FF24494FF00060B9
:102B4000086010BD144910B54868214A10F00C0304
:102B5000204803D0042B01D0082B0AD0026049681A
:102B60001C4AC1F30311121D515C0268CA40026085
:102B700010BD4A684B6802F470124FF0020413F45F
:102B8000803F04EB924202D04B689B0301D5124B6D
:102B900000E00F4B5A43E1E70010024000200240E2
:102BA0000000FFF8FFFFF6FEBB44BB4400140140E9
:102BB000BB4444B400180140BBBBBB44001C0140F3
:102BC0004444BBBB00200140444B444408ED00E0BA
:102BD00000127A008000006800093D00F0B505464B
:102BE00087B001210520FEF744FE01218803FEF78E
:102BF00040FEFE4E3046FFF73FFD7015ADF8100069
:102C000018208DF81300FA4F03248DF8124004A900
:102C10003846FEF742FA3015ADF8100004208DF862
:102C2000130004A93846FEF738FA25208DF8140061
:102C30008DF815408DF8164001208DF8170005A875
:102C4000FDF78DFB0020ADF80400ADF80600ADF8EF
:102C50000800ADF80C000C20ADF80A00009569469C
:102C60003046FFF739FD012240F225513046FFF78B
:102C7000B0FD01213046FFF7A2FD40213046FFF7AD
:102C80005CFE07B0F0BD70B50546012186B0480472
:102C9000FEF7F8FD01210420FEF7EBFD0420ADF85E
:102CA000100018208DF81300D14E03248DF8124027
:102CB00004A93046FEF7F1F90820ADF810004820CD
:102CC0008DF8130004A93046FEF7E7F926208DF8A9
:102CD00014008DF815408DF8164001208DF817006E
:102CE00005A8FDF73CFB0020ADF80400ADF8060098
:102CF000ADF80800ADF80C000C20BE4CADF80A0091
:102D0000009569462046FFF7E7FC012240F2255175
:102D10002046FFF75EFD01212046FFF750FD4021D0
:102D20002046FFF70AFE06B070BD70B505460121CA
:102D300086B08804FEF7A6FD01210820FEF799FD64
:102D40004FF48060ADF8100018208DF81300AA4EE3
:102D500003248DF8124004A93046FEF79EF9F014C2
:102D6000ADF8100048208DF8130004A93046FEF796
:102D700094F927208DF814008DF815408DF8164031
:102D800001208DF8170005A8FDF7E9FA0020ADF83D
:102D90000400ADF80600ADF80800ADF80C000C20FA
:102DA000964CADF80A00009569462046FFF794FC62
:102DB000012240F225512046FFF70BFD012120465C
:102DC000FFF7FDFC40212046FFF7B7FDABE770B5EC
:102DD0000546012186B0C804FEF754FD01211020EC
:102DE000FEF747FD4FF48060ADF8100018208DF815
:102DF0001300834E03248DF8124004A93046FEF7D9
:102E00004CF9F014ADF8100004208DF8130004A95B
:102E10003046FEF742F934208DF814008DF8154045
:102E20008DF8164001208DF8170005A8FDF797FAD8
:102E30000020ADF80400ADF80600ADF80800ADF8CC
:102E40000C000C206F4CADF80A0000956946204636
:102E5000FFF742FC012240F225512046FFF7B9FC62
:102E600001212046FFF7ABFC40212046FFF765FD1E
:102E700059E730B50546012187B00805FEF702FD88
:102E800001211020FEF7F5FC4FF48050ADF8100042
:102E900018208DF8130003248DF8124004A9584817
:102EA000FEF7FBF80420ADF810008DF8130004A91C
:102EB0005548FEF7F2F835208DF814008DF81540CE
:102EC0008DF8164001208DF8170005A8FDF747FA88
:102ED0000020ADF80400ADF80600ADF80800ADF82C
:102EE0000C000C20494CADF80A00009569462046BC
:102EF000FFF7F2FB012240F225512046FFF769FC63
:102F000001212046FFF75BFC40212046FFF715FD1D
:102F100007B030BD10B50446FFF7A7FC802120465E
:102F2000FFF704FD0028F9D010BD70B50C46064629
:102F300000250AE03046FFF798FC80213046FFF775
:102F4000F5FC0028F9D0641C6D1C21780029F1D112
:102F5000284670BD10B52E4A91888029FCD2518830
:102F600053181873491CC81701EB506020F07F00FC
:102F7000081A508072B69088401C9080012240F25E
:102F800027711A48FFF725FC62B6002010BD204AC1
:102F900050890028FCD0D188501890F88C00491C2A
:102FA000CB1701EB536323F07F03C91AD18072B6AC
:102FB0005189491E518162B6704770B50B4D40F280
:102FC000255631462846FFF7BBFC114C012829D174
:102FD0002846FFF74EFCC1B2608980281ED2401CF3
:102FE00060812089221882F88C1013E0003801409B
:102FF0000008014000440040000C0140004800402F
:1030000000100140004C00400014014000500040FE
:1030100084040068401C00F07F002081314628466F
:10302000FFF7ADFC40F2277631462846FFF788FCD3
:1030300001280DD1A288521E0BD3A2802688A01988
:10304000017B2846FFF766FF761C06F07F00208094
:1030500070BD002231462846FFF7BBFB31462846AB
:10306000BDE87040FFF78BBC10B5EE4A918840294F
:10307000FCD2518853181873491CC81701EB906093
:1030800020F03F00081A508072B69088401C908053
:10309000012240F22771E448FFF79BFB62B6002053
:1030A00010BDE04A50890028FCD0D188501890F813
:1030B0004C00491CCB1701EB936323F03F03C91A63
:1030C000D18072B65189491E518162B6704770B580
:1030D000D54D40F2255631462846FFF731FCD14CFC
:1030E000012814D12846FFF7C4FBC1B260894028EB
:1030F00009D2401C60812089221882F84C10401CA3
:1031000000F03F00208131462846FFF738FC40F2AE
:10311000277631462846FFF713FC01280DD1A288F7
:10312000521E0BD3A2802688A019017B2846FFF7E8
:10313000F1FE761C06F03F00208070BD0022314673
:103140002846FFF746FB31462846BDE87040FFF7AA
:1031500016BCB44A10B58C3291884029FCD25188F3
:1031600053181873491CC81701EB906020F03F00FA
:10317000081A508072B69088401C9080012240F25C
:103180002771AA48FFF725FB62B6002010BDA54AAB
:103190008C3250890028FCD0D188501890F84C000F
:1031A000491CCB1701EB936323F03F03C91AD1806D
:1031B00072B65189491E518162B6704770B59B4DF8
:1031C00040F2255631462846FFF7BAFB954C8C3421
:1031D000012814D12846FFF74CFBC1B26089402872
:1031E00009D2401C60812089221882F84C10401CB2
:1031F00000F03F00208131462846FFF7C0FB40F237
:10320000277631462846FFF79BFB01280DD1A2887F
:10321000521E0BD3A2802688A019017B2846FFF7F7
:1032200079FE761C06F03F00208070BD00223146FA
:103230002846FFF7CEFA31462846BDE87040FFF732
:103240009EBB10B57A4A91884029FCD25188531808
:103250001873491CC81701EB906020F03F00081A52
:10326000508072B69088401C9080012240F22771F5
:103270007048FFF7AEFA62B6002010BD6C4A508964
:103280000028FCD0D188501890F84C00491CCB176E
:1032900001EB936323F03F03C91AD18072B6664AEB
:1032A0005189491E518162B6704770B5614D40F237
:1032B000255631462846FFF743FB5D4C012814D1C3
:1032C0002846FFF7D6FAC1B26089402809D2401CCF
:1032D00060812089221882F84C10401C00F03F00C9
:1032E000208131462846FFF74AFB40F227763146D7
:1032F0002846FFF725FB01280ED1A288521E0CD3C9
:103300004D4882802688A019017B2846FFF702FEDF
:10331000761C06F03F00208070BD00223146284612
:10332000FFF757FA31462846BDE87040FFF727BB44
:103330003F4A10B58C3291884029FCD251885318ED
:103340001873491CC81701EB906020F03F00081A61
:10335000508072B69088401C9080012240F2277104
:103360003648FFF736FA62B6002010BD304A8C327C
:1033700050890028FCD0D188501890F84C00491C86
:10338000CB1701EB936323F03F03C91AD18072B6C8
:10339000294A5189491E518162B6704770B5274D3F
:1033A00040F2255631462846FFF7CAFA204C8C34A5
:1033B000012814D12846FFF75CFAC1B26089402881
:1033C00009D2401C60812089221882F84C10401CD0
:1033D00000F03F00208131462846FFF7D0FA40F246
:1033E000277631462846FFF7ABFA01280ED1A2888E
:1033F000521E0CD3104882802688A019017B2846D3
:10340000FFF788FD761C06F03F00208070BD00228B
:1034100031462846FFF7DDF931462846BDE87040C1
:10342000FFF7ADBA90050068004400400048004036
:10343000A8060068004C004084040068005000406A
:1034400010B5FEF7C1F8002010BD08B50121052018
:10345000FEF70FFA0120ADF8000028208DF80300D8
:1034600069461348FDF719FE01210807FEF70AFA1D
:103470000120FEF7B6F8FEF7CDF808BD10B5012122
:103480000807FEF7FFF901210846FEF7AEF810BD68
:10349000012080F3138807480168074A01F4E061BE
:1034A00011430160BFF3408FFEE70020704700002A
:1034B000000801400CED00E00400FA0510B5012100
:1034C0004020FEF7CDF9BDE81040FCF79BBF10B5DA
:1034D000FCF79CFF0446FCF795FF204610BD10B595
:1034E000FCF798FF0446FCF78DFF204610BD000056
:1034F00019480068704710B5FEF7B0F84FF48034F3
:103500002046FEF7C4F8FEF7EFF8012822D110207C
:10351000FDF700F90220FDF7EDF80020FEF71CF999
:103520000020FEF727F9A011FEF71DF94FF4E01176
:103530002046FEF7FAF80120FEF7FFF83920FEF7E3
:10354000BEF80028FAD00220FEF7FAF8FEF7FFF8DE
:103550000828FBD110BD000080000068F8B50324E6
:10356000ADF800108DF8024014251E4617468DF860
:1035700003506946FDF791FDADF800608DF80240FB
:103580008DF8035069463846FDF787FDF8BD0520E4
:10359000401E10F0FF00FBD17047FA4800B58021B3
:1035A000016040220260FFF7F2FFF64A083A106815
:1035B000F44B1B1D1960FFF7EAFF1068000601D5E8
:1035C000002000BD1960FFF7E2FF012000BDED4BB8
:1035D00000B51B1D40211960FFF7D9FF80221A603A
:1035E000FFF7D5FFE74B1960FFF7D1FF1A605DF8D1
:1035F00004EBCCE7E34900B5091D40220A60FFF760
:10360000C6FF80200860FFF7C2FFDE480260FFF7B8
:10361000BEFF0A605DF804EBB9E7DA4A00B5121D97
:1036200040211160FFF7B3FFD64B80201860FFF7F1
:10363000AEFF1960FFF7ABFF11605DF804EBA6E782
:10364000D04900B5091D40220A60FFF7A0FFCD4B0D
:1036500080201860FFF79BFF1A60FFF798FFC948AA
:10366000083800680A60000603D5FFF790FF0020C5
:1036700000BDFFF78CFF012000BD70B5C14A0821D5
:10368000121D802540260346141F0DE0FFF77FFF23
:10369000180601D5256000E015605806030EFFF7F7
:1036A00076FF2660FFF773FF491EC9B21660EDD2A0
:1036B00070BD70B5B34D0822002180202860B14E46
:1036C00040242B1D083E0CE04806010E1C60FFF74D
:1036D0005EFF2C60FFF75BFF3068000601D541F00C
:1036E0000101521ED2B2EFD21C60084670BD70B507
:1036F00014460D460646FFF750FF002814D030460A
:10370000FFF7BBFFFFF79CFF78B12846FFF7B5FF37
:10371000FFF796FF48B12046FFF7AFFFFFF790FF96
:1037200018B1FFF754FF012070BDFFF750FF0020D4
:1037300070BD30B50D460446FFF72FFF00281CD0A2
:103740002046FFF79AFFFFF77BFFB8B12846FFF747
:1037500094FFFFF775FF88B1FFF71FFF641CE0B20D
:10376000FFF78BFFFFF76CFF40B1FFF7A2FF0446A6
:10377000FFF753FFFFF72BFF204630BDFFF727FF72
:10378000002030BD08B501210820FEF772F8C020E6
:10379000ADF8000003208DF802001C208DF8030016
:1037A000784869461038FDF778FC08BD70B50121EE
:1037B00086B04805FEF766F8734E3046FDF74CFDBF
:1037C000FFF7E0FF0025ADF808504BF6FF70ADF8AD
:1037D0000A007720ADF80C003015ADF80E0000019E
:1037E000ADF810006948019001A93046FDF747FD8A
:1037F0001F208DF800008DF8015001248DF8024043
:103800008DF803406846FCF7AAFD20208DF80000E3
:103810008DF801508DF802408DF803406846FCF7A2
:103820009EFD01224FF4A0613046FDF7E7FD012126
:103830003046FDF78BFD06B070BD10B5524C5449B3
:103840002046FDF776FE012803D152492046FDF7B8
:103850006DFE4F4920464031FDF76BFE012804D133
:103860004C4920464031FDF761FE4B492046FDF7AB
:1038700060FE012804D1474920463F39FDF756FE36
:1038800045492046491CFDF754FE012804D1414911
:1038900020463E39FDF74AFE3F492046C91CFDF748
:1038A00048FE012804D13B4920463C39FDF73EFE45
:1038B000394920460F31FDF73CFE012804D1354936
:1038C00020463039FDF732FE33492046C91DFDF749
:1038D00030FE012806D12F492046BDE81040383976
:1038E000FDF724BE10BD10B5274C2C492046FDF72E
:1038F00020FE012803D12A492046FDF717FE294959
:103900002046FDF716FE012803D127492046FDF782
:103910000DFE26492046FDF70CFE012804D14FF08C
:1039200010212046FDF702FE21492046FDF701FE49
:10393000012803D11F492046FDF7F8FD1E49204606
:10394000FDF7F7FD012803D11C492046FDF7EEFDE8
:103950001B492046FDF7EDFD012803D119492046FA
:10396000FDF7E4FD4FF001212046FDF7E2FD0128BF
:1039700006D108492046BDE81040C031FDF7D6BD4C
:1039800010BD0000100C014000540040801A0600D9
:10399000400000064000001001000002008000010D
:1039A00000800010004000010040001000100001E5
:1039B00000080001000800100004000100040010CD
:1039C00000020001000200102DE9F041494C884638
:1039D0000746164601212046FDF7EAFC0121204654
:1039E000FDF7D2FC444D20462946FDF777FD00281F
:1039F000F9D0002239462046FDF70DFD3F4D204607
:103A00002946FDF76BFD0028F9D041462046FDF719
:103A1000FDFC3A4DAD1C29462046FDF75FFD002810
:103A2000F9D031462046FDF7F1FC29462046FDF746
:103A300055FD0028F9D02046BDE8F0410121FDF7F1
:103A4000ADBC2DE9F0412B4C8846064601212046AD
:103A5000FDF7AEFC01212046FDF796FC264D2046E1
:103A60002946FDF73BFD0028F9D0002231462046CB
:103A7000FDF7D1FC214F20463946FDF72FFD0028E8
:103A8000F9D041462046FDF7C1FC1C4FBF1C39460A
:103A90002046FDF723FD0028F9D001212046FDF73F
:103AA00073FC29462046FDF719FD0028F9D00122B4
:103AB00031462046FDF7AFFC0F4D6D1C29462046D0
:103AC000FDF70CFD0028F9D000212046FDF770FC21
:103AD000094D3F3529462046FDF700FD0028F9D065
:103AE00001212046FDF75AFC2046BDE8F041FDF7D4
:103AF0008FBC00000054004001000300820007005A
:103B000070B5064600249C4D03E0641CE4B2C82C4A
:103B10000FD802212846FEF708F80028F5D03146D4
:103B20002846FDF7BEFF002405E0641CE4B2C82C63
:103B300001D9002070BD01212846FDF7F6FF0028BD
:103B4000F3D02846FDF7AFFFC0B270BD7CB50121B0
:103B500041F20400FDF78DFEE020ADF804001820CE
:103B60008DF807000320854C8DF8060001A920463A
:103B7000FDF793FAE0212046FDF7FDFA8048002189
:103B80004FF482720180428081800222C28001242F
:103B900004811202428138228281C181072101827F
:103BA000754D01462846FDF7D7FE23208DF800000D
:103BB0008DF801408DF802408DF803406846FCF70F
:103BC000CEFB012271212846FDF757FF012128462F
:103BD000FDF73FFFFF20FFF793FF7CBD10B568495D
:103BE000654C88812046FDF7B7FE2046BDE81040B1
:103BF0000121FDF72EBF10B55F4C01212046FDF7D6
:103C000094FF012803D101212046FDF795FF0221F1
:103C10002046FDF78AFF012803D102212046FDF747
:103C20008BFF40212046FDF780FF012803D1402172
:103C30002046FDF781FF20212046FDF776FF012871
:103C400003D120212046FDF777FF10212046FDF704
:103C50006CFF012803D110212046FDF76DFF0821DC
:103C60002046FDF762FF012803D108212046FDF719
:103C700063FF04212046FDF758FF012805D12046A7
:103C8000BDE810400421FDF757BF10BD70B50646D2
:103C900000243C4D03E0641CE4B2C82C0FD8022180
:103CA0002846FDF742FF0028F5D031462846FDF7AB
:103CB000F8FE002405E0641CE4B2C82C01D9002001
:103CC00070BD01212846FDF730FF0028F3D02846BB
:103CD000FDF7E9FEC0B270BD30B587B00121082004
:103CE000FDF7C7FD01218803FDF7CCFD4FF46044CB
:103CF000ADF8144018208DF817000320224D8DF8E0
:103D0000160005A92846FDF7C8F921462846FDF703
:103D100032FA0020ADF800004FF48271ADF80210C5
:103D2000ADF804000221ADF806100121ADF808102D
:103D30004902ADF80A103821ADF80C10ADF80E00AC
:103D40000720ADF8100069460E48FDF705FE012179
:103D50000948FDF77EFEFF20FFF7D2FE07B030BD19
:103D600001460848028822F03802028002880A438D
:103D700002800121FDF76DBE0030014000080140C6
:103D8000C007006800380040000C01402DE9F041F8
:103D90000F461D46164604460121FEF7F4FBA78593
:103DA000268500212046FEF7EEFB002D05D120469A
:103DB000BDE8F0410121FEF743BABDE8F0810121E1
:103DC000FEF721BA0021FEF71EBAFDF7DBBE7FB574
:103DD0000C4605460121C802FDF754FD0020ADF850
:103DE0000450ADF80040ADF80600ADF80200694699
:103DF000FE4C2046FDF75EFF012211462046FEF7ED
:103E000017FA00212046FEF7C8FB18208DF80C0099
:103E100001208DF80D0003218DF80E108DF80F0094
:103E200003A8FCF79CFA7FBD7FB50C46054601212F
:103E30000846FDF727FDADF800400020ADF804501E
:103E4000ADF80600ADF802004FF080446946204608
:103E5000FDF730FF012211462046FEF7E9F9002167
:103E60002046FEF79AFB1C208DF80C0001208DF8EF
:103E70000D0003218DF80E108DF80F0003A8FCF73C
:103E80006EFA7FBD7FB50C46054601210220FDF785
:103E9000F9FCADF800400020ADF80450D44CADF86A
:103EA0000600ADF8020069462046FDF703FF012237
:103EB00011462046FEF7BCF900212046FEF76DFBB7
:103EC0001D208DF80C0001208DF80D0003218DF8C8
:103ED0000E108DF80F0003A8FCF741FA7FBD7FB5E7
:103EE0000C46054601210420FDF7CCFCADF800404E
:103EF0000020ADF80450BF4CADF80600ADF802004C
:103F000069462046FDF7D6FE012211462046FEF7FF
:103F10008FF900212046FEF740FB1E208DF80C0093
:103F200001208DF80D0003218DF80E108DF80F0083
:103F300003A8FCF714FA7FBD7FB50C4605460121A6
:103F40000820FDF79FFCADF800400020ADF80450BC
:103F5000A94CADF80600ADF8020069462046FDF711
:103F6000A9FE012211462046FEF762F900212046F3
:103F7000FEF713FB32208DF80C0001208DF80D00A8
:103F800003218DF80E108DF80F0003A8FCF7E7F958
:103F90007FBD7FB50C46054601211020FDF772FC60
:103FA000ADF800400020ADF80450944CADF8060088
:103FB000ADF8020069462046FDF77CFE012120464F
:103FC000FEF7D7F9012211462046FEF731F900210C
:103FD0002046FEF7E2FA36208DF80C0001208DF81D
:103FE0000D0003218DF80E108DF80F0003A8FCF7CB
:103FF000B6F97FBD7FB50C46054601212020FDF7AF
:1040000041FCADF800400020ADF804507C4CADF808
:104010000600ADF8020069462046FDF74BFE01217F
:104020002046FEF7A6F9012211462046FEF700F9C8
:1040300000212046FEF7B1FA37208DF80C0002204F
:104040008DF80D0003208DF80E0001208DF80F0073
:1040500003A8FCF784F97FBD7FB50C460546012116
:104060004803FDF70FFCADF800400020ADF8045008
:10407000644CADF80600ADF8020069462046FDF735
:1040800019FE012211462046FEF7D2F800212046F3
:10409000FEF783FA2B208DF80C0001208DF80D001F
:1040A00003218DF80E108DF80F0003A8FCF757F9C7
:1040B0007FBD30B50C460546012189B0C802FDF729
:1040C000D8FB01210420FDF7D4FB4FF48070ADF83C
:1040D0001C0018208DF81F0003208DF81E0007A972
:1040E0004948FCF7DAFFADF81450ADF81040002451
:1040F0003E4DADF81640ADF8124004A92846FDF734
:10410000D9FD7020ADF800000120ADF802000220BA
:10411000ADF80800ADF8064069462846FDF703FEF5
:1041200001212846FEF779F808212846FEF749F9CB
:1041300001212846FEF71DF909B030BD00240125F4
:10414000214640F28330FFF7B4FF284E4FF4167734
:10415000641C00E0641EA4B2BC4200D9002534B146
:1041600021463046FEF751FA002DF1D1F2E7012544
:1041700021463046FEF749FAEAE730B589B00C46E9
:104180000546FFF77FFE01210220FDF77BFB0121A1
:104190000920FDF76EFB01211C48FDF70DF82020DA
:1041A000ADF81C0018208DF81F0003208DF81E00AC
:1041B00007A91748FCF771FFADF80450ADF80040AF
:1041C00000240B4DADF80640ADF802406946284684
:1041D000FDF770FD7020ADF80C000120ADF80E0069
:1041E000ADF8144003A9284614E00000002C01405B
:1041F0000004004000080040000C00400010004097
:1042000000140040003401400008014000081A007A
:10421000000C0140FDF7BCFD08212846FEF7E2F83E
:1042200001212846FDF7EFFF86E72DE9F04190498F
:10423000154691FBF0F01E46A0F1010800228D4BBF
:104240002846314614F05CF904460F4600228A4B9A
:104250002846314614F0FBF922463B4614F069FA31
:1042600014F0E7FA04461FFA88F140F2CF20FFF776
:1042700084FFA1B2BDE8F0418048FEF7C8B92DE93E
:10428000F04105460E4600227A4B14F039F90446F7
:104290000F460022784B2846314614F0D8F92246C2
:1042A0003B4614F046FA14F0C4FABDE8F04181B27E
:1042B0007248FEF7ACB9F0B50C46064689B001214C
:1042C0000820FDF7DFFA01210420FDF7D2FA0125CD
:1042D000ADF81C5028206A4F8DF81F0007A93846FA
:1042E000FCF7DBFE01213846FCF747FFADF8106014
:1042F000ADF80C400024634EADF81240ADF80E400E
:1043000003A93046FDF7D6FCADF80040ADF80450E7
:10431000ADF80240ADF80640ADF8084069463046B9
:10432000FDF780FE32208DF8180002218DF819105B
:104330008DF81A108DF81B5006A8FCF710F8012212
:1043400003213046FDF774FF01213046FDF75BFF86
:1043500009B0F0BD70477047704710B5474C012158
:104360002046FEF77AF9002805D02046BDE8104027
:104370000121FEF77EB910BD704770B5424C207820
:10438000404D000636D401212846FEF766F948B1B3
:104390002078400606D52078C0438006207813D0C8
:1043A000401C207002212846FEF757F910B32078F0
:1043B000400610D5207840F0800020702846FEF797
:1043C00035F9A080002112E040F0800020704FF607
:1043D000FF70A080E6E700202070A08001462846FC
:1043E000FEF70FF9207840F04000207002212846A7
:1043F000FEF752F82846BDE870400321FEF739B9B0
:1044000010B5224C01212046FEF727F9012809D1D9
:104410001D4A5178491C51702046BDE810400121C9
:10442000FEF727B910BD10B5194C01212046FEF743
:1044300014F9012809D1144A9178491C9170204639
:10444000BDE810400121FEF714B910BD704701B559
:10445000009800280AD04CF2503210460221491C24
:104460008142FCD30098401E0090F6D108BD0000A8
:10447000A08601000000F03F00808640000400405C
:1044800000080140000C00409C0000680010004043
:104490000014004010B50220FCF72CF90020FCF7B6
:1044A00030F9002010BD10B50020FFF7F3FF002801
:1044B00000D0012010BD2DE9F0411F4614460E002A
:1044C0004FF000684FF0000502D0E019C02802D379
:1044D0000420BDE8F0810020FFF7DCFF08B10320D5
:1044E000F7E7C03408EB4420790203E010F8012B11
:1044F00072556D1C8D42F9D30020EAE72DE9FF5F6C
:104500001D4614465FEA010B4FF000674FF00006AE
:1045100002D06019C02803D3042004B0BDE8F09F86
:104520000020FFF7B7FF08B10320F6E7C03404EB23
:10453000050AAAF1010007EB442940F3000004F04A
:10454000010700F10108FCF7EEF837B10123A4F1EF
:10455000C10242490098FFF7AEFF4FF40074B8F172
:10456000000F06D0AAF1C00201233D490098FFF7D1
:10457000A2FFA246AE420CD809EB46200FB151462D
:1045800000E00021401AFCF709F9042837D1B61CD5
:10459000F0E76E027942314D09EB412477B10027F3
:1045A000E819C2780168204662F31F61FCF795F9AB
:1045B000042824D1241D3F1D5745F1D300270CE0CA
:1045C0000BEB0700C2780168204662F31F61FCF71D
:1045D00084F9042813D1241D3F1DB742F0D3B8F14C
:1045E000000F12D056464FF48067A819C2780168B0
:1045F000204662F31F61FCF770F9042801D0012006
:104600008BE7241D361DBE42EFD3FCF798F800203F
:1046100083E770B514460D460020FFF73BFF08B155
:10462000032070BD9DB1012D07D0022D08D0032DB0
:104630000AD0042D0BD0042070BD54B1C02005E079
:104640003CB14FF4007001E01CB10220206000205A
:1046500070BD012070BD034800887047D207006814
:10466000D2090068E0F7FF1F2DE9FF5F9846DDE9FA
:104670000E4B91460D468246FE4F109E3915C31BC8
:104680004A00B8424ED00ADCFB4B1AEB03000ED0B6
:1046900088420FD0904211D1012110200CE08B42B2
:1046A00043D0934244D0B3F5406F07D143E001219A
:1046B000042001E001210820FDF7DBF80121084674
:1046C000FDF7D7F8ADF80C5004208DF80F00032744
:1046D0008DF80E7003A95046FCF7DFFC08F0FF01CF
:1046E00009F0FF00FCF791FD00208DF804008DF823
:1046F00005B001208DF8060000946846FBF794FF92
:104700008DF808608DF809708DF80A7001208DF819
:104710000B0002A8FBF723FE204600F051FA411CD3
:104720000CD00FE001212020C6E701214020C3E783
:1047300001218020C0E701210802BDE700F050FA06
:10474000411C1AD0CD4A119902EB4012CC48C2F854
:1047500000A0C2F81080C2E90661111D81E8300294
:1047600082F814B00168A1430160001D0168A143F3
:104770000160002004B0BDE8F09F4FF0FF30F9E782
:1047800010B5044601210846FDF773F8BC480168DE
:1047900021430160001D0168A143016010BDB849BB
:1047A0000A6882430A60091D0A6882430A60002180
:1047B0000120FDF75EB8FBF774BF2DE9FE431C46F0
:1047C000ADF8081004218DF80B10DDE90A5603211D
:1047D0008DF80A1017464FF0FF3802A9FCF75DFC70
:1047E000E1B2F8B2FCF711FD00248DF804408DF819
:1047F000056000958DF806406846FBF715FF2846D2
:1048000000F0DEF9411C15D09C4901EB40119C4899
:10481000CC614C600C608C610C61CC608C600C7560
:104820000168A9430160001D0168A94301600020DF
:10483000BDE8FE834046FBE710B50120FBF744FFCF
:1048400000280ED0012000F0BBF9411C09D08B4993
:1048500001EB4010C0698047BDE810400120FBF724
:1048600041BF10BD10B50220FBF72EFF00280ED06F
:10487000022000F0A5F9411C09D0804901EB40104D
:10488000C0698047BDE810400220FBF72BBF10BD78
:1048900010B50420FBF718FF00280ED0042000F00C
:1048A0008FF9411C09D0754901EB4010C069804760
:1048B000BDE810400420FBF715BF10BD10B508205F
:1048C000FBF702FF00280ED0082000F079F9411C08
:1048D00009D06A4901EB4010C0698047BDE810402B
:1048E0000820FBF7FFBE10BD10B51020FBF7ECFE53
:1048F00000280ED0102000F063F9411C09D05F4958
:1049000001EB4010C0698047BDE810401020FBF764
:10491000E9BE10BD70B54FF480652846FBF7D4FEA4
:10492000564C58B1284600F04BF9411C06D004EB18
:104930004010C06980472846FBF7D4FE4FF400655D
:104940002846FBF7C1FE58B1284600F039F9411C52
:1049500006D004EB4010C06980472846FBF7C2FE32
:104960004FF480552846FBF7AFFE58B1284600F0BB
:1049700027F9411C06D004EB4010C0698047284647
:10498000FBF7B0FE4FF400552846FBF79DFE58B1EB
:10499000284600F015F9411C06D004EB4010C06910
:1049A00080472846FBF79EFE4FF480452846FBF7DC
:1049B0008BFE58B1284600F003F9411C06D004EBE9
:1049C0004010C06980472846FBF78CFE4FF4004535
:1049D0002846FBF779FE00280DD0284600F0F0F8B5
:1049E000411C08D004EB4010C06980472846BDE850
:1049F0007040FBF777BE70BD2DE9FE4F0D460CA948
:104A0000DFF870C091E8100A17464FF480611E4627
:104A10004A008046A0EB0C0360454AD00ADC164BE6
:104A200018EB03000ED088420FD0904211D1012123
:104A300010200CE08B423FD0934240D0B3F5406F42
:104A400007D13FE00121042001E001210820FCF70B
:104A500010FF01210846FCF70CFFADF808504FF09D
:104A6000040A8DF80BA003208DF80A0002A9404625
:104A700008E000000014014000F8FEBFD40B0068FD
:104A800000040140FCF709FBF1B2F8B2FCF7BDFBF2
:104A90008DF804A08DF8059001208DF80600009493
:104AA0006846FBF7C1FD204600F08AF8411C0CD097
:104AB0000FE001212020CAE701214020C7E70121A2
:104AC0008020C4E701210802C1E700F089F8411CF9
:104AD00018D04A49002201EB4010011DC0F80080A7
:104AE0000661C0E906B281E8B00080F8149044483D
:104AF0000168A1430160001D0168A143016000201D
:104B0000BDE8FE8F4FF0FF30FAE710B504460121F3
:104B10000846FCF7AEFE3A480168A1430160001D5B
:104B200001682143016010BD35490A6882430A606B
:104B3000091D0A6882430A6000210120FCF799BE22
:104B4000FBF7AFBD2DE9FE430427ADF80810DDE902
:104B50000A588DF80B7003218DF80A101C46164672
:104B60004FF0FF3902A9FCF798FAE1B2F0B2FCF776
:104B70004CFB8DF804708DF80580002400958DF8AD
:104B800006406846FBF750FD284600F019F8411C26
:104B900014D01A4901EB40111948CC614C600C60EB
:104BA0008C610C61CC608C600C750168A94301605C
:104BB000001D0168A9430160002039E6484637E638
:104BC00001460E4A002000BF02EB40135B688B4297
:104BD00005D0401C1028F7DB01D14FF0FF307047A3
:104BE0000649002001EB40125268002A05D0401C03
:104BF0001028F7DB01D14FF0FF307047D40B00686D
:104C00000004014070B50C46064601218CB01546E3
:104C10000846FCF725FE01210220FCF721FE304664
:104C2000FBF710FCCDE9014510250021CDE903512A
:104C30008020CDE90510079140010891CDE90910C8
:104C40000B9101A93046FBF76AFC0B208DF80000A0
:104C500001248DF801408DF802408DF8034068462C
:104C6000FBF77DFB0C208DF800008DF801408DF8DE
:104C700002408DF803406846FBF771FB0D208DF86C
:104C800000008DF801408DF802408DF80340684621
:104C9000FBF765FB0E208DF800008DF801408DF8C4
:104CA00002408DF803406846FBF759FB0F208DF852
:104CB00000008DF801408DF802408DF803406846F1
:104CC000FBF74DFB8DF800508DF801408DF8024048
:104CD0008DF803406846FBF742FB11208DF8000079
:104CE0008DF801408DF802408DF803406846FBF7CF
:104CF00036FB38208DF8000002258DF801508DF824
:104D000002408DF803406846FBF729FB39208DF8F7
:104D100000008DF801508DF802408DF80340684680
:104D2000FBF71DFB3A208DF800008DF801508DF83F
:104D300002408DF803406846FBF711FB3B208DF8DD
:104D400000008DF801508DF802408DF80340684650
:104D5000FBF705FB0CB070BD70B50C460546002195
:104D6000FBF707FC012202212846FBF70DFC01227C
:104D700008212846FBF708FCA1B22846FBF70CFCEB
:104D80002846BDE870400121FBF7F3BB0021FBF78B
:104D9000F0BB10B50220FBF704FCC34C012804D182
:104DA0000220FBF70CFC002020600820FBF7F9FB39
:104DB000012806D10820FBF702FCBC48FBF7EEFBFC
:104DC0002060BDE810400120FBF7F9BB10B52020A2
:104DD000FBF7E7FBB44C012804D12020FBF7EFFBE5
:104DE000002060608020FBF7DCFB012807D18020D9
:104DF000FBF7E5FBAD481430FBF7D0FB6060BDE886
:104E000010401020FBF7DBBB70B54FF4007528464F
:104E1000FBF7C7FBA44C012804D12846FBF7CFFBC6
:104E20000020A0604FF400652846FBF7BAFB01287C
:104E300007D12846FBF7C3FB9C482830FBF7AEFBA5
:104E4000A060BDE870404FF48070FBF7B8BB70B550
:104E50004FF400552846FBF7A4FB934C012804D1DE
:104E60002846FBF7ACFB0020E0604FF400452846E5
:104E7000FBF797FB012807D12846FBF7A0FB8B48DF
:104E80003C30FBF78BFBE060BDE870404FF4805096
:104E9000FBF795BB70B54FF400352846FBF781FB57
:104EA000814C012804D12846FBF789FB00202061B2
:104EB0004FF400252846FBF774FB012807D128464C
:104EC000FBF77DFB79485030FBF768FB2061BDE8BC
:104ED00070404FF48030FBF772BB70B54FF4001098
:104EE000FBF75FFB704C012804D10220FBF767FB46
:104EF000002060614FF400052846FBF752FB0128B3
:104F000007D12846FBF75BFB68486430FBF746FB9C
:104F10006061BDE870404FF48010FBF750BB70B586
:104F20004FF000752846FBF73CFB5F4C012804D18D
:104F30002846FBF744FB0020A0614FF0006528469F
:104F4000FBF72FFB012807D12846FBF738FB574812
:104F50007830FBF723FBA061BDE870404FF0807014
:104F6000FBF72DBB70B5524D2846FBF71AFB4E4C94
:104F7000012804D12846FBF722FB0020E0614C4DBC
:104F8000AD1D2846FBF70DFB012806D12846FBF78F
:104F900016FB4848FBF702FBE061BDE8704044485F
:104FA000401EFBF70CBB70B5414D1E352846FBF784
:104FB000F8FA3D4C012804D12846FBF700FB0020FD
:104FC00020623B4D7E352846FBF7EBFA012807D1DE
:104FD0002846FBF7F4FA37481430FBF7DFFA206273
:104FE000BDE8704032480E30FBF7E9BA70B5324D7B
:104FF0002846FBF7D6FA2C4C012804D12846FBF7AB
:10500000DEFA002060622D4D2846FBF7CAFA01281F
:1050100007D12846FBF7D3FA26482830FBF7BEFA1B
:105020006062BDE870402248FE30FBF7C8BA70B538
:10503000234E3046FBF7B5FA00251B4C012803D15F
:105040003046FBF7BCFAA5621E4E3046FBF7A9FAC4
:10505000012807D13046FBF7B2FA14483C30FBF781
:105060009DFAA0624FF01020FBF7A9FA164E3046C9
:10507000FBF797FA012803D13046FBF7A0FAE56267
:10508000124D2846FBF78DFA012807D12846FBF779
:1050900096FA06485030FBF781FAE062BDE87040AE
:1050A0000B48FBF78CBA0000D40D006808000240E2
:1050B0000200001008040240000200100008001066
:1050C00000200010008000100000021000000810F6
:1050D0000000011070B504460D4645F25550FCF72E
:1050E00049FA2046FCF749FA2846FCF749FABDE898
:1050F0007040FCF748BAFCF74BBAFCF744BA40F2F0
:1051000071210420E6E708B500208DF80000022098
:105110008DF8010003208DF8020001208DF80300B6
:105120006846FBF71CF908BD2DE9F0410F4605461E
:1051300001211646C802FCF7A5FB114C207805405A
:1051400025703046FDF738FC3846FDF73CFC2078EA
:10515000FDF74FFCFDF758FCBDE8F041D3E7FDF744
:105160003DBCFDF746BC10B5FDF74EFCFDF747FC16
:105170000128FBD002480078BDE81040FDF733BCA1
:10518000A200006810B5182000F0B2F9040004D0A5
:1051900000202060201D00F085FA204610BD2DE97A
:1051A000F04100278846040005D140F21222B2A146
:1051B000B8A011F0F3FB5FEA186005D040F21322AB
:1051C000ADA1B4A011F0EAFB261D04F10C0501F01D
:1051D0001DFC2168F06841EA0801216018E000BF69
:1051E000D0E9001601F07F425301236821F07F418E
:1051F00002D40B4203D10AE031EA030307D1D20102
:1052000000D50F43216841F0007101F06DFF304679
:10521000A842E5D12068B843206001F069FB20680E
:10522000BDE8F0812DE9F04104461F461546884649
:10523000100E04D0C62290A196A011F0AFFB25B9A4
:10524000C7228DA193A011F0A9FB01F0DEFF28B9C0
:1052500027B1CA2288A18FA011F0A0FB01F0D6FBD4
:10526000204641462668FFF79AFF46EA080635EAD7
:10527000060008D06FB145F0A0613A46201D01F04C
:10528000BCFE002606E02068A843206001F030FB49
:105290001EE0266801F02CFBD7B138B981494FF0E8
:1052A00080500860BFF34F8FBFF36F8F02F0A7F8F5
:1052B000064680010AD400F0E8FA266835EA0600BE
:1052C00002D126EA0500206000F0F9FA26F07F46B8
:1052D0003046A5E72DE9F0479A46DDF82090904644
:1052E0000D4604004FF0000705D14FF4A07262A1F3
:1052F00068A011F053FB280E05D040F241125EA1C8
:1053000064A011F04BFB2DB94FF4A1725AA161A01A
:1053100011F044FB01F079FF40B9B9F1000F05D05D
:1053200040F2451254A15BA011F038FB01F06EFB76
:10533000266852462946304600F093F830B1B8F15D
:10534000000F1AD02068A843206016E0B9F1000FC2
:1053500013D0B8F1000F01D04FF08077BAF1000FF1
:1053600001D047F0806745EA07014A46201D01F059
:1053700044FE01F0BDFA18B10AE001F0B9FA1FE0ED
:1053800048494FF080500860BFF34F8FBFF36F8FD5
:1053900002F035F80646800110D400F076FA26684F
:1053A00052462946304600F05CF828B1B8F1000FAB
:1053B00002D02068A843206000F081FA26F07F46E2
:1053C0003046BDE8F08770B50E46040005D14FF4B5
:1053D000EA7229A12FA011F0E1FA300E05D040F2B7
:1053E000D51225A12BA011F0D9FA00F04EFA2568AC
:1053F00025EA0600206000F062FA284670BD5022BF
:10540000EFF3118182F31188BFF34F8FBFF36F8FDA
:10541000006881F3118870472DE9F0410546041DAD
:1054200001F0F4FA04F1080640F272274FF0007818
:105430000BE0E068B04204D13A460FA115A011F08C
:10544000ADFA4146E06801F04FFE20680028F0D137
:10545000284600F0B7F8BDE8F04101F049BA9EE6F1
:10546000B1E70346002012B1994302D070470B42C6
:10547000FCD00120704700002E2E5C6F735C636FC0
:1054800072655C6576656E745F67726F7570732E9A
:10549000630000004572726F723A25732C25640D0B
:1054A0000A00000004ED00E030B5734900E0114649
:1054B0000A688242FBD34B685C18844203D140687F
:1054C00018444860084643681C18944209D16A4C45
:1054D000103C2468A24209D052681A4442600A680B
:1054E00012680260814200D0086030BD0460F9E7B4
:1054F0002DE9F0410546002701F088FA5E4E103E86
:10550000306808B900F097F8F06805424DD1002DD9
:105510004BD0083568070BD005F00700C0F1080034
:105520000544680704D0952254A159A011F036FA19
:10553000DDB37068854238D84F4801460C6801E0F9
:1055400020460C466168A94202D221680029F7D1A1
:105550003168B0468C4228D00768216801606068D5
:105560000837401B10280ED96619700704D0C222D4
:1055700042A147A011F012FA6068401B70603046EB
:105580006560FFF791FF6268D8F804104046891AF9
:10559000C8F80410D8F80830994200D28160D8F8D1
:1055A0000C0002430020C4E9000201F0A1F97807D1
:1055B00005D04FF4817231A135A011F0EFF93846D2
:1055C000BDE8F08170B500282BD02B4DA0F1080468
:1055D000103D6068E968084205D14FF48B7227A13D
:1055E0002BA011F0DBF9206828B140F2171223A19B
:1055F00027A011F0D3F96168E868014211D0226850
:10560000002A0ED18143616001F000FA6068696888
:10561000084468602046FFF747FFBDE8704001F08E
:1056200067B970BD14481038406870471248103888
:105630008068704770471A484FF40031420706D01F
:10564000C01D174920F00700411AC1F500310A4A70
:1056500000230144C2E900030839103A21F0070190
:1056600011604B600B600B1AC0E9001393604FF0A0
:1056700000405360D0607047B40000682E2E5C6F0D
:10568000735C636F72655C686561705F342E630084
:105690004572726F723A25732C25640D0A00000062
:1056A000040E006800F108014FF0FF32C0E901125A
:1056B000C1600161002101607047002101617047F4
:1056C00042684A6093688B60936859609160086192
:1056D0000168491C0160704730B50B685A1C02D044
:1056E00000F1080202E0026904E0224654682568DD
:1056F0009D42FAD953684B6099608A605160086195
:105700000168491C016030BDD0E9013201699A602D
:10571000D0E901235A604A68824201D182684A6016
:10572000002202610868401E086008687047000097
:1057300010B54FF4E1342046FDF750FA2046FDF74E
:10574000A2FA2046FDF7F1FAFDF7B8FE0548006819
:1057500005A111F071F902F013FC01F0DAFB002051
:1057600010BD00009400006862737020736574754A
:1057700070210D0A0000000075484068401C04D0EC
:10578000CA2274A178A011F009F9502080F3118881
:10579000BFF34F8FBFF36F8FFEE710B5031F4FF0BE
:1057A00080741C601B1F21F001011960191F724BCE
:1057B0000B60143940380A6010BD4FF0E020002122
:1057C000016181616D494FF47A720968B1FBF2F1B0
:1057D000491E41610721016170477CB5684D2878F9
:1057E0000190FF20287028788DF800009DF80000B7
:1057F0009DF8001000F0F000884205D04FF48A7246
:1058000054A159A011F0CAF89DF80000504C00F0C6
:10581000500020700720A06006E000BF9DF8001037
:1058200049008DF80010401E9DF800100906F5D4BF
:10583000A060032805D04FF4987246A14AA011F049
:10584000ADF8207A000200F4E060A06001982870B2
:105850004C48016841F470010160016841F07041F9
:105860000160FFF7AAFF00206060FAF77FFC0020CC
:105870007CBD37484068B0F57A7F05D04FF4AB72F5
:1058800034A139A011F08AB87047502080F31188F4
:10589000BFF34F8FBFF36F8F2D494868401C48609E
:1058A00001280BD137481C38006810F0FF0F05D0D5
:1058B0004FF4B37227A12CA011F070B8704710B547
:1058C000234C606828B940F26D1222A126A011F085
:1058D00065F86068401E606001D180F3118810BDDA
:1058E00010B5502080F31188BFF34F8FBFF36F8F37
:1058F00000F0A1FF20B123494FF080501C3908600F
:10590000002080F3118810BD10B5FAF765FC104C2B
:1059100010280CD300F1E02090F8F00321788842A1
:1059200005D240F2A5220BA10FA011F037F81548BF
:1059300014380068A16800F4E060884207D9BDE827
:10594000104040F2B52203A107A011F027B810BD06
:10595000BC0000682E2E5C6F735C636F72655C70B8
:105960006F72742E630000004572726F723A257375
:105970002C25640D0A00000079570008800000689B
:1059800000E400E020ED00E070B50D46040005D114
:1059900040F20312F2A1F7A011F000F8FFF775FF33
:1059A000D4E90F20216802FB0011A1600021A1634E
:1059B000216861600A46D4E90F01401E00FB012105
:1059C000E16021464FF0FF3001F8440F487004F1C8
:1059D00010004DB1FFF766FE04F12400FFF762FEF0
:1059E000FFF76DFF012070BD21690029F8D001F09B
:1059F00046FB0028F4D0E3494FF080500860BFF325
:105A00004F8FBFF36F8FEBE770B50E46050005D1E2
:105A10004FF4BB72D2A1D7A010F0C0FFA6B105FB16
:105A200006F04C30FFF764FD04000CD004F14C008C
:105A300066B12060C4E90F5620460121FFF7A4FF9C
:105A400000212046A16470BD0020EAE72460F1E750
:105A50002DE9F041856B174604460026026C82B1A1
:105A6000C7B1E06813F0B1F8E168206C091AE16091
:105A70002268914202D2A168081AE060022F16D073
:105A800017E02068A8B9A06801F01EFC06460020B7
:105A9000A0600EE0606813F098F8216C606808441C
:105AA0006060A168884204D32068606001E005B1AD
:105AB0006D1E6D1CA5633046BDE8F0812DE9F341F4
:105AC0000F4600980026846C2CB940F64532A4A1FC
:105AD000A8A010F063FFA06BE16B884205D340F6ED
