:020000040800F2
:10000000B02E0020D5010008310600083306000894
:10001000370600083B0600083F0600080000000005
:10002000000000000000000000000000B101000816
:100030004306000800000000792900087129000823
:10004000EF010008EF010008EF010008EF010008D0
:10005000EF010008EF010008EF010008EF010008C0
:10006000EF010008EF010008EF010008EF010008B0
:10007000EF010008EF010008EF010008EF010008A0
:10008000EF010008EF010008EF010008EF01000890
:10009000EF010008EF010008EF010008EF01000880
:1000A000EF010008EF010008EF010008EF01000870
:1000B000F1280008F328000809290008EF010008CA
:1000C000EF010008EF010008EF010008EF01000850
:1000D000EF010008C32100080D2300082B240008AD
:1000E000EF010008EF010008EF010008EF01000830
:1000F000EF010008EF010008EF010008EF01000820
:10010000EF010008EF010008EF010008EF0100080F
:10011000C3240008F3240008EF010008EF010008E1
:10012000EF010008EF010008EF010008EF010008EF
:10013000DFF80CD003F01CFC00480047CD2F00086E
:10014000B02E002006480068006880F3088862B678
:1001500061B6BFF34F8FBFF36F8F00DF00BF00BFEB
:1001600008ED00E0EFF30980BFF36F8F0F4B1A68C3
:1001700020E9F00F106008B54FF0000080F31188FF
:10018000BFF34F8FBFF36F8F02F0EDFB4FF0000016
:1001900080F31188BDE8084019680868B0E8F00FDE
:1001A00080F30988BFF36F8F704700BF34000020D1
:1001B000074B19680868B0E8F00F80F30988BFF3AF
:1001C0006F8F4FF0000080F311884EF00D0E7047D6
:1001D000340000200648804706480047FEE7704785
:1001E000FEE7FEE7FEE7FEE7FEE7FEE7FEE7FEE7E7
:1001F000EB1C00083101000831490143314A11600C
:10020000704770B5002100230F22C47804B32D4C31
:10021000246804F4E064C4F5E064210AC1F1040335
:10022000CA40447804FA03F1847814402143090158
:10023000254C0678A155047804F01F050124AC4034
:1002400005786D11AD0005F1E025C5F8004109E024
:10025000047804F01F050124AC401C4D067876118B
:1002600045F8264070BD1A4A0A400243154B1B1F31
:100270001A60704739B1134A121D12680243114BBC
:100280001B1D1A6006E00F4A121D126882430D4BB7
:100290001B1D1A607047042808D14FF0E02109693E
:1002A00041F004014FF0E022116107E04FF0E0213E
:1002B000096921F004014FF0E0221161704700004C
:1002C0000000FA050CED00E000E400E080E100E051
:1002D00080FFFF1F10B50446CC48844208D101219D
:1002E000042000F037FB0021042000F033FB46E03F
:1002F000C748844208D10121082000F02BFB0021CF
:10030000082000F027FB3AE0C248844208D10121CE
:10031000102000F01FFB0021102000F01BFB2EE03E
:10032000BD48844208D10121202000F013FB0021A8
:10033000202000F00FFB22E0B848844208D10121C0
:10034000402000F007FB0021402000F003FB16E0F6
:10035000B348844208D10121802000F0FBFA00213B
:10036000802000F0F7FA0AE0AE48844207D101216C
:10037000801500F0EFFA0021A01500F0EBFA10BD97
:1003800010B50121084600F0E5FA0021012000F037
:10039000E1FA10BD2DE9F0410246002500260020BB
:1003A00000230024002791F803C00CF00F0591F8FA
:1003B00003C00CF0100CBCF1000F03D091F802C088
:1003C0004CEA050591F800C0BCF1000F31D014686B
:1003D00000202BE04FF0010C0CFA00F3B1F800C044
:1003E0000CEA03069E4220D183004FF00F0C0CFA5A
:1003F00003F7BC4305FA03FC4CEA040491F803C07C
:10040000BCF1280F06D14FF0010C0CFA00FCC2F829
:1004100014C00AE091F803C0BCF1480F05D14FF0B9
:10042000010C0CFA00FCC2F810C0401C0828D1D303
:100430001460B1F800C0BCF1FF0F34DD5468002037
:100440002EE000F1080C4FF0010808FA0CF3B1F8A7
:1004500000C00CEA03069E4221D183004FF00F0C2E
:100460000CFA03F7BC4305FA03FC4CEA040491F8C8
:1004700003C0BCF1280F05D100F1080C08FA0CF8F4
:10048000C2F8148091F803C0BCF1480F07D100F105
:10049000080C4FF0010808FA0CF8C2F81080401C54
:1004A0000828CED35460BDE8F0814FF6FF7101807B
:1004B000022181700421C1707047024600209368B8
:1004C0000B400BB1012000E0002070470146886816
:1004D00080B2704702460020D3680B400BB1012068
:1004E00000E0002070470146C86880B27047016193
:1004F0007047416170470AB1016100E04161704796
:10050000C16070474FF480320A4382618161826129
:1005100082698269704702460020434B18684FF693
:100520008073184040EA021008433F4B1860704740
:100530003E49C8617047F0B50A46002300240021F7
:10054000002500F00046B6F1004F02D1364EF169A9
:1005500001E0354E7168C0F3034583B200F44016E4
:10056000B6F5401F08D121F070612F4E766826F055
:1005700070662D4F7E6012E000F48016B6F5801F85
:1005800006D1032606FA05F4A14341F0706106E0A6
:10059000460D360103FA06F6B14341F0706122B10F
:1005A000460D360103FA06F6314300F00046B6F177
:1005B000004F02D11C4EF16101E01B4E7160F0BD95
:1005C00030B500228B071C0F0F2303FA04F2164BE1
:1005D00008338C1053F824309343134C08348D1097
:1005E00044F8253023468C1053F824308C07240F10
:1005F00000FA04F423430C4C08348D1044F82530E1
:1006000030BD0A49DC310860704700000008014035
:10061000000C01400010014000140140001801408E
:10062000001C014000200140000001400000204269
:1006300070470020704700BFFEE700BFFEE700BF25
:10064000FEE77047DF48006840F00100DD490860C0
:1006500008464068DC490840DA49486008460068B6
:10066000DA490840D74908600846006820F480202D
:1006700008600846406820F4FE0048604FF41F0000
:1006800088607047CF49096821F48031CD4A1160F4
:100690001146096821F480211160B0F5803F03D034
:1006A000B0F5802F0ED106E0C649096841F48031CB
:1006B000C44A116007E0C349096841F4A021C14A56
:1006C000116000E000BF00BF704710B50146002276
:1006D000002300204A11012A02D1BA4C236806E007
:1006E000022A02D1B74C236A01E0B64C636A01F0DA
:1006F0001F02012494401C400CB1012000E00020A6
:1007000010BD38B5002000900024002500BF312026
:10071000FFF7DBFF05460098401C00900098B0F5FD
:10072000A06F01D0002DF2D03120FFF7CEFF08B12D
:10073000012400E00024204638BD01460020A14AE3
:10074000106820F0F80040EAC10010607047A0492E
:1007500008607047024600209A4B586820F47C10CD
:1007600042EA01031843974B58607047984908665E
:10077000704701460020934A506820F00300084368
:10078000506070478F48406800F00C007047014689
:1007900000208C4A506820F0F000084350607047F9
:1007A00001460020874A506820F4E060084350600A
:1007B000704701460020834A506820F4605040EAA8
:1007C000C1005060704729B17E4A527A02437D4B86
:1007D0005A7204E07B4A527A82437A4B5A727047CB
:1007E0007B49D8310860704701460020754A50683F
:1007F00020F440400843506070470021714A203285
:100800001170704A82F82010012802D004280AD101
:1008100004E001216B4A2032117005E00521694A8C
:100820002032117000E000BF00BF704769490860C6
:1008300070476449096A0143624A11627047654919
:1008400044390860704730B500210022002400239D
:100850005C4D6D6805F00C0121B1042905D0082913
:1008600023D105E05C4D056022E05B4D05601FE093
:10087000544D6D6805F47012524D6D6805F4803466
:10088000022505EB92421CB9544D554305600BE01F
:100890004C4D6D6805F400351DB1504D5543056054
:1008A00002E04D4D5543056002E04B4D056000BF31
:1008B00000BF444D6D6805F0F0010909484D6B5CBF
:1008C0000568DD4045603F4D6D6805F4E061090A4B
:1008D000434D6B5C4568DD4085603A4D6D6805F4BD
:1008E0006051C90A3E4D6B5C4568DD40C560354DC1
:1008F0006D6805F44041890B3A4D6B5CC568B5FBEA
:10090000F3F5056130BD29B12E4A526902432D4BE2
:100910005A6104E02B4A526982432A4B5A6170475C
:1009200029B1284A92690243264B9A6104E0254A7C
:1009300092698243234B9A61704729B1214AD26957
:100940000243204BDA6104E01E4AD26982431D4B08
:10095000DA61704729B11B4AD2680243194BDA6049
:1009600004E0184AD2688243164BDA60704729B116
:10097000144A12690243134B1A6104E0114A1269C6
:100980008243104B1A617047124940390860704722
:100990000F49C86470470B49C87170470948406ADD
:1009A00040F0807007494862704701460020054AC0
:1009B00092680A400AB1012000E000207047014916
:1009C00088727047001002400000FFF8FFFFF6FE3B
:1009D000000042428004424200127A0000093D00B9
:1009E000000000201000002010B50446FE4884429C
:1009F00008D10121C014FFF7ADFF0021E014FFF77B
:100A0000A9FFC4E0B4F1804F08D101210846FFF7E7
:100A1000AEFF00210120FFF7AAFFB8E0F3488442AF
:100A200008D101210220FFF7A2FF00210220FFF7D9
:100A30009EFFACE0EE48844208D101210420FFF77C
:100A400096FF00210420FFF792FFA0E0E9488442CE
:100A500008D101210820FFF78AFF00210820FFF7B5
:100A600086FF94E0E448844208D101211020FFF77A
:100A70007EFF00211020FFF77AFF88E0DF488442E4
:100A800008D101212020FFF772FF00212020FFF76D
:100A90006EFF7CE0DA48844208D101214014FFF760
:100AA00059FF00216014FFF755FF70E0D5488442DC
:100AB00009D10121C804FFF74DFF00214FF40020A8
:100AC000FFF748FF63E0D048844209D101210805BF
:100AD000FFF740FF00214FF48010FFF73BFF56E087
:100AE000CA48844209D101214805FFF733FF00219C
:100AF0004FF40010FFF72EFF49E0C548844208D1AB
:100B000001214020FFF733FF00214020FFF72FFF96
:100B10003DE0C048844208D101218020FFF727FF33
:100B200000218020FFF723FF31E0BB48844208D139
:100B300001218015FFF71BFF0021A015FFF717FF0C
:100B400025E0B648844209D101210804FFF702FFDD
:100B500000214FF48030FFF7FDFE18E0B0488442DA
:100B600009D101214804FFF7F5FE00214FF40030C0
:100B7000FFF7F0FE0BE0AB48844208D10121880466
:100B8000FFF7E8FE00214FF48020FFF7E3FE10BDE1
:100B900000220288944B98420ED0994B98420BD079
:100BA000B0F1804F08D0914B984205D0904B9842BD
:100BB00002D0904B984204D14FF68F731A404B8865
:100BC0001A438D4B984207D08C4B984204D04FF675
:100BD000FF431A40CB881A4302808B8883850B8899
:100BE0000385814B98420BD0854B984208D08B4BA4
:100BF000984205D08A4B984202D08A4B984201D144
:100C00000B7A038601238382704770B5002400228B
:100C10000023058C4FF6FE7635400584028C8388D0
:100C2000048B4FF68F752C40B51E2C400D882C433D
:100C3000751E2A400D892A434D882A436A4DA842D1
:100C40000BD06F4DA84208D0744DA84205D0744D0A
:100C5000A84202D0734DA84213D14FF6F7752A402F
:100C60004D892A434FF6FB752A408D882A434FF65B
:100C7000FF652B404FF6FF552B408D892B43CD89C7
:100C80002B4383800483CD888586028470BD70B534
:100C9000002400220023058C4FF6EF7635400584B2
:100CA000028C8388048B48F6FF752C404FF6FF4575
:100CB0002C400D884FF6FF7606EA05252C434FF6AB
:100CC000DF752A400D8906EA05152A434D8806EA94
:100CD00005152A43444DA84202D0494DA8421DD1D2
:100CE0004FF67F752A404D894FF6FF7606EA0515C7
:100CF0002A434FF6BF752A408D8806EA05152A4318
:100D00004FF6FF352B404FF2FF752B408D8906EAD9
:100D100085052B43CD8906EA85052B438380048313
:100D2000CD880587028470BD70B5002400220023A1
:100D3000058C4FF6FF6635400584028C8388848BD2
:100D40004FF68F752C404FF6FC752C400D882C43C8
:100D50004FF6FF552A400D894FF6FF7606EA052526
:100D60002A434D8806EA05252A431F4DA84202D092
:100D7000234DA8421DD14FF2FF752A404D894FF6F1
:100D8000FF7606EA05252A434FF6FF352A408D886F
:100D900006EA05252A434EF6FF752B404DF6FF75F2
:100DA0002B408D8906EA05152B43CD8906EA0515EA
:100DB0002B4383808483CD888587028470BD70B582
:100DC000002200230024058C4EF6FF763540058472
:100DD000038C8488828B48F6FF752A404FF6FF45C6
:100DE0002A400D8820E00000002C01400004004053
:100DF00000080040000C00400010004000140040BB
:100E000000340140004C01400050014000540140BA
:100E100000180040001C004000200040004001403D
:100E200000440140004801404FF6FF7606EA0525E0
:100E30002A434DF6FF752B400D8906EA05352B43F5
:100E40004D8806EA05352B43FA4DA84202D0FA4DEB
:100E5000A84208D14BF6FF752C408D894FF6FF76DE
:100E600006EA85152C4384808283CD88A0F8405003
:100E7000038470BD828B4FF2FF331A408283828BD2
:100E80004FF6FF7303EA01231A4382837047F0B5DC
:100E90000C461546002200210026078C4EF6FF7CEA
:100EA00007EA0C070784828B018C4FF6FF7707EA6D
:100EB000043640F6FF473A404FF6FF7707EA05272A
:100EC0003A434FF6FF7707EA03373A43D94FB84220
:100ED0000ED0D94FB8420BD0B0F1804F08D0D74FC9
:100EE000B84205D0D64FB84202D0D64FB84206D14C
:100EF0004DF6FF77394046F48057394305E047F611
:100F0000FF57394044F48057394382830184F0BD50
:100F1000828B4FF6F3731A408283828B0A4382835B
:100F20007047F0B50C461546002200210026078CBC
:100F30004FF6FF6C07EA0C070784828B018C4FF693
:100F4000FF7707EA04264FF60C773A404FF6FF7713
:100F500007EA03172F433A43B64FB8420ED0B64FB5
:100F6000B8420BD0B0F1804F08D0B44FB84205D092
:100F7000B34FB84202D0B34FB84206D14FF6FF5735
:100F8000394046F48077394305E04FF2FF57394046
:100F900044F48077394382830184F0BD028B4FF2A1
:100FA000FF331A400283028B4FF6FF7303EA0123DB
:100FB0001A4302837047F0B50C4615460022002103
:100FC0000026078C4FF6EF7C07EA0C070784028B9C
:100FD000018C4FF6FF7707EA041640F6FF473A40C8
:100FE0004FF6FF7707EA03373A434FF6FF7707EAF2
:100FF00005273A438F4FB8420ED08F4FB8420BD0DF
:10100000B0F1804F08D08D4FB84205D08C4FB84218
:1010100002D08C4FB84206D14FF6DF77394046F008
:101020001007394305E04FF65F77394044F0100769
:10103000394302830184F0BD028B4FF6F3731A40EB
:101040000283028B0A4302837047F0B50C461546B3
:1010500000220021068C4FF6FE773E400684028B6C
:10106000018C4FF60C7632407E1C06EA03162E43A6
:101070003243704EB0420ED06F4EB0420BD0B0F142
:10108000804F08D06D4EB04205D06D4EB04202D0B8
:101090006C4EB04206D14FF6FD76314044F0010669
:1010A000314305E04FF6F576314044F00106314317
:1010B00002830184F0BD70B505460C465D4885424B
:1010C0000ED05D4885420BD0B5F1804F08D05B480B
:1010D000854205D05A48854202D05A48854200D1FF
:1010E00000E000BF208850B92389A2886188284683
:1010F000FFF7ABFFE1882846FFF79EFF25E0208839
:1011000004280AD12389A28861882846FFF753FF63
:10111000E1882846FFF742FF17E0208808280AD117
:101120002389A28861882846FFF7FBFEE1882846CC
:10113000FFF7EEFE09E02389A28861882846FFF7C1
:10114000A6FEE1882846FFF795FE70BD2DE9F04127
:1011500005460C4600260127608808B9022600E0F3
:101160000026A088012801D1022700E0012720885D
:10117000A0B92389A28861882846FFF766FFE18825
:101180002846FFF759FF23893A4631462846FFF79C
:1011900012FFE1882846FFF701FF13E02389A288A8
:1011A00061882846FFF707FFE1882846FFF7F6FE2B
:1011B00023893A4631462846FFF747FFE18828460B
:1011C000FFF73AFFBDE8F0810A884B881A438B8805
:1011D0001A43CB881A430B891A434B891A438B89CC
:1011E0001A43A0F8442070474FF6FF718180002118
:1011F0000180C180418001727047002101804180DF
:101200008180C180018141818181C181704700213C
:1012100001804180012181800021C18001817047CE
:101220000021018041808180C180018141818181D3
:1012300070470000002C01400034014000040040D1
:1012400000080040000C004021B1028842F0010279
:10125000028004E002884FF6FE731A400280704755
:1012600031B1B0F8442042F40042A0F8442005E037
:10127000B0F84420C2F30E02A0F8442070471AB11F
:1012800083890B43838102E083898B438381704789
:101290008182704741EA0203A0F8483070471AB1D2
:1012A00083890B43838102E083898B438381704769
:1012B00001894FF6F8721140018170470A460021FA
:1012C00001894FF68F73194011430181704730B582
:1012D00004460D4629462046FFF7F0FF208940F0DE
:1012E0000700208130BD2DE9F04104460D46164629
:1012F0001F46602D06D13B46012231462046FFF7AE
:101300005AFE05E03B46012231462046FFF79DFE8E
:1013100029462046FFF7D2FF208940F007002081B0
:10132000BDE8F08130B50C4600210189C9B24FF605
:10133000FF7505EA0325154325432943018130BD87
:101340002DE9F04105460E461746984600244346CF
:101350003A4631462846FFF7E5FF2C894FF6F870EC
:10136000044044F007044FF68F70044044F07004CA
:101370002C81BDE8F081F0B504460D4616461F46A7
:101380003B46324629462046FFF7CCFF208940F4F1
:1013900080402081F0BD0185828270470A4600218D
:1013A00001884FF68F731940114301807047F0B5E3
:1013B0000C4615461E460021002200230189028B9F
:1013C000038C4FF6F877394021434FF6FC473A40FB
:1013D00040F201173A434FF6DD773B404FF6FF7777
:1013E00007EA06172F433B43018102830384F0BDC4
:1013F0000A460021018B4FF68F7319401143018378
:1014000070470A460021018B48F6FF7319404FF6DA
:10141000FF7303EA02231943018370470A46002140
:10142000818B4FF68F7319401143818370470A46B1
:101430000021818B48F6FF7319404FF6FF7303EAD2
:10144000022319438183704721B1028842F0800250
:10145000028004E002884FF67F731A4002807047D2
:1014600021B1828842F00402828004E082884FF633
:10147000FB731A408280704721B1828842F00802D3
:10148000828004E082884FF6F7731A4082807047AA
:1014900021B1828842F00102828004E082884FF606
:1014A000FE731A40828070470A460021018B4FF676
:1014B000F77319401143018370470A460021018BDD
:1014C0004FF2FF7319404FF6FF7303EA02231943EB
:1014D000018370470A460021818B4FF6F77319404C
:1014E0001143818370470A460021818B4FF2FF73BD
:1014F00019404FF6FF7303EA0223194381837047B3
:101500000A460021018B4FF6FB73194011430183FA
:1015100070470A460021018B4FF6FF3319404FF602
:10152000FF7303EA02231943018370470A4600212F
:10153000818B4FF6FB7319401143818370470A4634
:101540000021818B4FF6FF3319404FF6FF7303EAFA
:1015500002231943818370470A460021018B4FF60D
:101560007F7319401143018370470A460021018BA4
:10157000C1F30E014FF6FF7303EA022319430183FF
:1015800070470A460021818B4FF67F731940114343
:10159000818370470A460021818BC1F30E014FF60B
:1015A000FF7303EA02231943818370470A4600212F
:1015B000018C4FF6FD7319401143018470470A46B0
:1015C0000021018C4FF6F7731940114301847047D5
:1015D0000A460021018C4FF6DF7319404FF6FF7366
:1015E00003EA02131943018470470A460021018C63
:1015F0004FF67F7319404FF6FF7303EA0213194346
:10160000018470470A460021018C4FF6FF531940B0
:101610004FF6FF7303EA02231943018470470A4619
:101620000021018C4FF2FF7319404FF6FF7303EA5C
:1016300002231943018470470A460021018C4DF6AC
:10164000FF7319404FF6FF7303EA02331943018415
:10165000704730B5002301248C40A3B2048C9C4316
:101660000484048C02FA01F5ADB22C43048430BD2D
:1016700030B5002304248C40A3B2048C9C43048422
:10168000048C02FA01F5ADB22C43048430BD70B570
:101690000346002000241846183001258D40ACB2C6
:1016A0001D8CA5431D8409B1082909D100EB6100F7
:1016B000056825F0700505600568154305600EE0B6
:1016C0000D1FC5F34E052844056825F4E045056067
:1016D00005684FF6FF7606EA02263543056070BDC1
:1016E00021B1028842F00202028004E002884FF633
:1016F000FD731A400280704721B1028842F0040253
:10170000028004E002884FF6FB731A4002807047A3
:1017100021B1828842F08002828004E082884FF604
:101720007F731A408280704702884FF6F7731A4021
:10173000028002880A430280704782884FF68F73C6
:101740001A40828082880A438280704702894FF65D
:10175000F8731A40028102890A43028170470289A4
:101760004FF67F731A40028102890A430281704753
:1017700081847047818570478186704701877047F3
:1017800081877047A0F84010704702884FF6FF43EA
:101790001A40028002880A43028070470146888E00
:1017A00070470146088F70470146888F7047014691
:1017B000B1F8400070470146888C70470146088D9B
:1017C000704702460020138A0B400BB1012000E055
:1017D00000207047CA430282704730B5024600209D
:1017E00000230024158A05EA0103958905EA01040E
:1017F00013B10CB1012000E0002030BDCA430282C9
:101800007047000010B50446FB48844209D101210D
:101810008803FFF79FF800214FF48040FFF79AF804
:1018200032E0F648844209D101214804FFF79FF8CD
:1018300000214FF40030FFF79AF825E0F048844289
:1018400009D101218804FFF792F800214FF480208C
:10185000FFF78DF818E0EB48844209D10121C80454
:10186000FFF785F800214FF40020FFF780F80BE028
:10187000E548844208D101210805FFF778F80021E6
:101880004FF48010FFF773F810BD2DE9F04786B0D4
:1018900005460E460024A24600BFA1460027B08997
:1018A00000B100BF2F462C8A4CF6FF700440F08830
:1018B00004432C82AC894EF6F3100440B088318981
:1018C0000843718908430443AC81AC8A4FF6FF405A
:1018D0000440B0890443AC8201A8FEF7B4FFC648B7
:1018E000874202D1DDF810A001E0DDF80CA0A88944
:1018F00000F4004040B10AEBCA0000EB0A10316866
:101900004900B0FBF1F807E00AEBCA0000EB0A104F
:1019100031688900B0FBF1F86420B8FBF0F00401F5
:101920002009642101FB1089A88900F4004040B11E
:10193000322000EBC900B0FBF1F000F007000443D7
:1019400008E0322000EB09106421B0FBF1F000F058
:101950000F0004432C8106B0BDE8F0874FF4165108
:10196000016000218180C18001810C214181002121
:101970008181704710B502460020108A4FF2FF03A4
:1019800018400B884C8823438C882343CC882343FE
:101990001843108210BD0021018041808180C180E8
:1019A000704721B1828942F40052828104E0828929
:1019B0004DF6FF731A4082817047F0B5034600244C
:1019C00000260025002040F66A17B94200D100BF6A
:1019D0001846C1F3421401F01F06012707FA06F565
:1019E000012C01D10C3004E0022C01D1103000E0B8
:1019F00014301AB107682F43076002E00768AF434D
:101A00000760F0BD1AB1838A0B43838202E0838AA8
:101A10008B4383827047028A4FF6F0731A4002822A
:101A2000028A0A430282704782894FF2FF731A408A
:101A3000828182890A438281704721B1828942F082
:101A40000202828104E082894FF6FD731A4082818E
:101A50007047028A4FF6DF731A400282028A0A43F5
:101A60000282704721B1028A42F48042028204E07D
:101A7000028A4BF6FF731A4002827047C1F30802D4
:101A80008280704701468888C0F3080070478189CA
:101A900041F0010181817047028BD2B20283028B37
:101AA00042EA012202837047028B02F47F420283E2
:101AB000028B0A430283704721B1828A42F02002DE
:101AC000828204E0828A4FF6DF731A408282704776
:101AD00021B1828A42F01002828204E0828A4FF6AB
:101AE000EF731A408282704721B1828A42F0080265
:101AF000828204E0828A4FF6F7731A40828270472E
:101B000021B1828942F40042828103E08289C2F3DA
:101B10000E028281704721B1828A42F40062828281
:101B200004E0828A4FF2FF731A4082827047828AF1
:101B30004FF6FB731A408282828A0A438282704780
:101B400021B1828A42F00202828204E0828A4FF648
:101B5000FD731A408282704702460020B1F5007F73
:101B600000D100BF13880B400BB1012000E0002022
:101B7000704701F40072B2F5007F00D100BFCA4384
:101B80000280704770B50246002400230025002023
:101B900040F66A16B14200D100BFC1F3421501F010
:101BA0001F03012606FA03F3012D02D19689334063
:101BB00006E0022D02D1168A334001E0968A3340B6
:101BC0000C12012606FA04F41688344013B10CB145
:101BD000012000E0002070BD10B50022002340F677
:101BE0006A14A14200D100BF0A1201249440A3B29A
:101BF000DC43048010BD0000003801400044004078
:101C000000480040004C0040005000400CB500204F
:101C1000019000906C48006840F480306A49086088
:101C200000BF6948006800F4003000900198401C33
:101C30000190009818B90198B0F5A06FF1D16248F1
:101C4000006800F4003010B10120009001E0002095
:101C500000900098012843D15C48006840F01000D3
:101C60005A4908600846006820F0030008600846EA
:101C7000006840F0020008605348406852494860DC
:101C80000846406848600846406840F48060486004
:101C90000846406820F47C1048600846406840F4DC
:101CA000E81048600846006840F08070086000BF97
:101CB0004548006800F000700028F9D042484068AC
:101CC00020F00300404948600846406840F00200A8
:101CD000486000BF3C48406800F00C000828F9D17B
:101CE0000CBD10B5FFF792FF10BD10B53648006867
:101CF00040F0010034490860084640683449084013
:101D00003149486008460068324908402E49086059
:101D10000846006820F4802008600846406820F4E7
:101D2000FE0048604FF41F008860FFF7DAFF4FF0B5
:101D300000602949086010BD10B500210020002274
:101D4000214B5B6803F00C0121B1042906D008295E
:101D500028D107E0214B224C236027E01F4B204C69
:101D6000236023E0184B5B6803F47010164B5B682C
:101D700003F48032022303EB904022B9194B434312
:101D8000174C23600DE0104B5B6803F4003323B164
:101D9000144B4343124C236003E0104B4343104C5D
:101DA000236003E00D4B0E4C236000BF00BF064BC9
:101DB0005B68C3F303130C4CE15C094B1B68CB401D
:101DC000074C236010BD00000010024000200240BC
:101DD0000000FFF8FFFFF6FE08ED00E000127A00B9
:101DE0001400002000093D001800002010B586B046
:101DF000044601210520FEF793FD01218803FEF72B
:101E00008FFDFE48FFF7FEFC4FF40070ADF81400A4
:101E100018208DF8170003208DF8160005A9F84842
:101E2000FEF7B8FA4FF48060ADF8140004208DF886
:101E3000170005A9F248FEF7ADFA25208DF800003D
:101E400003208DF801008DF8020001208DF80300B9
:101E50006846FEF7D6F901940020ADF80800ADF809
:101E60000A00ADF80C00ADF810000C20ADF80E0023
:101E700001A9E248FFF709FD012240F22551DF48A0
:101E8000FFF79BFD0121DD48FFF78BFD4021DB487B
:101E9000FFF76FFE06B010BD10B586B004460121F5
:101EA0004804FEF74AFD01210420FEF739FD042015
:101EB000ADF8140018208DF8170003208DF81600D7
:101EC00005A9CF48FEF766FA0820ADF814004820AF
:101ED0008DF8170005A9CA48FEF75CFA26208DF890
:101EE000000003208DF801008DF8020001208DF81C
:101EF00003006846FEF785F901940020ADF808005C
:101F0000ADF80A00ADF80C00ADF810000C20ADF8EB
:101F10000E0001A9BB48FFF7B8FC012240F2255191
:101F2000B848FFF74AFD0121B648FFF73AFD4021C6
:101F3000B448FFF71EFE06B010BD10B586B00446CB
:101F400001218804FEF7F9FC01210820FEF7E8FCD6
:101F50004FF48060ADF8140018208DF817000320AE
:101F60008DF8160005A9A848FEF714FA4FF4006092
:101F7000ADF8140048208DF8170005A9A248FEF717
:101F800009FA27208DF8000003208DF801008DF854
:101F9000020001208DF803006846FEF732F9019433
:101FA0000020ADF80800ADF80A00ADF80C00ADF85F
:101FB00010000C20ADF80E0001A99448FFF765FC55
:101FC000012240F225519148FFF7F7FC01218F488B
:101FD000FFF7E7FC40218D48FFF7CBFD06B010BDB1
:101FE00010B586B004460121C804FEF7A6FC012105
:101FF0001020FEF795FC4FF48060ADF81400182017
:102000008DF8170003208DF8160005A98048FEF70B
:10201000C1F94FF40060ADF8140004208DF81700EA
:1020200005A97B48FEF7B6F901940020ADF8080039
:10203000ADF80A00ADF80C00ADF810000C20ADF8BA
:102040000E0001A97348FFF720FC012240F2255140
:102050007048FFF7B2FC01216E48FFF7A2FC402157
:102060006C48FFF786FD06B010BD10B586B004467B
:1020700001210805FEF761FC01211020FEF750FC4C
:102080004FF48050ADF8140018208DF8170003208D
:102090008DF8160005A95E48FEF77CF90420ADF81E
:1020A00014008DF8170005A95B48FEF773F9019439
:1020B0000020ADF80800ADF80A00ADF80C00ADF84E
:1020C00010000C20ADF80E0001A95448FFF7DDFB0D
:1020D000012240F225515148FFF76FFC01214F4882
:1020E000FFF75FFC40214D48FFF743FD06B010BDF0
:1020F00070B504460D4629462046FFF7BFFC00BFD9
:1021000080212046FFF728FD0028F9D070BD70B56A
:1021100006460C4600250CE021783046FFF7AEFC61
:1021200000BF80213046FFF717FD0028F9D06D1C55
:10213000641C20780028EFD1284670BD70B5054694
:1021400000BF374880888028FBDA354844880C3047
:102150000555611C0C460846C91700EB5161C911B1
:10216000A0EBC1112E4A518072B62D488088401CC8
:102170002B498880012240F227712048FFF71DFC7F
:1021800062B6002070BD10B500BF25484089002808
:10219000FBD02348C1888C30425C4B1C1946184642
:1021A000DB1700EB5363DB11A0EBC3131C4CE38084
:1021B00072B61B484089401E194B588162B61046C2
:1021C00010BD70B5002440F225510C48FFF7DAFC31
:1021D00001282FD10948FFF755FCC5B210484489A2
:1021E000802C22D2601C04460D494881084604898F
:1021F0008C300555601C044614E000000038014096
:102200000008014000440040000C0140004800402C
:1022100000100140004C00400014014000500040FC
:102220004C00002000F07F00088140F22551BD489D
:10223000FFF7D2FC40F22771BA48FFF7A3FC012850
:1022400020D1B94884882000A4F101040FD0B649F8
:102250008C80084604880C30015DB248FFF748FFC7
:10226000601C044600F07F00AF4908800AE00022AD
:1022700040F22771AB48FFF7A0FB40F22771A94855
:10228000FFF7AAFC70BD70B5054600BFA74880885F
:102290008028FBDAA54844880C300555611C0C46A3
:1022A0000846C91700EB5161C911A0EBC1119F4A43
:1022B000518072B69D488088401C9C4988800122CC
:1022C00040F227719A48FFF778FB62B6002070BD94
:1022D00010B500BF954840890028FBD09348C188BD
:1022E0008C30425C4B1C19461846DB1700EB5363DD
:1022F000DB11A0EBC3138D4CE38072B68B48408991
:10230000401E8A4B588162B6104610BD70B500243D
:1023100040F225518648FFF735FC012819D1844841
:10232000FFF7B0FBC5B281484489802C0CD2601CF9
:1023300004467E494881084604898C300555601C56
:10234000044600F07F00088140F225517848FFF7ED
:1023500043FC40F227717648FFF714FC012820D196
:10236000724884882000A4F101040FD06F498C804A
:10237000084604880C30015D6D48FFF7B9FE601C0B
:10238000044600F07F00694908800AE0002240F21C
:1023900027716748FFF711FB40F227716448FFF788
:1023A0001BFC70BD70B5054600BF62488088802860
:1023B000FBDA604844880C300555611C0C46084621
:1023C000C91700EB5161C911A0EBC111594A5180E5
:1023D00072B658488088401C56498880012240F2D5
:1023E00027715548FFF7E9FA62B6002070BD10B5B5
:1023F00000BF504840890028FBD04E48C1888C302F
:10240000425C4B1C19461846DB1700EB5363DB118B
:10241000A0EBC313474CE38072B646484089401E88
:10242000444B588162B6104610BD70B5002440F28E
:1024300025514148FFF7A6FB012819D13E48FFF777
:1024400021FBC5B23B484489802C0CD2601C044659
:1024500038494881084604898C300555601C04467B
:1024600000F07F00088140F225513348FFF7B4FBAC
:1024700040F227713048FFF785FB012820D12D4815
:1024800084882000A4F101040FD02A498C800846DA
:1024900004880C30015D2848FFF72AFE601C0446C2
:1024A00000F07F00234908800AE0002240F22771F3
:1024B0002148FFF782FA40F227711F48FFF78CFB93
:1024C00070BD10B540F225511C48FFF75BFB20B9E9
:1024D00040F225511948FFF77FFB40F2277117485A
:1024E000FFF750FB20B940F227711448FFF774FB47
:1024F00010BD10B540F225511148FFF743FB20B93C
:1025000040F225510E48FFF767FB40F227710C4857
:10251000FFF738FB20B940F227710948FFF75CFB51
:1025200010BD0000003801404C0000205801002080
:10253000004400406402002000480040004C00407D
:10254000005000402DE9F04104460F4615461E4656
:1025500001212046FFF7C4F8A785258500212046E4
:10256000FFF7BEF81EB901212046FEF791FEBDE837
:10257000F08110B5044601212046FEF765FE10BD2E
:1025800010B5044600212046FEF75EFE10BD10B5D2
:1025900004462046FEF728FA10BD7FB505460C46D6
:1025A0000121C802FEF7C9F9ADF80850ADF80440A2
:1025B0000020ADF80A00ADF8060001A9DB48FEF7DF
:1025C000E7FA01221146D948FEF759FE0021D74803
:1025D000FFF792F818208DF8000001208DF8010017
:1025E00003208DF8020001208DF803006846FDF7F6
:1025F00008FE7FBD7FB505460C4601210846FEF763
:102600009CF9ADF80850ADF804400020ADF80A0080
:10261000ADF8060001A94FF08040FEF7B9FA01229B
:1026200011469007FEF72BFE00214FF08040FFF788
:1026300063F81C208DF8000001208DF801000320B4
:102640008DF8020001208DF803006846FDF7D9FDE2
:102650007FBD7FB505460C4601210220FEF76DF9CE
:10266000ADF80850ADF804400020ADF80A00ADF810
:10267000060001A9AE48FEF78BFA01221146AC48CC
:10268000FEF7FDFD0021AA48FFF736F81D208DF862
:10269000000001208DF8010003208DF802000120C8
:1026A0008DF803006846FDF7ACFD7FBD7FB505469C
:1026B0000C4601210420FEF740F9ADF80850ADF8B2
:1026C00004400020ADF80A00ADF8060001A99948C1
:1026D000FEF75EFA012211469648FEF7D0FD002172
:1026E0009448FFF709F81E208DF8000001208DF8AE
:1026F000010003208DF8020001208DF803006846D8
:10270000FDF77FFD7FBD30B589B005460C46012140
:10271000C802FEF705F901210420FEF701F94FF484
:102720008070ADF8200018208DF8230003208DF86C
:10273000220008A98048FDF72DFEADF81850ADF82D
:1027400014400020ADF81A00ADF8160005A977482E
:10275000FEF71EFA7020ADF804000120ADF8060067
:102760000020ADF80A000220ADF80C0001A96F4866
:10277000FEF74BFA01216D48FEF772FD08216B4808
:10278000FEF792FE01216948FEF75EFE09B030BDFA
:1027900001250024002140F28330FFF7B4FF0FE051
:1027A00015B1601C84B201E0601E84B2B4F5167FDE
:1027B00000DD002504B9012521465C48FEF7DCFF59
:1027C000EEE730B589B005460C4621462846FFF7AE
:1027D00040FF01210220FEF7B0F801210920FEF799
:1027E0009FF801215548FDF7A6FE2020ADF82000F6
:1027F00018208DF8230003208DF8220008A95048E6
:10280000FDF7C8FDADF81850ADF814400020ADF844
:102810001A00ADF8160005A94548FEF7B9F9702071
:10282000ADF804000120ADF806000020ADF80C0062
:1028300001A93F48FEF72BFA08213D48FEF73DFE6F
:1028400001213B48FEF700FD09B030BD2DE9FE4FE8
:10285000824614461D463B4890FBFAF0A0F1010B5E
:1028600022462B460020384900F04CFE804689461F
:1028700022462B460020354900F0EBFE42464B46EF
:10288000CDE9000100F057FF064600F0C3FF0290BB
:102890001FFA8BF140F2CF20FFF793FF029881B22D
:1028A0002348FEF76BFFBDE8FE8F2DE9F84F044685
:1028B0000D460022244B2046294600F023FE064602
:1028C0000F460022214B2046294600F0C2FE8046DA
:1028D00032463B4600F02FFF824600F09BFF0090FF
:1028E000009881B21248FEF749FFBDE8F88F7047A3
:1028F000704710B501210E48FEF76FFF18B1012196
:102900000B48FEF77BFF10BD704701B509E00020C2
:1029100000E0401C4CF250318842FAD30099491E25
:10292000009100990029F2D108BD0000002C01405F
:1029300000040040000800400008014000081A00A0
:10294000000C0140A08601000000F03F008086409E
:1029500002461046001F001F0160001F001F1438B0
:1029600020380246704710B500F0ECF910BD7047F2
:1029700000B5FFF7FCFF00BD10B5FDF7F3FB10BD80
:1029800010B50C2000F0EEF804460CB9204610BD3E
:1029900000202060A46064602046F8E702460B46F1
:1029A0001146994201D108467047896804E099426E
:1029B00001D10846F8E789689142F8D10020F3E791
:1029C000F0B505460F4605B10FB90120F0BD3946F7
:1029D0002846FFF7E3FF04460CB90120F6E7AC42B6
:1029E00003D1A46064600120F0E76668A068B0606D
:1029F000A06846600020A060606000BFE6E770B598
:102A000006460C460EB1206808B9012070BD30465C
:102A10002168FFF7D5FF054625B90C21206800F095
:102A2000BFF801E02846F1E70020EFE730B50446A3
:102A30000D4604B10DB9012030BD29462046FFF7EF
:102A4000ADFF08B10120F7E7A068A04208D1606897
:102A5000A04205D1A56065606C60AC600020EBE72A
:102A6000A0684560A068A8606C60A5600020E3E7EE
:102A70002DE9F04104460D461746002604F00300F8
:102A800020B10C2259A15FA000F0E7FB05F0030084
:102A900008B1012000E0002000EB9505C4F3820698
:102AA000640916E0082E01D10026641C3FB15A4883
:102AB000005D0121B14008435749085506E05648DA
:102AC000005D0021B1400843534908556D1E701C3C
:102AD000C6B2002DE6D1BDE8F081F0B504460D4642
:102AE0001E46002000210023C4F3471004F01F01FC
:102AF0000DE04F1CF9B2082902D10021471CF8B2A1
:102B0000B0F5A07F03D100272F601760F0BD424FC2
:102B10003F5C4FF0010C0CFA01FC07EA0C07774010
:102B2000002FE6D101EBC007BF002F600EE04F1C65
:102B3000F9B25B1C082902D10021471CF8B21768C2
:102B4000B7EB430F02D85F001760DFE7324F17F88B
:102B500000C001278F400CEA07077740002FE6D01E
:102B600000BFD3E77CB504460025009400BF0023D6
:102B70006A4601A92846FFF7B0FF0098844200D8B2
:102B800004E0DDE9001008440544F0E700BF01223D
:102B900021460198FFF76CFF2048019908447CBD4D
:102BA00070B504460D461D49601A00222946FFF7FC
:102BB0005FFF70BD10B500B910BD03E0841804F8C4
:102BC000011C521E002AF9D100BFF5E710B500B173
:102BD00001B910BD06E08B1813F8013C841804F805
:102BE000013C521E002AF6D100BFF2E72E2E5C6F88
:102BF000735C6F6E656F735C636F72655C6D656D42
:102C00002E630000617373657274206661696C6580
:102C1000643A25732C256400702B0020700300207B
:102C200070B505460C46002605B10CB9012070BDF3
:102C30002646346031462846FFF7F8FEF7E770B5C0
:102C400006460C460C20FFF78DFF05460DB106B178
:102C50000CB9012070BD2C6029463046FFF7E6FE16
:102C6000F8E72DE9F04105460C46002604B115B9F8
:102C70000120BDE8F08126460EB90120F9E7314672
:102C80002846FFF79DFE07463846F2E72DE9F0415A
:102C900006460C4617464FF000080FB106B114B9AE
:102CA0000120BDE8F081A64201D10020F9E7B84635
:102CB000B8F1000F01D10120F3E741463046FFF79C
:102CC0007FFE05460DB10120EBE741462046FFF7A8
:102CD000ADFE05460DB10120E3E70020E1E770B548
:102CE00006460C46002504B10EB9012070BD2546EC
:102CF0000DB90120FAE729463046FFF74FFEA842FA
:102D000001D10020F2E70120F0E710B5024611469C
:102D1000134609B9002010BD8868014603460868BB
:102D2000447B07E00868407BA04202DD0B46086850
:102D3000447B89689142F5D1914201D11868EAE754
:102D40000020E8E770B500259B4801689B480068B3
:102D5000FFF766FF05460DB1284670BD0220964973
:102D6000096848719548006840680468214693489E
:102D70000068FFF776FF05460DB12846EDE7002015
:102D800060718D4804602846E7E72DE9F041074669
:102D9000884615461E461420FFF7E4FE044614B983
:102DA0000020BDE8F081002F01DA002004E0FF2FB1
:102DB00001DDFF2000E038462071B8F1000F01DA94
:102DC000002005E0B8F1FF0F01DDFF2000E04046E4
:102DD0006073102D01DC102004E0FF2D01DD1020B8
:102DE00000E02846207316B900202061D9E726614B
:102DF0002846FFF7B7FEA060A06808B90020D0E71A
:102E0000A068206031462068FFF7A2FD02206071B3
:102E100021466A480068FFF712FF08B10020C0E7AA
:102E20002046BEE710B504460CB9012010BD62482B
:102E3000006884420CD1FFF785FF08B10120F5E757
:102E400022465F4801685D480068FFF71FFFEDE715
:102E500021465A480068FFF742FF38B922465848D1
:102E6000016856480068FFF711FFDFE70120DDE742
:102E700010B504460CB9012010BD4F4800688442CB
:102E800001D10020F8E721464C480068FFF727FFF2
:102E900008B90020F0E7214649480068FFF71FFF06
:102EA00038B922464548016845480068FFF7EEFEFC
:102EB000E2E70120E0E710B504460CB9012010BD9F
:102EC0003D48006884420CD1FFF73CFF08B1012067
:102ED000F5E722463B48016838480068FFF7D6FE10
:102EE000EDE7214635480068FFF7F9FE38B922467C
:102EF0003448016831480068FFF7C8FEDFE7214623
:102F00002F480068FFF7EBFE38B922462D480168CC
:102F10002B480068FFF7BAFED1E70120CFE738B5AC
:102F200000242848006800902648006808B901205D
:102F300038BD00988068009008E069462148006824
:102F4000FFF75DFD04460CB12046F1E71D490098EE
:102F500009688842F1D12046EAE700BFFFF7DFFFAA
:102F6000FCE710B5FFF70CFD14490860FFF708FDFA
:102F700013490860FFF704FD124908600F48006814
:102F800028B10F48006810B10846006808B9012050
:102F900010BDAFF23903202200210846FFF7F5FEED
:102FA0000949086008460068034908600020EFE707
:102FB00010B5FDF7C7F810BD340000202800002030
:102FC0002C000020300000203800002010B5FFF752
:102FD000C8FFFFF7EDFF10BD10B504460A2C02D163
:102FE0000D20FFF7F9FFFB48006840B1F948006881
:102FF0000470F8480068401CF649086010BDF648A7
:10300000006818B12046F4490968884700BFF5E711
:1030100010B5044603E014F8010BFFF7DDFF20783C
:103020000028F8D110BD70B505460C46EA48066880
:10303000056003E014F8010BFFF7CEFF20780028AD
:10304000F8D1E548066070BD2DE9F34F87B005461D
:1030500000BF15F8014B04B9FBE0252C03D0204636
:10306000FFF7BAFFF5E7002715F8014B302C03D125
:10307000012715F8014B04E02D2C02D1022715F889
:10308000014B4FF0000A07E00AEB8A0004EB400016
:10309000A0F1300A15F8014B302C01DB392CF3DD9F
:1030A0006C2C01D04C2C03D147F0040715F8014BD0
:1030B00004B9CEE02646612E02DBA6F12000C6B29E
:1030C0004F2E42D006DC422E3CD0432E32D0442E2E
:1030D00045D13DE0532E04D0552E3AD0582E3ED146
:1030E0003AE00898006801900898001D08904FF099
:1030F000000901E009F10109019810F80900002810
:10310000F8D102E02020FFF767FF07F0020020B9A6
:10311000484609F101095045F4D30198FFF778FFBB
:1031200002E02020FFF758FF484609F10109504509
:10313000F7D38EE7089911F8042BD0B20891FFF766
:103140004BFF86E7022006900DE0082006900AE07B
:1031500000BF0A20069006E01020069003E02046FB
:10316000FFF73AFF75E700BF07F0040028B10898A1
:1031700000680899091D08910CE0442E05D10898B3
:1031800000680899091D089104E0089800680899EA
:10319000091D08918346442E06D10BF0004018B15A
:1031A000CBF1000B47F008074FF0000800BF06986E
:1031B000BBFBF0F100FB11B0C6B20698BBFBF0FB05
:1031C000092E06DD782C01D1272000E007203044AD
:1031D000C6B206F13000C2B2404608F1010802A9A9
:1031E0000A54BBF1000F02D0B8F1100FDFD307F083
:1031F000080028B12D22404608F1010802A90A540E
:10320000C14607F0010008B1302000E0202006464A
:1032100002E03046FFF7E0FE07F0020020B9484622
:1032200009F101095045F4D300BFA8F10101884616
:1032300002AA505CFFF7D0FEB8F1000FF5D102E012
:103240002020FFF7C9FE484609F101095045F7D390
:10325000FFE600BF09B0BDE8F08F0FB408B503A8C2
:10326000009000990298FFF7EFFE0020009001B057
:103270005DF814FB0FB438B504465648046006A840
:10328000009000990598FFF7DFFE0020009051495B
:10329000096808704F49086038BC5DF814FB0FB42A
:1032A00038B504464C480568046006A800900099AB
:1032B0000598FFF7C9FE002000904748056038BC1C
:1032C0005DF814FB2DE9F05F07468B4615469A46DC
:1032D000594642A0FFF7C1FFBAF1010F06D0BAF17B
:1032E000020F22D0BAF1040F35D129E03E46002466
:1032F00004E0315D3BA0FFF7B0FF641CAC42F8DB9B
:103300002020FFF769FE00240CE0315D202904DB5A
:10331000315D7E2901DC315D00E02E210846FFF79A
:103320005BFE641CAC42F0DB15E0B84600BF38F829
:10333000021B2EA0FFF791FF681E0500F7D10AE0DF
:10334000B94600BF59F8041B2AA0FFF786FF681E84
:103350000500F7D100BF00BF0D20FFF73DFE0A209A
:10336000FFF73AFEBDE8F09F10B52448006808B9A1
:10337000002010BD214800688047FAE72DE9F041A0
:1033800006460F461D48006810B90020BDE8F081D0
:10339000002500BF19480068804704460CB900208A
:1033A000F4E70D2C00D12BE0082C01D07F2C05D1A7
:1033B00025B16D1EE0B2FFF70FFEEBE7202C08DB16
:1033C000781EA84205DD28466D1C3454E0B2FFF794
:1033D00003FEDFE744000020400000202530386C69
:1033E000583A0000202530325800000020253034A3
:1033F00058000000202530384C58000048000020BC
:1034000000BF002070550D20FFF7E6FD0A20FFF7F2
:10341000E3FD0120BAE72DE9F04104460D461646CA
:1034200037480768046031462846FFF7A7FF804603
:10343000334807604046BDE8F08170B502460D464E
:1034400000260020286002E01068401C1060106810
:1034500001782029F8D02D2904D101261068401CBC
:1034600010600178302920D11068401C106001786C
:10347000622907D078290BD110231068401C1060F6
:10348000017811E002231068401C106001780BE005
:10349000202901DC012070BD302901DB392901DD43
:1034A0000020F8E7082300BF06E0302901DB3929B6
:1034B00001DD0020EFE70A23002419E0612902DB87
:1034C000A1F12000C1B2A1F13000C1B2112905DB88
:1034D000C81FC1B2092901DC0020DCE7994201DBE9
:1034E0000020D8E704FB03141068401C106001782A
:1034F0002029E3DC06B164422C600120CBE7000008
:10350000480000202DE9FE4F804681EA0300C00FED
:103510000C46009021F0004123F00045B8EB02007A
:10352000A94105D24046214690461C460B4602461C
:1035300023F00040104347D0270DC7F30A00C3F320
:103540000A510290401A019040286BDAC3F313002D
:1035500040F4801B0098924620B10023D2EB030A6E
:1035600063EB0B0B01985946C0F14002504600F046
:1035700070F906460D4650465946019A00F088F902
:1035800010EB08006141002487EA115284EAE773D6
:103590001A4340D0009A62B3019A012A4FEA0752B7
:1035A00015DC001B61EB02014FF0004202EA0752FA
:1035B000CDE90042001C41F5801132462B4600F057
:1035C00088F903B0BDE8F08F40462146F9E7001BBB
:1035D00061EB0201001C41F5801300185B412018CB
:1035E000A2F5001747EB030140EAD570B6196D410B
:1035F00011E06D084FEA360645EAC0754FEA0752FA
:10360000001B61EB0201001C41F5801149084FEAE3
:1036100030000019514132462B4603B0BDE8F04F4F
:1036200000F048B90098012240000023D0EB0202CC
:1036300063EBE073009821464FEAE074B8EB0000BA
:1036400061EB0401E9E783F000435BE781F00041AF
:1036500058E72DE9FE4F81EA030404F0004421F00D
:10366000004100944FF0000B23F0004350EA0104A6
:103670005ED052EA03045BD0C3F30A54C1F30A5587
:103680002C44A4F2F3340194A0FB0254C1F31301BF
:1036900041F48011C3F3130343F4801301FB02448C
:1036A00000FB034E840A970A44EA815447EA835791
:1036B000A4FB076802958D0A05FB07854FEA932C4A
:1036C00004FB0C542705029D4FEA065847EA1637BB
:1036D000B5EB08056EEB070C870E920E47EA8117D3
:1036E00042EA8312A7FB0201B6EB0B0164EB000474
:1036F0002B0D43EA0C335E1844EB1C50DA4651465E
:10370000E7FB0201C5F313044FEA0B3343EA1453FA
:103710004FEA0432019C43EA0603A4F10C0402942C
:10372000009CCDE900B400F0D4F803B0BDE8F08F00
:1037300000200146F9E72DE9F04D81EA030404F089
:10374000004B21F0004514464FF0000A23F00041E1
:1037500050EA050220D054EA01021DD0C5F30A57F1
:103760000246C5F31303C1F31300C1F30A5640F434
:10377000801543F48013A7EB0608101BD64608F209
:10378000FD3873EB050002D308F1010801E092183F
:103790005B41B8F1000F03DA00200146BDE8F08D6F
:1037A00000204FF48011064684460EE0171B73EB91
:1037B000050705D3121B63EB050306434CEA010C16
:1037C00049084FEA300092185B4150EA0107EDD1F9
:1037D00052EA030012D082EA040083EA050108439A
:1037E00005D0101BAB4106D20122002306E00022C7
:1037F0004FF0004302E06FF0010253101AEB060095
:103800004CEB085110EB0A0041EB0B01BDE8F04D09
:1038100000F050B870B5C1F30A5201F00045002421
:10382000C1F3130140F2FF3341F480119A4201DAEF
:10383000002070BD40F233439A42A2F2334203DCCF
:10384000524200F015F800E090402C43F1D0404285
:1038500070BD202A04DB203A00FA02F100207047F4
:103860009140C2F1200320FA03F3194390407047BE
:10387000202A04DB203A21FA02F00021704721FAC5
:1038800002F3D040C2F1200291400843194670472C
:10389000202A06DBCB17203A41FA02F043EAE07314
:1038A00006E041FA02F3D040C2F120029140084301
:1038B0001946704710B5141E73F1000408DA401C55
:1038C00041F1000192185B411A4301D120F001003F
:1038D00010BD2DE9F04D92469B4611B1B1FA81F22F
:1038E00002E0B0FA80F220329046FFF7B2FF0446C1
:1038F0000F4640EA0A0041EA0B0153465A46084384
:1039000013D0114653EA010019D0C8F140025046C5
:10391000FFF7AEFF05460E46504659464246FFF7B2
:1039200098FF084305D0012004E020463946BDE851
:10393000F08D0020054346EAE0762C4337430A9891
:103940006305E40AA0EB08000022FD0A44EA47549C
:103950000A3002D500200146E9E701051019694146
:10396000DDE9084500196941BDE8F04DA2E7000016
:10397000064C074D06E0E06840F0010394E80700BC
:1039800098471034AC42F6D3FCF7D6FBB4390008A4
:10399000D439000802E008C8121F08C1002AFAD171
:1039A00070477047002001E001C1121F002AFBD1BF
:1039B00070470000D4390008000000204C000000CF
:1039C00094390008203A00084C000020642E0000C2
:1039D000A4390008000000000102030401020304EE
:1039E000060708090204060800A24A0400000000B5
:1039F000000000000102030406070809000000009F
:103A000000000000000000000000000000000000B6
:103A100000000000000000000000000000000000A6
:0400000508000131BD
:00000001FF
