:020000040800F2
:10000000A82A0020810200081D0600081F0600081B
:10001000210600082306000825060008000000004D
:10002000000000000000000000000000E9010008DE
:1000300027060008000000002D020008951A00089D
:100040009B0200089B0200089B0200089B0200081C
:100050009B0200089B0200089B0200089B0200080C
:100060009B0200089B0200089B0200089B020008FC
:100070009B0200089B0200089B0200089B020008EC
:100080009B0200089B0200089B0200089B020008DC
:100090009B0200089B0200089B0200089B020008CC
:1000A0009B0200089B0200089B0200089B020008BC
:1000B0009B0200089B0200089B0200089B020008AC
:1000C0009B0200089B0200089B0200089B0200089C
:1000D0009B02000829110008671100089F11000801
:1000E0009B0200089B0200089B0200089B0200087C
:1000F0009B0200089B0200089B0200089B0200086C
:100100009B0200089B0200089B0200089B0200085B
:100110009B0200089B0200089B0200089B0200084B
:100120009B0200089B0200089B0200089B0200083B
:1001300000F002F800F048F80AA090E8000C8244B1
:100140008344AAF10107DA4501D100F03DF8AFF28E
:10015000090EBAE80F0013F0010F18BFFB1A43F0A5
:10016000010318473047000050470000103A24BFF1
:1001700078C878C1FAD8520724BF30C830C144BF0C
:1001800004680C607047000000230024002500264E
:10019000103A28BF78C1FBD8520728BF30C148BFEA
:1001A0000B607047642904F05581752904F0528171
:1001B000782904F08B81732904F0C48200207047F1
:1001C0001FB51FBD10B510BD04F020FB1146FFF791
:1001D000F7FF01F093FB04F03EFB03B4FFF7F2FFDF
:1001E00003BC00F00FFE0000224B19680868B0E85D
:1001F000F00F80F30988BFF36F8F4FF0000080F39A
:1002000011884EF00D0E704700000000064800688F
:10021000006880F3088862B661B6BFF34F8FBFF302
:100220006F8F00DF00BF00BF08ED00E0EFF3098033
:10023000BFF36F8F0F4B1A6820E9F00F106008B5FD
:100240004FF0500080F31188BFF34F8FBFF36F8FD3
:1002500002F0DDFD4FF0000080F31188BDE808409A
:1002600019680868B0E8F00F80F30988BFF36F8F52
:10027000704700BF50000020EFF30580704700007A
:100280000948804709480047FEE7FEE7FEE7FEE72A
:10029000FEE7FEE7FEE7FEE7FEE7FEE70448054966
:1002A000054A064B70470000510D00083101000857
:1002B000A8240020A82A0020A8260020A826002084
:1002C0002849084328490860704770B50F23C4784F
:1002D00001780122F4B1244C2468457804F4E064E8
:1002E000C4F5E064240AC4F10406E3408478B54010
:1002F0001C402C4301F1E021230181F800340078F7
:1003000000F01F018A404009800000F1E020C0F8A1
:10031000002170BD01F01F0082404809800000F1FB
:10032000E020C0F8802170BD104A114001430E4802
:10033000001F016070470C4A121D0029116801D08E
:10034000014300E08143116070474FF0E021042831
:10035000086903D020F004000861704740F00400F1
:10036000FAE700000000FA050CED00E080FFFF1F37
:100370000E490120886070470C4908600868704782
:1003800010B50022094B03E050F822401C60521CBB
:100390008A42F9D3186810BD0448006870470349C1
:1003A0000871704701480079704700000030024032
:1003B000914910B5884206D10121042000F0A7FA26
:1003C000002104203BE08D49884206D1012108200C
:1003D00000F09DFA0021082031E08949884206D1C9
:1003E0000121102000F093FA0021102027E0854918
:1003F000884206D10121202000F089FA0021202026
:100400001DE08149884206D10121402000F07FFA99
:100410000021402013E07D49884206D1012180203F
:1004200000F075FA0021802009E0794988420AD15C
:1004300084150121204600F06AFA00212046BDE81B
:10044000104000F064BA10BD10B50121084600F05C
:100450005EFA0021BDE81040012000F058BAF0B566
:10046000CA78002502F00F03D20601D58A7813431B
:100470000A784FF00F0E12F0FF0F4FF001021DD05F
:10048000D0F800400F8802FA05F63740B74211D184
:100490004FEA850C0EFA0CF724EA070703FA0CF46E
:1004A0003C43CF78282F02D0482F02D002E046618B
:1004B00000E006616D1C082DE4D304600C88FF2C5D
:1004C0001ED944685FF0000606F1080702FA07F536
:1004D0000F882F40AF420FD14FEA860C0EFA0CF76F
:1004E000BC4303FA0CF73C43CF78282F00D1456179
:1004F000CF78482F00D10561761C082EE4D34460E4
:10050000F0BD4FF6FF710180022181700421C1709E
:1005100070470246002092680A4200D001207047CE
:10052000806880B2704702460020D2680A4200D03C
:1005300001207047C06880B2704701617047416117
:1005400070470AB10161704741617047C1607047EF
:1005500041F4803282618161826181698069704782
:100560002C4B10B51A684FF68074224042EA0010F6
:100570000843186010BD2849C8617047F0B5254C84
:10058000002801DAE36900E06368420D120185B2D8
:10059000C0F301579540C0F30346032F05D0C202B4
:1005A0000AD50322B240934307E023F070626368E8
:1005B00023F07063636002E0AB4343F0706201B10B
:1005C0002A43002801DAE261F0BD6260F0BD10B597
:1005D0008A0721F003040F49130F21440F228C686E
:1005E0009A4094438C608A68984002438A6010BDA8
:1005F0000949C1F8DC00704700080140000C0140C7
:10060000001001400014014000180140001C01408E
:100610000020014000000140000020427047FEE73A
:10062000FEE7FEE7FEE7704710B501210C07204604
:1006300000F076F92046BDE81040002100F070B9C6
:100640002149086270472049086170471F4A1168B4
:1006500021F0E0010143116070471B49C1F8A0007F
:1006600070471A4B1A6822F0030202431A601848B6
:10067000026842F004020260012905D020BF01682F
:1006800021F004010160704730BFF8E70F480168AE
:1006900041F004010160016841F0020101600C4871
:1006A000016841F00401016030BF7047074A01460C
:1006B000002052680A4200D00120704703490A68AE
:1006C00042EA80000860704700000E42007000405F
:1006D00010ED00E0A448016841F0010101604168AB
:1006E000A24A114041600168A14A114001600168BD
:1006F00021F480210160416821F4FE0141604FF442
:100700001F018160704798490A6822F480320A60AC
:100710000A6822F480220A60B0F5803F07D0B0F565
:10072000802F03D1086840F4A02008607047086853
:1007300040F48030F9E70246002053098A49012B32
:100740000AD0022B0AD0496A02F01F02012393400B
:100750000B4200D0012070470968F5E7096AF3E70A
:1007600018B500204FF4A06400903120FFF7E3FF9C
:100770000099491C0091A14201D00028F5D03120F8
:10078000FFF7D9FF002800D0012018BD76490A687C
:1007900022F0F80242EAC00008607047754908601C
:1007A0007047714A5368084323F47C131843506020
:1007B00070477049086670476B4A516821F0030121
:1007C0000143516070476848406800F00C00704772
:1007D000654A516821F0F001014351607047624A57
:1007E000516821F4E0610143516070475E494A68F5
:1007F00022F4605242EAC000486070475A4A002919
:10080000517A01D0014300E0814351727047594948
:10081000C1F8D8007047544A516821F4404101435F
:10082000516070475049002281F8202081F8202033
:10083000012802D0042802D1052081F82000704749
:100840004D490860704748490A6A02430A62704786
:10085000494944390860704730B543494A6812F045
:100860000C03464A03D0042B01D0082B21D0026090
:100870004A680F23424C03EA1212A35C0268DA4072
:1008800042604B68072505EA1323E35C22FA03F371
:1008900083604B6805EAD323E35CDA40C2604968B1
:1008A000032303EA9131231F595CB2FBF1F101618B
:1008B00030BD4A684B6802F470124FF0020413F422
:1008C000803F04EB924202D04B689B0301D52D4B35
:1008D00000E02A4B5A43CAE7234A0029516901D054
:1008E000014300E08143516170471F4A002991692B
:1008F00001D0014300E08143916170471A4A002909
:10090000D16901D0014300E08143D1617047164AAB
:100910000029D16801D0014300E08143D1607047D4
:10092000114A0029116901D0014300E0814311619E
:10093000704711494039086070470E49C8647047D4
:100940000949C87170470848416A41F080714162A5
:100950007047054A0146002092680A4200D00120F3
:100960007047014988727047001002400000FFF88C
:10097000FFFFF6FE000042428004424200127A006D
:100980000400002000093D00C44910B588420AD186
:1009900001218C032046FFF7BAFF2046BDE8104036
:1009A0000021FFF7B4BFBE49884202D101214C04A7
:1009B00010E0BC49884202D101218C040AE0BA4906
:1009C000884202D10121CC0404E0B84988420AD10E
:1009D00001210C052046FFF7A3FF2046BDE810408B
:1009E0000021FFF79DBF10BD30B50446008A85B0D9
:1009F0000D464CF6FF710840E98801432182A18928
:100A00004EF6F3100140A8882A8910436A890A43E8
:100A10001043A081A08A4FF6FF410840A9890143F5
:100A2000A1826846FFF718FF9C48844201D10398D1
:100A300000E00298A189090400EBC00101EB00105D
:100A4000296801D5490000E08900B0FBF1F064227B
:100A5000B0FBF2F109010B096FF018056B4300EBD5
:100A60008300A3891D044FF0320306D503EBC000B9
:100A7000B0FBF2F000F0070005E003EB0010B0FB64
:100A8000F2F000F00F000843208105B030BD4FF4B4
:100A90001651016000218180C18001810C224281B8
:100AA0008181704710B5038A4FF2FF0213400A8814
:100AB0004C8822438C88C9880C4322431A43028203
:100AC00010BD0021018041808180C18070470029D4
:100AD000818902D041F4005101E021F4005181816B
:100AE000704710B5C1F3421301F01F040121A1406A
:100AF000012B07D0022B07D01430002A026805D042
:100B00000A4304E00C30F8E71030F6E78A4302604D
:100B100010BD002A828A01D00A4300E08A43828203
:100B20007047028A22F00F020282028A0A4302827E
:100B30007047828922F40062828182890A4382811D
:100B400070470029818902D041F0020101E021F0C3
:100B5000020181817047028A22F020020282028A09
:100B60000A43028270470029018A02D041F4804181
:100B700001E021F4804101827047C1F308018180C6
:100B800070478088C0F308007047818941F00101F7
:100B900081817047028BD2B20283028B42EA01212B
:100BA00001837047028B02F47F420283028B0A4367
:100BB000028370470029818A02D041F0200101E0C0
:100BC00021F02001818270470029818A02D041F002
:100BD000100101E021F01001818270470029818A13
:100BE00002D041F0080101E021F008018182704744
:100BF0000029818902D041F4004101E0C1F30E01D6
:100C0000818170470029818A02D041F4006101E0AE
:100C100021F4006181827047828A22F0040282827C
:100C2000828A0A43828270470029818A02D041F079
:100C3000020101E021F0020181827047024600209A
:100C400012880A4200D001207047C94301807047D2
:100C500030B501F01F0201240025C1F3421304FA4C
:100C600002F2012B0FD0022B0FD0838A4FEA112101
:100C70000088134204FA01F400EA040001D000B134
:100C80000125284630BD8389F0E7038AEEE70A0A8A
:100C900001219140C94301807047000000380140A4
:100CA0000044004000480040004C0040005000401C
:100CB0000CB500214B4801910091026842F480324A
:100CC00002604FF4A063026802F400320092019ABD
:100CD000521C0192009A12B9019A9A42F3D1026809
:100CE000920333D5012100913F490A6842F0100276
:100CF0000A600A6822F003020A600A6842F00202EF
:100D00000A604168416041684160416841F4806126
:100D10004160416821F47C114160416841F4E8116F
:100D20004160016841F08071016001688901FCD572
:100D3000416821F003014160416841F002014160D6
:100D40004168C1F381010229FAD10CBD00910CBDAB
:100D5000244810B5016841F0010101604168234A4F
:100D6000114041600168224A11400160016821F48C
:100D700080210160416821F4FE0141604FF41F01B0
:100D80008160FFF795FF1B494FF00060086010BDC0
:100D9000144910B54868184A10F00C03174803D0DE
:100DA000042B01D0082B0AD002604968134AC1F312
:100DB0000311121D515C0268CA40026010BD4A68EE
:100DC0004B6802F470124FF0020413F4803F04EBFE
:100DD000924202D04B689B0301D5094B00E0064BC1
:100DE0005A43E1E700100240002002400000FFF8F3
:100DF000FFFFF6FE08ED00E000127A00140000206C
:100E000000093D007047FE490A885206FCD5FC4A9D
:100E1000C1B2121D11807047F0B5054687B001219F
:100E20000520FFF762FD01218803FFF75EFDF44E08
:100E30003046FFF7A9FD7015ADF8100018208DF8A9
:100E40001300F04F03248DF8124004A93846FFF731
:100E500006FB3015ADF8100048208DF8130004A9EA
:100E60003846FFF7FCFA25208DF814008DF8154060
:100E70008DF8164001208DF8170005A8FFF725FA18
:100E80000020ADF80400ADF80600ADF80800ADF89C
:100E90000C000C20ADF80A00009569463046FFF7BB
:100EA000A3FD012240F225513046FFF71AFE012131
:100EB0003046FFF70CFE40213046FFF7C6FE07B074
:100EC000F0BD30B50446012185B04804FFF716FD9A
:100ED00001210520FFF709FD0420ADF810001820BE
:100EE0008DF813000320C74D8DF8120004A9284681
:100EF000FFF7B5FA0820ADF8100048208DF8130070
:100F000004A92846FFF7ABFA0020ADF804000094CE
:100F1000ADF80600ADF80800ADF80C000C20BA4C96
:100F2000ADF80A0069462046FFF75EFD012240F257
:100F300025512046FFF7D5FD01212046FFF7C7FDCB
:100F400040212046FFF781FE05B030BD30B5044694
:100F5000012185B08804FFF7D1FC01210820FFF7AB
:100F6000C4FC4FF48060ADF8100018208DF8130019
:100F70000320A64D8DF8120004A92846FFF76FFA4A
:100F8000E814ADF8100004208DF8130004A92846D9
:100F9000FFF765FA0020ADF804000094ADF80600F4
:100FA000ADF80800ADF80C000C20994CADF80A0023
:100FB00069462046FFF718FD012240F225512046E0
:100FC000FFF78FFD01212046FFF781FD40212046DC
:100FD000FFF73BFEB8E730B50446012185B0C804F1
:100FE000FFF78CFC01211020FFF77FFC4FF480609D
:100FF000ADF8100018208DF813000320854D8DF8F2
:10100000120004A92846FFF72AFAE814ADF81000E8
:1010100004208DF8130004A92846FFF720FA0020C9
:10102000ADF804000094ADF80600ADF80800ADF886
:101030000C000C20784CADF80A0069462046FFF7FA
:10104000D3FC012240F225512046FFF74AFD012141
:101050002046FFF73CFD40212046FFF7F6FD73E7F1
:1010600010B50446012186B00805FFF747FC0121B1
:101070001020FFF73AFC4FF48050ADF81000182014
:101080008DF8130003208DF8120004A96148FFF7C2
:10109000E6F90420ADF810008DF8130004A95F48AC
:1010A000FFF7DDF90020ADF804000094ADF806006C
:1010B000ADF80800ADF80C000C20594CADF80A0052
:1010C00069462046FFF790FC012240F22551204658
:1010D000FFF707FD01212046FFF7F9FC40212046DC
:1010E000FFF7B3FD06B010BD10B50446FFF745FD90
:1010F00080212046FFF7A2FD0028F9D010BD70B571
:101100000C46064600250AE03046FFF736FD8021F2
:101110003046FFF793FD0028F9D0641C6D1C217840
:101120000029F1D1284670BD70B5354C40F22555E7
:1011300029462046FFF78CFD30B92046FFF721FDF8
:1011400029462046FFF7A3FD40F227752946204691
:10115000FFF77EFD002805D129462046BDE87040F6
:10116000FFF795BD70BD70B5274C40F22555294657
:101170002046FFF76DFD18B929462046FFF787FD89
:1011800040F2277529462046FFF762FD002805D169
:1011900029462046BDE87040FFF779BD70BD70B5A7
:1011A0001B4C40F2255529462046FFF751FD18B942
:1011B00029462046FFF76BFD40F227752946204659
:1011C000FFF746FD002805D129462046BDE87040BE
:1011D000FFF75DBD70BD70B50F4C40F22555294637
:1011E0002046FFF735FD18B929462046FFF74FFD89
:1011F00040F2277529462046FFF72AFD002811E016
:10120000003801400008014000440040000C01404B
:101210000048004000100140004C00400014014014
:101220000050004005D129462046BDE87040FFF738
:101230002EBD70BD70B50D4C40F225552946204697
:10124000FFF706FD18B929462046FFF720FD40F2BA
:10125000277529462046FFF7FBFC002805D12946C3
:101260002046BDE87040FFF712BD70BD0050004041
:1012700038B501211020FFF738FB104D2846FFF745
:1012800097F86C14ADF8004003208DF80200102090
:101290008DF8030069462846FFF7E1F82146284605
:1012A000FFF74BF938BD4FF400510448FFF747B939
:1012B0004FF400510148FFF740B900000010014011
:1012C00010B5FFF7BDF9002010BD08B501210520BC
:1012D000FFF70BFB0120ADF8000028208DF803007C
:1012E00069460C48FFF7BBF801210807FFF706FB2A
:1012F0000120FFF7B2F9FFF7C9F908BD10B50121C8
:101300000807FFF7FBFA01210846FFF7AAF910BD0D
:10131000002070470008014010B501214020FFF770
:10132000DBFABDE81040FFF723B810B5FFF724F84B
:101330000446FFF71DF8204610BD10B5FFF720F852
:101340000446FFF715F8204610BD0000014800686C
:10135000704700001400002010B5182000F0B0F90C
:10136000040004D000202060201D00F081FA2046F7
:1013700010BD2DE9F04100278846040005D140F258
:101380001222B2A1B7A003F02FF85FEA186005D0CF
:1013900040F21322ADA1B3A003F026F8261D04F1FC
:1013A0000C0501F009FC2168F06841EA08012160A0
:1013B00018E000BFD0E9001601F07F425301236816
:1013C00021F07F4102D40B4203D10AE031EA03034A
:1013D00007D1D20100D50F43216841F0007101F01F
:1013E00049FF3046A842E5D12068B843206001F0AB
:1013F00055FB2068BDE8F0812DE9F04104461F4609
:1014000015468846100E04D0C62290A195A002F081
:10141000EBFF25B9C7228DA192A002F0E5FF01F0F4
:10142000C0FF28B927B1CA2288A18EA002F0DCFF34
:1014300001F0C2FB204641462668FFF79AFF46EAC4
:10144000080635EA060008D06FB145F0A0613A46BB
:10145000201D01F096FE002606E02068A8432060CB
:1014600001F01CFB1EE0266801F018FBD7B138B96B
:1014700080494FF080500860BFF34F8FBFF36F8FEC
:1014800002F08AF8064680010AD400F0D8FA2668ED
:1014900035EA060002D126EA0500206000F0E9FAEC
:1014A00026F07F463046A5E72DE9F0479A46DDF85D
:1014B000209090460D4604004FF0000705D14FF4F0
:1014C000A07262A167A002F08FFF280E05D040F243
:1014D00041125EA163A002F087FF2DB94FF4A17203
:1014E0005AA160A002F080FF01F05BFF40B9B9F1A2
:1014F000000F05D040F2451254A15AA002F074FF2B
:1015000001F05AFB266852462946304600F093F80F
:1015100030B1B8F1000F1AD02068A843206016E05F
:10152000B9F1000F13D0B8F1000F01D04FF0807760
:10153000BAF1000F01D047F0806745EA07014A463B
:10154000201D01F01EFE01F0A9FA18B10AE001F019
:10155000A5FA1FE047494FF080500860BFF34F8F56
:10156000BFF36F8F02F018F80646800110D400F028
:1015700066FA266852462946304600F05CF828B1E3
:10158000B8F1000F02D02068A843206000F071FA83
:1015900026F07F463046BDE8F08770B50E46040061
:1015A00005D14FF4EA7229A12EA002F01DFF300EE2
:1015B00005D040F2D51225A12AA002F015FF00F0B7
:1015C0003EFA256825EA0600206000F052FA284617
:1015D00070BD5022EFF3118182F31188BFF34F8F5A
:1015E000BFF36F8F006881F3118870472DE9F041D8
:1015F0000546041D01F0E0FA04F1080640F27227E6
:101600004FF000780BE0E068B04204D13A460FA1F9
:1016100014A002F0E9FE4146E06801F02BFE2068CC
:101620000028F0D1284600F0B5F8BDE8F04101F0FF
:1016300035BA9EE6B1E70346002012B1994302D0C5
:1016400070470B42FCD00120704700002E2E5C6FCB
:10165000735C6576656E745F67726F7570732E6309
:10166000000000004572726F723A25732C25640DDC
:101670000A00000004ED00E030B5734900E01146B7
:101680000A688242FBD34B685C18844203D14068ED
:1016900018444860084643681C18944209D16A4CB3
:1016A000103C2468A24209D052681A4442600A6879
:1016B00012680260814200D0086030BD0460F9E722
:1016C0002DE9F0410546002701F076FA5E4E103E06
:1016D000306808B900F097F8F06805424DD1002D48
:1016E0004BD0083568070BD005F00700C0F10800A3
:1016F0000544680704D0952254A158A002F074FE56
:10170000DDB37068854238D84F4801460C6801E067
:1017100020460C466168A94202D221680029F7D10F
:101720003168B0468C4228D0076821680160606843
:101730000837401B10280ED96619700704D0C22242
:1017400042A146A002F050FE6068401B7060304627
:101750006560FFF791FF6268D8F804104046891A67
:10176000C8F80410D8F80830994200D28160D8F83F
:101770000C0002430020C4E9000201F08FF9780751
:1017800005D04FF4817231A134A002F02DFE38460D
:10179000BDE8F08170B500282BD02B4DA0F10804D6
:1017A000103D6068E968084205D14FF48B7227A1AB
:1017B0002AA002F019FE206828B140F2171223A1D6
:1017C00026A002F011FE6168E868014211D022688B
:1017D000002A0ED18143616001F0EEF9606869680A
:1017E000084468602046FFF747FFBDE8704001F0FD
:1017F00055B970BD14481038406870471248103809
:1018000080687047704719484FF40051420706D06E
:10181000C01D164920F00700411AC1F500510A4ABF
:1018200000230144C2E900030839103A21F00701FE
:1018300011604B600B600B1AC0E9001393604FF00E
:1018400000405360D06070473C0000202E2E5C6F3B
:10185000735C686561705F342E6300004572726F5F
:10186000723A25732C25640D0A000000E800002060
:1018700000F108014FF0FF32C0E90112C1600161BF
:1018800000210160704700210161704742684A6091
:1018900093688B6093685960916008610168491C86
:1018A0000160704730B50B685A1C02D000F1080285
:1018B00002E0026904E02246546825689D42FAD994
:1018C00053684B6099608A60516008610168491CE7
:1018D000016030BDD0E9013201699A60D0E901238D
:1018E0005A604A68824201D182684A6000220261DD
:1018F0000868401E086008687047000010B54FF483
:10190000E130FFF789FAFFF7B3FCFFF705FD04A00C
:1019100002F06AFD02F0B2FB01F0B9FB002010BD3D
:10192000627370207365747570210000754840689B
:10193000401C04D0CA2274A177A002F055FD5020AB
:1019400080F31188BFF34F8FBFF36F8FFEE710B5A1
:10195000031F4FF080741C601B1F21F001011960F0
:10196000191F714B0B60143940380A6010BD4FF0DD
:10197000E0200021016181616C494FF47A720968AD
:10198000B1FBF2F1491E41610721016170477CB54D
:10199000674D28780190FF20287028788DF8000086
:1019A0009DF800009DF8001000F0F000884205D07E
:1019B0004FF48A7254A158A002F016FD9DF8000061
:1019C000504C00F0500020700720A06006E000BFDF
:1019D0009DF8001049008DF80010401E9DF8001081
:1019E0000906F5D4A060032805D04FF4987246A1EB
:1019F00049A002F0F9FC207A000200F4E060A06047
:101A0000019828704B48016841F470010160016839
:101A100041F070410160FFF7AAFF00206060FEF70F
:101A2000F5FB00207CBD37484068B0F57A7F05D0D3
:101A30004FF4AB7234A138A002F0D6BC70475020EE
:101A400080F31188BFF34F8FBFF36F8F2D49486824
:101A5000401C486001280BD136481C38006810F043
:101A6000FF0F05D04FF4B37227A12BA002F0BCBC2E
:101A7000704710B5234C606828B940F26D1222A15E
:101A800025A002F0B1FC6068401E606001D180F3C7
:101A9000118810BD10B5502080F31188BFF34F8F0F
:101AA000BFF36F8F00F09DFF20B122494FF08050AF
:101AB0001C390860002080F3118810BD10B5FEF7B6
:101AC000DBFB104C10280CD300F1E02090F8F00361
:101AD0002178884205D240F2A5220BA10EA002F087
:101AE00083FC144814380068A16800F4E060884260
:101AF00007D9BDE8104040F2B52203A106A002F0CC
:101B000073BC10BD440000202E2E5C6F735C706FA0
:101B100072742E63000000004572726F723A257372
:101B20002C25640D0A0000002D1900081400002067
:101B300000E400E020ED00E070B50D46040005D1A2
:101B400040F20312F3A1F7A002F04EFCFFF777FF7B
:101B5000D4E90F20216802FB0011A1600021A163DC
:101B6000216861600A46D4E90F01401E00FB012193
:101B7000E16021464FF0FF3001F8440F487004F156
:101B800010004DB1FFF774FE04F12400FFF770FE62
:101B9000FFF76FFF012070BD21690029F8D001F027
:101BA00034FB0028F4D0E3494FF080500860BFF3C5
:101BB0004F8FBFF36F8FEBE770B50E46050005D171
:101BC0004FF4BB72D3A1D7A002F00EFCA6B105FB67
:101BD00006F04C30FFF774FD04000CD004F14C000B
:101BE00066B12060C4E90F5620460121FFF7A4FF2B
:101BF00000212046A16470BD0020EAE72460F1E7DF
:101C00002DE9F041856B174604460026026C82B12F
:101C1000C7B1E06802F0E2FCE168206C091AE160FB
:101C20002268914202D2A168081AE060022F16D001
:101C300017E02068A8B9A06801F005FC064600205E
:101C4000A0600EE0606802F0C9FC216C6068084486
:101C50006060A168884204D32068606001E005B13B
:101C60006D1E6D1CA5633046BDE8F0812DE9F34182
:101C70000F4600980026846C2CB940F64532A5A189
:101C8000A8A002F0B1FBA06BE16B884205D340F63F
:101C90004632A0A1A3A002F0A7FBA06BE16B884293
:101CA0000CD294F945503A4669462046FFF7A8FF02
:101CB0000646681C05D06D1C84F845503046BDE8CA
:101CC000FC81606A0028F9D004F1240001F09DFA3B
:101CD0000028F3D00126F1E72DE9F0410446FFF793
:101CE000AEFE94F9455004F1240610E0A06C20B13A
:101CF00000212046FFF7BAFF04E0606A48B1304691
:101D000001F083FA08B101F043FB6D1E6DB2002DA6
:101D1000ECDC4FF0FF3684F84560FFF7AAFEFFF7D2
:101D20008EFE94F9445004F1100709E0206948B18F
:101D3000384601F06AFA08B101F02AFB6D1E6DB257
:101D4000002DF3DC84F84460BDE8F041FFF791BE5C
:101D50002DE9FF4782B01D468A464FF00008040077
:101D600005D140F2F1226BA16EA002F03DFBBAF169
:101D7000000F07D1206C28B140F2F22265A169A0C2
:101D800002F032FB022D08D1E06B012805D040F2B1
:101D9000F32260A163A002F027FB01F002FB38B937
:101DA000049828B140F2F6225AA15EA002F01CFB72
:101DB000604F4FF000094FF0805600BFFFF73FFE25
:101DC000A06BE16B884207D3022D05D0049840B385
:101DD000B8F1000F28D02CE0D4F838802A465146BC
:101DE0002046FFF70DFFA16C49B1022D02D1B8F1D9
:101DF000000F10D129462046FFF738FF05E0616A41
:101E000019B104F1240001F000FA20B13E60BFF3E3
:101E10004F8FBFF36F8FFFF72CFE012006B0BDE898
:101E2000F087FFF726FE22E0684601F072FA4FF0D5
:101E30000108FFF71EFE00F0BFFEFFF700FE94F959
:101E40004400401C01D184F8449094F94500401CA2
:101E500001D184F84590FFF70CFE04A9684601F013
:101E60005FFA30B12046FFF737FF00F017FE002081
:101E7000D4E7FFF7E4FDA06BE16B884213D1FFF7D5
:101E8000F8FD04F11000049901F063F92046FFF712
:101E900023FF00F003FE002890D13E60BFF34F8F78
:101EA000BFF36F8F8AE7FFF7E4FD2046FFF714FFCB
:101EB00000F0F4FD82E710B5024600210120FFF793
:101EC0007BFE040007D00021816001600B460A46BA
:101ED000C160FFF73DFF204610BD10B5040005D1DD
:101EE00040F259220BA10FA002F07EFA01F055FA40
:101EF000A16888420BD1E068401EE06005D1002354
:101F00001A4619462046FFF723FF012010BD002086
:101F100010BD00002E2E5C6F735C71756575652EAB
:101F2000630000004572726F723A25732C25640DB0
:101F30000A00000004ED00E02DE9F343002683B021
:101F40000400354607D140F29152AFF23801AFF2AA
:101F50002C0002F049FA206C38B140F29552AFF2F1
:101F60004C01AFF2400002F03FFA01F01AFA48B912
:101F7000049838B140F29A52AFF26801AFF25C00B7
:101F800002F032FA4FF000094FF08057DFF89888DE
:101F9000FFF755FDA06BC8B1401EA063206810B9C3
:101FA00001F004FBA060206950B104F1100001F0C1
:101FB0002CF928B1C8F80070BFF34F8FBFF36F8FB3
:101FC000FFF757FD012005B0BDE8F083049808B184
:101FD00066B10FE03DB140F2E152AFF2C801AFF29D
:101FE000BC0002F001FAFFF744FD5DE0684601F035
:101FF00090F90126FFF73DFD00F0DEFDFFF71FFD24
:1020000094F94400401C01D184F8449094F94500AF
:10201000401C01D184F84590FFF72BFD04A96846C8
:1020200001F07EF90028204612D0FFF755FE00F09F
:1020300035FD204600F0ECFB0028A9D09DB3FFF74A
:10204000FEFC606A50B3206B0068C0F1200126E0FE
:1020500000F0DEFBE0B1206838B9FFF7F0FCA068C3
:1020600001F0ABF90546FFF704FD04F124000499E3
:1020700001F06FF82046FFF72FFE00F00FFD00285B
:1020800086D1C8F80070BFF34F8FBFF36F8F7FE723
:102090002046FFF721FE00F001FD79E70021A0684E
:1020A00001F027FA9FE7FFE700208CE770B50D46A7
:1020B000040007D14FF42472AFF2A811AFF29C10C4
:1020C00002F092F901F069F9A168884204D1E06850
:1020D000401CE060012070BD29462046FFF72CFF20
:1020E0000028F8D0E168491CE16070BD70B50C466D
:1020F000050007D140F2D522AFF2E811AFF2DC10B3
:1021000002F072F9AC4207D940F2D622AFF2FC11CC
:10211000AFF2F01002F068F9022200212846FFF722
:102120004BFD002800D0846370BD2DE9F047984630
:1021300017468946040007D140F2C332AFF22C2182
:10214000AFF2202002F050F9B9F1000F09D1206C54
:1021500038B14FF47172AFF24421AFF2382002F07F
:1021600043F9B8F1020F0AD1E06B012807D040F221
:10217000C532AFF26021AFF2542002F035F9FFF71B
:102180009DFC5020EFF3118680F31188BFF34F8F31
:10219000BFF36F8FA06BE16B884206D3B8F1020FDB
:1021A00003D0002086F3118839E694F94550424661
:1021B00049462046FFF724FD681C04D06D1C84F8B6
:1021C00045500120EEE7A06C012520B14146204694
:1021D000FFF74CFD06E0606A0028F2D004F124000D
:1021E00001F013F80028ECD0002FEAD03D60E8E7BA
:1021F0002DE9F0410E46040007D14FF48C62AFF296
:10220000EC21AFF2E02002F0EFF8206C38B140F2A0
:102210006442AFF20031AFF2F42002F0E5F820683A
:1022200048B9A06838B140F26942AFF21831AFF254
:102230000C3002F0D9F8FFF741FC5020EFF3118584
:1022400080F31188BFF34F8FBFF36F8FA16BE06BEB
:1022500088421FD994F94500491CA163411C04D050
:10226000401C84F84500012015E0A06C012720B136
:1022700000212046FFF7FAFC06E0606A0028F2D051
:1022800004F1240000F0C1FF0028ECD0002EEAD0B9
:102290003760E8E7002085F31188E5E430B4026C8C
:1022A0000B46002A0BD0C1681144C1608468A1426A
:1022B00001D30168C16030BC184602F08FB930BC50
:1022C00070472DE9F747002683B08A46040007D1FE
:1022D0004FF4A062AFF2C431AFF2B83002F084F82C
:1022E000BAF1000F09D1206C38B140F20452AFF2BC
:1022F000DC31AFF2D03002F077F801F052F848B993
:10230000059838B140F20952AFF2F831AFF2EC3033
:1023100002F06AF84FF000094FF08057DFF80885A7
:10232000FFF78DFBA56BB5B151462046FFF7B6FF11
:102330006D1EA563206950B104F1100000F065FF27
:1023400028B1C8F80070BFF34F8FBFF36F8FFFF74E
:1023500090FB012062E5059808B11EB106E0FFF789
:1023600088FB27E0684600F0D4FF0126FFF781FBD9
:1023700000F022FCFFF763FB94F94400401C01D1FC
:1023800084F8449094F94500401C01D184F84590AC
:10239000FFF76FFB05A9684600F0C2FF0028204642
:1023A0000AD0FFF799FC00F079FB204600F030FAE4
:1023B0000028B5D0002031E500F02AFA90B104F1F0
:1023C0002400059900F0C5FE2046FFF785FC00F0CB
:1023D00065FB0028A4D1C8F80070BFF34F8FBFF38E
:1023E0006F8F9DE72046FFF777FC00F057FB97E7DC
:1023F0002DE9F743002582B08946040007D14FF448
:10240000CD62AFF2F041AFF2E44001F0EDFFB9F17F
:10241000000F09D1206C38B140F26C62AFF20C5160
:10242000AFF2005001F0E0FF00F0BBFF48B90498A4
:1024300038B140F27162AFF22451AFF2185001F09E
:10244000D3FF4FF000084FF08056F74FFFF7F7FA31
:10245000A06BA8B149462046E568FFF71FFFE5607D
:10246000606A48B104F1240000F0CFFE20B13E6064
:10247000BFF34F8FBFF36F8FFFF7FBFA0120A2E589
:10248000049808B11DB106E0FFF7F3FA27E06846AB
:1024900000F03FFF0125FFF7ECFA00F08DFBFFF79E
:1024A000CEFA94F94400401C01D184F8448094F998
:1024B0004500401C01D184F84580FFF7DAFA04A9F1
:1024C000684600F02DFF002820460AD0FFF704FCE4
:1024D00000F0E4FA204600F09BF90028B6D0002076
:1024E00071E500F095F988B104F12400049900F039
:1024F00030FE2046FFF7F0FB00F0D0FA0028A5D10F
:102500003E60BFF34F8FBFF36F8F9FE72046FFF70B
:10251000E3FB00F0C3FA99E72DE9F04790468946BE
:10252000040007D140F2FB62AFF21861AFF20C6019
:1025300001F05AFFB9F1000F09D1206C38B140F217
:10254000FC62AFF23061AFF2246001F04DFFFFF7A3
:10255000B5FA5020EFF3118680F31188BFF34F8F47
:10256000BFF36F8FA76BF7B194F9445049462046EB
:10257000FFF794FE7F1EA763681C04D06D1C84F8CF
:102580004450012010E020690028FAD004F1100026
:1025900000F03BFE0028F4D0B8F1000FF1D001218B
:1025A000C8F80010EDE7002086F3118837E42DE924
:1025B000F0410E46040007D140F25772AFF2AC6111
:1025C000AFF2A06001F010FF4EB9206C48B14FF49B
:1025D000EB62AFF2C061AFF2B46001F005FF206CB6
:1025E00038B940F25972AFF2D461AFF2C86001F06D
:1025F000FBFEFFF763FA5020EFF3118580F311889B
:10260000BFF34F8FBFF36F8FA06B30B131462046C1
:10261000E768FFF743FE0120E76085F311883CE699
:1026200010B5040007D140F28A72AFF21871AFF210
:102630000C7001F0D9FEFFF702FAA46BFFF719FA4C
:10264000204665E410B5040007D140F29B72AFF25A
:102650003C71AFF2307001F0C7FEFFF7F0F9D4E93A
:102660000E10441AFFF705FA204651E410B5040095
:1026700007D140F2AC72AFF26471AFF2587001F062
:10268000B3FEA06B44E4694A002100BF02EBC10322
:102690005B68834206D1002042F8310002EBC101A1
:1026A00048607047491C0A29F0D3704710B50400F0
:1026B00007D140F2B772AFF2A471AFF2987001F097
:1026C00093FE2046FFF7DFFF2046BDE81040FFF7EE
:1026D00061B810B5040007D140F60912AFF2CC7111
:1026E000AFF2C07001F080FEA06B08B100200FE4D3
:1026F00001200DE410B5040007D140F63112AFF20D
:10270000EC71AFF2E07001F06FFEA06BE16B8842FC
:1027100001D1012095E7002093E710B5434B00223B
:1027200053F832401CB1521C0A2AF9D389E743F806
:10273000321003EBC201486083E7034610B5002066
:102740003A4A014602EBC10464689C4202D152F845
:10275000310076E7491C0A29F4D372E770B51546B3
:102760000E460446FFF76BF994F944100020491C0B
:1027700001D184F8440094F94510491C01D184F832
:102780004500FFF776F9A06B28B92A46314604F1D7
:10279000240000F01EFD2046BDE87040FFF79CBA03
:1027A00000220421FFF708BA70B50D460446FFF772
:1027B00046F9A06C08B9A06B08B1002401E0A5643B
:1027C0000124FFF756F9204670BD10B50446806C11
:1027D000884201D1A06B08B1002032E7FFF72FF942
:1027E0000020A064FFF745F901202AE708B5002280
:1027F00000920A466946FFF764FD009808BD08B5D7
:1028000000210A4600916946FFF786FE009808BD40
:1028100010B50446FFF713F9A06B48B15FF0000450
:10282000FFF727F920460CE704ED00E0E820002040
:102830000124F5E72DE9F0410546FFF700F9F84CD2
:10284000A068401CA0602068F64F10B1606930B3EA
:102850002BE02560A068012827D1002606EB860022
:1028600007EB8000FFF704F8761C202EF6D3EE4825
:10287000FEF7FEFFEC481430FEF7FAFFEA48283076
:10288000FEF7F6FFE8483C30FEF7F2FFE64850302E
:10289000FEF7EEFFE44860631430A06305E02068B3
:1028A000E96AC06A884200D82560606A401C60629C
:1028B000E96A0120226988401043206101EB810010
:1028C00007EB8000291DFEF7E1FFFFF7D2F86069F2
:1028D00000280CD02068E96AC06A884207D2D34930
:1028E0004FF080500860BFF34F8FBFF36F8FBDE88C
:1028F000F0812DE9FF5F8346DDE90E879946164694
:102900008A469000FEF7DCFE05001AD05420FEF740
:10291000D7FE040012D025630021CDE90241CDE9A4
:1029200000874B4632465146584601F013F8204680
:10293000FFF780FF012004B0BDE8F09F2846FEF7B6
:1029400029FF4FF0FF30F6E770B50546FFF777F83F
:10295000B34C05B92568281DFEF7BCFF58B9E86AD5
:10296000B04A00EB800152F8211021B901218140C9
:10297000206988432061A86A18B105F11800FEF7A4
:10298000A9FF606A401C60622068854208D1A648A1
:10299000291D3C30FEF77AFF6068401C606007E04C
:1029A000A068401EA060284601F031F801F022F82E
:1029B000FFF75FF86069002812D0206885420FD1C8
:1029C000206B28B140F2D24299A19DA001F00CFDEC
:1029D00096494FF080500860BFF34F8FBFF36F8F61
:1029E00070BD2DE9F0418E4C0027206B38B1A069F5
:1029F000401CA061E06900B10127384677E7E6682E
:102A0000761CE66011D1606B006828B140F67F2229
:102A100087A18BA001F0E8FC606BA16B6163A063F0
:102A2000206A401C206200F0E5FFA06ADFF8F48114
:102A3000864209D3606B006880B1606BC068C5686E
:102A4000686886420DD2A0622068C06A00EB8001EF
:102A500058F821000128CDD90127CBE74FF0FF30EE
:102A6000F1E7281DFEF736FFA86A18B105F1180036
:102A7000FEF730FFE86A012122698140114321619C
:102A800000EB800108EB8100291DFEF7FFFEE86ADC
:102A90002168C96A8842CDD30127CBE72DE9F047E9
:102AA0005F4C00252E46206B28B940F6850260A1B8
:102AB00063A001F099FCFEF7C2FF206B401E20636B
:102AC000206BE0BBA168584F28370120B9B3DFF86D
:102AD000549180463868E8B1F868C56805F1180077
:102AE000FEF7F8FE281DFEF7F5FEE86A226908FAEF
:102AF00000F11143216100EB800109EB8100291DE8
:102B0000FEF7C4FEE86A2168C96A8842E2D3C4F8C5
:102B10001C80DFE70DB100F06DFFA56945B14746A8
:102B2000FFF75FFF00B1E7616D1EF9D10020A061E2
:102B3000E06920B13D4901263007086000E003E06C
:102B4000BFF34F8FBFF36F8FFEF793FF3046BDE8A3
:102B5000F0872DE9F041324C0F460546E6682068C3
:102B6000001DFEF7B7FE38B9206890F82C10012040
:102B70008840216981432161681C08D13FB12168E7
:102B8000BDE8F04128485030091DFEF77FBE20689F
:102B90003544B5424560216805D2A06BBDE8F041DF
:102BA000091DFEF77FBE606B091DFEF77BFEA06A64
:102BB000854200D2A5629AE61948016B491C01635F
:102BC000704770B50D46040005D140F2E64218A1E9
:102BD0001BA001F009FC2DB940F2E74214A118A096
:102BE00001F002FC0E4E306B28B14FF49D6210A133
:102BF00013A001F0F9FBFFF7DFFFF2682368591912
:102C0000934204D98B4223D9914202D820E08B42CF
:102C1000FAD9881A21600021FFF79BFF19E0000014
:102C20005000002038210020B823002004ED00E0EF
:102C30002E2E5C6F735C7461736B732E63000000E7
:102C40004572726F723A25732C25640D0A000000DC
:102C50002160FFF723FF002807D1F9494FF080508A
:102C60000860BFF34F8FBFF36F8F70BD10B50400C6
:102C700014D0F448006B38B140F23C52AFF250012E
:102C8000AFF2440001F0B0FBFFF796FF00212046B1
:102C9000FFF75FFFFFF702FF002807D1E8494FF079
:102CA00080500860BFF34F8FBFF36F8F10BD2DE9C9
:102CB000F041040007D14FF4AD62AFF28C01AFF2E6
:102CC000800001F091FBDF4E3068844201D100208A
:102CD0000DE6FEF7B4FE6569776BB66BFEF7C9FECD
:102CE000BD4201D0B54201D1022000E6D64885425E
:102CF00008D1A06A0028F7D194F850000128F3D039
:102D00000320F4E5D0481438854202D00DB10120EB
:102D1000EDE50420EBE510B50446FEF790FE0CB996
:102D2000C8480468E46AFEF7A4FE204610BD10B54A
:102D30000446FEF7C3FE5020EFF3118180F31188A3
:102D4000BFF34F8FBFF36F8F0CB9BE480468E06AC2
:102D500081F3118810BD2DE9F04100270E4604468D
:102D6000202908D340F20262AFF23C11AFF23010DA
:102D700001F03AFB1F26FEF762FEB24D04B92C6843
:102D8000606CB0423FD02968864206D98C4207D099
:102D90002968C96AB14202D902E08C4200D10127F8
:102DA000E16A8846884200D1E6626664A06900282C
:102DB00002DBC6F12000A061A44E08EB8800616927
:102DC00006EB8000814215D1201DFEF783FD012115
:102DD00020B92A6901FA08F082432A61E06A2A6967
:102DE00081401143296100EB800006EB8000211D2A
:102DF000FEF74CFD3FB192494FF080500860BFF3A1
:102E00004F8FBFF36F8FBDE8F041FEF732BE70B554
:102E10008C4C206B10B10120E06170BD0020E0619E
:102E200020698A4EB0FA80F0C0F11F0000EB8005E7
:102E300056F8250038B940F6B732AFF20C21AFF2A0
:102E4000002001F0D1FA06EB850000F1080241688C
:102E500049684160914201D149684160C868206079
:102E600070BD70B50446FEF7EAFD764D04B92C68D6
:102E7000201DFEF72FFD58B9E06A744A00EB80016F
:102E800052F8211021B90121814028698843286125
:102E9000A06A18B104F11800FEF71CFD211D6A4854
:102EA000FEF7F4FC94F850000026012801D184F8C4
:102EB0005060FEF7DEFD686928B1FEF7C0FD00F046
:102EC00099FDFEF7D6FD2868844213D1686990B158
:102ED000286B38B140F2E462AFF2AC21AFF2A0202F
:102EE00001F082FA56494FF080500860BFF34F8FCF
:102EF000BFF36F8F70BD54480068A968884201D144
:102F00002E6070BDBDE8704081E770B500250400FB
:102F100007D140F20E72AFF2E821AFF2DC2001F0EF
:102F200063FA49496069884205D1A06A2839884214
:102F300001D000B90125284670BD70B5040007D145
:102F40004FF4E762AFF21831AFF20C3001F04CFAF7
:102F50003C4D2868844229D0002C27D0FEF76FFD15
:102F60002046FFF7D2FFE8B1201DFEF7B3FCE06A70
:102F700001212A69814011432961344900EB800015
:102F800001EB8000211DFEF781FCE06A2968C96A17
:102F9000884207D32A494FF080500860BFF34F8F13
:102FA000BFF36F8FBDE87040FEF763BD70BD2DE9C4
:102FB000F0410027040007D140F26F72AFF2903168
:102FC000AFF2843001F010FAFEF778FD5020EFF3F5
:102FD000118580F31188BFF34F8FBFF36F8F2046A9
:102FE000FFF793FFF0B1174E306B20B1164804F194
:102FF0001801283814E0E06A3168C96A884200D3B1
:103000000127201DFEF766FCE16A01203269884035
:103010001043306101EB81000C4901EB8000211D60
:10302000FEF734FC85F31188384660E4064E054C03
:10303000143E064F4FF08058DFF804901AE000006D
:1030400004ED00E05000002008240020382100207A
:10305000FEF7F5FCF068C568281DFEF73BFCA0688C
:10306000401EA0606068401E6060FEF702FD2846BA
:1030700000F0CDFC60680028EAD138680128F9D951
:10308000C9F80080BFF34F8FBFF36F8FF2E71CB515
:10309000FE480024CDE9004023468022FCA1FE48E2
:1030A000FFF727FC012803D100F0C9FD01280CD04F
:1030B000401C1DD14FF40262AFF28C41AFF2804050
:1030C00002B0BDE8104001F08FB9502080F31188A4
:1030D000BFF34F8FBFF36F8FEC484FF0FF312C38A9
:1030E000816201214161C460BDE81C40FEF74FBC14
:1030F0001CBD502080F31188BFF34F8FBFF36F8F3B
:10310000E24900202C394861FEF78DBCDF482C389D
:10311000C068704710B5FEF7D1FCDC482C38C06899
:1031200010BDDA482C388068704710B510B10446DD
:1031300024B10BE0D5482C380468F9E740F6291291
:10314000AFF21451AFF2085001F04EF904F134001F
:1031500010BD70B50D46040007D140F6CE32AFF277
:103160003051AFF2245001F03FF9C8482C380168C3
:1031700020461831FEF796FB2846BDE87040012135
:10318000E7E42DE9F04116460F46050007D140F669
:10319000DF32AFF26451AFF2585001F025F9BB4C69
:1031A0002C3C206B38B940F6E332AFF27C51AFF2E1
:1031B000705001F019F9216847F0004088612168DA
:1031C00028461831FEF762FB3046BDE8F041012188
:1031D000BFE470B514460D46060007D140F6F9323B
:1031E000AFF2B451AFF2A85001F0FEF8A7482C3866
:1031F000016830461831FEF749FB0CB14FF0FF353E
:1032000021462846BDE87040A3E42DE9F041C0689E
:10321000C4683CB940F62942AFF2EC51AFF2E0503D
:1032200001F0E2F804F118000746FEF753FB974D52
:103230002C3D286B012658B139469848FEF726FBED
:10324000E06A2968C96A884212D90120EE61B2E4B5
:10325000201DFEF73FFBE16A2A6906FA01F01043E0
:10326000286101EB81008E4901EB8000211DE5E71B
:103270000020A0E470B5854D06462C3D0C46286B19
:1032800038B94FF44662AFF25861AFF24C6001F0CA
:10329000ABF844F000403060F4683CB940F6684256
:1032A000AFF27461AFF2686001F09EF83046FEF74D
:1032B00011FB201DFEF70EFBE16A01262A6906FAC2
:1032C00001F01043286101EB8100754901EB80009A
:1032D000211DFEF7DBFAE06A2968C96A884200D935
:1032E000EE6170BD10B5040007D140F67E42AFF22A
:1032F000C061AFF2B46001F077F8FEF7A0FB63485D
:103300002C38016A2160C0686060BDE81040FEF79B
:10331000B0BB5E492C390A6A0260C96841607047D7
:103320002DE9F0410C46050007D140F69442AFF27A
:103330000071AFF2F46001F057F83CB940F69542E5
:10334000AFF21471AFF2087001F04EF8FEF777FBA0
:103350004E4E2C3EF2686B682068D11A471C07D08D
:103360002F68366AB74208D0934206D8012400E09D
:103370000024FEF77EFB20461DE4884205D9401A52
:1033800020602846FFF7C5FFF2E700202060EDE748
:103390003E4901202C39C86170473C482C380068F0
:1033A00070473A482C38416919B1006B18B10020B8
:1033B0007047012070470220704770B504004FF03D
:1033C000000039D0314DE16A2C3D2A68D26A914221
:1033D00033D2A069002804DB2868C06AC0F120004D
:1033E000A0612F4E01EB8101606906EB81018842EB
:1033F0001ED1201DFEF76EFA012150B9E06A00EBE4
:10340000800256F8222022B92A6901FA00F082438C
:103410002A612868C06AE0622A69814011432961F3
:1034200000EB800006EB8000211DFEF72FFA02E082
:103430002868C06AE062012070BD616C2A68D26AA7
:103440009142F8D370BD70B504004FF000064ED025
:103450000E4D2C3D2868844207D040F6D172AFF65D
:103460003001AFF6240000F0BFFFA06C38B940F681
:10347000D272AFF64401AFF6380000F0B5FFA06C91
:10348000401EA064626CE16A91420BE07C00002067
:1034900049444C45000000002D300008E023002086
:1034A0003821002023D010BB201DFEF713FAFE4A5E
:1034B000012150B9E06A00EB800352F8233023B9B0
:1034C0002B6901FA00F083432B61606CE062C0F16C
:1034D0002000A061E06A2B6981401943296100EB5B
:1034E000800002EB8000211DFEF7D0F90126304656
:1034F00070BD70B50D4604004DD0A06C38B94FF4C6
:103500008152AFF6D401AFF6C80000F06DFF606CD9
:10351000A84200D30546E06AA8423CD0A06C01282E
:1035200039D1E24E3068844207D141F23B02AFF616
:103530000011AFF6F40000F057FFE06AE562A16900
:10354000002902DBC5F12001A161D74D00EB80000D
:10355000616905EB800081421DD1201DFEF7BAF99B
:10356000012150B9E06A00EB800255F8222022B90F
:10357000326901FA00F082433261E06A32698140C7
:103580001143316100EB800005EB8000211DBDE897
:103590007040FEF77BB970BDC44908680A6880694D
:1035A000D26A0968C2F120028A617047BF4908687F
:1035B00018B10868826C521C82640868704770B544
:1035C0000C460646FEF73BFAB84D2868C06C80B939
:1035D0002968012081F850005CB101212046FFF7E5
:1035E000B8FAB3494FF080500860BFF34F8FBFF374
:1035F0006F8FFEF73EFAFEF722FA2868C46C0020AF
:1036000034B116B12968C86402E02A68611ED16429
:10361000296881F85000FEF72CFA204670BD2DE98C
:10362000F0411E46154688460746FEF708FA9F4CAD
:10363000206890F85000022814D02068C16CB9436B
:10364000C1642168012081F850005EB1012130463B
:10365000FFF77FFA96494FF080500860BFF34F8F15
:10366000BFF36F8FFEF705FAFEF7E9F915B1206891
:10367000C06C2860206890F85000022801D0002516
:1036800005E02068C16C21EA0801C16401252168B8
:10369000002081F85000FEF7ECF92846C5E42DE93A
:1036A000F0411F4690460D4604004FF0010607D139
:1036B00041F27022AFF68821AFF67C2000F094FE34
:1036C000FEF7BDF90FB1E06C386094F8507002203D
:1036D00084F85000B8F1050F11D2DFE808F01B03A1
:1036E000060C0A00E06C284301E0E06C401CE0643A
:1036F00010E0022F01D0E5640CE0002635E0E06C1C
:10370000401C07D041F2A122AFF6DC21AFF6D02059
:1037100000F06AFE012F28D1201DFEF7DBF8634D73
:10372000E06A01212A698140114329615E4900EB69
:10373000800001EB8000211DFEF7A8F8A06A38B1D7
:1037400041F2B022AFF61831AFF60C3000F04CFE6B
:10375000E06A2968C96A884207D955494FF0805004
:103760000860BFF34F8FBFF36F8FFEF782F93046CB
:103770005BE42DE9F0471F46DDF8209092460D46A8
:1037800004004FF0010807D141F2E322AFF66031A7
:10379000AFF6543000F028FEFEF790F95020EFF31A
:1037A000118680F31188BFF34F8FBFF36F8F0FB176
:1037B000E06C386094F85070022084F85000BAF140
:1037C000050F12D2DFE80AF01C03060C0A00E06CB9
:1037D000284301E0E06C401CE06411E0022F01D0BE
:1037E000E5640DE04FF000082BE0E06C401C07D0D2
:1037F00041F22632AFF6C831AFF6BC3000F0F4FD2E
:10380000012F1ED1A06A38B141F23132AFF6E0315A
:10381000AFF6D43000F0E8FD244D286B0127A8B1A5
:10382000244804F1180100BFFEF730F8E06A296867
:10383000C96A884205D9B9F1000F01D0C9F80070F2
:10384000EF6186F311884046BDE8F087201DFEF742
:1038500041F8E16A2A6907FA01F01043286101EB97
:103860008100114901EB8000211DDDE72DE9F041C8
:103870008846040007D141F26332AFF64C41AFF6FF
:10388000404000F0B1FDFEF719F95020EFF311862A
:1038900080F31188BFF34F8FBFF36F8F94F8500000
:1038A000022184F8501007E0382100205000002049
:1038B00004ED00E0E0230020E16C491CE1640128F4
:1038C0001DD1A06A38B141F28932AFF69C41AFF602
:1038D000904000F089FD534D286B012790B104F111
:1038E00018015148FDF7D2FFE06A2968C96A884289
:1038F00005D9B8F1000F01D0C8F80070EF6186F368
:103900001188A4E4201DFDF7E5FFE16A2A6907FAA2
:1039100001F01043286101EB8100444901EB800074
:10392000211DDFE710B568B14FEA0004FEF787F804
:1039300094F85000022808D05FF00004FEF799F8D0
:10394000204610BD37480468F0E7002084F8500096
:103950000124F3E72DE9F05F8846DDE90B94834607
:103960006FF00301206B01EB820108440A9E20F0F6
:1039700007079A46780705D040F261322CA130A0A3
:1039800000F032FD0025B8F1000F0FD05FF000000D
:10399000221818F8001082F8341018F8001011B12D
:1039A000401C1028F4D384F8435001E084F83450CC
:1039B000202E00D31F26E662C4E91165201DFDF705
:1039C00062FF04F11800FDF75EFF2461C6F12000DC
:1039D0006462A061E56484F8505052465946384606
:1039E000FDF7B5FF2060B9F1000F01D0C9F8004024
:1039F000BDE8F09F0B48416B096829B1416BC9686C
:103A0000C9684968816270474FF0FF31FAE710B525
:103A10000446006BFDF7BEFE2046BDE81040FDF7F2
:103A2000B9BE000050000020E02300203821002013
:103A30002E2E5C6F735C7461736B732E63000000D9
:103A40004572726F723A25732C25640D0A000000CE
:103A500070B500244160FC4D0061914206D8D11A36
:103A60008269914206D2011D286907E09A4203D279
:103A7000994201D3012403E0011DE868FDF712FF1C
:103A8000204670BD2DE9FF479946DDF830A09046ED
:103A90000E4607004FF0000405D14FF4C172EBA1B0
:103AA000EEA000F0A1FCE84D286880B1CDE90068E7
:103AB0000297062E11DAFFF774FC02284FF000037C
:103AC00009D0002269462868FEF742F9044604B08E
:103AD0002046BDE8F0875246F4E700234A4669468F
:103AE000FEF723FBF2E770B586B0D74E6FE0019882
:103AF000002806DADDE90301029A904701980028C0
:103B000065DB039C606910B1201DFDF7E3FE05A88D
:103B100000F08CF9054601980A2858D2DFE800F039
:103B20000505052E344B05052E3494F824002A464D
:103B300040F0010084F824000298A1690346014482
:103B40002046FFF785FF002841D0216A204688479C
:103B500094F8240040073AD5002000900298A1690B
:103B60000023421819462046FFF78CFF10BB40F295
:103B70001332B6A1B9A000F037FC28E014F8240FE6
:103B800020F00100207022E094F8240040F00100B1
:103B900084F824000298A06128B940F22B32ABA12E
:103BA000AEA000F021FCA0692B4641191A46204620
:103BB000FFF74EFF0BE094F82400810703D4204662
:103BC000FDF7E8FD03E020F0010084F82400002266
:103BD00001A93068FEF775FB002888D106B070BDDA
:103BE000994CE068016841B1C0680021D0F800003C
:103BF00000F05DF9FFF777FFF3E701210020F7E719
:103C000010B5FDF71CFF904C2068A0B99748FDF750
:103C10002FFE96481430FDF72BFE9448E0601430D8
:103C20002061002210210A20FDF7C6FF206010B19C
:103C30008FA1FEF772FDBDE81040FDF71ABF1CB55D
:103C40000024FFF7DDFF8048006868B17E491F202F
:103C5000091DCDE9000100234FF4807286A1884838
:103C6000FEF747FE040005D140F2131277A17BA0B6
:103C700000F0BAFB20461CBD2DE9F04707469946E7
:103C800016460D462820DDF820A0FDF719FD04009A
:103C90001ED0B84600204F4684F82400D1462DB9E6
:103CA00040F2651277A17BA000F09EFBFFF7A8FF12
:103CB00004F11801C4F8008081E8A002201DFDF77E
:103CC000E2FD2EB194F8240040F0040184F82410A1
:103CD0002046FEE610B55C4C606828B94FF4D672F9
:103CE0005AA15EA000F080FB606810BD10B5040012
:103CF00005D140F2B51255A158A000F075FBA0699E
:103D000010BD70B50D46040005D14FF4DF724FA110
:103D100052A000F069FBFDF792FE14F8240F15B1D4
:103D200040F0040001E020F004002070BDE8704085
:103D3000FDF79FBE10B5040005D140F2D31243A198
:103D400046A000F051FB606810BD10B5040005D11D
:103D500040F2DD123DA141A000F046FB206810BDFD
:103D600010B5040005D14FF4737238A13BA000F0E8
:103D70003BFBFDF764FE94F82400C00704D0012447
:103D8000FDF777FE204610BD0024F9E710B50400CA
:103D900005D140F2E5322DA130A000F025FBFDF762
:103DA0004EFEE469FDF765FE204610BD70B50D4678
:103DB000040005D140F2F53224A128A000F014FB44
:103DC000FDF73DFEE561BDE87040FDF752BE1FB551
:103DD0001C466FF00103CDE90030CDE902121A480C
:103DE0000023224669460068FEF79FF904B010BD23
:103DF0002DE9FF41144C07469846206815460E46AB
:103E000028B940F2214211A114A000F0EDFA4FF0C0
:103E1000FF30CDE90007CDE902650023424669463F
:103E20002068FDF795FF04B0BDE8F08170B5054648
:103E3000FFF76CF9044E0446B068844232D200F0B9
:103E400067F801202FE000008C0000202E2E5C6F10
:103E5000735C74696D6572732E6300004572726FD6
:103E6000723A25732C25640D0A0000001C240020E2
:103E7000546D725100000000546D7220537663003F
:103E8000E13B00082E2E5C6F735C74696D65727384
:103E90002E6300004572726F723A25732C25640DF3
:103EA0000A000000002028602046B46070BDF8B50C
:103EB0000D460646FEF780FE6846FFF7B7FF04464C
:103EC000009810B1FEF7EAFDF8BD4448ADB10169B4
:103ED0000968D9B10025311B2A460068FEF73EFC6F
:103EE000FEF7DCFD0028EFD13D494FF0805008601F
:103EF000BFF34F8FBFF36F8FF8BDA642EBD8FEF72D
:103F0000CDFD2146304600F037F8F8BD0125E2E747
:103F1000F8B5324D28E0C068C4680668201DFDF77A
:103F2000D9FC216A2046884794F8240040071BD515
:103F3000A0693044B04206D924616060211DE86860
:103F4000FDF7B0FC10E00020034601460090324629
:103F50002046FFF797FD38B94FF46172AFF2DC01EC
:103F6000AFF2D00000F040FAE86801680029D2D131
:103F70002969C5E90310F8BDF8B5054617480E468E
:103F8000C068C068C468201DFDF7A4FC94F8240034
:103F9000410719D5A0692B46411932462046FFF743
:103FA00057FDA8B100200346014600902A4620464E
:103FB000FFF768FD60B94FF4FC72AFF23811AFF251
:103FC0002C1000F011FA03E020F0010084F8240026
:103FD000216A01B02046BDE8F04008478C0000206F
:103FE00004ED00E01CB52D480324CDE9004000237A
:103FF00080222BA12F48FEF77CFC2F480023CDE91F
:10400000004080222DA13148FEF773FC3048002388
:10401000CDE9004080222FA13248FEF76AFC3248E9
:104020000023CDE90040802230A13648FEF761FC34
:1040300035480023CDE90040802234A13948FEF7FD
:1040400058FC39480023CDE90040802237A13D4883
:10405000FEF74FFC3C480023CDE9004080223BA105
:104060003E48FEF746FC3E480023CDE90040802252
:104070003CA14348FEF73DFC00201CBD10B5FDF7F8
:104080006BF94049414A08603F4912780978114369
:10409000FDF76FF9BDE81040A4E70000E000002044
:1040A00073686F775F7379735F636C6F636B5F7453
:1040B00061736B0081430008A00000206F70656E83
:1040C0005F6C65645F7461736B0000009141000870
:1040D000A4000020636C6F73655F6C65645F74613E
:1040E000736B0000B1410008A80000207573617275
:1040F000745F68656172745F626561745F74617337
:104100006B000000D5410008B80000207077725F96
:104110006D6F64655F7377697463685F7461736BF7
:104120000000000041420008BC0000207077725F70
:104130006D6F64655F73656E645F6D73675F7461F7
:10414000736B00007B420008CC0000206372635F49
:1041500063616C5F7461736B0000000001430008D1
:10416000D00000206372635F706F73745F62696E6A
:104170006172795F73656D5F7461736B000000003D
:1041800043430008DC000020D4000020D5000020BC
:104190000F4C4FF4FA7500BFFDF785F86068FEF725
:1041A00060FE2846FEF762FD6068FEF7C6FEF3E794
:1041B000074C4FF4FA7500BFFDF77AF82068FEF758
:1041C00050FE2846FEF752FD2068FEF7B6FEF3E7E4
:1041D000A000002008B541F28838FEF797FF104C88
:1041E000104E114D4FF0FF374FF47A792060009751
:1041F00001231A4631782868FDF756F96060C00738
:1042000009D0216809A0B1FBF9F100F0EDF831788F
:104210002868FDF7AEF841460148FEF7D2FCE6E714
:10422000AC000020D5000020DC000020CFB5CDB3CD
:10423000D2D1D4CBD0D0256C75C3EB0A00000000DE
:1042400008B54FF0FF34002204210A200094FDF746
:10425000B3FC184D2860224669462868FEF731F8FD
:1042600015A0009900F0C0F800980028F3D114A020
:1042700000F0BAF8FDF729F8EDE708B54FF0FF3484
:104280000C4E002500942046FEF7F0FC12A000F032
:10429000ABF8002300951A4669463068FDF758FDD3
:1042A000012803D011A000F09FF8ECE70020FEF7F2
:1042B0004BFBE8E7B4000020CAD5B5BD256400007B
:1042C000BCB4BDABBDF8C8EBB4FDBBFAC4A3CABD5A
:1042D0002E2E2E0A00000000B7A2CBCDB4FDBBFAF3
:1042E000CFFBCFA22E2E2E0A00000000CFFBCFA2C4
:1042F000B7A2CBCDCAA7B0DC2E2E2E0A000000003C
:10430000FDF70AF8032200210120FDF755FC134CAC
:104310004FF4FA67254640F2DC5660603946606823
:10432000FDF70AFE0128F9D12868FCF7FEFFA0601E
:1043300002460BA0296800F057F83046FEF796FCBD
:10434000ECE7064D4FF0FF342046FEF78FFC0023CC
:104350001A4619466868FDF7FBFCF5E7C000002027
:10436000CAFDBEDD30782578B5C4435243D0A3D111
:10437000E9BDE1B9FBCAC73A3078257800000000F2
:1043800008B54FF0FF35104CFCF7E0FF606000957A
:1043900021786078012301431A46A068FDF784F86C
:1043A0002061C007F0D009496068B0FBF1F108A0B6
:1043B00000F01AF8217860780143A068FCF7D9FF73
:1043C000E068FEF7C1FADFE7D400002040420F00AA
:1043D000B5B1C7B0CFB5CDB3CAB1D6D33A25754DB7
:1043E000485A0000704700000FB4044910B503AAF2
:1043F000029800F0ABF910BC5DF814FB2800002017
:1044000070B50C460546012A05D02878800600D5EF
:10441000EA69002302E0012305E05B1C934202D21B
:10442000E05C0028F9D1A869E618C01AA861286ADA
:10443000184428622846AFF3008004E0D5E9012142
:1044400014F8010B9047B442F8D32846AFF300802C
:1044500070BD00002DE9F041064600241068752962
:10446000314616A510D0AFF30080002802DA404292
:1044700013A507E031688A0701D512A502E04907B4
:1044800004D511A5012401E0AFF3008000210A2228
:1044900006F1240709E0B0FBF2FCB0FBF2F302FBEB
:1044A0001C00303078541846491C0028F3D12346AC
:1044B0002A463046BDE8F04100F0D9B800000000BF
:1044C0002D0000002B0000002000000070B5044605
:1044D0000D4621461068AFF300802188090502D5FA
:1044E0000F4A7A4402E00E4A7A440E32002104F167
:1044F000240305E000F00F060009965D5E54491C98
:104500000028F7D120780023000704D5702D02D0B1
:1045100009B1022311322046BDE8704000F0A7B86F
:10452000860300002DE9F0410F4605460020286271
:104530002846E968884770B3252805D0D5E90121C8
:104540009047286A401CF2E7E96828460026884719
:104550006C2804460AD0682C08D04C2C35D06A2C24
:1045600031D0742C31D07A2C2FD016E0E968064671
:1045700028468847B042044608D16C2E23D04FF419
:1045800080662846E9688847044606E06C2E03D01A
:104590004FF4807601E01EE04026E4B1A4F1410032
:1045A000192802D8203446F400663A4621462846A7
:1045B0002E60FBF7F7FD60B1012808D0FF1D27F042
:1045C00007070837B4E78026DBE70026D9E73F1D59
:1045D000AEE72046B2E7286ABDE8F081032A40F240
:1045E000308010F0030C00F0158011F8013BBCF195
:1045F000020F624498BF11F801CB00F8013B38BFAD
:1046000011F8013BA2F1040298BF00F801CB38BFBA
:1046100000F8013B11F0030300F0AA80083AC0F053
:10462000088051F8043B083A51F804CBA0E8081080
:10463000F5E7121D5CBF51F8043B40F8043BAFF3B3
:104640000080D20724BF11F8013B11F801CB48BF0D
:1046500011F8012B24BF00F8013B00F801CB48BF43
:1046600000F8012B704770477047704770472DE97D
:10467000F0470D4699469246044600F12408016829
:10468000880604D5E06921F01001216000E00120D6
:10469000A84201DD471B00E00027A1697A1902EB5F
:1046A0000900081AA0612078C00602D42046AFF3A2
:1046B0000080002608E0D4E901211AF8060090479E
:1046C000206A401C761C20624E45F4DB2078C00630
:1046D0000AD52046AFF3008006E0D4E9012130205E
:1046E0009047206A401C2062381EA7F10107F4DCC5
:1046F00007E0D4E9012118F805009047206A401C22
:104700002062281EA5F10105F3DC2046AFF30080EE
:104710002078000602D50220BDE8F0870120FBE7E3
:1047200010B5436913B1AFF3008001E0FFF768FEF5
:10473000012010BD127800F124010A7000224A7095
:104740000122EDE711684FF0FF32E9E7074B70B542
:104750000D467B4400F043F80446284600F052F82A
:1047600010B14FF0FF3070BD204670BDB1C6FFFFE5
:1047700010B5203AC0F00B80B1E81850203AA0E8FC
:104780001850B1E81850A0E81850BFF4F5AF5FEA30
:10479000027C24BFB1E81850A0E8185044BF18C9E3
:1047A00018C0BDE810405FEA827C24BF51F8043B8A
:1047B00040F8043B08BF7047D20728BF31F8023BDE
:1047C00048BF11F8012B28BF20F8023B48BF00F872
:1047D000012B704701694A1C02610878704700B5D7
:1047E0008FB0CDE901310021059105497944CDE92A
:1047F000031011466846FFF795FE0FB000BD00009C
:10480000E5FFFFFF007B00F080007047754600F079
:1048100029F8AE4605006946534620F00700854654
:1048200018B020B5FBF73AFDBDE820404FF0000678
:104830004FF000074FF000084FF0000B21F0070188
:10484000AC46ACE8C009ACE8C009ACE8C009ACE8CB
:10485000C0098D4670470446AFF300802046FBF741
:10486000BCFC000000487047442400203031323343
:104870003435363738394142434445464030580094
:1048800030313233343536373839616263646566C6
:1048900040307800B448000800000020E800000024
:1048A0006C0100089C490008E8000020C0290000B5
:1048B0008801000802040608000000000102030449
:1048C000010203040607080900A24A0400000000D0
:1048D00000000000010203040607080900000000B0
:1048E00000000000000000000000000000000000C8
:1048F000000000000000000000000000AAAAAAAA10
:1049000000000000000000000000000000000000A7
:104910000000000000000000000000000000000097
:104920000000000000000000000000000000000087
:104930000000000000000000000000000000000077
:104940000000000000000000000000000000000067
:104950000000000000000000000000000000000057
:104960000000000000000000000000000000000047
:104970000000000000000000000000000000000037
:104980000000000000000000010200000000000024
:0C4990000000000000000000000000001B
:0400000508000131BD
:00000001FF
