:020000040800F2
:1000000088060020CD010008290700082B070008FA
:100010002D0700082F070008310700080000000026
:10002000000000000000000000000000330700088E
:1000300035070008000000003707000839070008EE
:10004000E7010008E7010008E7010008E7010008F0
:10005000E7010008E7010008E7010008E7010008E0
:10006000E7010008E7010008E7010008E7010008D0
:10007000E7010008E7010008E7010008E7010008C0
:10008000E7010008E7010008E7010008E7010008B0
:10009000E7010008E7010008E7010008E7010008A0
:1000A000E7010008E7010008E7010008E701000890
:1000B000E7010008E7010008E7010008E701000880
:1000C000E7010008E7010008E7010008E701000870
:1000D000E7010008E7010008E7010008E701000860
:1000E000E7010008E7010008E7010008E701000850
:1000F000E7010008E7010008E7010008E701000840
:10010000E7010008E7010008E7010008E70100082F
:10011000E7010008E7010008E7010008E70100081F
:10012000E7010008E7010008E7010008E70100080F
:1001300000F002F800F03AF80AA090E8000C8244BF
:100140008344AAF10107DA4501D100F02FF8AFF29C
:10015000090EBAE80F0013F0010F18BFFB1A43F0A5
:10016000010318471008000030080000103A24BFAF
:1001700078C878C1FAD8520724BF30C830C144BF0C
:1001800004680C607047000000230024002500264E
:10019000103A28BF78C1FBD8520728BF30C148BFEA
:1001A0000B6070471FB51FBD10B510BD00F0ABFB55
:1001B0001146FFF7F7FF00F086FB00F0C9FB03B420
:1001C000FFF7F2FF03BC00F0CDFB000009488047B9
:1001D00009480047FEE7FEE7FEE7FEE7FEE7FEE729
:1001E000FEE7FEE7FEE7FEE704480549054A064B41
:1001F00070470000DD07000831010008880000207A
:100200008806002088020020880200208F4910B54F
:10021000884206D10121042000F049FA002104207F
:100220003BE08B49884206D10121082000F03FFACB
:100230000021082031E08749884206D101211020A1
:1002400000F035FA0021102027E08349884206D1CA
:100250000121202000F02BFA002120201DE07F4901
:10026000884206D10121402000F021FA00214020DF
:1002700013E07B49884206D10121802000F017FA63
:100280000021802009E0774988420AD184150121A4
:10029000204600F00CFA00212046BDE8104000F096
:1002A00006BA10BD10B50121084600F000FA002181
:1002B000BDE81040012000F0FAB9F0B5CC7800227A
:1002C00004F00F03E40601D58C7823430C784FF03B
:1002D0000F0C14F0FF0F4FF0010E1BD005680E88B5
:1002E0000EFA02F42640A64210D196000CFA06F748
:1002F00025EA070703FA06F5CE783D43282E02D0FB
:10030000482E02D002E0446100E00461521C082A39
:10031000E5D305600A88FF2A1CD94468002202F14F
:1003200008060EFA06F50E882E40AE420ED1960053
:100330000CFA06F7BC4303FA06F7CE783C43282EA6
:1003400000D14561CE78482E00D10561521C082AA3
:10035000E5D34460F0BD4FF6FF710180022181704A
:100360000421C17070470246002092680A4200D002
:1003700001207047806880B2704702460020D26832
:100380000A4200D001207047C06880B27047016106
:100390007047416170470AB1016170474161704720
:1003A000C160704741F480328261816182618169FC
:1003B000806970472C4B10B51A684FF68074224044
:1003C00042EA00100843186010BD2849C861704710
:1003D000F0B5254C002801DAE36900E06368450DBB
:1003E0002E0185B2C0F30157B540C0F30342032F7D
:1003F00005D0C6020AD503269640B34307E023F092
:100400007062636823F07063636002E0AB4343F0A3
:10041000706201B12A43002801DAE261F0BD626036
:10042000F0BD10B58A0721F003040F49120F2144D3
:100430000F238C6893409C438C608B6890400343EF
:100440008B6010BD0949C1F8DC007047000801400D
:10045000000C014000100140001401400018014050
:10046000001C01400020014000000140000020422B
:10047000A548016841F0010101604168A34A1140AB
:1004800041600168A24A11400160016821F48021A5
:100490000160416821F4FE0141604FF41F01816059
:1004A000704799490A6822F480320A600A6822F487
:1004B00080220A60B0F5803F07D0B0F5802F03D1CD
:1004C000086840F4A02008607047086840F4803055
:1004D000F9E70346002059098B4A01290AD002296D
:1004E0000AD0516A03F01F02012393400B4200D04F
:1004F000012070471168F5E7116AF3E718B500208D
:100500004FF4A06400903120FFF7E3FF0099491CED
:100510000091A14201D00028F5D03120FFF7D9FF8A
:10052000002800D0012018BD774A116821F0F80199
:1005300041EAC00010607047764908607047724B0E
:100540005A68084322F47C1210435860704771497E
:10055000086670476C4A516821F0030101435160FD
:1005600070476948406800F00C007047664A51685F
:1005700021F0F001014351607047634A516821F452
:10058000E0610143516070475F4A516821F4605156
:1005900041EAC000506070475B4A0029517A01D09F
:1005A000014300E08143517270475A49C1F8D800B5
:1005B0007047554A516821F44041014351607047EA
:1005C0005149002281F8202081F82020012802D002
:1005D000042802D1052081F8200070474E490860A8
:1005E000704749490A6A02430A6270474A494439D6
:1005F0000860704730B5444A5168484B11F00C010F
:1006000003D0042901D0082901D0036012E0516809
:10061000536801F470114FF0020413F4803F04EBAF
:10062000914102D053689B0301D53D4B00E03B4B09
:100630005943016051680F2303EA1111394B5C5C87
:100640000168E14041605468072505EA14241C5DF7
:1006500021FA04F48460546805EAD4241B5DD9406F
:10066000C1605268032303EA92322E4B1B1F9A5C2F
:10067000B1FBF2F1016130BD234A0029516901D07B
:10068000014300E08143516170471F4A002991698D
:1006900001D0014300E08143916170471A4A00296B
:1006A000D16901D0014300E08143D1617047164A0E
:1006B0000029D16801D0014300E08143D160704737
:1006C000114A0029116901D0014300E08143116101
:1006D000704711494039086070470E49C864704737
:1006E0000949C87170470848416A41F08071416208
:1006F0007047054A0146002092680A4200D0012056
:100700007047014988727047001002400000FFF8EE
:10071000FFFFF6FE000042428004424200127A00CF
:1007200000093D00040000207047FEE7FEE7FEE7F9
:10073000FEE7704770477047704700000CB5002215
:100740004C4800920192016841F4803101604FF4FD
:10075000A063016801F4003101910099491C0091E6
:10076000019911B900999942F3D10168890333D5F0
:100770000121019140490A6842F010020A600A68AA
:1007800022F003020A600A6842F002020A6041682D
:10079000416041684160416841F480614160416865
:1007A00021F47C114160416841F4E8114160016825
:1007B00041F08071016001688901FCD5416821F038
:1007C00003014160416841F0020141604168C1F3A9
:1007D00081010229FAD10CBD01920CBD254810B54A
:1007E000016841F0010101604168244A1140416003
:1007F0000168234A11400160016821F480210160F1
:10080000416821F4FE0141604FF41F018160FFF750
:1008100095FF1C494FF00060086010BD154A10B5E7
:100820005068194B10F00C01184803D0042901D06E
:10083000082901D0036012E05168536801F4701177
:100840004FF0020413F4803F04EB914102D053684F
:100850009B0301D50E4B00E00B4B594301605168DF
:100860000A4AC1F30311121D515C0268CA400260BA
:1008700010BD000000100240002002400000FFF800
:10088000FFFFF6FE08ED00E000127A0014000020E1
:1008900000093D0000E0401E0028FCD1704708B56B
:1008A00001211020FFF7F1FE4FF40050ADF80000D9
:1008B00003208DF8020010208DF8030069460D48D2
:1008C000FFF7FBFC08BDFFF7EAFF01240A4B0B4AC8
:1008D0000025C3F8B4411146491EFDD11146491EF9
:1008E000FDD1C3F8B45111461046401EFDD1491E3A
:1008F000FDD1EEE70010014000002242FFFF0F0093
:10090000704770477047754600F028F8AE460500FE
:100910006946534620F00700854618B020B5FFF71A
:1009200063FCBDE820404FF000064FF000074FF099
:1009300000084FF0000B21F00701AC46ACE8C009FD
:10094000ACE8C009ACE8C009ACE8C0098D46704706
:100950000446AFF300802046FFF731FC00487047A3
:100960002800002001491820ABBEFEE72600020047
:1009700070470000940900080000002028000000D3
:100980006C010008BC090008280000206006000077
:1009900088010008020406080000000001020304A8
:1009A000010203040607080900A24A04000000002F
:0C09B00000000000010203040607080913
:0400000508000131BD
:00000001FF
