:020000040800F2
:10000000803C0020A5020008BD0A0008BF0A0008C5
:10001000C10A0008C30A0008C50A00080000000061
:100020000000000000000000000000000D020008B9
:10003000C70A000800000000510200085922000809
:10004000BF020008BF020008BF020008BF0200088C
:10005000BF020008BF020008BF020008BF0200087C
:10006000BF020008BF020008BF020008BF0200086C
:10007000BF020008BF020008BF020008BF0200085C
:10008000BF020008BF020008BF020008BF0200084C
:10009000BF020008BF020008BF020008BF0200083C
:1000A000BF020008BF020008BF020008BF0200082C
:1000B000BF020008BF020008BF020008BF0200081C
:1000C000BF020008BF020008BF020008BF0200080C
:1000D000BF02000837160008E71600081F170008BF
:1000E000BF020008BF020008BF020008BF020008EC
:1000F000BF020008BF020008BF020008BF020008DC
:10010000BF020008BF020008BF020008BF020008CB
:10011000BF020008BF020008BF020008BF020008BB
:10012000BF020008BF020008BF020008BF020008AB
:1001300000F002F800F05AF80AA090E8000C82449F
:100140008344AAF10107DA4501D100F04FF8AFF27C
:10015000090EBAE80F0013F0010F18BFFB1A43F0A5
:1001600001031847CC760000EC7600000A444FF0FB
:10017000000C10F8013B13F0070408BF10F8014B06
:100180001D1108BF10F8015B641E05D010F8016B4B
:10019000641E01F8016BF9D113F0080F1EBF10F8AF
:1001A000014BAD1C0C1B09D16D1E58BF01F801CBD2
:1001B000FAD505E014F8016B01F8016B6D1EF9D555
:1001C0009142D6D37047000000230024002500266A
:1001D000103A28BF78C1FBD8520728BF30C148BFAA
:1001E0000B6070471FB51FBD10B510BD07F07AFA40
:1001F0001146FFF7F7FF01F063FF07F0ACFA03B415
:10020000FFF7F2FF03BC01F04DF80000224B196824
:100210000868B0E8F00F80F30988BFF36F8F4FF0E4
:10022000000080F311884EF00D0E704700000000B2
:1002300006480068006880F3088862B661B6BFF3BC
:100240004F8FBFF36F8F00DF00BF00BF08ED00E0EE
:10025000EFF30980BFF36F8F0F4B1A6820E9F00F9F
:10026000106008B54FF0500080F31188BFF34F8F36
:10027000BFF36F8F03F0B3F94FF0000080F31188E4
:10028000BDE8084019680868B0E8F00F80F30988F5
:10029000BFF36F8F704700BF60000020EFF3058051
:1002A000704700000948804709480047FEE770474B
:1002B000FEE7FEE7FEE7FEE7FEE7FEE7FEE7FEE716
:1002C00004480549054A064B70470000F111000833
:1002D0003101000880360020803C0020803800205A
:1002E000803800202849084328490860704770B5C5
:1002F0000F23C47801780122F4B1244C2468457896
:1003000004F4E064C4F5E064240AC4F10406E340A4
:100310008478B5401C402C4301F1E021230181F891
:100320000034007800F01F018A404009800000F18D
:10033000E020C0F8002170BD01F01F008240480994
:10034000800000F1E020C0F8802170BD104A11400B
:1003500001430E48001F016070470C4A121D00291E
:10036000116801D0014300E08143116070474FF0F4
:10037000E0210428086903D020F0040008617047D8
:1003800040F00400FAE700000000FA050CED00E080
:1003900080FFFF1F0E490120886070470C490860EC
:1003A0000868704710B50022094B03E050F822405E
:1003B0001C60521C8A42F9D3186810BD04480068BA
:1003C0007047034908717047014800797047000081
:1003D00000300240FC4A116801F03801014311600D
:1003E0007047F9490A6822F008020A600A68024365
:1003F0000A607047F4490A6822F010020A600A682D
:1004000002430A607047F048F0494160F04941609A
:100410007047ED48ED494160ED4941607047EA4859
:10042000016941F0800101617047E748016941F0CD
:10043000800101617047E4490420CA68D20701D0F5
:1004400001207047CA68520701D502207047C96869
:10045000C906FBD50320704700B50346FFF7EBFF45
:1004600003E000BFFFF7E7FF5B1E012803D0002B6E
:1004700000D1052000BD002BF4D1FAE770B5054688
:100480004FF430263046FFF7E7FF042811D1CE4C59
:10049000206940F0020020616561206940F0400061
:1004A00020613046FFF7D8FF216941F6FD72114007
:1004B000216170BD30B54FF430252846FFF7CCFFE1
:1004C000042810D1C04C206940F00400206120694C
:1004D00040F0400020612846FFF7BEFF216941F649
:1004E000FB721140216130BD00B50346FFF7A3FF49
:1004F00003E000BFFFF79FFF5B1E012803D0002B26
:1005000000D1052000BD002BF4D1FAE730B54FF43F
:1005100030252846FFF7E8FF042810D1AA4C2069AF
:1005200040F004002061206940F04000206128462E
:10053000FFF7DAFF216941F6FB721140216130BDFE
:10054000A1490020C969890700D50120704770B50D
:10055000A525FFF7F5FF00B100254FF43026304602
:10056000FFF77AFF042827D1974C9848A060984855
:10057000A060206940F020002061206940F0400028
:1005800020613046FFF768FF41F6EF7604280ED170
:10059000206941F6DF7108402061206940F01000B9
:1005A00020618C4805804FF40050FFF755FF052867
:1005B00002D021693140216170BDF8B506460020A6
:1005C0004FF4005C00900D466046FFF745FF04289D
:1005D00016D17D4C206940F00100206135806046D5
:1005E000FFF73AFF41F6FE77042806D1B61C280C27
:1005F000009630806046FFF72FFF21693940216166
:10060000F8BDF0B506464FF400570D463846FFF7E3
:1006100023FF04280CD16C4C206940F001002061BC
:1006200035803846FFF718FF2169BA1E1140216155
:10063000F0BDF0B506464FF400570D463846FFF7BB
:100640000BFF042813D1604C6048A0606048A06094
:10065000206940F01000206135803846FFF7FCFE2D
:10066000052804D0216941F6EF7211402161F0BDE7
:100670002DE9F041C04300F0FF0CC0F30727C0F3A1
:100680000746050E4FF400584046FFF7E5FE0428E4
:1006900037D14D4C4D49A1604D49A160216941F0D0
:1006A00010012161BCF1FF0F08D04A480830A0F8C2
:1006B00000C04046FFF7D0FE04281BD1FF2F07D013
:1006C00044480A3007804046FFF7C6FE042811D18F
:1006D000FF2E07D03F480C3006804046FFF7BCFE97
:1006E000042807D1FF2D07D03A480E300580404638
:1006F000FFF7B2FE052804D0216941F6EF721140E0
:100700002161BDE8F08170B505464FF430263046D2
:10071000FFF7A2FE042818D12B4C2C48A0602C48CF
:10072000A060206940F020002061206940F0400076
:1007300020613046FFF790FE41F6DF71042805D0B6
:10074000052802D022690A40226170BD2069084054
:100750002061206940F0100020611E480DB1002189
:1007600000E0A52101803046FFF776FE0528ECD099
:10077000216941F6EF721140216170BDF0B5124C54
:100780000746124816460D46A0601148A0604FF477
:10079000005C6046FFF760FE042814D1206940F039
:1007A0001000206135430B493D43891C45F0F8009A
:1007B00008806046FFF750FE052804D0216941F605
:1007C000EF7211402161F0BD002002402301674516
:1007D000AB89EFCD00F8FF1F1C48C0698008704747
:1007E0001A48006A7047194900200968890600D52F
:1007F00001207047154A0029116901D0014300E02A
:1008000081431161704701460020104A012903D03D
:10081000D2680A4203D17047D169C907FBD00120D1
:1008200070470A49C860704708490420CA68D2075F
:1008300001D001207047CA68520701D502207047D5
:10084000C968C906FBD5032070470000002002409C
:10085000914910B5884206D10121042000F0A7FA81
:10086000002104203BE08D49884206D10121082067
:1008700000F09DFA0021082031E08949884206D124
:100880000121102000F093FA0021102027E0854973
:10089000884206D10121202000F089FA0021202081
:1008A0001DE08149884206D10121402000F07FFAF5
:1008B0000021402013E07D49884206D1012180209B
:1008C00000F075FA0021802009E0794988420AD1B8
:1008D00084150121204600F06AFA00212046BDE877
:1008E000104000F064BA10BD10B50121084600F0B8
:1008F0005EFA0021BDE81040012000F058BAF0B5C2
:10090000CA78002502F00F03D20601D58A78134376
:100910000A784FF00F0E12F0FF0F4FF001021DD0BA
:10092000D0F800400F8802FA05F63740B74211D1DF
:100930004FEA850C0EFA0CF724EA070703FA0CF4C9
:100940003C43CF78282F02D0482F02D002E04661E6
:1009500000E006616D1C082DE4D304600C88FF2CB8
:100960001ED944685FF0000606F1080702FA07F591
:100970000F882F40AF420FD14FEA860C0EFA0CF7CA
:10098000BC4303FA0CF73C43CF78282F00D14561D4
:10099000CF78482F00D10561761C082EE4D344603F
:1009A000F0BD4FF6FF710180022181700421C170FA
:1009B00070470246002092680A4200D0012070472A
:1009C000806880B2704702460020D2680A4200D098
:1009D00001207047C06880B2704701617047416173
:1009E00070470AB10161704741617047C16070474B
:1009F00041F48032826181618261816980697047DE
:100A00002C4B10B51A684FF68074224042EA001051
:100A10000843186010BD2849C8617047F0B5254CDF
:100A2000002801DAE36900E06368420D120185B233
:100A3000C0F301579540C0F30346032F05D0C2020F
:100A40000AD50322B240934307E023F07062636843
:100A500023F07063636002E0AB4343F0706201B166
:100A60002A43002801DAE261F0BD6260F0BD10B5F2
:100A70008A0721F003040F49130F21440F228C68C9
:100A80009A4094438C608A68984002438A6010BD03
:100A90000949C1F8DC00704700080140000C014022
:100AA000001001400014014000180140001C0140EA
:100AB00000200140000001400000204270477047C4
:100AC000FEE7FEE7FEE7704710B501210C07204660
:100AD00000F076F92046BDE81040002100F070B922
:100AE0002149086270472049086170471F4A116810
:100AF00021F0E0010143116070471B49C1F8A000DB
:100B000070471A4B1A6822F0030202431A60184811
:100B1000026842F004020260012905D020BF01688A
:100B200021F004010160704730BFF8E70F48016809
:100B300041F004010160016841F0020101600C48CC
:100B4000016841F00401016030BF7047074A014667
:100B5000002052680A4200D00120704703490A6809
:100B600042EA80000860704700000E4200700040BA
:100B700010ED00E0A448016841F001010160416806
:100B8000A24A114041600168A14A11400160016818
:100B900021F480210160416821F4FE0141604FF49D
:100BA0001F018160704798490A6822F480320A6008
:100BB0000A6822F480220A60B0F5803F07D0B0F5C1
:100BC000802F03D1086840F4A020086070470868AF
:100BD00040F48030F9E70246002053098A49012B8E
:100BE0000AD0022B0AD0496A02F01F020123934067
:100BF0000B4200D0012070470968F5E7096AF3E766
:100C000018B500204FF4A06400903120FFF7E3FFF7
:100C10000099491C0091A14201D00028F5D0312053
:100C2000FFF7D9FF002800D0012018BD76490A68D7
:100C300022F0F80242EAC000086070477549086077
:100C40007047714A5368084323F47C13184350607B
:100C500070477049086670476B4A516821F003017C
:100C60000143516070476848406800F00C007047CD
:100C7000654A516821F0F001014351607047624AB2
:100C8000516821F4E0610143516070475E494A6850
:100C900022F4605242EAC000486070475A4A002974
:100CA000517A01D0014300E08143517270475949A4
:100CB000C1F8D8007047544A516821F440410143BB
:100CC000516070475049002281F8202081F820208F
:100CD000012802D0042802D1052081F820007047A5
:100CE0004D490860704748490A6A02430A627047E2
:100CF000494944390860704730B543494A6812F0A1
:100D00000C03464A03D0042B01D0082B21D00260EB
:100D10004A680F23424C03EA1212A35C0268DA40CD
:100D200042604B68072505EA1323E35C22FA03F3CC
:100D300083604B6805EAD323E35CDA40C26049680C
:100D4000032303EA9131231F595CB2FBF1F10161E6
:100D500030BD4A684B6802F470124FF0020413F47D
:100D6000803F04EB924202D04B689B0301D52D4B90
:100D700000E02A4B5A43CAE7234A0029516901D0AF
:100D8000014300E08143516170471F4A0029916986
:100D900001D0014300E08143916170471A4A002964
:100DA000D16901D0014300E08143D1617047164A07
:100DB0000029D16801D0014300E08143D160704730
:100DC000114A0029116901D0014300E081431161FA
:100DD000704711494039086070470E49C864704730
:100DE0000949C87170470848416A41F08071416201
:100DF0007047054A0146002092680A4200D001204F
:100E00007047014988727047001002400000FFF8E7
:100E1000FFFFF6FE000042428004424200127A00C8
:100E20000400002000093D00C44910B588420AD1E1
:100E300001218C032046FFF7BAFF2046BDE8104091
:100E40000021FFF7B4BFBE49884202D101214C0402
:100E500010E0BC49884202D101218C040AE0BA4961
:100E6000884202D10121CC0404E0B84988420AD169
:100E700001210C052046FFF7A3FF2046BDE81040E6
:100E80000021FFF79DBF10BD30B50446008A85B034
:100E90000D464CF6FF710840E98801432182A18983
:100EA0004EF6F3100140A8882A8910436A890A4344
:100EB0001043A081A08A4FF6FF410840A989014351
:100EC000A1826846FFF718FF9C48844201D103982D
:100ED00000E00298A189090400EBC00101EB0010B9
:100EE000296801D5490000E08900B0FBF1F06422D7
:100EF000B0FBF2F109010B096FF018056B4300EB31
:100F00008300A3891D044FF0320306D503EBC00014
:100F1000B0FBF2F000F0070005E003EB0010B0FBBF
:100F2000F2F000F00F000843208105B030BD4FF40F
:100F30001651016000218180C18001810C22428113
:100F40008181704710B5038A4FF2FF0213400A886F
:100F50004C8822438C88C9880C4322431A4302825E
:100F600010BD0021018041808180C180704700292F
:100F7000818902D041F4005101E021F400518181C6
:100F8000704710B5C1F3421301F01F040121A140C5
:100F9000012B07D0022B07D01430002A026805D09D
:100FA0000A4304E00C30F8E71030F6E78A430260A9
:100FB00010BD002A828A01D00A4300E08A4382825F
:100FC0007047028A22F00F020282028A0A430282DA
:100FD0007047828922F40062828182890A43828179
:100FE00070470029818902D041F0020101E021F01F
:100FF000020181817047028A22F020020282028A65
:101000000A43028270470029018A02D041F48041DC
:1010100001E021F4804101827047C1F30801818021
:1010200070478088C0F308007047818941F0010152
:1010300081817047028BD2B20283028B42EA012186
:1010400001837047028B02F47F420283028B0A43C2
:10105000028370470029818A02D041F0200101E01B
:1010600021F02001818270470029818A02D041F05D
:10107000100101E021F01001818270470029818A6E
:1010800002D041F0080101E021F00801818270479F
:101090000029818902D041F4004101E0C1F30E0131
:1010A000818170470029818A02D041F4006101E00A
:1010B00021F4006181827047828A22F004028282D8
:1010C000828A0A43828270470029818A02D041F0D5
:1010D000020101E021F002018182704702460020F6
:1010E00012880A4200D001207047C943018070472E
:1010F00030B501F01F0201240025C1F3421304FAA8
:1011000002F2012B0FD0022B0FD0838A4FEA11215C
:101110000088134204FA01F400EA040001D000B18F
:101120000125284630BD8389F0E7038AEEE70A0AE5
:1011300001219140C94301807047000000380140FF
:101140000044004000480040004C00400050004077
:101150000CB500214B4801910091026842F48032A5
:1011600002604FF4A063026802F400320092019A18
:10117000521C0192009A12B9019A9A42F3D1026864
:10118000920333D5012100913F490A6842F01002D1
:101190000A600A6822F003020A600A6842F002024A
:1011A0000A604168416041684160416841F4806182
:1011B0004160416821F47C114160416841F4E811CB
:1011C0004160016841F08071016001688901FCD5CE
:1011D000416821F003014160416841F00201416032
:1011E0004168C1F381010229FAD10CBD00910CBD07
:1011F000244810B5016841F0010101604168234AAB
:10120000114041600168224A11400160016821F4E7
:1012100080210160416821F4FE0141604FF41F010B
:101220008160FFF795FF1B494FF00060086010BD1B
:10123000144910B54868184A10F00C03174803D039
:10124000042B01D0082B0AD002604968134AC1F36D
:101250000311121D515C0268CA40026010BD4A6849
:101260004B6802F470124FF0020413F4803F04EB59
:10127000924202D04B689B0301D5094B00E0064B1C
:101280005A43E1E700100240002002400000FFF84E
:10129000FFFFF6FE08ED00E000127A0014000020C7
:1012A00000093D007047FE490A885206FCD5FC4AF9
:1012B000C1B2121D11807047F0B5054687B00121FB
:1012C0000520FFF762FD01218803FFF75EFDF44E64
:1012D0003046FFF7A9FD7015ADF8100018208DF805
:1012E0001300F04F03248DF8124004A93846FFF78D
:1012F00006FB3015ADF8100048208DF8130004A946
:101300003846FFF7FCFA25208DF814008DF81540BB
:101310008DF8164001208DF8170005A8FEF7E7FFAD
:101320000020ADF80400ADF80600ADF80800ADF8F7
:101330000C000C20ADF80A00009569463046FFF716
:10134000A3FD012240F225513046FFF71AFE01218C
:101350003046FFF70CFE40213046FFF7C6FE07B0CF
:10136000F0BD30B50446012185B04804FFF716FDF5
:1013700001210520FFF709FD0420ADF81000182019
:101380008DF813000320C74D8DF8120004A92846DC
:10139000FFF7B5FA0820ADF8100048208DF81300CB
:1013A00004A92846FFF7ABFA0020ADF8040000942A
:1013B000ADF80600ADF80800ADF80C000C20BA4CF2
:1013C000ADF80A0069462046FFF75EFD012240F2B3
:1013D00025512046FFF7D5FD01212046FFF7C7FD27
:1013E00040212046FFF781FE05B030BD30B50446F0
:1013F000012185B08804FFF7D1FC01210820FFF707
:10140000C4FC4FF48060ADF8100018208DF8130074
:101410000320A64D8DF8120004A92846FFF76FFAA5
:10142000E814ADF8100004208DF8130004A9284634
:10143000FFF765FA0020ADF804000094ADF806004F
:10144000ADF80800ADF80C000C20994CADF80A007E
:1014500069462046FFF718FD012240F2255120463B
:10146000FFF78FFD01212046FFF781FD4021204637
:10147000FFF73BFEB8E730B50446012185B0C8044C
:10148000FFF78CFC01211020FFF77FFC4FF48060F8
:10149000ADF8100018208DF813000320854D8DF84D
:1014A000120004A92846FFF72AFAE814ADF8100044
:1014B00004208DF8130004A92846FFF720FA002025
:1014C000ADF804000094ADF80600ADF80800ADF8E2
:1014D0000C000C20784CADF80A0069462046FFF756
:1014E000D3FC012240F225512046FFF74AFD01219D
:1014F0002046FFF73CFD40212046FFF7F6FD73E74D
:1015000010B50446012186B00805FFF747FC01210C
:101510001020FFF73AFC4FF48050ADF8100018206F
:101520008DF8130003208DF8120004A96148FFF71D
:10153000E6F90420ADF810008DF8130004A95F4807
:10154000FFF7DDF90020ADF804000094ADF80600C7
:10155000ADF80800ADF80C000C20594CADF80A00AD
:1015600069462046FFF790FC012240F225512046B3
:10157000FFF707FD01212046FFF7F9FC4021204637
:10158000FFF7B3FD06B010BD10B50446FFF745FDEB
:1015900080212046FFF7A2FD0028F9D010BD70B5CC
:1015A0000C46064600250AE03046FFF736FD80214E
:1015B0003046FFF793FD0028F9D0641C6D1C21789C
:1015C0000029F1D1284670BD0020704700207047E7
:1015D00010B53C4A91888029FCD251885318187361
:1015E000491CC81701EB506020F07F00081A50809A
:1015F00072B69088401C9080012240F227712848E2
:10160000FFF7BFFC62B6002010BD2E4A50890028AB
:10161000FCD0D188501890F88C00491CCB1701EBF6
:10162000536323F07F03C91AD18072B65189491ED2
:10163000518162B6704770B5194D40F2255631465A
:101640002846FFF755FD1F4C012814D12846FFF707
:10165000E8FCC1B26089802809D2401C60812089E1
:10166000221882F88C10401C00F07F002081314647
:101670002846FFF75CFD40F2277631462846FFF703
:1016800037FD012823D1A288521E21D3A2802688AB
:10169000A019017B2846FFF777FF761C14E00000B5
:1016A000003801400008014000440040000C0140A7
:1016B0000048004000100140004C00400014014070
:1016C000005000403401002006F07F00208070BDF3
:1016D000002231462846FFF754FC31462846BDE833
:1016E0007040FFF724BD70B5374C40F225552946B0
:1016F0002046FFF7FDFC18B929462046FFF717FDE5
:1017000040F2277529462046FFF7F2FC002805D154
:1017100029462046BDE87040FFF709BD70BD70B591
:101720002A4C40F2255529462046FFF7E1FC18B91E
:1017300029462046FFF7FBFC40F227752946204644
:10174000FFF7D6FC002805D129462046BDE87040A9
:10175000FFF7EDBC70BD70B51D4C40F22555294614
:101760002046FFF7C5FC18B929462046FFF7DFFCE5
:1017700040F2277529462046FFF7BAFC002805D11C
:1017800029462046BDE87040FFF7D1BC70BD70B55A
:10179000104C40F2255529462046FFF7A9FC18B900
:1017A00029462046FFF7C3FC40F22775294620460C
:1017B000FFF79EFC002805D129462046BDE8704071
:1017C000FFF7B5BC70BD0000004400400048004079
:1017D000004C00400050004038B501211020FFF7B8
:1017E000D4FA104D2846FFF733F86C14ADF80040DA
:1017F00003208DF8020010208DF80300694628466A
:10180000FFF77DF821462846FFF7E7F838BD4FF48B
:1018100000510448FFF7E3B84FF400510148FFF7C7
:10182000DCB800000010014010B5FFF759F90020A6
:1018300010BD08B501210520FFF7A7FA0120ADF87A
:10184000000028208DF8030069460C48FFF757F880
:1018500001210807FFF7A2FA0120FFF74EF9FFF771
:1018600065F908BD10B501210807FFF797FA0121B6
:101870000846FFF746F910BD0020704700080140F8
:1018800010B501214020FFF777FABDE81040FEF7C0
:1018900081BD10B5FEF782FD0446FEF77BFD2046B4
:1018A00010BD10B5FEF77EFD0446FEF773FD204621
:1018B00010BD000019480068704710B5FFF75AF9CD
:1018C0004FF480342046FFF76EF9FFF799F90128AD
:1018D00022D11020FEF78EFD0220FEF77BFD0020B6
:1018E000FFF7C6F90020FFF7D1F9A011FFF7C7F9FC
:1018F0004FF4E0112046FFF7A4F90120FFF7A9F902
:101900003920FFF768F90028FAD00220FFF7A4F980
:10191000FFF7A9F90828FBD110BD00001400002032
:1019200010B50220FEF756FD0020FEF75AFD0020FC
:1019300010BD10B50020FFF7F3FF08B1012010BD66
:10194000FEF74EFF002801DB042010BD002010BD73
:101950002DE9F0411F4614460E004FF000684FF08D
:10196000000502D0E019C02802D30420BDE8F081B0
:101970000020FFF7D5FF08B10320F7E7403408EB5C
:101980004420790204E000BF10F8012B72556D1C51
:101990008D42F9D30020E9E72DE9FF4FADF2044D68
:1019A0001D4614465FEA010B4FF000674FF000063A
:1019B00002D06019C02804D304200DF2144DBDE8F4
:1019C000F08F0020FFF7ACFF08B10320F5E7FEF72A
:1019D00007FF002801DB0220EFE7403404EB050A93
:1019E000AAF1010007EB442940F3000004F00107CD
:1019F00000F10108FEF707FD3FB10123A4F1410208
:101A00006946DDF80404FFF7A3FF4FF40074B8F152
:101A1000000F07D0AAF14002012380A9DDF80404D9
:101A2000FFF796FFA246AE420CD809EB46200FB155
:101A3000514600E00021401AFEF720FD042838D16D
:101A4000B61CF0E76E02794209EB41246D4677B18E
:101A50000027E819C2780168204662F31F61FEF78B
:101A6000ACFD042825D1241D3F1D5745F1D3002787
:101A70000DE000BF0BEB0700C2780168204662F35F
:101A80001F61FEF79AFD042813D1241D3F1DB742A4
:101A9000F0D3B8F1000F12D056464FF48067A81962
:101AA000C2780168204662F31F61FEF786FD0428B4
:101AB00001D0012081E7241D361DBE42EFD3FEF781
:101AC000AEFC002079E770B514460D460020FFF704
:101AD00027FF08B1032070BD9DB1012D07D0022D55
:101AE00008D0032D0AD0042D0BD0042070BD54B1B2
:101AF000C02005E03CB14FF4007001E01CB10220B1
:101B00002060002070BD012070BD01480088704732
:101B1000E0F7FF1F10B5182000F0B2F9040004D060
:101B200000202060201D00F085FA204610BD2DE920
:101B3000F04100278846040005D140F21222B2A1EC
:101B4000B8A005F098F95FEA186005D040F21322BA
:101B5000ADA1B4A005F08FF9261D04F10C0501F02C
:101B600011FC2168F06841EA0801216018E000BF1B
:101B7000D0E9001601F07F425301236821F07F4134
:101B800002D40B4203D10AE031EA030307D1D201A8
:101B900000D50F43216841F0007101F053FF30463A
:101BA000A842E5D12068B843206001F05DFB2068C1
:101BB000BDE8F0812DE9F04104461F4615468846F0
:101BC000100E04D0C62290A196A005F054F925B9B4
:101BD000C7228DA193A005F04EF901F0CAFF28B9E4
:101BE00027B1CA2288A18FA005F045F901F0CAFBF0
:101BF000204641462668FFF79AFF46EA080635EA7E
:101C0000060008D06FB145F0A0613A46201D01F0F2
:101C1000A0FE002606E02068A843206001F024FB17
:101C20001EE0266801F020FBD7B138B981494FF09A
:101C300080500860BFF34F8FBFF36F8F02F094F8AE
:101C4000064680010AD400F0DCFA266835EA060070
:101C500002D126EA0500206000F0EDFA26F07F466A
:101C60003046A5E72DE9F0479A46DDF820909046EA
:101C70000D4604004FF0000705D14FF4A07262A199
:101C800068A005F0F8F8280E05D040F241125EA1D8
:101C900064A005F0F0F82DB94FF4A1725AA161A02B
:101CA00005F0E9F801F065FF40B9B9F1000F05D082
:101CB00040F2451254A15BA005F0DDF801F062FB93
:101CC000266852462946304600F093F830B1B8F104
:101CD000000F1AD02068A843206016E0B9F1000F69
:101CE00013D0B8F1000F01D04FF08077BAF1000F98
:101CF00001D047F0806745EA07014A46201D01F000
:101D000028FE01F0B1FA18B10AE001F0ADFA1FE0C7
:101D100048494FF080500860BFF34F8FBFF36F8F7B
:101D200002F022F80646800110D400F06AFA266814
:101D300052462946304600F05CF828B1B8F1000F51
:101D400002D02068A843206000F075FA26F07F4694
:101D50003046BDE8F08770B50E46040005D14FF45B
:101D6000EA7229A12FA005F086F8300E05D040F2C6
:101D7000D51225A12BA005F07EF800F042FA2568C7
:101D800025EA0600206000F056FA284670BD502271
:101D9000EFF3118182F31188BFF34F8FBFF36F8F81
:101DA000006881F3118870472DE9F0410546041D54
:101DB00001F0E8FA04F1080640F272274FF00078CB
:101DC0000BE0E068B04204D13A460FA115A005F03F
:101DD00052F84146E06801F035FE20680028F0D155
:101DE000284600F0B7F8BDE8F04101F03DBA9EE6A4
:101DF000B1E70346002012B1994302D070470B426D
:101E0000FCD00120704700002E2E5C6F735C636F66
:101E100072655C6576656E745F67726F7570732E40
:101E2000630000004572726F723A25732C25640DB1
:101E30000A00000004ED00E030B5734900E01146EF
:101E40000A688242FBD34B685C18844203D1406825
:101E500018444860084643681C18944209D16A4CEB
:101E6000103C2468A24209D052681A4442600A68B1
:101E700012680260814200D0086030BD0460F9E75A
:101E80002DE9F0410546002701F07CFA5E4E103E38
:101E9000306808B900F097F8F06805424DD1002D80
:101EA0004BD0083568070BD005F00700C0F10800DB
:101EB0000544680704D0952254A159A004F0DBFF23
:101EC000DDB37068854238D84F4801460C6801E0A0
:101ED00020460C466168A94202D221680029F7D148
:101EE0003168B0468C4228D007682168016060687C
:101EF0000837401B10280ED96619700704D0C2227B
:101F000042A147A004F0B7FF6068401B70603046F4
:101F10006560FFF791FF6268D8F804104046891A9F
:101F2000C8F80410D8F80830994200D28160D8F877
:101F30000C0002430020C4E9000201F095F9780783
:101F400005D04FF4817231A135A004F094FF3846DA
:101F5000BDE8F08170B500282BD02B4DA0F108040E
:101F6000103D6068E968084205D14FF48B7227A1E3
:101F70002BA004F080FF206828B140F2171223A1A3
:101F800027A004F078FF6168E868014211D0226858
:101F9000002A0ED18143616001F0F4F9606869683C
:101FA000084468602046FFF747FFBDE8704001F035
:101FB0005BB970BD1448103840687047124810383B
:101FC0008068704770471A484FF43051420706D076
:101FD000C01D174920F00700411AC1F530510A4AC7
:101FE00000230144C2E900030839103A21F0070137
:101FF00011604B600B600B1AC0E9001393604FF047
:1020000000405360D06070474C0000202E2E5C6F63
:10201000735C636F72655C686561705F342E63002A
:102020004572726F723A25732C25640D0A00000008
:102030004002002000F108014FF0FF32C0E9011218
:10204000C16001610021016070470021016170479A
:1020500042684A6093688B60936859609160086138
:102060000168491C0160704730B50B685A1C02D0EA
:1020700000F1080202E0026904E022465468256883
:102080009D42FAD953684B6099608A60516008613B
:102090000168491C016030BDD0E9013201699A60D4
:1020A000D0E901235A604A68824201D182684A60BD
:1020B000002202610868401E08600868704700003E
:1020C00010B54FF4E130FFF7F7F8FFF785FBFFF7A6
:1020D000D7FB04A005F050FA02F0D9FB01F0BFFBDA
:1020E000002010BD6273702073657475702100004C
:1020F00075484068401C04D0CA2274A178A004F03E
:10210000BAFE502080F31188BFF34F8FBFF36F8F5B
:10211000FEE710B5031F4FF080741C601B1F21F0F9
:1021200001011960191F724B0B60143940380A60A5
:1021300010BD4FF0E0200021016181616D494FF435
:102140007A720968B1FBF2F1491E41610721016110
:1021500070477CB5684D28780190FF20287028785A
:102160008DF800009DF800009DF8001000F0F000D0
:10217000884205D04FF48A7254A159A004F07BFE26
:102180009DF80000504C00F0500020700720A06027
:1021900006E000BF9DF8001049008DF80010401EB9
:1021A0009DF800100906F5D4A060032805D04FF46F
:1021B000987246A14AA004F05EFE207A000200F464
:1021C000E060A060019828704C48016841F47001FB
:1021D0000160016841F070410160FFF7AAFF002033
:1021E0006060FEF725F800207CBD37484068B0F5F8
:1021F0007A7F05D04FF4AB7234A139A004F03BBE16
:102200007047502080F31188BFF34F8FBFF36F8F5B
:102210002D494868401C486001280BD137481C38BC
:10222000006810F0FF0F05D04FF4B37227A12CA067
:1022300004F021BE704710B5234C606828B940F205
:102240006D1222A126A004F016FE6068401E606098
:1022500001D180F3118810BD10B5502080F3118892
:10226000BFF34F8FBFF36F8F00F0A1FF20B1234961
:102270004FF080501C390860002080F3118810BD99
:1022800010B5FEF70BF8104C10280CD300F1E0202D
:1022900090F8F0032178884205D240F2A5220BA1E4
:1022A0000FA004F0E8FD154814380068A16800F498
:1022B000E060884207D9BDE8104040F2B52203A192
:1022C00007A004F0D8BD10BD540000202E2E5C6F76
:1022D000735C636F72655C706F72742E63000000D4
:1022E0004572726F723A25732C25640D0A00000046
:1022F000F12000081400002000E400E020ED00E0E0
:1023000070B50D46040005D140F20312F2A1F7A00A
:1023100004F0B1FDFFF775FFD4E90F20216802FB3F
:102320000011A1600021A163216861600A46D4E91F
:102330000F01401E00FB0121E16021464FF0FF30FC
:1023400001F8440F487004F110004DB1FFF772FE20
:1023500004F12400FFF76EFEFFF76DFF012070BD52
:1023600021690029F8D001F038FB0028F4D0E349B6
:102370004FF080500860BFF34F8FBFF36F8FEBE7D4
:1023800070B50E46050005D14FF4BB72D2A1D7A09F
:1023900004F071FDA6B105FB06F04C30FFF770FDAF
:1023A00004000CD004F14C0066B12060C4E90F5663
:1023B00020460121FFF7A4FF00212046A16470BD43
:1023C0000020EAE72460F1E72DE9F041856B17462C
:1023D00004460026026C82B1C7B1E06805F0D8F867
:1023E000E168206C091AE1602268914202D2A1687A
:1023F000081AE060022F16D017E02068A8B9A0687C
:1024000001F009FC06460020A0600EE0606805F0BF
:10241000BFF8216C606808446060A168884204D3FA
:102420002068606001E005B16D1E6D1CA56330463B
:10243000BDE8F0812DE9F3410F4600980026846C39
:102440002CB940F64532A4A1A8A004F014FDA06B5D
:10245000E16B884205D340F646329FA1A3A004F069
:102460000AFDA06BE16B88420CD294F945503A46C4
:1024700069462046FFF7A8FF0646681C05D06D1C7C
:1024800084F845503046BDE8FC81606A0028F9D0E8
:1024900004F1240001F0A1FA0028F3D00126F1E7AD
:1024A0002DE9F0410446FFF7ACFE94F9455004F1E4
:1024B000240610E0A06C20B100212046FFF7BAFFEF
:1024C00004E0606A48B1304601F087FA08B101F0D3
:1024D00047FB6D1E6DB2002DECDC4FF0FF3684F82B
:1024E0004560FFF7A8FEFFF78CFE94F9445004F115
:1024F000100709E0206948B1384601F06EFA08B1CA
:1025000001F02EFB6D1E6DB2002DF3DC84F84460EB
:10251000BDE8F041FFF78FBE2DE9FF4782B01D46B1
:102520008A464FF00008040005D140F2F1226AA16A
:102530006EA004F0A0FCBAF1000F07D1206C28B106
:1025400040F2F22264A169A004F095FC022D08D1AA
:10255000E06B012805D040F2F3225FA163A004F0F4
:102560008AFC01F006FB38B9049828B140F2F62243
:1025700059A15EA004F07FFC604F4FF000094FF0BE
:10258000805600BFFFF73DFEA06BE16B884207D38A
:10259000022D05D0049840B3B8F1000F28D02CE0EC
:1025A000D4F838802A4651462046FFF70DFFA16C2B
:1025B00049B1022D02D1B8F1000F10D129462046B1
:1025C000FFF738FF05E0616A19B104F1240001F05A
:1025D00004FA20B13E60BFF34F8FBFF36F8FFFF758
:1025E0002AFE012006B0BDE8F087FFF724FE22E0B6
:1025F000684601F076FA4FF00108FFF71CFE00F084
:10260000C1FEFFF7FEFD94F94400401C01D184F89F
:10261000449094F94500401C01D184F84590FFF79F
:102620000AFE04A9684601F063FA30B12046FFF7BC
:1026300037FF00F019FE0020D4E7FFF7E2FDA06BA2
:10264000E16B884213D1FFF7F6FD04F11000049905
:1026500001F067F92046FFF723FF00F005FE002890
:1026600090D13E60BFF34F8FBFF36F8F8AE7FFF7C4
:10267000E2FD2046FFF714FF00F0F6FD82E710B5FB
:10268000024600210120FFF77BFE040007D0002155
:10269000816001600B460A46C160FFF73DFF20469E
:1026A00010BD10B5040005D140F259220AA10FA0B7
:1026B00004F0E1FB01F059FAA168884220D1E068FA
:1026C000401EE06005D100231A4619462046FFF758
:1026D00023FF012010BD00002E2E5C6F735C636F22
:1026E00072655C71756575652E6300004572726F69
:1026F000723A25732C25640D0A00000004ED00E0F9
:102700000020E7E72DE9F343002683B004003546B7
:1027100007D140F29152AFF24001AFF2300004F025
:10272000AAFB206C38B140F29552AFF25401AFF2DF
:10273000440004F0A0FB01F01CFA48B9049838B139
:1027400040F29A52AFF27001AFF2600004F093FBD6
:102750004FF000094FF08057DFF89888FFF751FDE0
:10276000A06BC8B1401EA063206810B901F006FB41
:10277000A060206950B104F1100001F02EF928B1D9
:10278000C8F80070BFF34F8FBFF36F8FFFF753FD93
:10279000012005B0BDE8F083049808B166B10FE0F0
:1027A0003DB140F2E152AFF2D001AFF2C00004F00F
:1027B00062FBFFF740FD5DE0684601F092F90126FB
:1027C000FFF739FD00F0DEFDFFF71BFD94F9440033
:1027D000401C01D184F8449094F94500401C01D17B
:1027E00084F84590FFF727FD04A9684601F080F9B9
:1027F0000028204612D0FFF753FE00F035FD20469A
:1028000000F0ECFB0028A9D09DB3FFF7FAFC606A4A
:1028100050B3206B0068C0F1200126E000F0DEFB21
:10282000E0B1206838B9FFF7ECFCA06801F0ADF921
:102830000546FFF700FD04F12400049901F071F84A
:102840002046FFF72DFE00F00FFD002886D1C8F8C6
:102850000070BFF34F8FBFF36F8F7FE72046FFF706
:102860001FFE00F001FD79E70021A06801F029FAC0
:102870009FE7FFE700208CE770B50D46040007D105
:102880004FF42472AFF2B011AFF2A01004F0F3FADB
:1028900001F06BF9A168884204D1E068401CE06057
:1028A000012070BD29462046FFF72CFF0028F8D0F4
:1028B000E168491CE16070BD70B50C46050007D1A8
:1028C00040F2D522AFF2F011AFF2E01004F0D3FAEB
:1028D000AC4207D940F2D622AFF20421AFF2F41095
:1028E00004F0C9FA022200212846FFF749FD00281A
:1028F00000D0846370BD2DE9F0479846174689469D
:10290000040007D140F2C332AFF23421AFF22420E9
:1029100004F0B1FAB9F1000F09D1206C38B14FF4CD
:102920007172AFF24C21AFF23C2004F0A4FAB8F17E
:10293000020F0AD1E06B012807D040F2C532AFF296
:102940006821AFF2582004F096FAFFF799FC502066
:10295000EFF3118680F31188BFF34F8FBFF36F8FB2
:10296000A06BE16B884206D3B8F1020F03D00020C0
:1029700086F3118837E694F9455042464946204689
:10298000FFF722FD681C04D06D1C84F8455001201F
:10299000EEE7A06C012520B141462046FFF74AFD35
:1029A00006E0606A0028F2D004F1240001F015F876
:1029B0000028ECD0002FEAD03D60E8E72DE9F04197
:1029C0000E46040007D14FF48C62AFF2F421AFF24F
:1029D000E42004F050FA206C38B140F26442AFF2C7
:1029E0000831AFF2F82004F046FA206848B9A06830
:1029F00038B140F26942AFF22031AFF2103004F04A
:102A00003AFAFFF73DFC5020EFF3118580F311886F
:102A1000BFF34F8FBFF36F8FA16BE06B88421FD95D
:102A200094F94500491CA163411C04D0401C84F862
:102A30004500012015E0A06C012720B100212046AF
:102A4000FFF7F8FC06E0606A0028F2D004F12400E9
:102A500000F0C3FF0028ECD0002EEAD03760E8E792
:102A6000002085F31188E3E430B4026C0B46002AA1
:102A70000BD0C1681144C1608468A14201D30168D0
:102A8000C16030BC184604F083BD30BC70472DE9EE
:102A9000F747002683B08A46040007D14FF4A062AE
:102AA000AFF2CC31AFF2BC3004F0E5F9BAF1000F6F
:102AB00009D1206C38B140F20452AFF2E431AFF2E8
:102AC000D43004F0D8F901F054F848B9059838B179
:102AD00040F20952AFF20041AFF2F03004F0CBF90E
:102AE0004FF000094FF08057DFF80885FFF789FBAA
:102AF000A56BB5B151462046FFF7B6FF6D1EA56325
:102B0000206950B104F1100000F067FF28B1C8F847
:102B10000070BFF34F8FBFF36F8FFFF78CFB012067
:102B200060E5059808B11EB106E0FFF784FB27E0D9
:102B3000684600F0D6FF0126FFF77DFB00F022FC7F
:102B4000FFF75FFB94F94400401C01D184F84490E6
:102B500094F94500401C01D184F84590FFF76BFBC8
:102B600005A9684600F0C4FF002820460AD0FFF7F8
:102B700097FC00F079FB204600F030FA0028B5D031
:102B800000202FE500F02AFA90B104F12400059905
:102B900000F0C7FE2046FFF783FC00F065FB00282D
:102BA000A4D1C8F80070BFF34F8FBFF36F8F9DE7BC
:102BB0002046FFF775FC00F057FB97E72DE9F74338
:102BC000002582B08946040007D14FF4CD62AFF2F0
:102BD000F841AFF2E84004F04EF9B9F1000F09D125
:102BE000206C38B140F26C62AFF21451AFF2045075
:102BF00004F041F900F0BDFF48B9049838B140F243
:102C00007162AFF22C51AFF21C5004F034F94FF066
:102C100000084FF08056F74FFFF7F3FAA06BA8B10A
:102C200049462046E568FFF71FFFE560606A48B146
:102C300004F1240000F0D1FE20B13E60BFF34F8FBD
:102C4000BFF36F8FFFF7F7FA0120A2E5049808B1F0
:102C50001DB106E0FFF7EFFA27E0684600F041FFFC
:102C60000125FFF7E8FA00F08DFBFFF7CAFA94F9A7
:102C70004400401C01D184F8448094F94500401C74
:102C800001D184F84580FFF7D6FA04A9684600F020
:102C90002FFF002820460AD0FFF702FC00F0E4FADC
:102CA000204600F09BF90028B6D0002071E500F026
:102CB00095F988B104F12400049900F032FE204611
:102CC000FFF7EEFB00F0D0FA0028A5D13E60BFF37D
:102CD0004F8FBFF36F8F9FE72046FFF7E1FB00F0B8
:102CE000C3FA99E72DE9F04790468946040007D1D9
:102CF00040F2FB62AFF22061AFF2106004F0BBF86B
:102D0000B9F1000F09D1206C38B140F2FC62AFF28A
:102D10003861AFF2286004F0AEF8FFF7B1FA502046
:102D2000EFF3118680F31188BFF34F8FBFF36F8FDE
:102D3000A76BF7B194F9445049462046FFF794FE3B
:102D40007F1EA763681C04D06D1C84F844500120CA
:102D500010E020690028FAD004F1100000F03DFED8
:102D60000028F4D0B8F1000FF1D00121C8F800100C
:102D7000EDE7002086F3118835E42DE9F0410E4699
:102D8000040007D140F25772AFF2B461AFF2A46011
:102D900004F071F84EB9206C48B14FF4EB62AFF219
:102DA000C861AFF2B86004F066F8206C38B940F240
:102DB0005972AFF2DC61AFF2CC6004F05CF8FFF75F
:102DC0005FFA5020EFF3118580F31188BFF34F8F26
:102DD000BFF36F8FA06B30B131462046E768FFF735
:102DE00043FE0120E76085F311883CE610B504003E
:102DF00007D140F28A72AFF22071AFF2107004F086
:102E00003AF8FFF7FEF9A46BFFF715FA204661E4E4
:102E100010B5040007D140F29B72AFF24471AFF2DB
:102E2000347004F028F8FFF7ECF9D4E90E10441AD6
:102E3000FFF701FA20464DE410B5040007D140F237
:102E4000AC72AFF26C71AFF25C7004F014F8A06B6E
:102E500040E4694A002100BF02EBC1035B68834282
:102E600006D1002042F8310002EBC10148607047F2
:102E7000491C0A29F0D3704710B5040007D140F26D
:102E8000B772AFF2AC71AFF29C7003F0F4FF204662
:102E9000FFF7DFFF2046BDE81040FFF75BB810B535
:102EA000040007D140F60912AFF2D471AFF2C4703A
:102EB00003F0E1FFA06B08B100200BE4012009E45E
:102EC00010B5040007D140F63112AFF2F471AFF241
:102ED000E47003F0D0FFA06BE16B884201D10120C8
:102EE0000FE400200DE410B5434B002253F83240AC
:102EF0001CB1521C0A2AF9D303E443F8321003EB45
:102F0000C201486083E7034610B500203A4A0146F3
:102F100002EBC10464689C4202D152F8310076E7AA
:102F2000491C0A29F4D372E770B515460E460446CB
:102F3000FFF767F994F944100020491C01D184F887
:102F4000440094F94510491C01D184F84500FFF76D
:102F500072F9A06B28B92A46314604F1240000F02A
:102F600020FD2046BDE87040FFF79ABA00220421F8
:102F7000FFF706BA70B50D460446FFF742F9A06C9C
:102F800008B9A06B08B1002401E0A5640124FFF793
:102F900052F9204670BD10B50446806C884201D1BC
:102FA000A06B08B1002032E7FFF72BF90020A064E6
:102FB000FFF741F901202AE708B5002200920A46EE
:102FC0006946FFF764FD009808BD08B500210A4670
:102FD00000916946FFF786FE009808BD10B50446CB
:102FE000FFF70FF9A06B48B15FF00004FFF723F97A
:102FF00020460CE704ED00E0402E00200124F5E718
:103000002DE9F0410546FFF7FCF8F84CA068401C9C
:10301000A0602068F64F10B1606930B32BE02560E6
:10302000A068012827D1002606EB860007EB800068
:10303000FFF700F8761C202EF6D3EE48FEF7FAFFD5
:10304000EC481430FEF7F6FFEA482830FEF7F2FFAE
:10305000E8483C30FEF7EEFFE6485030FEF7EAFF66
:10306000E44860631430A06305E02068E96AC06A40
:10307000884200D82560606A401C6062E96A0120CD
:10308000226988401043206101EB810007EB80003A
:10309000291DFEF7DDFFFFF7CEF8606900280CD090
:1030A0002068E96AC06A884207D2D3494FF080504D
:1030B0000860BFF34F8FBFF36F8FBDE8F0812DE93C
:1030C000FF5F8346DDE90E87994616468A469000E3
:1030D000FEF7D6FE05001AD05420FEF7D1FE0400FC
:1030E00012D025630021CDE90241CDE900874B468E
:1030F00032465146584601F015F82046FFF780FF4A
:10310000012004B0BDE8F09F2846FEF723FF4FF0F2
:10311000FF30F6E770B50546FFF773F8B34C05B915
:103120002568281DFEF7B8FF58B9E86AB04A00EBD9
:10313000800152F8211021B9012181402069884382
:103140002061A86A18B105F11800FEF7A5FF606AB2
:10315000401C60622068854208D1A648291D3C3089
:10316000FEF776FF6068401C606007E0A068401EC4
:10317000A060284601F033F801F024F8FFF75BF86F
:103180006069002812D0206885420FD1206B28B1D9
:1031900040F2D24299A19EA003F06DFE96494FF0F5
:1031A00080500860BFF34F8FBFF36F8F70BD2DE964
:1031B000F0418E4C0027206B38B1A069401CA06103
:1031C000E06900B10127384677E7E668761CE660DB
:1031D00011D1606B006828B140F67F2287A18CA0D6
:1031E00003F049FE606BA16B6163A063206A401C21
:1031F000206200F0E7FFA06ADFF8F481864209D37D
:10320000606B006880B1606BC068C56868688642A2
:103210000DD2A0622068C06A00EB800158F821003E
:103220000128CDD90127CBE74FF0FF30F1E7281D6A
:10323000FEF732FFA86A18B105F11800FEF72CFF5F
:10324000E86A0121226981401143216100EB80017C
:1032500008EB8100291DFEF7FBFEE86A2168C96AB8
:103260008842CDD30127CBE72DE9F0475F4C0025FD
:103270002E46206B28B940F6850260A164A003F0B9
:10328000FAFDFEF7BEFF206B401E2063206BE0BB03
:10329000A168584F28370120B9B3DFF85491804610
:1032A0003868E8B1F868C56805F11800FEF7F4FE63
:1032B000281DFEF7F1FEE86A226908FA00F11143C1
:1032C000216100EB800109EB8100291DFEF7C0FEA2
:1032D000E86A2168C96A8842E2D3C4F81C80DFE743
:1032E0000DB100F06FFFA56945B14746FFF75FFFDD
:1032F00000B1E7616D1EF9D10020A061E06920B145
:103300003D4901263007086000E003E0BFF34F8F1E
:10331000BFF36F8FFEF78FFF3046BDE8F0872DE9D2
:10332000F041324C0F460546E6682068001DFEF766
:10333000B3FE38B9206890F82C100120884021692C
:1033400081432161681C08D13FB12168BDE8F0418B
:1033500028485030091DFEF77BBE20683544B54231
:103360004560216805D2A06BBDE8F041091DFEF75C
:103370007BBE606B091DFEF777FEA06A854200D216
:10338000A5629AE61948016B491C0163704770B544
:103390000D46040005D140F2E64218A11CA003F03E
:1033A0006AFD2DB940F2E74214A119A003F063FDB4
:1033B0000E4E306B28B14FF49D6210A114A003F0A3
:1033C0005AFDFFF7DFFFF26823685919934204D9C9
:1033D0008B4225D9914202D822E08B42FAD9881A31
:1033E00021600021FFF79BFF1BE000006000002030
:1033F000902E00201031002004ED00E02E2E5C6F96
:10340000735C636F72655C7461736B732E63000031
:103410004572726F723A25732C25640D0A00000004
:103420002160FFF721FF002807D1F9494FF08050B4
:103430000860BFF34F8FBFF36F8F70BD10B50400EE
:1034400014D0F448006B38B140F23C52AFF2540152
:10345000AFF2440003F00FFDFFF794FF0021204678
:10346000FFF75DFFFFF700FF002807D1E8494FF0A5
:1034700080500860BFF34F8FBFF36F8F10BD2DE9F1
:10348000F041040007D14FF4AD62AFF29001AFF20A
:10349000800003F0F0FCDF4E3068844201D1002050
:1034A0000BE6FEF7AEFE6569776BB66BFEF7C3FE03
:1034B000BD4201D0B54201D10220FEE5D648854289
:1034C00008D1A06A0028F7D194F850000128F3D061
:1034D0000320F2E5D0481438854202D00DB1012016
:1034E000EBE50420E9E510B50446FEF78AFE0CB9C9
:1034F000C8480468E46AFEF79EFE204610BD10B579
:103500000446FEF7BDFE5020EFF3118180F31188D1
:10351000BFF34F8FBFF36F8F0CB9BE480468E06AEA
:1035200081F3118810BD2DE9F04100270E460446B5
:10353000202908D340F20262AFF24011AFF23010FE
:1035400003F099FC1F26FEF75CFEB24D04B92C680F
:10355000606CB0423FD02968864206D98C4207D0C1
:103560002968C96AB14202D902E08C4200D1012720
:10357000E16A8846884200D1E6626664A069002854
:1035800002DBC6F12000A061A44E08EB880061694F
:1035900006EB8000814215D1201DFEF77DFD012143
:1035A00020B92A6901FA08F082432A61E06A2A698F
:1035B00081401143296100EB800006EB8000211D52
:1035C000FEF746FD3FB192494FF080500860BFF3CF
:1035D0004F8FBFF36F8FBDE8F041FEF72CBE70B583
:1035E0008C4C206B10B10120E06170BD0020E061C7
:1035F00020698A4EB0FA80F0C0F11F0000EB800510
:1036000056F8250038B940F6B732AFF21021AFF2C4
:10361000002003F030FC06EB850000F10802416851
:1036200049684160914201D149684160C8682060A1
:1036300070BD70B50446FEF7E4FD764D04B92C6804
:10364000201DFEF729FD58B9E06A744A00EB80019D
:1036500052F8211021B9012181402869884328614D
:10366000A06A18B104F11800FEF716FD211D6A4882
:10367000FEF7EEFC94F850000026012801D184F8F2
:103680005060FEF7D8FD686928B1FEF7BAFD00F07A
:1036900099FDFEF7D0FD2868844213D1686990B186
:1036A000286B38B140F2E462AFF2B021AFF2A02053
:1036B00003F0E1FB56494FF080500860BFF34F8F95
:1036C000BFF36F8F70BD54480068A968884201D16C
:1036D0002E6070BDBDE8704081E770B50025040024
:1036E00007D140F20E72AFF2EC21AFF2DC2003F012
:1036F000C2FB49496069884205D1A06A28398842DD
:1037000001D000B90125284670BD70B5040007D16D
:103710004FF4E762AFF21C31AFF20C3003F0ABFBB9
:103720003C4D2868844229D0002C27D0FEF769FD43
:103730002046FFF7D2FFE8B1201DFEF7ADFCE06A9E
:1037400001212A69814011432961344900EB80003D
:1037500001EB8000211DFEF77BFCE06A2968C96A45
:10376000884207D32A494FF080500860BFF34F8F3B
:10377000BFF36F8FBDE87040FEF75DBD70BD2DE9F2
:10378000F0410027040007D140F26F72AFF294318C
:10379000AFF2843003F06FFBFEF772FD5020EFF3C1
:1037A000118580F31188BFF34F8FBFF36F8F2046D1
:1037B000FFF793FFF0B1174E306B20B1164804F1BC
:1037C0001801283814E0E06A3168C96A884200D3D9
:1037D0000127201DFEF760FCE16A01203269884064
:1037E0001043306101EB81000C4901EB8000211D89
:1037F000FEF72EFC85F3118838465EE4064E054C34
:10380000143E064F4FF08058DFF804901AE0000095
:1038100004ED00E06000002060310020902E0020C8
:10382000FEF7EFFCF068C568281DFEF735FCA068C0
:10383000401EA0606068401E6060FEF7FCFC2846E9
:1038400000F0CDFC60680028EAD138680128F9D979
:10385000C9F80080BFF34F8FBFF36F8FF2E71CB53D
:10386000FE480024CDE9004023468022FCA1FE480A
:10387000FFF725FC012803D100F0CBFD01280CD077
:10388000401C1DD14FF40262AFF29041AFF2804074
:1038900002B0BDE8104003F0EEBA502080F311886A
:1038A000BFF34F8FBFF36F8FEC484FF0FF312C38D1
:1038B000816201214161C460BDE81C40FEF749BC42
:1038C0001CBD502080F31188BFF34F8FBFF36F8F63
:1038D000E24900202C394861FEF787BCDF482C38CC
:1038E000C068704710B5FEF7CBFCDC482C38C068C8
:1038F00010BDDA482C388068704710B510B1044606
:1039000024B10BE0D5482C380468F9E740F62912B9
:10391000AFF21851AFF2085003F0ADFA04F13400E1
:1039200010BD70B50D46040007D140F6CE32AFF29F
:103930003451AFF2245003F09EFAC8482C38016885
:1039400020461831FEF790FB2846BDE87040012163
:10395000E5E42DE9F04116460F46050007D140F693
:10396000DF32AFF26851AFF2585003F084FABB4C2B
:103970002C3C206B38B940F6E332AFF28051AFF205
:10398000705003F078FA216847F0004088612168A0
:1039900028461831FEF75CFB3046BDE8F0410121B6
:1039A000BDE470B514460D46060007D140F6F93265
:1039B000AFF2B851AFF2A85003F05DFAA7482C3827
:1039C000016830461831FEF743FB0CB14FF0FF356C
:1039D00021462846BDE87040A1E42DE9F041C068C9
:1039E000C4683CB940F62942AFF2F051AFF2E05062
:1039F00003F041FA04F118000746FEF74DFB974D1E
:103A00002C3D286B012658B139469848FEF720FB1B
:103A1000E06A2968C96A884212D90120EE61B0E4DF
:103A2000201DFEF739FBE16A2A6906FA01F010430E
:103A3000286101EB81008E4901EB8000211DE5E743
:103A400000209EE470B5854D06462C3D0C46286B43
:103A500038B94FF44662AFF25C61AFF24C6003F0EC
:103A60000AFA44F000403060F4683CB940F668421D
:103A7000AFF27861AFF2686003F0FDF93046FEF70F
:103A80000BFB201DFEF708FBE16A01262A6906FAF6
:103A900001F01043286101EB8100754901EB8000C2
:103AA000211DFEF7D5FAE06A2968C96A884200D963
:103AB000EE6170BD10B5040007D140F67E42AFF252
:103AC000C461AFF2B46003F0D6F9FEF79AFB634825
:103AD0002C38016A2160C0686060BDE81040FEF7C4
:103AE000AABB5E492C390A6A0260C9684160704706
:103AF0002DE9F0410C46050007D140F69442AFF2A3
:103B00000471AFF2F46003F0B6F93CB940F69542A7
:103B1000AFF21871AFF2087003F0ADF9FEF771FB68
:103B20004E4E2C3EF2686B682068D11A471C07D0B5
:103B30002F68366AB74208D0934206D8012400E0C5
:103B40000024FEF778FB20461BE4884205D9401A82
:103B500020602846FFF7C5FFF2E700202060EDE770
:103B60003E4901202C39C86170473C482C38006818
:103B700070473A482C38416919B1006B18B10020E0
:103B80007047012070470220704770B504004FF065
:103B9000000039D0314DE16A2C3D2A68D26A914249
:103BA00033D2A069002804DB2868C06AC0F1200075
:103BB000A0612F4E01EB8101606906EB8101884213
:103BC0001ED1201DFEF768FA012150B9E06A00EB12
:103BD000800256F8222022B92A6901FA00F08243B5
:103BE0002A612868C06AE0622A698140114329611C
:103BF00000EB800006EB8000211DFEF729FA02E0B1
:103C00002868C06AE062012070BD616C2A68D26ACF
:103C10009142F8D370BD70B504004FF000064ED04D
:103C20000E4D2C3D2868844207D040F6D172AFF685
:103C30003401AFF6240003F01EF9A06C38B940F649
:103C4000D272AFF64801AFF6380003F014F9A06C59
:103C5000401EA064626CE16A91420BE08C0000207F
:103C600049444C4500000000FD3700083831002071
:103C7000902E002023D010BB201DFEF70DFAFE4A27
:103C8000012150B9E06A00EB800352F8233023B9D8
:103C90002B6901FA00F083432B61606CE062C0F194
:103CA0002000A061E06A2B6981401943296100EB83
:103CB000800002EB8000211DFEF7CAF90126304684
:103CC00070BD70B50D4604004DD0A06C38B94FF4EE
:103CD0008152AFF6D801AFF6C80003F0CCF8606CA3
:103CE000A84200D30546E06AA8423CD0A06C012857
:103CF00039D1E24E3068844207D141F23B02AFF63F
:103D00000411AFF6F40003F0B6F8E06AE562A169C9
:103D1000002902DBC5F12001A161D74D00EB800035
:103D2000616905EB800081421DD1201DFEF7B4F9C9
:103D3000012150B9E06A00EB800255F8222022B937
:103D4000326901FA00F082433261E06A32698140EF
:103D50001143316100EB800005EB8000211DBDE8BF
:103D60007040FEF775B970BDC44908680A6880697B
:103D7000D26A0968C2F120028A617047BF490868A7
:103D800018B10868826C521C82640868704770B56C
:103D90000C460646FEF735FAB84D2868C06C80B967
:103DA0002968012081F850005CB101212046FFF70D
:103DB000B6FAB3494FF080500860BFF34F8FBFF39E
:103DC0006F8FFEF738FAFEF71CFA2868C46C0020E3
:103DD00034B116B12968C86402E02A68611ED16452
:103DE000296881F85000FEF726FA204670BD2DE9BB
:103DF000F0411E46154688460746FEF702FA9F4CDC
:103E0000206890F85000022814D02068C16CB94393
:103E1000C1642168012081F850005EB10121304663
:103E2000FFF77DFA96494FF080500860BFF34F8F3F
:103E3000BFF36F8FFEF7FFF9FEF7E3F915B12068C6
:103E4000C06C2860206890F85000022801D000253E
:103E500005E02068C16C21EA0801C16401252168E0
:103E6000002081F85000FEF7E6F92846C5E42DE968
:103E7000F0411F4690460D4604004FF0010607D161
:103E800041F27022AFF68C21AFF67C2002F0F3FFF6
:103E9000FEF7B7F90FB1E06C386094F8507002206B
:103EA00084F85000B8F1050F11D2DFE808F01B03C9
:103EB000060C0A00E06C284301E0E06C401CE06462
:103EC00010E0022F01D0E5640CE0002635E0E06C44
:103ED000401C07D041F2A122AFF6E021AFF6D0207E
:103EE00002F0C9FF012F28D1201DFEF7D5F8634D40
:103EF000E06A01212A698140114329615E4900EB92
:103F0000800001EB8000211DFEF7A2F8A06A38B105
:103F100041F2B022AFF61C31AFF60C3002F0ABFF2D
:103F2000E06A2968C96A884207D955494FF080502C
:103F30000860BFF34F8FBFF36F8FFEF77CF93046F9
:103F40005BE42DE9F0471F46DDF8209092460D46D0
:103F500004004FF0010807D141F2E322AFF66431CB
:103F6000AFF6543002F087FFFEF78AF95020EFF3E6
:103F7000118680F31188BFF34F8FBFF36F8F0FB19E
:103F8000E06C386094F85070022084F85000BAF168
:103F9000050F12D2DFE80AF01C03060C0A00E06CE1
:103FA000284301E0E06C401CE06411E0022F01D0E6
:103FB000E5640DE04FF000082BE0E06C401C07D0FA
:103FC00041F22632AFF6CC31AFF6BC3002F053FFEF
:103FD000012F1ED1A06A38B141F23132AFF6E4317F
:103FE000AFF6D43002F047FF244D286B0127A8B16B
:103FF000244804F1180100BFFEF72AF8E06A296896
:10400000C96A884205D9B9F1000F01D0C9F800701A
:10401000EF6186F311884046BDE8F087201DFEF76A
:104020003BF8E16A2A6907FA01F01043286101EBC5
:104030008100114901EB8000211DDDE72DE9F041F0
:104040008846040007D141F26332AFF65041AFF623
:10405000404002F010FFFEF713F95020EFF31186F5
:1040600080F31188BFF34F8FBFF36F8F94F8500028
:10407000022184F8501007E0902E002060000020FC
:1040800004ED00E038310020E16C491CE1640128B6
:104090001DD1A06A38B141F28932AFF6A041AFF626
:1040A000904002F0E8FE534D286B012790B104F1D7
:1040B00018015148FDF7CCFFE06A2968C96A8842B7
:1040C00005D9B8F1000F01D0C8F80070EF6186F390
:1040D0001188A4E4201DFDF7DFFFE16A2A6907FAD1
:1040E00001F01043286101EB8100444901EB80009D
:1040F000211DDFE710B568B14FEA0004FEF781F833
:1041000094F85000022808D05FF00004FEF793F8FE
:10411000204610BD37480468F0E7002084F85000BE
:104120000124F3E72DE9F05F8846DDE90B9483462F
:104130006FF00301206B01EB820108440A9E20F01E
:1041400007079A46780705D040F261322CA131A0CA
:1041500002F091FE0025B8F1000F0FD05FF00000D3
:10416000221818F8001082F8341018F8001011B155
:10417000401C1028F4D384F8435001E084F83450F4
:10418000202E00D31F26E662C4E91165201DFDF72D
:104190005CFF04F11800FDF758FF2461C6F1200010
:1041A0006462A061E56484F850505246594638462E
:1041B000FDF7AFFF2060B9F1000F01D0C9F8004052
:1041C000BDE8F09F0B48416B096829B1416BC96894
:1041D000C9684968816270474FF0FF31FAE710B54E
:1041E0000446006BFDF7B6FE2046BDE81040FDF723
:1041F000B1BE00006000002038310020902E002069
:104200002E2E5C6F735C636F72655C7461736B738D
:104210002E6300004572726F723A25732C25640D6F
:104220000A00000070B500244160FC4D006191421D
:1042300006D8D11A8269914206D2011D286907E089
:104240009A4203D2994201D3012403E0011DE86898
:10425000FDF70AFF204670BD2DE9FF479946DDF8BE
:1042600030A090460E4607004FF0000405D14FF4F1
:10427000C172EBA1EFA002F0FEFDE84D286880B10D
:10428000CDE900680297062E11DAFFF772FC0228CA
:104290004FF0000309D0002269462868FEF73CF978
:1042A000044604B02046BDE8F0875246F4E70023F8
:1042B0004A466946FEF71FFBF2E770B586B0D74E57
:1042C00070E00198002806DADDE90301029A9047C0
:1042D0000198002866DB039C606910B1201DFDF782
:1042E000DBFE05A800F08CF9054601980A2859D292
:1042F000DFE800F00505052F354C05052F3594F84E
:1043000024002A4640F0010084F824000298A169A4
:10431000034601442046FFF785FF002842D0216A6A
:104320002046884794F8240040073BD500200090A1
:104330000298A1690023421819462046FFF78CFF16
:1043400000282FD140F21332B5A1BAA002F093FD9C
:1043500028E014F8240F20F00100207022E094F8E7
:10436000240040F0010084F824000298A06128B9DC
:1043700040F22B32AAA1AFA002F07DFDA0692B462E
:1043800041191A462046FFF74DFF0BE094F8240030
:10439000810703D42046FDF7DDFD03E020F0010096
:1043A00084F82400002201A93068FEF770FB002881
:1043B00087D106B070BD994CE068016839B1C0681A
:1043C0000021006800F061F9FFF777FFF4E70121B1
:1043D0000020F7E710B5FDF714FF904C2068A0B956
:1043E0009848FDF727FE97481430FDF723FE9548BF
:1043F000E06014302061002210210A20FDF7C0FF88
:10440000206010B190A1FEF76EFDBDE81040FDF7F1
:1044100012BF1CB50024FFF7DDFF8048006868B1BB
:104420007E491F20091DCDE9000100234FF4807251
:1044300087A18948FEF743FE040005D140F213121C
:1044400077A17CA002F017FD20461CBD2DE9F047A6
:104450000746994616460D462820DDF820A0FDF7B0
:104460000FFD04001ED0B84600204F4684F82400FB
:10447000D1462DB940F2651278A17DA002F0FBFC77
:10448000FFF7A8FF04F11801C4F8008081E8A0023A
:10449000201DFDF7DAFD2EB194F8240040F0040150
:1044A00084F824102046FEE610B55C4C606828B9FC
:1044B0004FF4D6725AA15FA002F0DDFC606810BD17
:1044C00010B5040005D140F2B51255A159A002F073
:1044D000D2FCA06910BD70B50D46040005D14FF4A3
:1044E000DF724FA153A002F0C6FCFDF78AFE14F85C
:1044F000240F15B140F0040001E020F0040020700A
:10450000BDE87040FDF797BE10B5040005D140F23C
:10451000D31243A147A002F0AEFC606810BD10B5F5
:10452000040005D140F2DD123DA142A002F0A3FC3F
:10453000206810BD10B5040005D14FF4737238A186
:104540003CA002F098FCFDF75CFE94F82400C00744
:1045500004D00124FDF76FFE204610BD0024F9E7CA
:1045600010B5040005D140F2E5322DA131A002F0D2
:1045700082FCFDF746FEE469FDF75DFE204610BDB6
:1045800070B50D46040005D140F2F53224A129A0F2
:1045900002F071FCFDF735FEE561BDE87040FDF706
:1045A0004ABE1FB51C466FF00103CDE90030CDE9CE
:1045B00002121A480023224669460068FEF79BF95A
:1045C00004B010BD2DE9FF41144C07469846206801
:1045D00015460E4628B940F2214211A115A002F05D
:1045E0004AFC4FF0FF30CDE90007CDE9026500231A
:1045F000424669462068FDF78FFF04B0BDE8F081B0
:1046000070B50546FFF76AF9044E0446B068844267
:1046100036D200F06BF8012033E000009C0000204F
:104620002E2E5C6F735C636F72655C74696D65726E
:10463000732E63004572726F723A25732C25640DD8
:104640000A00000074310020546D72510000000017
:10465000546D722053766300B74300082E2E5C6FB2
:10466000735C636F72655C74696D6572732E630051
:104670004572726F723A25732C25640D0A00000092
:10468000002028602046B46070BDF8B50D4606468F
:10469000FEF778FE6846FFF7B3FF0446009810B1B6
:1046A000FEF7E2FDF8BD4448ADB101690968D9B132
:1046B0000025311B2A460068FEF736FCFEF7D4FDC4
:1046C0000028EFD13D494FF080500860BFF34F8F75
:1046D000BFF36F8FF8BDA642EBD8FEF7C5FD2146AC
:1046E000304600F037F8F8BD0125E2E7F8B5324D65
:1046F00028E0C068C4680668201DFDF7CDFC216A6B
:104700002046884794F8240040071BD5A069304410
:10471000B04206D924616060211DE868FDF7A4FC61
:1047200010E0002003460146009032462046FFF785
:1047300093FD38B94FF46172AFF2E001AFF2D000EF
:1047400002F099FBE86801680029D2D12969C5E91E
:104750000310F8BDF8B5054617480E46C068C06896
:10476000C468201DFDF798FC94F82400410719D572
:10477000A0692B46411932462046FFF753FDA8B1E8
:1047800000200346014600902A462046FFF764FDBC
:1047900060B94FF4FC72AFF23C11AFF22C1002F092
:1047A0006AFB03E020F0010084F82400216A01B0D4
:1047B0002046BDE8F04008479C00002004ED00E0E2
:1047C0001CB548480324CDE900400023802246A1BF
:1047D0004A48FEF774FC4A480023CDE90040802295
:1047E00048A14C48FEF76BFC4B480023CDE9004044
:1047F00080224AA14D48FEF762FC4D480023CDE9D6
:10480000004080224BA15148FEF759FC504800233C
:10481000CDE9004080224FA15448FEF750FC544897
:104820000023CDE90040802252A15848FEF747FC02
:1048300057480023CDE90040802256A15948FEF791
:104840003EFC59480023CDE90040802257A15E4834
:10485000FEF735FC5D480023CDE9004080225CA1D5
:104860005F48FEF72CFC5F480023CDE90040802222
:104870005DA16148FEF723FC60480023CDE90040BC
:1048800080225FA16248FEF71AFC00201CBD61482F
:1048900010B50168604A1160406860490860FDF722
:1048A00039F95F4908600121FDF741F90322002130
:1048B0000120FDF765FD5B4900231A460860194693
:1048C000FDF72AFE032200210120FDF759FD56497C
:1048D00000231A4608601946FDF71EFEBDE8104089
:1048E0006EE700000801002073686F775F737973CB
:1048F0005F636C6F636B5F7461736B004172000880
:10490000CC0000206F70656E5F6C65645F746173CE
:104910006B00000081700008D0000020636C6F7392
:10492000655F6C65645F7461736B0000A170000863
:10493000D400002075736172745F68656172745F82
:10494000626561745F7461736B000000C57000087C
:10495000E00000207077725F6D6F64655F73776948
:104960007463685F7461736B000000000571000878
:10497000E40000207077725F6D6F64655F73656E31
:10498000645F6D73675F7461736B00003F71000853
:10499000F40000206372635F63616C5F7461736B2A
:1049A00000000000C5710008F80000206372635F1A
:1049B000706F73745F62696E6172795F73656D5F4A
:1049C0007461736B00000000037200081001002086
:1049D000666C6173685F73697A655F7461736B009D
:1049E000E77200082801002066735F746573745FC6
:1049F0007461736B00000000D57300083001002063
:104A0000696F5F746573745F7461736B000000009D
:104A10003775000828000020C0000020C8000020D2
:104A2000000100202C010020B000002070B50446D9
:104A3000C078002548B104F13001607801230E46AA
:104A4000E26A02F0F6F810B10125284670BD002098
:104A5000E070E16A206A0A1AA0698242F5D2A2785F
:104A6000022AF2D10A1860780123314602F0E1F8F7
:104A7000EBE770B50446C06A0D460026A8420FD089
:104A80002046FFF7D3FF06000AD1607801232A46AB
:104A900004F1300102F0BEF808B1751E0126E5628E
:104AA000304670BD70B50446FFF7C0FF050036D133
:104AB000207803282CD12079012829D1420204F141
:104AC00030000021064602F016F84AF6552104F29D
:104AD0002E2001F0FBFFFE49304601F0FBFFFD49AF
:104AE00004F5057001F0F6FF04F50670216901F088
:104AF000F1FF04F50770E16801F0ECFFE2690123C2
:104B0000521CE2626078314602F093F80020207176
:104B100000226078114602F09BF800B1012528467A
:104B200070BD2DE9F04104680D4602290BD3606980
:104B3000A84208D920784FF0FF36012807D0022874
:104B40002BD0032839D001263046BDE8F081206AF9
:104B500005EB550700EB57212046FFF78AFF002899
:104B6000F2D1C7F3080020447F1C90F83080206AFF
:104B700000EB57212046FFF77CFF0028E4D1C7F364
:104B80000800204490F8301048EA0120E90701D0DD
:104B90000609D9E7C0F30B06D6E7206A00EB15211A
:104BA0002046FFF766FF0028CED1E8B204EB4000B4
:104BB000303001F07BFF0646C6E7206A00EBD511D6
:104BC0002046FFF756FF0028BED140F2FF1000EA52
:104BD00085002044303001F06EFF20F07046B3E7CE
:104BE0002DE9F047022617460D460446022969D3EF
:104BF0006069A84266D920784FF00109012804D0E5
:104C0000022836D003285DD143E0216A05EB550820
:104C100001EB58212046FFF72CFF060052D1C8F3C4
:104C200008002044303008F10108E90704D0017879
:104C3000FAB262F31F1100E03946017084F8039064
:104C4000216A204601EB5821FFF713FF060039D1F6
:104C5000C8F3080020443030E90702D0C7F3071139
:104C600005E00178C7F3032201F0F0011143017060
:104C700026E0206A00EB15212046FFF7FAFE060029
:104C800020D1E8B204EB4000B9B2303001F01EFF91
:104C900016E0206A00EBD5112046FFF7EAFE060079
:104CA00010D140F2FF1000EA850020443030054664
:104CB00001F001FF67F31B000146284601F00AFFDF
:104CC00084F803903046BDE8F0872DE9F04105688F
:104CD00013460E46074602292CD36869B04229D9EB
:104CE0003BB14FF0FF3219462846FFF779FF002805
:104CF0001FD131463846FFF714FF040018D0012CAD
:104D000018D0601C18D0002231462846FFF768FFF3
:104D100000280ED1D5E90410821E914205D2491C0B
:104D20002961297941F0010129712646B042E0D874
:104D300000200AE7022008E7012006E72DE9F041FC
:104D400006680F00804605D0FFF7EBFE022808D268
:104D50000120FAE6F46814B17069A04207D8012472
:104D600005E0411CF5D071698142F2D83C463069BA
:104D70000028EED0BC4216D17069651CA84200D84C
:104D8000022529464046FFF7CCFE0128E1D0411C10
:104D9000DFD038B1F068022805D37169814202D9A9
:104DA000044600E0A5B9254670696D1CA84202D8EA
:104DB0000225022C0AD329464046FFF7B2FE38B13D
:104DC0000128C6D0411CC4D0A542EDD10020BCE6CC
:104DD0004FF0FF34224629463046FFF701FF30B935
:104DE0005FB12A4639463046FFF7FAFE28B101285E
:104DF00000D0012425462846A7E6F560D6E904013F
:104E0000891E884201D8401E3061307940F001008F
:104E10003071F0E72DE9F0410C460546FFF706FE3C
:104E200000BB2146284601F078FE0646E86205F1FF
:104E300030004FF400720021044601F05CFEA046F1
:104E40000127002400E03C446889A04207D93219B8
:104E500068783B46414601F0ECFE0028F3D06889B3
:104E6000A04201D0012070E600206EE62DE9F0415D
:104E700007680E460546B1F5001F3AD2F00638D154
:104E80002E61AC6824B93878032805D37C6A1CB13C
:104E900078894FEA402812E03889B0EB561F28D9AC
:104EA000786A12E02846FFF73CFE0446401C1ED0FC
:104EB000022C1ED37869A0421BD9A6EB08064645F2
:104EC0002146EFD2384601F028FEC5E9054003E04F
:104ED000525261417272416158B100EB5620A86193
:104EE000C6F3080038443030E86100202DE6012088
:104EF0002BE6022029E62DE9F047066907682036EF
:104F0000894604464FF00008B6F5001F34D2A06968
:104F100010B1F10502D03CE00420D4E6401CA061B1
:104F2000616929B17889401E10EA562F05D030E01A
:104F30003889B0EB561F1FD92BE02046FFF7F1FD53
:104F4000054601281DD9681C14D07869A8421AD8D2
:104F5000B9F1000F10D020466169FFF7EFFE0500A0
:104F60000DD0012D0DD0681C04D029463846FFF71E
:104F700051FF40B10120A6E6C4F81880CCE7072015
:104F8000A1E602209FE629463846656101F0C5FD8D
:104F9000A061C6F30800384430302661E06100208B
:104FA00091E670B504460E460420256821E02846A7
:104FB000FFF75FFD10BBE2691178B1B1D27AE52944
:104FC00002F03F02A2710AD02E2908D00F2A06D083
:104FD00022F0200108290AD00021B14210D000217E
:104FE0002046FFF788FF20B108E0042006E00121F9
:104FF000F3E7A1690029DAD1002801D00021A161DD
:1050000070BD70B5044600210668FFF72FFF0DE064
:105010003046A169FFF72DFD50B9E0690078E52819
:1050200009D040B101212046FFF765FF0028EFD0ED
:10503000042807D007E03046A169FFF71AFD0500F4
:1050400003D00FE0072005460CE020220021E06994
:1050500001F051FD0B2204F12001E06901F042FD55
:105060000120F070284670BD2DE9F041002305466F
:105070004B7280690C46002828D0002002462E265C
:10508000E969095C401C20290AD0052900D1E521E5
:10509000092802D1A718521C7E72A718521C7972D7
:1050A0000B28EDD3A0184372E869C07A2072E86932
:1050B0001C3001F000FD2060E869163001F0F6FCBC
:1050C000E080E869183001F0F1FCA0803DE52DE9B1
:1050D000F0410E4620300D6804460B22202101F0DD
:1050E0000AFD0020014608272A5C401C202A12D90C
:1050F0002F2A0BD05C2A09D02E2A01D0B94214D312
:105100000B2F22D02E2A20D10CE0401C2B5C2F2B01
:10511000FBD05C2BF9D028443060B1B12078E52871
:105120001ED01FE008210B27DEE7802A03D3FE4BA9
:1051300002F07F029A5CFDA300E05B1C93F800C0C4
:10514000BCF1000F03D09445F7D10620FDE4A2F195
:105150006103192B01D8203AD2B26254491CC3E72B
:1051600005202070202A01D8042000E00020E072F1
:105170000020EAE42DE9F34105460668019801E0C4
:10518000401C019001782F29FAD05C29F8D000202A
:10519000A86001980078202808D2802085F82B008C
:1051A00000212846FFF762FEBDE8FC8101A92846E0
:1051B000FFF78DFF0028F7D1002128462F68FFF761
:1051C00055FEE0B93846A969FFF753FC040015D134
:1051D000E8690178E1B1C17A01F03F02AA71C17AB0
:1051E000090705D40B2205F1200101F08AFC28B142
:1051F00000212846FFF77FFE0400E3D0204695F803
:105200002B1038B10428CFD14907CDD40520CBE7E6
:105210000424F3E74907C7D4A879C006F6D5288A3D
:10522000C0F3080081193046303101F082FCA860DB
:10523000BCE710B504464FF0FF3021680A0010D0DB
:1052400011F8013B212B0DD33A2BF9D11378303BC8
:10525000092B06D8921C8A4203D1022B01DA184688
:10526000216010BD002010BD10B504460020E07084
:10527000401EE0622046FFF7FCFB08B1042010BD91
:1052800004F22E2001F012FCA0F52A41553901D07C
:10529000032010BD94F83000E92803D0EB2801D09A
:1052A000E8280FD10322A5A104F1660001F029FC32
:1052B0000028EED00522A2A104F1820001F021FC19
:1052C0000028E6D0022010BD2DE9FF4100279046BE
:1052D0000E460F60FFF7ADFF050002D50B2004B0AE
:1052E00033E4994850F825409CB13460207808F0A8
:1052F000FE0620B1607801F06FFCC1070BD027706B
:10530000E8B2B846607001F076FCC10708D003200F
:10531000E5E70C20E3E70EB1400704D40020DEE708
:105320001EB1400701D50A20D9E700212046FFF72A
:105330009BFF02281BD100264FEA0D0504EB061047
:1053400000F5FB7001F0B7FB45F82600761C042E33
:10535000F4D3002655F8261029B12046FFF784FF24
:10536000022801D203E00320761C042EF2D3042885
:105370000AD0022874D204F13B00E76A01F096FBE0
:10538000B0F5007F6CD101E00120A8E704F14600F0
:1053900001F08CFB18B904F1540001F08CFBA06102
:1053A00094F84060A670012E01D0022E58D14643D9
:1053B00094F83D006081B0B3411E084250D104F121
:1053C000410001F073FB2081000749D104F1430043
:1053D00001F06CFB050004D104F1500001F06BFBFF
:1053E000054604F13E0001F061FB010038D023893D
:1053F000881900EB1312954232D3A81A6589B0FBC5
:10540000F5F080B1DFF844C10025604500D80325E0
:105410004FF6F57C604500D8022540F6F57C6045E6
:1054200002D8012501E01BE0D5B1801C3A44A262FC
:1054300039446061C4E90771032D13D083B131444D
:105440006162022D1FD000F0010100EB400001EB72
:10545000500000BFA16900F2FF10B1EB502F14D231
:105460000D203CE704F15A0001F020FB0028F7D1A1
:1054700020890028F4D104F15C0001F01CFB60627B
:1054800060698000E6E74000E4E74FF0FF3020610C
:10549000E06080202071032D27D104F1600001F02D
:1054A00005FB012821D1791C2046FFF7E2FAE0B97B
:1054B00084F8048004F22E2001F0F8FAA0F52A41C5
:1054C000553912D104F1300001F0F5FA2049884233
:1054D0000BD104F5057001F0EEFA1E49884204D1A3
:1054E00004F5077001F0E7FAE06017492570091F1D
:1054F0000888401C0880E08010E770B50E46040064
:105500004FF009050CD0206850B1017841B1A18855
:10551000C288914204D1407801F05EFBC0071BD0E5
:1055200000203060284670BD84770008222A2B2C8A
:105530003A3B3C3D3E3F5B5D7C7F00004641540072
:105540004641543332000000B8000020F5FFFF0F41
:10555000525261417272416100252068E1E717B53E
:1055600081B01446029800906846FFF762FE00285A
:1055700002DA0B2004B010BDF74A002352F82010C5
:1055800001B10B70019901B10B7042F820102CB1E0
:10559000002201A902A8FFF797FEEBE70020E9E748
:1055A0002DE9F7438CB005000BD002F03F063246E0
:1055B00069460DA8FFF788FE04004FF0000804D0EC
:1055C000B9E009200FB0BDE8F0830098019001A870
:1055D0000D99FFF7CFFD040004D19DF82F000006C0
:1055E00000D5062416F01C0F46D04CB1042C03D174
:1055F00001A8FFF706FD044646F008065CB19AE0F4
:105600009DF80A0010F0110F01D0072493E07007F5
:1056100001D508248FE030073DD50899009801F0A6
:1056200088FA07460898CD490E3001F053FA0899D8
:1056300020200022C8720899009801F08DFA08987D
:1056400000211C3001F046FA00980121C17007B317
:10565000D0F82C900022394601A8FFF736FB040051
:1056600069D149460098FFF704FA04000098A7F1B1
:105670000107C7600BD05EE0C4BB9DF80A00C106FD
:1056800001D5042457E0B10701D5C007BDD13007CB
:1056900001D546F040060098C16A296208996962FE
:1056A000089901F046FAA86008981C3001F003FA46
:1056B000E860009828604FF40072C088A8802E74BB
:1056C00085F81180C5F81C8005F12800002181466D
:1056D000C5F8148001F00FFAB0062ED5EE6866B357
:1056E0006E610098A968408947020FE023E02846D0
:1056F000FFF717FA0146012800D80224481C02D0FF
:10570000F61B1CB104E00124F61B01E0BE42EED8FA
:10571000A96184B9F00510D0009801F0FEF970B1CC
:1057200000EB5622EA61009801234946407801F0D7
:1057300071FA10B10124C5F80080204642E7022426
:10574000F9E72DE9FE4F8846002119609946154674
:10575000044602A9FFF7D1FE002812D1607C002880
:105760000FD1207CC0070BD06169E0680127401A87
:105770004FF0020A04F1280B854200D905467EE06D
:105780000720BDE8FE8F6069C10560D10299498993
:10579000491E11EA502609D108B32046A169FFF736
:1057A000C0F902281DD3411C4CD0A061A169029808
:1057B00001F0B3F9A8B130440190680A009027D0F5
:1057C000029932184889824201D9801B0090DDE994
:1057D00000324878414601F01DFA98BB05E0A06808
:1057E000DFE784F811A00220CBE7207C00060CD56F
:1057F000E1690198081A0099884206D208EB402016
:105800004FF40072594601F06DF9009846022CE001
:10581000E2690198824218D0207C00060AD50298DD
:1058200001235946407801F004FA58B9207C00F071
:105830007F0020740298012359464078019A01F0B4
:10584000E9F910B1677401209BE70198E061A08A33
:10585000C0F30800C0F50076AE4200D92E4601190B
:1058600032464046283101F03DF9D9F80000AD1B21
:105870008119C9F800106069B04430446061002D9E
:1058800081D100207DE72DE9FE4F044600208846A7
:1058900018609946154602A92046FFF72EFE0028FB
:1058A00006D1607C002803D1207C800701D407202A
:1058B00067E76069012742194FF0020A04F1280BDB
:1058C000824200D2C54399E06069C10573D1029953
:1058D0004989491E11EA502612D108B1A16902E096
:1058E000A06828B900212046FFF728FA00287DD0BB
:1058F00001282DD0411C58D0A061A16801B9A06039
:10590000207C00060BD50298E269012340785946B5
:1059100001F08FF9C0BB207C00F07F002074A169EA
:10592000029801F0FAF898B130440190680A0090AA
:105930002BD03218029841898A4201D9891B0091E3
:10594000DDE900324078414601F073F9E0B907E043
:1059500084F811A0022014E7B80000200000214EB6
:10596000E1690198081A009988420AD208EB40219F
:105970004FF40072584601F0B5F8207C00F07F002B
:1059800020740098460228E00FE0E1690198814206
:105990000FD0E168606988420BD202980123594612
:1059A0004078019A01F036F918B167740120E8E6F1
:1059B00001E00198E061A08AC0F30800C0F500761C
:1059C000AE4200D92E46204432464146283001F0EE
:1059D00089F8207C40F080002074D9F80000AD1BCD
:1059E0008119C9F80010B044606900E009E0304452
:1059F0006061E168884200D80846E060002D7FF4CD
:105A000063AF207C40F0400020740020B9E6F8B578
:105A100004466946FFF771FD00280ED1217C4A0635
:105A20000BD508060ED50098E2690123407804F1F1
:105A3000280101F0FEF808B10120F8BD207C00F03B
:105A40007F002074FC4E216A0098FFF712F80028AE
:105A5000F3D1656A2946E87A40F02000E872A2682E
:105A6000206801F079F805F11C00E16801F032F8D6
:105A7000314605F1160001F02DF8002105F1120064
:105A800001F024F800980121C170FFF70BF8217C88
:105A900001F0BF012174F8BD38B50446FFF7B7FF28
:105AA000002807D169462046FFF727FD002801D1CD
:105AB0000021216038BD2DE9F84F0D4604466946A6
:105AC000FFF71BFD070076D1677C002F73D1E068DC
:105AD000A84203D2217C890700D405464FF0000874
