:020000040800F2
:10000000B8480020C902000851070008530700083B
:1000100055070008570700085907000800000000AE
:100020000000000000000000000000003102000895
:100030005B0700080000000075020008FD250008AD
:10004000E3020008E3020008E3020008E3020008FC
:10005000E3020008E302000879150008A51500086E
:10006000D1150008FD150008291600088B1B000893
:10007000C11B0008F91B00083B1C00087D1C000880
:10008000BF1C0008FF1C0008E3020008E302000890
:10009000E3020008E3020008E30200085516000826
:1000A000E3020008E3020008E3020008E30200089C
:1000B000E3020008E3020008E3020008E30200088C
:1000C000E3020008E3020008E3020008E30200087C
:1000D000E3020008AB0D0008950E00089F0F000812
:1000E00009170008E3020008E3020008E302000821
:1000F000E3020008E3020008E3020008E30200084C
:10010000E3020008E3020008E3020008E30200083B
:100110008F1000087F110008E3020008E3020008C6
:10012000411D00087F1D0008C11D0008FF1D0008BB
:1001300000F002F800F06CF80AA090E8000C82448D
:100140008344AAF10107DA4501D100F061F8AFF26A
:10015000090EBAE80F0013F0010F18BFFB1A43F0A5
:1001600001031847449C0000649C00000A444FF0BF
:10017000000C10F8013B13F0070408BF10F8014B06
:100180001D1108BF10F8015B641E05D010F8016B4B
:10019000641E01F8016BF9D113F0080F1EBF10F8AF
:1001A000014BAD1C0C1B09D16D1E58BF01F801CBD2
:1001B000FAD505E014F8016B01F8016B6D1EF9D555
:1001C0009142D6D37047000000230024002500266A
:1001D000103A28BF78C1FBD8520728BF30C148BFAA
:1001E0000B6070471FB59DE8030009F08FF808F019
:1001F000FDFF04000020002109F08CFA401C606023
:1002000008F0E2FF1FBD10B5002009F036FA10BD5E
:1002100009F01CF91146FFF7E5FF02F015F909F0A6
:1002200059F903B4FFF7EFFF03BC09F009F9000027
:10023000224B19680868B0E8F00F80F30988BFF313
:100240006F8F4FF0000080F311884EF00D0E704755
:100250000000000006480068006880F3088862B665
:1002600061B6BFF34F8FBFF36F8F00DF00BF00BFDA
:1002700008ED00E0EFF30980BFF36F8F0F4B1A68B2
:1002800020E9F00F106008B54FF0500080F311889E
:10029000BFF34F8FBFF36F8F03F073FB4FF000007E
:1002A00080F31188BDE8084019680868B0E8F00FCD
:1002B00080F30988BFF36F8F704700BF54000020A0
:1002C000EFF3058070470000094880470948004760
:1002D000FEE77047FEE7FEE7FEE7FEE7FEE7FEE724
:1002E000FEE7FEE704480549054A064B7047000053
:1002F000E90A000831010008B8420020B84800208F
:10030000B8440020B844002070B50F23C4780178A9
:100310000122F4B1144C2468457804F4E064C4F577
:10032000E064240AC4F10406E3408478B5401C402C
:100330002C4301F1E021230181F80034007800F022
:100340001F018A404009800000F1E020C0F8002130
:1003500070BD01F01F0082404809800000F1E020DC
:10036000C0F8802170BD00000CED00E003490120C1
:100370008860704701490860086870470030024093
:1003800001684FF6FE72114001600021016041607A
:100390008160C1603149314A0839904203D14868CF
:1003A00040F00F0006E02D4A1432904204D1486814
:1003B00040F0F00048607047284A2832904203D14C
:1003C000486840F47060F5E7244A3C32904203D11B
:1003D000486840F47040EDE7204A5032904203D123
:1003E000486840F47020E5E71C4A6432904203D12B
:1003F000486840F47000DDE7184A7832904203D133
:10040000486840F07060D5E7154A111F904203D14B
:10041000086840F00F0006E0114A1432904204D1FF
:10042000086840F0F000086070470D4A283290429A
:1004300003D1086840F47060F5E7094A3C32904205
:1004400003D1086840F47040EDE7054A503290420D
:10045000EAD1086840F47020E5E700000800024097
:100460000804024030B5036847F6F07293430C6A03
:100470008A682243D1E904452C4322438C692243F4
:10048000CC6922434C6A22438C6A22431A4302609D
:10049000CA6842600A6882604968C16030BD00294C
:1004A000016802D041F0010102E04FF6FE721140F6
:1004B00001607047002A026801D00A4300E08A43C5
:1004C0000260704741607047406880B270470146E3
:1004D0000020CA0001D5084A00E0084A12680A4212
:1004E00000D001207047C10003D50349091D0860F1
:1004F0007047024948607047000402400000024013
:1005000030B526498379026853B30B6893430B6077
:100510000A1D13680468A343136002790A44136830
:100520000468234313601D4A083213680468A34318
:100530001360131D1C680568AC431C604479102CC3
:1005400005D021440A68006802430A6030BD116882
:10055000046821431160196800680143196030BDC7
:100560000079084401689143016030BD0B491031A6
:100570000A6802430A607047084A01460020126870
:10058000064B0A4014331B680B4202D0002A00D0ED
:100590000120704701491431086070470004014090
:1005A000094A116801F0380101431160704706499A
:1005B0000A6822F008020A600A6802430A6070476B
:1005C0000148006A7047000000200240584910B5F9
:1005D000884206D10121042000F035F900210420D1
:1005E0003BE05449884206D10121082000F02BF954
:1005F0000021082031E05049884206D10121102015
:1006000000F021F90021102027E04C49884206D152
:100610000121202000F017F9002120201DE0484989
:10062000884206D10121402000F00DF90021402030
:1006300013E04449884206D10121802000F003F9EB
:100640000021802009E0404988420AD18415012117
:10065000204600F0F8F800212046BDE8104000F0E8
:10066000F2B810BDF0B5CA78002502F00F03D2062B
:1006700001D58A7813430A784FF00F0E12F0FF0F5E
:100680004FF001021CD004680F8802FA05F63740CB
:10069000B74211D14FEA850C0EFA0CF724EA07078E
:1006A00003FA0CF43C43CF78282F02D0482F02D015
:1006B00002E0466100E006616D1C082DE4D3046091
:1006C0000C88FF2C1ED944685FF0000606F108076D
:1006D00002FA07F50F882F40AF420FD14FEA860C80
:1006E0000EFA0CF7BC4303FA0CF73C43CF78282FE3
:1006F00000D14561CF78482F00D10561761C082EC6
:10070000E4D34460F0BD016170474161704710B5AA
:100710008A0721F003040D49130F21440F228C682E
:100720009A4094438C608A68984002438A6010BD66
:1007300000080140000C014000100140001401407D
:1007400000180140001C0140002001400000014051
:1007500070477047FEE7FEE7FEE770470949C1F8BA
:10076000A00070470848016841F004010160016879
:1007700041F0020101600548016841F00401016097
:1007800030BF704700000E420070004010ED00E0E6
:1007900030B536494A6812F00C03354A03D0042BB1
:1007A00001D0082B21D002604A680F23314C03EAA4
:1007B0001212A35C0268DA4042604B68072505EA22
:1007C0001323E35C22FA03F383604B6805EAD32327
:1007D000E35CDA40C2604968032303EA9131231FD6
:1007E000595CB2FBF1F1016130BD4A684B6802F41B
:1007F00070124FF0020413F4803F04EB924202D0D7
:100800004B689B0301D51C4B00E0194B5A43CAE7C8
:10081000164A0029516901D0014300E0814351612A
:100820007047124A0029916901D0014300E08143D9
:10083000916170470D4A0029D16901D0014300E060
:100840008143D1617047094A0029D16801D0014331
:1008500000E08143D1607047044A0029116901D04A
:10086000014300E081431161704700000010024025
:1008700000127A000400002000093D006D4910B507
:1008800088420AD101218C032046FFF7DCFF204675
:10089000BDE810400021FFF7D6BF6749884202D16A
:1008A00001214C0410E06549884202D101218C04E9
:1008B0000AE06349884202D10121CC0404E0614985
:1008C00088420AD101210C052046FFF7C5FF2046CA
:1008D000BDE810400021FFF7BFBF10BD30B5044692
:1008E000008A85B00D464CF6FF710840E988014347
:1008F0002182A1894EF6F3100140A8882A8910436D
:100900006A890A431043A081A08A4FF6FF4108403C
:10091000A9890143A1826846FFF73AFF454884420E
:1009200001D1039800E00298A189090400EBC001FD
:1009300001EB0010296801D5490000E08900B0FBF7
:10094000F1F06422B0FBF2F109010B096FF0180518
:100950006B4300EB8300A3891D044FF0320306D5DF
:1009600003EBC000B0FBF2F000F0070005E003EB82
:100970000010B0FBF2F000F00F000843208105B03A
:1009800030BD0029818902D041F4005101E021F4F9
:1009900000518181704710B5C1F3421301F01F046B
:1009A0000121A140012B07D0022B07D01430002ACF
:1009B000026805D00A4304E00C30F8E71030F6E78F
:1009C0008A43026010BDC1F30801818070478088AE
:1009D000C0F3080070470246002012880A4200D087
:1009E00001207047C9430180704730B501F01F02F4
:1009F00001240025C1F3421304FA02F2012B0FD0A7
:100A0000022B0FD0838A4FEA11210088134204FA87
:100A100001F400EA040001D000B10125284630BDF0
:100A20008389F0E7038AEEE70A0A01219140C9436E
:100A300001807047003801400044004000480040F9
:100A4000004C0040005000400CB500213648019198
:100A50000091026842F4803202604FF4A0630268A1
:100A600002F400320092019A521C0192009A12B9CB
:100A7000019A9A42F3D10268920333D50121009181
:100A80002A490A6842F010020A600A6822F003024A
:100A90000A600A6842F002020A60416841604168E7
:100AA0004160416841F480614160416821F47C11FA
:100AB0004160416841F4E8114160016841F0807192
:100AC000016001688901FCD5416821F003014160A2
:100AD000416841F0020141604168C1F3810102298E
:100AE000FAD10CBD00910CBD0F4810B5016841F062
:100AF0000101016041680E4A1140416001680D4AE0
:100B000011400160016821F480210160416821F4F5
:100B1000FE0141604FF41F018160FFF795FF064918
:100B20004FF00060086010BD00100240002002403D
:100B30000000FFF8FFFFF6FE08ED00E0F0B5054607
:100B400087B001210520FFF76CFE01218803FFF724
:100B500068FEFE4E3046FFF791FE7015ADF81000AE
:100B600018208DF81300FA4F03248DF8124004A9C1
:100B70003846FFF777FD3015ADF8100004208DF8EA
:100B8000130004A93846FFF76DFD25208DF81400E9
:100B90008DF815408DF8164001208DF8170005A836
:100BA000FFF7B2FB0020ADF80400ADF80600ADF889
:100BB0000800ADF80C000C20ADF80A00009569465D
:100BC0003046FFF78BFE012240F225513046FFF7F9
:100BD000E2FE01213046FFF7D4FE40213046FFF708
:100BE00001FF07B0F0BD70B50546012186B048048D
:100BF000FFF720FE01210420FFF713FE0420ADF8CB
:100C0000100018208DF81300D14E03248DF81240E7
:100C100004A93046FFF726FD0820ADF81000482053
:100C20008DF8130004A93046FFF71CFD26208DF82F
:100C300014008DF815408DF8164001208DF817002E
:100C400005A8FFF761FB0020ADF80400ADF8060031
:100C5000ADF80800ADF80C000C20BE4CADF80A0051
:100C6000009569462046FFF739FE012240F22551E2
:100C70002046FFF790FE01212046FFF782FE40212B
:100C80002046FFF7AFFE06B070BD70B505460121E6
:100C900086B08804FFF7CEFD01210820FFF7C1FDD3
:100CA0004FF48060ADF8100018208DF81300AA4EA4
:100CB00003248DF8124004A93046FFF7D3FCF0144A
:100CC000ADF8100048208DF8130004A93046FFF756
:100CD000C9FC27208DF814008DF815408DF81640BA
:100CE00001208DF8170005A8FFF70EFB0020ADF8D6
:100CF0000400ADF80600ADF80800ADF80C000C20BB
:100D0000964CADF80A00009569462046FFF7E6FDCF
:100D1000012240F225512046FFF73DFE01212046E9
:100D2000FFF72FFE40212046FFF75CFEABE710B532
:100D30000446FFF748FE80212046FFF74CFE0028BE
:100D4000F9D010BD10B5864A91888029FCD251880F
:100D500053181873491CC81701EB506020F07F002E
:100D6000081A508072B69088401C9080012240F290
:100D700027717648FFF70FFE62B6002010BD784A53
:100D800050890028FCD0D188501890F88C00491C5C
:100D9000CB1701EB536323F07F03C91AD18072B6DE
:100DA0005189491E518162B6704770B5674D40F256
:100DB000255631462846FFF718FE694C012814D104
:100DC0002846FFF704FEC1B26089802809D2401C82
:100DD00060812089221882F88C10401C00F07F006E
:100DE000208131462846FFF71FFE40F22776314624
:100DF0002846FFF7FAFD01280DD1A288521E0BD319
:100E0000A2802688A019017B2846FFF790FF761C58
:100E100006F07F00208070BD002231462846FFF793
:100E2000BAFD31462846BDE87040FFF7FDBD10B55C
:100E30004C4A91884029FCD2518853181873491C98
:100E4000C81701EB906020F03F00081A508072B67E
:100E50009088401C9080012240F227713D48FFF7A6
:100E60009AFD62B6002010BD3E4A50890028FCD091
:100E7000D188501890F84C00491CCB1701EB9363B4
:100E800023F03F03C91AD18072B65189491E51819E
:100E900062B6704770B52F4D40F225563146284650
:100EA000FFF7A3FD2F4C012814D12846FFF78FFD33
:100EB000C1B26089402809D2401C60812089221873
:100EC00082F84C10401C00F03F002081314628463B
:100ED000FFF7AAFD40F2277631462846FFF785FD49
:100EE00001280DD1A288521E0BD3A2802688A019FA
:100EF000017B2846FFF71BFF761C06F03F00208091
:100F000070BD002231462846FFF745FD3146284690
:100F1000BDE87040FFF788BD124A10B58C32918849
:100F20004029FCD2518853181873491CC81701EB8B
:100F3000906020F03F00081A508072B69088401CE4
:100F40009080012240F2277104480DE000380140F2
:100F50000008014000440040000C014000480040EF
:100F6000B4020020C0030020FFF715FD62B6002088
:100F700010BDA44A50890028FCD0D188501890F8A0
:100F80004C00491CCB1701EB936323F03F03C91AB4
:100F9000D18072B65189491E518162B6704770B5D1
:100FA000994D40F2255631462846FFF71EFD954CD7
:100FB000012814D12846FFF70AFDC1B260894028F4
:100FC00009D2401C60812089221882F84C10401CF4
:100FD00000F03F00208131462846FFF725FD40F212
:100FE000277631462846FFF700FD01280DD1A2885B
:100FF000521E0BD3A2802688A019017B2846FFF73A
:1010000096FE761C06F03F00208070BD002231461F
:101010002846FFF7C0FC31462846BDE87040FFF780
:1010200003BD784A10B58C3291884029FCD2518892
:1010300053181873491CC81701EB906020F03F004B
:10104000081A508072B69088401C9080012240F2AD
:1010500027716E48FFF79FFC62B6002010BD694AF9
:101060008C3250890028FCD0D188501890F84C0060
:10107000491CCB1701EB936323F03F03C91AD180BE
:1010800072B6634A5189491E518162B6704770B584
:101090005E4D40F2255631462846FFF7A6FC594CD6
:1010A0008C34012814D12846FFF791FCC1B2608925
:1010B000402809D2401C60812089221882F84C10F7
:1010C000401C00F03F00208131462846FFF7ACFC71
:1010D00040F2277631462846FFF787FC01280ED1DB
:1010E000A288521E0CD34A4882802688A019017B10
:1010F0002846FFF71CFE761C06F03F00208070BDDE
:10110000002231462846FFF746FC31462846BDE816
:101110007040FFF789BC10B53E4A91884029FCD247
:10112000518853181873491CC81701EB906020F0C0
:101130003F00081A508072B69088401C90800122AF
:1011400040F227713448FFF726FC62B6002010BD3C
:10115000304A50890028FCD0D188501890F84C00B3
:10116000491CCB1701EB936323F03F03C91AD180CD
:1011700072B6274A5189491E518162B6704770B5CF
:10118000254D40F2255631462846FFF72EFC214CCE
:10119000012814D12846FFF71AFCC1B26089402803
:1011A00009D2401C60812089221882F84C10401C12
:1011B00000F03F00208131462846FFF735FC40F221
:1011C000277631462846FFF710FC01280ED1A28869
:1011D000521E0CD30E4882802688A019017B284617
:1011E000FFF7A5FD761C06F03F00208070BD0022B1
:1011F00031462846FFF7CFFB31462846BDE8704010
:10120000FFF712BC4C04002000480040004C004096
:10121000B40200206405002000500040F8B5012110
:101220000820FFF7FEFA01214020FFF7FAFA184FD5
:101230003846FFF7CBF92024ADF8004003258DF8A0
:10124000025010268DF8036069463846FFF70AFA07
:1012500020213846FFF757FA0E4F3846FFF7B6F908
:10126000ADF800408DF802508DF8036069463846AD
:10127000FFF7F8F920213846FFF745FAF8BD20219D
:101280000348FFF742BA20210148FFF73CBA0000AB
:10129000000C01400018014008B501210520FFF7AE
:1012A000C0FA0120ADF8000028208DF8030069463F
:1012B0000C48FFF7D7F901210807FFF7BBFA012017
:1012C000FFF74CFAFFF74EFA08BD012080F31388B0
:1012D00005480168054A01F4E06111430160BFF36C
:1012E000408FFEE7000801400CED00E00400FA0525
:1012F00010B501214020FFF78BFABDE81040FFF741
:1013000035B810B5FFF736F80446FFF72FF820463A
:1013100010BD000001480068704700001400002064
:1013200010B50220FFF73CF90020FFF740F900203C
:1013300010BD10B50020FFF7F3FF08B1012010BD6C
:10134000FFF73EF9002801DB042010BD002010BD8E
:10135000042070470420704770B514460D460020E5
:10136000FFF7DEFF08B1032070BD9DB1012D07D04E
:10137000022D08D0032D0AD0042D0BD0042070BDFF
:1013800054B1002005E03CB14FF4007001E01CB105
:1013900002202060002070BD012070BD014800883F
:1013A00070470000E0F7FF1F2DE9FF5F9846DDE979
:1013B0000E4B91460D468246FE4F109E3915C31BBB
:1013C0004A00B8424ED00ADCFB4B1AEB03000ED0A9
:1013D00088420FD0904211D1012110200CE08B42A5
:1013E00043D0934244D0B3F5406F07D143E001218D
:1013F000042001E001210820FFF713FA012108462B
:10140000FFF70FFAADF80C5004208DF80F000327FA
:101410008DF80E7003A95046FFF724F908F0FF017C
:1014200009F0FF00FFF773F900208DF804008DF834
:1014300005B001208DF8060000946846FFF760F8BB
:101440008DF808608DF809708DF80A7001208DF80C
:101450000B0002A8FEF758FF204600F0AAFA411C34
:101460000CD00FE001212020C6E701214020C3E776
:1014700001218020C0E701210802BDE700F0A8FAA1
:10148000411C1AD0CD4A119902EB4012CC48C2F847
:1014900000A0C2F81080C2E90661111D81E8300287
:1014A00082F814B00168A1430160001D0168A143E6
:1014B0000160002004B0BDE8F09F4FF0FF30F9E775
:1014C00010B5044601210846FFF7ABF9BC48016896
:1014D00021430160001D0168A143016010BDB849AE
:1014E0000A6882430A60091D0A6882430A60002173
:1014F0000120FFF796B9FFF739B82DE9FE431C46E6
:10150000ADF8081004218DF80B10DDE90A5603210F
:101510008DF80A1017464FF0FF3802A9FFF7A2F81E
:10152000E1B2F8B2FFF7F3F800248DF804408DF82B
:10153000056000958DF806406846FEF7E1FF2846F5
:1015400000F037FA411C15D09C4901EB40119C4832
:10155000CC614C600C608C610C61CC608C600C7553
:101560000168A9430160001D0168A94301600020D2
:10157000BDE8FE834046FBE710B50120FEF7FCFF07
:1015800000280ED0012000F014FA411C09D08B492C
:1015900001EB4010C0698047BDE810400120FEF714
:1015A000F9BF10BD10B50220FEF7E6FF00280ED0EF
:1015B000022000F0FEF9411C09D0804901EB4010E7
:1015C000C0698047BDE810400220FEF7E3BF10BDB0
:1015D00010B50420FEF7D0FF00280ED0042000F044
:1015E000E8F9411C09D0754901EB4010C0698047FA
:1015F000BDE810400420FEF7CDBF10BD10B5082097
:10160000FEF7BAFF00280ED0082000F0D2F9411CE6
:1016100009D06A4901EB4010C0698047BDE810401D
:101620000820FEF7B7BF10BD10B51020FEF7A4FFCD
:1016300000280ED0102000F0BCF9411C09D05F49F1
:1016400001EB4010C0698047BDE810401020FEF754
:10165000A1BF10BD70B52020FEF78EFF574C58B1CA
:10166000202000F0A6F9411C06D004EB4010C06910
:1016700080472020FEF78EFF4020FEF77DFF58B107
:10168000402000F096F9411C06D004EB4010C069E0
:1016900080474020FEF77EFF8020FEF76DFF58B1A7
:1016A000802000F086F9411C06D004EB4010C06990
:1016B00080478020FEF76EFF4FF480752846FEF7C6
:1016C0005BFF58B1284600F074F9411C06D004EBCA
:1016D0004010C06980472846FEF75CFF4FF4007554
:1016E0002846FEF749FF00280DD0284600F061F992
:1016F000411C08D004EB4010C06980472846BDE873
:101700007040FEF747BF70BD70B54FF48065284646
:10171000FEF732FF294C58B1284600F04AF9411C27
:1017200006D004EB4010C06980472846FEF732FF20
:101730004FF400652846FEF71FFF58B1284600F019
:1017400038F9411C06D004EB4010C0698047284698
:10175000FEF720FF4FF480552846FEF70DFF58B1E5
:10176000284600F026F9411C06D004EB4010C06961
:1017700080472846FEF70EFF4FF400552846FEF737
:10178000FBFE58B1284600F014F9411C06D004EBCA
:101790004010C06980472846FEF7FCFE4FF48045A4
:1017A0002846FEF7E9FEA0B1284600F002F9411CE8
:1017B0000FD007E00014014000F8FEBFF005002044
:1017C0000004014004EB4010C06980472846FEF742
:1017D000E1FE4FF400452846FEF7CEFE00280DD06E
:1017E000284600F0E6F8411C08D004EB4010C06920
:1017F00080472846BDE87040FEF7CCBE70BD2DE99D
:10180000FE4F0D460CA9DFF8E4C191E8100A174617
:101810004FF480611E464A008046A0EB0C036045F1
:1018200040D00ADC724B18EB03000ED088420FD078
:10183000904211D1012110200CE08B4235D093420F
:1018400036D0B3F5406F07D135E00121042001E027
:1018500001210820FEF7E5FF01210846FEF7E1FF20
:10186000ADF808504FF0040A8DF80BA003208DF856
:101870000A0002A94046FEF7F5FEF1B2F8B2FEF703
:1018800046FF8DF804A08DF8059001208DF8060024
:1018900000946846FEF734FE204600F08AF8411CAA
:1018A0000CD00FE001212020D4E701214020D1E716
:1018B00001218020CEE701210802CBE700F088F863
:1018C000411C18D04B49002201EB4010011DC0F80B
:1018D00000800661C0E906B281E8B00080F814908B
:1018E00045480168A1430160001D0168A1430160F2
:1018F0000020BDE8FE8F4FF0FF30FAE710B5044638
:1019000001210846FEF78DFF3B480168A1430160B5
:10191000001D01682143016010BD37490A688243F8
:101920000A60091D0A6882430A6000210120FEF74F
:1019300078BFFEF71BBE2DE9FE430427ADF8081063
:10194000DDE90A588DF80B7003218DF80A101C464A
:1019500016464FF0FF3902A9FEF784FEE1B2F0B25D
:10196000FEF7D5FE8DF804708DF8058000240095F3
:101970008DF806406846FEF7C3FD284600F019F8CA
:10198000411C14D01B4901EB40111B48CC614C6039
:101990000C608C610C61CC608C600C750168A94393
:1019A0000160001D0168A94301600020E0E5484690
:1019B000DEE501460F4A002002EB40135B688B42D4
:1019C00005D0401C1028F7DB01D14FF0FF307047E5
:1019D0000849002001EB40125268002A05D0401C43
:1019E0001028F7DB01D14FF0FF30704700140140A1
:1019F00000F8FEBFF00500200004014070B50C4661
:101A0000064601218CB015460846FEF701FF01216C
:101A10000220FEF7FDFE3046FEF7B2FCCDE901459F
:101A200010250021CDE903518020CDE90510079153
:101A300040010891CDE909100B9101A93046FEF74C
:101A400011FD0B208DF8000001248DF801408DF868
:101A500002408DF803406846FEF756FC0C208DF8D6
:101A600000008DF801408DF802408DF80340684673
:101A7000FEF74AFC0D208DF800008DF801408DF82E
:101A800002408DF803406846FEF73EFC0E208DF8BC
:101A900000008DF801408DF802408DF80340684643
:101AA000FEF732FC0F208DF800008DF801408DF814
:101AB00002408DF803406846FEF726FC8DF8005082
:101AC0008DF801408DF802408DF803406846FEF71E
:101AD0001BFC11208DF800008DF801408DF80240AC
:101AE0008DF803406846FEF70FFC38208DF80000A3
:101AF00002258DF801508DF802408DF803406846AC
:101B0000FEF702FC39208DF800008DF801508DF8A9
:101B100002408DF803406846FEF7F6FB3A208DF848
:101B200000008DF801508DF802408DF803406846A2
:101B3000FEF7EAFB3B208DF800008DF801508DF890
:101B400002408DF803406846FEF7DEFB0CB070BD26
:101B500070B50C4605460021FEF7A1FC01220221CA
:101B60002846FEF7A7FC012208212846FEF7A2FC22
:101B7000A1B22846FEF7A6FC2846BDE87040012128
:101B8000FEF78DBC0021FEF78ABC10B50220FEF7DF
:101B90009EFC012802D10220FEF7A5FC0820FEF7DA
:101BA00096FC012807D10820FEF79DFCB048FEF7FF
:101BB0008BFCB0490860BDE810400120FEF793BCE3
:101BC00010B52020FEF783FC012802D12020FEF76B
:101BD0008AFC8020FEF77BFC012808D18020FEF7DC
:101BE00082FCA3481430FEF76FFCA2494860BDE8B0
:101BF00010401020FEF777BC10B54FF4007420465B
:101C0000FEF765FC012802D12046FEF76CFC4FF47C
:101C100000642046FEF75BFC012808D12046FEF751
:101C200062FC93482830FEF74FFC92498860BDE87B
:101C300010404FF48070FEF756BC10B54FF40054BE
:101C40002046FEF744FC012802D12046FEF74BFC5B
:101C50004FF400442046FEF73AFC012808D1204604
:101C6000FEF741FC82483C30FEF72EFC8149C860FB
:101C7000BDE810404FF48050FEF735BC10B54FF46E
:101C800000342046FEF723FC012802D12046FEF74F
:101C90002AFC4FF400242046FEF719FC012808D145
:101CA0002046FEF720FC72485030FEF70DFC7149CB
:101CB0000861BDE810404FF48030FEF714BC10B549
:101CC0004FF40010FEF703FC012802D10220FEF7BA
:101CD0000AFC4FF400042046FEF7F9FB012808D166
:101CE0002046FEF700FC62486430FEF7EDFB6149D8
:101CF0004861BDE810404FF48010FEF7F4BB10B50A
:101D00004FF000742046FEF7E2FB012802D1204686
:101D1000FEF7E9FB4FF000642046FEF7D8FB0128F0
:101D200008D12046FEF7DFFB51487830FEF7CCFBA8
:101D300050498861BDE810404FF08070FEF7D3BB7A
:101D400010B54D4C2046FEF7C2FB012802D12046BB
:101D5000FEF7C9FB484CA41D2046FEF7B8FB01283E
:101D600007D12046FEF7BFFB4448FEF7ADFB4149D3
:101D7000C8614148BDE81040401EFEF7B4BB10B535
:101D80003D4C1E342046FEF7A2FB012802D120461E
:101D9000FEF7A9FB384C7E342046FEF798FB01285D
:101DA00008D12046FEF79FFB34481430FEF78CFB29
:101DB000304908623048BDE810400E30FEF793BB52
:101DC00010B52F4C2046FEF782FB012802D1204699
:101DD000FEF789FB2B4C2046FEF779FB012808D142
:101DE0002046FEF780FB25482830FEF76DFB214991
:101DF00048622148BDE81040FE30FEF774BB70B564
:101E0000214C2046FEF763FB012802D12046FEF755
:101E10006AFB1E4D2846FEF75AFB164C012807D1D7
:101E20002846FEF760FB12483C30FEF74DFBA062EF
:101E30004FF01020FEF757FB154D2846FEF747FBE5
:101E4000012802D12846FEF74EFB124D2846FEF728
:101E50003EFB012807D12846FEF745FB04485030D9
:101E6000FEF732FBE062BDE870400B48FEF73BBB7B
:101E700008000240F00700200200001008040240A1
:101E80000002001000080010002000100080001068
:101E900000000210000008100000011010B518200A
:101EA00000F0B2F9040004D000202060201D00F0F2
:101EB00085FA204610BD2DE9F04100278846040030
:101EC00005D140F21222B2A1B8A005F042FC5FEAAF
:101ED000186005D040F21322ADA1B4A005F039FC82
:101EE000261D04F10C0501F01FFC2168F06841EA91
:101EF0000801216018E000BFD0E9001601F07F4220
:101F00005301236821F07F4102D40B4203D10AE040
:101F100031EA030307D1D20100D50F43216841F014
:101F2000007101F06FFF3046A842E5D12068B84348
:101F3000206001F06BFB2068BDE8F0812DE9F041E5
:101F400004461F4615468846100E04D0C62290A1AE
:101F500096A005F0FEFB25B9C7228DA193A005F040
:101F6000F8FB01F0E0FF28B927B1CA2288A18FA0B1
:101F700005F0EFFB01F0D8FB204641462668FFF74D
:101F80009AFF46EA080635EA060008D06FB145F028
:101F9000A0613A46201D01F0BEFE002606E0206842
:101FA000A843206001F032FB1EE0266801F02EFB02
:101FB000D7B138B981494FF080500860BFF34F8FD7
:101FC000BFF36F8F02F0A9F8064680010AD400F033
:101FD000EAFA266835EA060002D126EA0500206002
:101FE00000F0FBFA26F07F463046A5E72DE9F047E2
:101FF0009A46DDF8209090460D4604004FF0000709
:1020000005D14FF4A07262A168A005F0A2FB280ED2
:1020100005D040F241125EA164A005F09AFB2DB9F3
:102020004FF4A1725AA161A005F093FB01F07BFF70
:1020300040B9B9F1000F05D040F2451254A15BA0A0
:1020400005F087FB01F070FB2668524629463046B2
:1020500000F093F830B1B8F1000F1AD02068A8430F
:10206000206016E0B9F1000F13D0B8F1000F01D0D5
:102070004FF08077BAF1000F01D047F0806745EA52
:1020800007014A46201D01F046FE01F0BFFA18B1D3
:102090000AE001F0BBFA1FE048494FF080500860A9
:1020A000BFF34F8FBFF36F8F02F037F80646800102
:1020B00010D400F078FA266852462946304600F0DF
:1020C0005CF828B1B8F1000F02D02068A843206066
:1020D00000F083FA26F07F463046BDE8F08770B501
:1020E0000E46040005D14FF4EA7229A12FA005F095
:1020F00030FB300E05D040F2D51225A12BA005F003
:1021000028FB00F050FA256825EA0600206000F060
:1021100064FA284670BD5022EFF3118182F31188D2
:10212000BFF34F8FBFF36F8F006881F31188704743
:102130002DE9F0410546041D01F0F6FA04F1080608
:1021400040F272274FF000780BE0E068B04204D113
:102150003A460FA115A005F0FCFA4146E06801F0EF
:1021600051FE20680028F0D1284600F0B7F8BDE8FD
:10217000F04101F04BBA9EE6B1E70346002012B1F0
:10218000994302D070470B42FCD0012070470000F9
:102190002E2E5C6F735C636F72655C6576656E7422
:1021A0005F67726F7570732E630000004572726F07
:1021B000723A25732C25640D0A00000004ED00E03E
:1021C00030B5734900E011460A688242FBD34B6880
:1021D0005C18844203D1406818444860084643684C
:1021E0001C18944209D16A4C103C2468A24209D0C0
:1021F00052681A4442600A6812680260814200D044
:10220000086030BD0460F9E72DE9F041054600277C
:1022100001F08AFA5E4E103E306808B900F097F877
:10222000F06805424DD1002D4BD0083568070BD022
:1022300005F00700C0F108000544680704D09522A6
:1022400054A159A005F085FADDB37068854238D8ED
:102250004F4801460C6801E020460C466168A942DF
:1022600002D221680029F7D13168B0468C4228D0CB
:1022700007682168016060680837401B10280ED984
:102280006619700704D0C22242A147A005F061FA86
:102290006068401B706030466560FFF791FF6268C0
:1022A000D8F804104046891AC8F80410D8F8083045
:1022B000994200D28160D8F80C0002430020C4E9A2
:1022C000000201F0A3F9780705D04FF4817231A123
:1022D00035A005F03EFA3846BDE8F08170B500281B
:1022E0002BD02B4DA0F10804103D6068E96808422E
:1022F00005D14FF48B7227A12BA005F02AFA206894
:1023000028B140F2171223A127A005F022FA616834
:10231000E868014211D02268002A0ED18143616031
:1023200001F002FA60686968084468602046FFF7B7
:1023300047FFBDE8704001F069B970BD144810381E
:1023400040687047124810388068704770471A48D4
:102350004FF44051420706D0C01D174920F0070036
:10236000411AC1F540510A4A00230144C2E9000361
:102370000839103A21F0070111604B600B600B1A0D
:10238000C0E9001393604FF000405360D060704785
:10239000400000202E2E5C6F735C636F72655C687A
:1023A0006561705F342E63004572726F723A2573F7
:1023B0002C25640D0A0000002008002000F108010F
:1023C0004FF0FF32C0E90112C160016100210160DC
:1023D000704700210161704742684A6093688B60D2
:1023E00093685960916008610168491C01607047F9
:1023F00030B50B685A1C02D000F1080202E00269F5
:1024000004E02246546825689D42FAD953684B601F
:1024100099608A60516008610168491C016030BDA3
:10242000D0E9013201699A60D0E901235A604A6813
:10243000824201D182684A60002202610868401E1F
:10244000086008687047000010B54FF4E13420467A
:10245000FEF774FB2046FEF7C6FB2046FEF715FC90
:10246000FEF7DCFEFEF744FF0548006805A105F015
:102470009FF902F000FC01F0DAFB002010BD000023
:1024800028000020627370207365747570210D0A36
:102490000000000075484068401C04D0CA2274A1A6
:1024A00078A005F056F9502080F31188BFF34F8FC4
:1024B000BFF36F8FFEE710B5031F4FF080741C60F1
:1024C0001B1F21F001011960191F724B0B60143999
:1024D00040380A6010BD4FF0E020002101618161A9
:1024E0006D494FF47A720968B1FBF2F1491E4161FE
:1024F0000721016170477CB5684D28780190FF2065
:10250000287028788DF800009DF800009DF80010D4
:1025100000F0F000884205D04FF48A7254A159A00F
:1025200005F017F99DF80000504C00F050002070A5
:102530000720A06006E000BF9DF8001049008DF85C
:102540000010401E9DF800100906F5D4A060032875
:1025500005D04FF4987246A14AA005F0FAF8207A07
:10256000000200F4E060A060019828704C48016807
:1025700041F470010160016841F070410160FFF7B2
:10258000AAFF00206060FDF765FE00207CBD374893
:102590004068B0F57A7F05D04FF4AB7234A139A012
:1025A00005F0D7B87047502080F31188BFF34F8FE4
:1025B000BFF36F8F2D494868401C486001280BD13C
:1025C00037481C38006810F0FF0F05D04FF4B37285
:1025D00027A12CA005F0BDB8704710B5234C60684A
:1025E00028B940F26D1222A126A005F0B2F8606869
:1025F000401E606001D180F3118810BD10B55020DD
:1026000080F31188BFF34F8FBFF36F8F00F0A1FFEE
:1026100020B123494FF080501C390860002080F31E
:10262000118810BD10B5FDF74BFE104C10280CD3CF
:1026300000F1E02090F8F0032178884205D240F2C2
:10264000A5220BA10FA005F084F8154814380068E6
:10265000A16800F4E060884207D9BDE8104040F26C
:10266000B52203A107A005F074B810BD48000020F2
:102670002E2E5C6F735C636F72655C706F72742E6C
:10268000630000004572726F723A25732C25640D49
:102690000A000000952400081400002000E400E077
:1026A00020ED00E070B50D46040005D140F20312A4
:1026B000F2A1F7A005F04DF8FFF775FFD4E90F2060
:1026C000216802FB0011A1600021A1632168616003
:1026D0000A46D4E90F01401E00FB0121E1602146BA
:1026E0004FF0FF3001F8440F487004F110004DB175
:1026F000FFF764FE04F12400FFF760FEFFF76DFFB3
:10270000012070BD21690029F8D001F046FB0028A6
:10271000F4D0E3494FF080500860BFF34F8FBFF310
:102720006F8FEBE770B50E46050005D14FF4BB7215
:10273000D2A1D7A005F00DF8A6B105FB06F04C30EC
:10274000FFF762FD04000CD004F14C0066B120607C
:10275000C4E90F5620460121FFF7A4FF00212046BF
:10276000A16470BD0020EAE72460F1E72DE9F041A3
:10277000856B174604460026026C82B1C7B1E0683B
:1027800006F047FCE168206C091AE160226891427A
:1027900002D2A168081AE060022F16D017E0206864
:1027A000A8B9A06801F01EFC06460020A0600EE05B
:1027B000606806F02EFC216C606808446060A168C7
:1027C000884204D32068606001E005B16D1E6D1C75
:1027D000A5633046BDE8F0812DE9F3410F4600982E
:1027E0000026846C2CB940F64532A4A1A8A004F0C0
:1027F000B0FFA06BE16B884205D340F646329FA143
:10280000A3A004F0A6FFA06BE16B88420CD294F960
:1028100045503A4669462046FFF7A8FF0646681C21
:1028200005D06D1C84F845503046BDE8FC81606AD7
:102830000028F9D004F1240001F0AFFA0028F3D009
:102840000126F1E72DE9F0410446FFF7ACFE94F9CB
:10285000455004F1240610E0A06C20B10021204670
:10286000FFF7BAFF04E0606A48B1304601F095FA1C
:1028700008B101F051FB6D1E6DB2002DECDC4FF084
:10288000FF3684F84560FFF7A8FEFFF78CFE94F949
:10289000445004F1100709E0206948B1384601F0BE
:1028A0007CFA08B101F038FB6D1E6DB2002DF3DC2F
:1028B00084F84460BDE8F041FFF78FBE2DE9FF4783
:1028C00082B01D468A464FF00008040005D140F250
:1028D000F1226AA16EA004F03CFFBAF1000F07D10B
:1028E000206C28B140F2F22264A169A004F031FF0B
:1028F000022D08D1E06B012805D040F2F3225FA140
:1029000063A004F026FF01F00EFB38B9049828B14B
:1029100040F2F62259A15EA004F01BFF604F4FF079
:1029200000094FF0805600BFFFF73DFEA06BE16B42
:10293000884207D3022D05D0049840B3B8F1000FA8
:1029400028D02CE0D4F838802A4651462046FFF79C
:102950000DFFA16C49B1022D02D1B8F1000F10D1C9
:1029600029462046FFF738FF05E0616A19B104F1F6
:10297000240001F012FA20B13E60BFF34F8FBFF385
:102980006F8FFFF72AFE012006B0BDE8F087FFF742
:1029900024FE22E0684601F082FA4FF00108FFF7BA
:1029A0001CFE00F0C1FEFFF7FEFD94F94400401C40
:1029B00001D184F8449094F94500401C01D184F879
:1029C0004590FFF70AFE04A9684601F06EFA30B19F
:1029D0002046FFF737FF00F019FE0020D4E7FFF78D
:1029E000E2FDA06BE16B884213D1FFF7F6FD04F125
:1029F0001000049901F078F92046FFF723FF00F05A
:102A000005FE002890D13E60BFF34F8FBFF36F8F5C
:102A10008AE7FFF7E2FD2046FFF714FF00F0F6FD1E
:102A200082E710B5024600210120FFF77BFE04007B
:102A300007D00021816001600B460A46C160FFF7A4
:102A40003DFF204610BD10B5040005D140F25922CB
:102A50000AA10FA004F07DFE01F062FAA16888428D
:102A600020D1E068401EE06005D100231A461946D7
:102A70002046FFF723FF012010BD00002E2E5C6FC3
:102A8000735C636F72655C71756575652E630000BC
:102A90004572726F723A25732C25640D0A0000008E
:102AA00004ED00E00020E7E72DE9F343002683B0C2
:102AB0000400354607D140F29152AFF24001AFF227
:102AC000300004F046FE206C38B140F29552AFF26F
:102AD0005401AFF2440004F03CFE01F024FA48B97E
:102AE000049838B140F29A52AFF27001AFF2600030
:102AF00004F02FFE4FF000094FF08057DFF8988860
:102B0000FFF751FDA06BC8B1401EA063206810B94B
:102B100001F00DFBA060206950B104F1100001F03C
:102B20003CF928B1C8F80070BFF34F8FBFF36F8F27
:102B3000FFF753FD012005B0BDE8F083049808B10C
:102B400066B10FE03DB140F2E152AFF2D001AFF219
:102B5000C00004F0FEFDFFF740FD5DE0684601F0B7
:102B60009EF90126FFF739FD00F0DEFDFFF71BFDA2
:102B700094F94400401C01D184F8449094F9450034
:102B8000401C01D184F84590FFF727FD04A9684651
:102B900001F08BF90028204612D0FFF753FE00F019
:102BA00035FD204600F0ECFB0028A9D09DB3FFF7CF
:102BB000FAFC606A50B3206B0068C0F1200126E087
:102BC00000F0DEFBE0B1206838B9FFF7ECFCA0684C
:102BD00001F0B4F90546FFF700FD04F12400049963
:102BE00001F082F82046FFF72DFE00F00FFD0028CF
:102BF00086D1C8F80070BFF34F8FBFF36F8F7FE7A8
:102C00002046FFF71FFE00F001FD79E70021A068D4
:102C100001F030FA9FE7FFE700208CE770B50D4622
:102C2000040007D14FF42472AFF2B011AFF2A0103C
:102C300004F08FFD01F074F9A168884204D1E068C6
:102C4000401CE060012070BD29462046FFF72CFFA4
:102C50000028F8D0E168491CE16070BD70B50C46F1
:102C6000050007D140F2D522AFF2F011AFF2E0102B
:102C700004F06FFDAC4207D940F2D622AFF2042136
:102C8000AFF2F41004F065FD022200212846FFF7A0
:102C900049FD002800D0846370BD2DE9F0479846B7
:102CA00017468946040007D140F2C332AFF23421FF
:102CB000AFF2242004F04DFDB9F1000F09D1206CD2
:102CC00038B14FF47172AFF24C21AFF23C2004F0F6
:102CD00040FDB8F1020F0AD1E06B012807D040F2A5
:102CE000C532AFF26821AFF2582004F032FDFFF791
:102CF00099FC5020EFF3118680F31188BFF34F8FBA
:102D0000BFF36F8FA06BE16B884206D3B8F1020F5F
:102D100003D0002086F3118837E694F945504246E7
:102D200049462046FFF722FD681C04D06D1C84F83C
:102D300045500120EEE7A06C012520B14146204618
:102D4000FFF74AFD06E0606A0028F2D004F1240093
:102D500001F023F80028ECD0002FEAD03D60E8E72E
:102D60002DE9F0410E46040007D14FF48C62AFF21A
:102D7000F421AFF2E42004F0ECFC206C38B140F216
:102D80006442AFF20831AFF2F82004F0E2FC2068B0
:102D900048B9A06838B140F26942AFF22031AFF2D1
:102DA000103004F0D6FCFFF73DFC5020EFF3118506
:102DB00080F31188BFF34F8FBFF36F8FA16BE06B70
:102DC00088421FD994F94500491CA163411C04D0D5
:102DD000401C84F84500012015E0A06C012720B1BB
:102DE00000212046FFF7F8FC06E0606A0028F2D0D8
:102DF00004F1240000F0D1FF0028ECD0002EEAD02E
:102E00003760E8E7002085F31188E3E430B4026C12
:102E10000B46002A0BD0C1681144C1608468A142EE
:102E200001D30168C16030BC184606F0F2B830BC6E
:102E300070472DE9F747002683B08A46040007D182
:102E40004FF4A062AFF2CC31AFF2BC3004F081FCA1
:102E5000BAF1000F09D1206C38B140F20452AFF240
:102E6000E431AFF2D43004F074FC01F05CF848B9FE
:102E7000059838B140F20952AFF20041AFF2F0309C
:102E800004F067FC4FF000094FF08057DFF8088529
:102E9000FFF789FBA56BB5B151462046FFF7B6FF9A
:102EA0006D1EA563206950B104F1100000F075FF9C
:102EB00028B1C8F80070BFF34F8FBFF36F8FFFF7D3
:102EC0008CFB012060E5059808B11EB106E0FFF714
:102ED00084FB27E0684600F0E2FF0126FFF77DFB58
:102EE00000F022FCFFF75FFB94F94400401C01D185
:102EF00084F8449094F94500401C01D184F8459031
:102F0000FFF76BFB05A9684600F0CFFF00282046BD
:102F10000AD0FFF797FC00F079FB204600F030FA6A
:102F20000028B5D000202FE500F02AFA90B104F176
:102F30002400059900F0D8FE2046FFF783FC00F03E
:102F400065FB0028A4D1C8F80070BFF34F8FBFF312
:102F50006F8F9DE72046FFF775FC00F057FB97E762
:102F60002DE9F743002582B08946040007D14FF4CC
:102F7000CD62AFF2F841AFF2E84004F0EAFBB9F1FC
:102F8000000F09D1206C38B140F26C62AFF21451DD
:102F9000AFF2045004F0DDFB00F0C5FF48B904981F
:102FA00038B140F27162AFF22C51AFF21C5004F014
:102FB000D0FB4FF000084FF08056F74FFFF7F3FAC1
:102FC000A06BA8B149462046E568FFF71FFFE56002
:102FD000606A48B104F1240000F0DFFE20B13E60D9
:102FE000BFF34F8FBFF36F8FFFF7F7FA0120A2E512
:102FF000049808B11DB106E0FFF7EFFA27E0684634
:1030000000F04DFF0125FFF7E8FA00F08DFBFFF718
:10301000CAFA94F94400401C01D184F8448094F920
:103020004500401C01D184F84580FFF7D6FA04A979
:10303000684600F03AFF002820460AD0FFF702FC5D
:1030400000F0E4FA204600F09BF90028B6D00020FA
:1030500071E500F095F988B104F12400049900F0BD
:1030600043FE2046FFF7EEFB00F0D0FA0028A5D182
:103070003E60BFF34F8FBFF36F8F9FE72046FFF790
:10308000E1FB00F0C3FA99E72DE9F0479046894645
:10309000040007D140F2FB62AFF22061AFF2106092
:1030A00004F057FBB9F1000F09D1206C38B140F2A0
:1030B000FC62AFF23861AFF2286004F04AFBFFF720
:1030C000B1FA5020EFF3118680F31188BFF34F8FD0
:1030D000BFF36F8FA76BF7B194F944504946204670
:1030E000FFF794FE7F1EA763681C04D06D1C84F854
:1030F0004450012010E020690028FAD004F11000AB
:1031000000F04BFE0028F4D0B8F1000FF1D00121FF
:10311000C8F80010EDE7002086F3118835E42DE9AA
:10312000F0410E46040007D140F25772AFF2B4618D
:10313000AFF2A46004F00DFB4EB9206C48B14FF41F
:10314000EB62AFF2C861AFF2B86004F002FB206C32
:1031500038B940F25972AFF2DC61AFF2CC6004F0E2
:10316000F8FAFFF75FFA5020EFF3118580F311882A
:10317000BFF34F8FBFF36F8FA06B30B13146204646
:10318000E768FFF743FE0120E76085F311883CE61E
:1031900010B5040007D140F28A72AFF22071AFF28D
:1031A000107004F0D6FAFFF7FEF9A46BFFF715FADA
:1031B000204661E410B5040007D140F29B72AFF2E3
:1031C0004471AFF2347004F0C4FAFFF7ECF9D4E9BB
:1031D0000E10441AFFF701FA20464DE410B5040022
:1031E00007D140F2AC72AFF26C71AFF25C7004F0D8
:1031F000B0FAA06B40E4694A002100BF02EBC103B2
:103200005B68834206D1002042F8310002EBC10125
:1032100048607047491C0A29F0D3704710B5040074
:1032200007D140F2B772AFF2AC71AFF29C7004F00C
:1032300090FA2046FFF7DFFF2046BDE81040FFF779
:103240004DB810B5040007D140F60912AFF2D471A1
:10325000AFF2C47004F07DFAA06B08B100200BE45B
:10326000012009E410B5040007D140F63112AFF295
:10327000F471AFF2E47004F06CFAA06BE16B884279
:1032800001D101200FE400200DE410B5434B0022D2
:1032900053F832401CB1521C0A2AF9D303E443F814
:1032A000321003EBC201486083E7034610B50020EB
:1032B0003A4A014602EBC10464689C4202D152F8CA
:1032C000310076E7491C0A29F4D372E770B5154638
:1032D0000E460446FFF767F994F944100020491C94
:1032E00001D184F8440094F94510491C01D184F8B7
:1032F0004500FFF772F9A06B28B92A46314604F160
:10330000240000F02FFD2046BDE87040FFF79ABA78
:1033100000220421FFF706BA70B50D460446FFF7F8
:1033200042F9A06C08B9A06B08B1002401E0A564C3
:103330000124FFF752F9204670BD10B50446806C99
:10334000884201D1A06B08B1002032E7FFF72BF9CA
:103350000020A064FFF741F901202AE708B5002208
:1033600000920A466946FFF764FD009808BD08B55B
:1033700000210A4600916946FFF786FE009808BDC5
:1033800010B50446FFF70FF9A06B48B15FF00004D9
:10339000FFF723F920460CE704ED00E02038002079
:1033A0000124F5E72DE9F0410546FFF7FCF8F84C5C
:1033B000A068401CA0602068F64F10B1606930B36F
:1033C0002BE02560A068012827D1002606EB8600A7
:1033D00007EB8000FEF7F2FF761C202EF6D3EE48B6
:1033E000FEF7ECFFEC481430FEF7E8FFEA4828301F
:1033F000FEF7E4FFE8483C30FEF7E0FFE6485030D7
:10340000FEF7DCFFE44860631430A06305E0206849
:10341000E96AC06A884200D82560606A401C606220
:10342000E96A0120226988401043206101EB810094
:1034300007EB8000291DFEF7CFFFFFF7CEF860698C
:1034400000280CD02068E96AC06A884207D2D349B4
:103450004FF080500860BFF34F8FBFF36F8FBDE810
:10346000F0812DE9FF5F8346DDE90E879946164618
:103470008A469000FEF7C8FE05001AD05420FEF7D9
:10348000C3FE040012D025630021CDE90241CDE93D
:1034900000874B4632465146584601F01BF82046FD
:1034A000FFF780FF012004B0BDE8F09F2846FEF73B
:1034B00015FF4FF0FF30F6E770B50546FFF773F8DC
:1034C000B34C05B92568281DFEF7AAFF58B9E86A6C
:1034D000B04A00EB800152F8211021B9012181404E
:1034E000206988432061A86A18B105F11800FEF729
:1034F00097FF606A401C60622068854208D1A64838
:10350000291D3C30FEF768FF6068401C606007E0E2
:10351000A068401EA060284601F03FF801F030F896
:10352000FFF75BF86069002812D0206885420FD150
:10353000206B28B140F2D24299A19EA004F009F973
:1035400096494FF080500860BFF34F8FBFF36F8FE5
:1035500070BD2DE9F0418E4C0027206B38B1A06979
:10356000401CA061E06900B10127384677E7E668B2
:10357000761CE66011D1606B006828B140F67F22AE
:1035800087A18CA004F0E5F8606BA16B6163A06378
:10359000206A401C206200F0F3FFA06ADFF8F4818B
:1035A000864209D3606B006880B1606BC068C568F3
:1035B000686886420DD2A0622068C06A00EB800174
:1035C00058F821000128CDD90127CBE74FF0FF3073
:1035D000F1E7281DFEF724FFA86A18B105F11800CD
:1035E000FEF71EFFE86A0121226981401143216133
:1035F00000EB800108EB8100291DFEF7EDFEE86A73
:103600002168C96A8842CDD30127CBE72DE9F0476D
:103610005F4C00252E46206B28B940F6850260A13C
:1036200064A004F096F8FEF7BEFF206B401E2063F6
:10363000206BE0BBA168584F28370120B9B3DFF8F1
:10364000549180463868E8B1F868C56805F11800FB
:10365000FEF7E6FE281DFEF7E3FEE86A226908FA97
:1036600000F11143216100EB800109EB8100291D6C
:10367000FEF7B2FEE86A2168C96A8842E2D3C4F85C
:103680001C80DFE70DB100F07BFFA56945B147461F
:10369000FFF75FFF00B1E7616D1EF9D10020A06167
:1036A000E06920B13D4901263007086000E003E0F1
:1036B000BFF34F8FBFF36F8FFEF78FFF3046BDE82C
:1036C000F0872DE9F041324C0F460546E668206848
:1036D000001DFEF7A5FE38B9206890F82C100120D7
:1036E0008840216981432161681C08D13FB121686C
:1036F000BDE8F04128485030091DFEF76DBE206836
:103700003544B5424560216805D2A06BBDE8F04163
:10371000091DFEF76DBE606B091DFEF769FEA06A0C
:10372000854200D2A5629AE61948016B491C0163E3
:10373000704770B50D46040005D140F2E64218A16D
:103740001CA004F006F82DB940F2E74214A119A01C
:1037500003F0FFFF0E4E306B28B14FF49D6210A1B5
:1037600014A003F0F6FFFFF7DFFFF2682368591992
:10377000934204D98B4225D9914202D822E08B4250
:10378000FAD9881A21600021FFF79BFF1BE0000097
:103790005400002070380020F03A002004ED00E0D2
:1037A0002E2E5C6F735C636F72655C7461736B73F8
:1037B0002E6300004572726F723A25732C25640DDA
:1037C0000A0000002160FFF721FF002807D1FF4910
:1037D0004FF080500860BFF34F8FBFF36F8F70BD05
:1037E00010B5040014D0FA48006B38B140F23C52D6
:1037F000AFF25401AFF2440003F0ABFFFFF794FFC8
:1038000000212046FFF75DFFFFF700FF002807D1EA
:10381000EE494FF080500860BFF34F8FBFF36F8FBA
:1038200010BD2DE9F041040007D14FF4AD62AFF2B5
:103830009001AFF2800003F08CFFE54E30688442C7
:1038400001D100200BE6FEF7AEFE6569776BB66B23
:10385000FEF7C3FEBD4201D0B54201D10220FEE514
:10386000DC48854208D1A06A0028F7D194F85000BE
:103870000128F3D00320F2E5D6481438854202D05F
:103880000DB10120EBE50420E9E510B50446FEF793
:103890008AFE0CB9CE480468E46AFEF79EFE204614
:1038A00010BD10B50446FEF7BDFE5020EFF31181A8
:1038B00080F31188BFF34F8FBFF36F8F0CB9C448EB
:1038C0000468E06A81F3118810BD2DE9F0410027FA
:1038D0000E460446202908D340F20262AFF240119E
:1038E000AFF2301003F035FF1F26FEF75CFEB84D37
:1038F00004B92C68606CB0423FD02968864206D972
:103900008C4207D02968C96AB14202D902E08C42D0
:1039100000D10127E16A8846884200D1E6626664E8
:10392000A069002802DBC6F12000A061AA4E08EBC6
:103930008800616906EB8000814215D1201DFEF7E9
:103940006FFD012120B92A6901FA08F082432A613A
:10395000E06A2A6981401143296100EB800006EB8F
:103960008000211DFEF738FD3FB198494FF080508F
:103970000860BFF34F8FBFF36F8FBDE8F041FEF7D4
:103980002CBE70B5924C206B10B10120E06170BD6F
:103990000020E06120684FF0A531006B02688A4288
:1039A00008D142688A4205D182688A4202D1C06841
:1039B000884204D021682068343101F07AF9206906
:1039C000854DB0FA80F0C0F11F0000EB800655F87D
:1039D000260038B940F6B732AFF23C21AFF22C20C6
:1039E00003F0B7FE05EB860000F108024168496864
:1039F0004160914201D149684160C868206070BD52
:103A000070B50446FEF7CFFD714D04B92C68201D3A
:103A1000FEF706FD58B9E06A6F4A00EB800152F8E4
:103A2000211021B901218140286988432861A06AB9
:103A300018B104F11800FEF7F3FC211D6548FEF7EC
:103A4000CBFC94F850000026012801D184F8506086
:103A5000FEF7C3FD686928B1FEF7A5FD00F090FDF3
:103A6000FEF7BBFD2868844213D1686990B1286BCA
:103A700038B140F2E462AFF2D821AFF2C82003F0CF
:103A800068FE52494FF080500860BFF34F8FBFF37C
:103A90006F8F70BD4F480068A968884201D12E60C1
:103AA00070BDBDE870406CE770B50025040007D11B
:103AB00040F20E72AFF21831AFF2083003F049FE57
:103AC00044496069884205D1A06A2839884201D0FA
:103AD00000B90125284670BD70B5040007D14FF428
:103AE000E762AFF24431AFF2343003F032FE384DCA
:103AF0002868844229D0002C27D0FEF754FD2046A8
:103B0000FFF7D2FFE8B1201DFEF78AFCE06A012131
:103B10002A698140114329612F4900EB800001EBA4
:103B20008000211DFEF758FCE06A2968C96A8842B6
:103B300007D326494FF080500860BFF34F8FBFF383
:103B40006F8FBDE87040FEF748BD70BD2DE9F041B4
:103B50000027040007D140F26F72AFF2BC31AFF220
:103B6000AC3003F0F6FDFEF75DFD5020EFF311855C
:103B700080F31188BFF34F8FBFF36F8F2046FFF79D
:103B800093FFF0B1124E306B20B1124804F11801CE
:103B9000283814E0E06A3168C96A884200D30127F6
:103BA000201DFEF73DFCE16A012032698840104388
:103BB000306101EB8100084901EB8000211DFEF717
:103BC0000BFC85F31188384649E4000004ED00E061
:103BD00054000020403B002070380020F74EF84C85
:103BE000A6F52F774FF08058DFF8D89312E000BF8A
:103BF000FEF7D9FCF068C568281DFEF711FCA06827
:103C0000401EA0606068401E6060FEF7E6FC28462B
:103C100000F0C3FC60680028EAD138680128F9D9AF
:103C2000C9F80080BFF34F8FBFF36F8FF2E71CB569
:103C3000E34800242C30CDE9004023468022E2A155
:103C4000E348FFF70EFC012803D100F0C0FD012876
:103C50000CD0401C1CD14FF40262AFF2BC41AFF259
:103C6000AC4002B0BDE8104003F073BD502080F3BB
:103C70001188BFF34F8FBFF36F8FD1484FF0FF31E3
:103C8000816201214161C460BDE81C40FEF733BC84
:103C90001CBD502080F31188BFF34F8FBFF36F8F8F
:103CA000C74900204861FEF772BCC548C06870472C
:103CB00010B5FEF7B7FCC248C06810BDC0488068A8
:103CC000704710B510B104461CB10AE0BC48046846
:103CD000FAE740F62912AFF23851AFF2285003F05C
:103CE00038FD04F1340010BD70B50D46040007D155
:103CF00040F6CE32AFF25851AFF2485003F029FDF2
:103D0000AF48016820461831FEF772FB2846BDE82F
:103D100070400121D5E42DE9F04116460F4605001B
:103D200007D140F6DF32AFF28851AFF2785003F09E
:103D300010FDA34C206B38B940F6E332AFF2A0512E
:103D4000AFF2905003F005FD216847F00040886114
:103D5000216828461831FEF73FFB3046BDE8F041A8
:103D60000121AEE470B514460D46060007D140F6B9
:103D7000F932AFF2D451AFF2C45003F0EAFC9048EC
:103D8000016830461831FEF727FB0CB14FF0FF35C4
:103D900021462846BDE8704093E42DE9F041C06813
:103DA000C4683CB940F62942AFF20C61AFF2FC5056
:103DB00003F0CFFC04F118000746FEF731FB804DFD
:103DC000286B012660B17D4839461438FEF704FBA4
:103DD000E06A2968C96A884212D90120EE61A2E42A
:103DE000201DFEF71DFBE16A2A6906FA01F0104367
:103DF000286101EB8100774901EB8000211DE5E797
:103E0000002090E470B56E4D06460C46286B38B91C
:103E10004FF44662AFF27861AFF2686003F099FC4C
:103E200044F000403060F4683CB940F66842AFF2BC
:103E30009061AFF2806003F08CFC3046FEF7F0FA40
:103E4000201DFEF7EDFAE16A01262A6906FA01F063
:103E50001043286101EB81005E4901EB8000211DC8
:103E6000FEF7BAFAE06A2968C96A884200D9EE61A9
:103E700070BD10B5040007D140F67E42AFF2E0619C
:103E8000AFF2D06003F065FCFEF78DFB4C48016A91
:103E90002160C0686060BDE81040FEF79EBB4849E5
:103EA0000A6A0260C968416070472DE9F0410C461A
:103EB000050007D140F69442AFF21C71AFF20C70CE
:103EC00003F047FC3CB940F69542AFF22C71AFF2DB
:103ED0001C7003F03EFCFEF766FB394EF2686B681F
:103EE0002068D11A471C07D02F68366AB74208D01D
:103EF000934206D8012400E00024FEF76EFB204622
:103F000011E4884205D9401A20602846FFF7C7FF10
:103F1000F2E700202060EDE729490120C8617047E1
:103F20002748006870472648416919B1006B18B1ED
:103F300000207047012070470220704770B50400D0
:103F40004FF0000038D01E4DE16A2A68D26A9142D3
:103F500042D2A069002804DB2868C06AC0F12000B2
:103F6000A0611C4E01EB8101606906EB8101884272
:103F70001ED1201DFEF754FA012150B9E06A00EB72
:103F8000800256F8222022B92A6901FA00F0824301
:103F90002A612868C06AE0622A6981401143296168
:103FA00000EB800006EB8000211DFEF715FA02E011
:103FB0002868C06AE062012070BD00002C3B002030
:103FC0005400002004ED00E049444C45000000008E
:103FD000DD3B000870380020616C2A68D26A91428B
:103FE000E9D3E9E770B504004FF0000640D0F74D83
:103FF0002868844207D040F6D172AFF65C01AFF674
:104000004C0003F0A6FBA06C38B940F6D272AFF6B4
:104010007001AFF6600003F09CFBA06C401EA06432
:10402000626CE16A914223D010BB201DFEF7F8F9C3
:10403000E74A012150B9E06A00EB800352F82330CF
:1040400023B92B6901FA00F083432B61606CE062B5
:10405000C0F12000A061E06A2B6981401943296109
:1040600000EB800002EB8000211DFEF7B5F9012670
:104070003046A1E770B50D4604009DD0A06C38B95C
:104080004FF48152AFF6E801AFF6D80003F061FBC0
:10409000606CA84200D30546E06AA8428CD0A06CB0
:1040A000012889D1C94E3068844207D141F23B02D0
:1040B000AFF61411AFF6041003F04BFBE06AE562B3
:1040C000A169002902DBC5F12001A161C04D00EB0F
:1040D0008000616905EB800081421DD1201DFEF743
:1040E0009FF9012150B9E06A00EB800255F82220C7
:1040F00022B9326901FA00F082433261E06A326922
:1041000081401143316100EB800005EB8000211DEF
:10411000BDE87040FEF760B94EE7AC4908680A6830
:104120008069D26A0968C2F120028A617047A74992
:10413000086818B10868826C521C8264086870476D
:1041400070B50C460646FEF72EFAA04D2868C06CE6
:1041500080B92968012081F850005CB10121204616
:10416000FFF7AFFA9B494FF080500860BFF34F8FC5
:10417000BFF36F8FFEF731FAFEF715FA2868C46CAB
:10418000002034B116B12968C86402E02A68611EB3
:10419000D164296881F85000FEF71FFA20460BE72A
:1041A0002DE9F0411E46154688460746FEF7FBF905
:1041B000864C206890F85000022814D02068C16C0A
:1041C000B943C1642168012081F850005EB101212A
:1041D0003046FFF776FA7F494FF080500860BFF312
:1041E0004F8FBFF36F8FFEF7F8F9FEF7DCF915B1CB
:1041F0002068C06C2860206890F85000022801D028
:10420000002505E02068C16C21EA0801C164012590
:104210002168002081F85000FEF7DFF92846D3E43A
:104220002DE9F0411F4690460D4604004FF001066F
:1042300007D141F27022AFF69821AFF6882003F043
:1042400088FAFEF7B0F90FB1E06C386094F850705E
:10425000022084F85000B8F1050F11D2DFE808F011
:104260001B03060C0A00E06C284301E0E06C401CD4
:10427000E06410E0022F01D0E5640CE0002635E098
:10428000E06C401C07D041F2A122AFF6EC21AFF662
:10429000DC2003F05EFA012F28D1201DFEF7C0F8C4
:1042A0004A4DE06A01212A69814011432961484948
:1042B00000EB800001EB8000211DFEF78DF8A06A65
:1042C00038B141F2B022AFF62831AFF6183003F022
:1042D00040FAE06A2968C96A884207D93D494FF027
:1042E00080500860BFF34F8FBFF36F8FFEF775F9F3
:1042F000304669E42DE9F0471F46DDF820909246EC
:104300000D4604004FF0010807D141F2E322AFF659
:104310007031AFF6603003F01CFAFEF783F95020DD
:10432000EFF3118680F31188BFF34F8FBFF36F8FC8
:104330000FB1E06C386094F85070022084F850009F
:10434000BAF1050F12D2DFE80AF01C03060C0A00CE
:10435000E06C284301E0E06C401CE06411E0022FB7
:1043600001D0E5640DE04FF000082AE0E06C401C4D
:1043700007D041F22632AFF6D831AFF6C83003F09D
:10438000E8F9012F1DD1A06A38B141F23132AFF600
:10439000F031AFF6E03003F0DCF90C4D286B01276B
:1043A000E0B104F118010C48FEF716F8E06A29683C
:1043B000C96A884205D9B9F1000F01D0C9F8007067
:1043C000EF6186F311884046BDE8F0875400002075
:1043D0007038002004ED00E0183B0020201DFEF79F
:1043E0001FF8E16A2A6907FA01F01043286101EB1E
:1043F00081006F4901EB8000211DD5E72DE9F041D7
:104400008846040007D141F26332AFF66C41AFF643
:104410005C4003F09EF9FEF705F95020EFF311869A
:1044200080F31188BFF34F8FBFF36F8F94F8500064
:10443000022184F85010E16C491CE16401281ED16E
:10444000A06A38B141F28932AFF6AC41AFF69C4078
:1044500003F07FF9574D286B012798B1564804F1B6
:10446000180100BFFDF7B8FFE06A2968C96A8842F1
:1044700005D9B8F1000F01D0C8F80070EF6186F3DC
:104480001188ACE4201DFDF7CBFFE16A2A6907FA29
:1044900001F01043286101EB8100454901EB8000E8
:1044A000211DDFE710B568B14FEA0004FEF77BF885
:1044B00094F85000022808D05FF00004FEF78DF851
:1044C000204610BD3B480468F0E7002084F8500007
:1044D0000124F3E72DE9F05F8846DDE90B941546EA
:1044E000834691009A460A9EA522206B04F0D6FDD1
:1044F0006FF00301206B01EB8501084420F00707F2
:10450000780705D040F261322CA131A003F021F9E7
:104510000025B8F1000F0FD05FF00000221818F846
:10452000001082F8341018F8001011B1401C102847
:10453000F4D384F8435001E084F83450202E00D3A3
:104540001F26E662C4E91165201DFDF742FF04F154
:104550001800FDF73EFF2461C6F120006462A061EF
:10456000E56484F85050524659463846FDF7A3FF9B
:104570002060B9F1000F01D0C9F80040BDE8F09FFC
:104580000C48416B096829B1416BC968C968496821
:10459000816270474FF0FF31FAE710B50446006BB7
:1045A000FDF79CFE2046BDE81040FDF797BE0000D9
:1045B0007038002054000020183B00202E2E5C6F25
:1045C000735C636F72655C7461736B732E63000060
:1045D0004572726F723A25732C25640D0A00000033
:1045E00070B500244160FC4D0061914206D8D11A9B
:1045F0008269914206D2011D286907E09A4203D2DE
:10460000994201D3012403E0011DE868FDF7F0FEA3
:10461000204670BD2DE9FF479946DDF830A0904651
:104620000E4607004FF0000405D14FF4C172EBA114
:10463000EFA003F08EF8E84D286880B1CDE900685E
:104640000297062E11DAFFF76EFC02284FF00003E6
:1046500009D0002269462868FEF730F9044604B004
:104660002046BDE8F0875246F4E700234A466946F3
:10467000FEF713FBF2E770B586B0D74E70E00198F5
:10468000002806DADDE90301029A90470198002824
:1046900066DB039C606910B1201DFDF7C1FE05A813
:1046A00000F08CF9054601980A2859D2DFE800F09D
:1046B0000505052F354C05052F3594F824002A46AD
:1046C00040F0010084F824000298A16903460144E7
:1046D0002046FFF785FF002842D0216A2046884700
:1046E00094F8240040073BD5002000900298A1696F
:1046F0000023421819462046FFF78CFF00282FD1CF
:1047000040F21332B5A1BAA003F023F828E014F860
:10471000240F20F00100207022E094F8240040F0E3
:10472000010084F824000298A06128B940F22B32DD
:10473000AAA1AFA003F00DF8A0692B4641191A46B3
:104740002046FFF74DFF0BE094F82400810703D4C7
:104750002046FDF7C3FD03E020F0010084F82400AB
:10476000002201A93068FEF764FB002887D106B05B
:1047700070BD994CE068016839B1C06800210068DB
:1047800000F061F9FFF777FFF4E701210020F7E778
:1047900010B5FDF708FF904C2068A0B99848FDF7C8
:1047A0000DFE97481430FDF709FE9548E06014307F
:1047B0002061002210210A20FDF7B4FF206010B113
:1047C00090A1FEF762FDBDE81040FDF706BF1CB5E5
:1047D0000024FFF7DDFF8048006868B17E491F2094
:1047E000091DCDE9000100234FF4807287A189489B
:1047F000FEF737FE040005D140F2131277A17CA02A
:1048000002F0A7FF20461CBD2DE9F0470746994658
:1048100016460D462820DDF820A0FDF7F5FC040023
:104820001ED0B84600204F4684F82400D1462DB94A
:1048300040F2651278A17DA002F08BFFFFF7A8FF80
:1048400004F11801C4F8008081E8A002201DFDF7E2
:10485000C0FD2EB194F8240040F0040184F8241027
:104860002046FEE610B55C4C606828B94FF4D6725D
:104870005AA15FA002F06DFF606810BD10B5040082
:1048800005D140F2B51255A159A002F062FFA0690E
:1048900010BD70B50D46040005D14FF4DF724FA175
:1048A00053A002F056FFFDF77EFE14F8240F15B159
:1048B00040F0040001E020F004002070BDE87040EA
:1048C000FDF78BBE10B5040005D140F2D31243A111
:1048D00047A002F03EFF606810BD10B5040005D18E
:1048E00040F2DD123DA142A002F033FF206810BD6E
:1048F00010B5040005D14FF4737238A13CA002F04A
:1049000028FFFDF750FE94F82400C00704D00124CE
:10491000FDF763FE204610BD0024F9E710B5040042
:1049200005D140F2E5322DA131A002F012FFFDF7D2
:104930003AFEE469FDF751FE204610BD70B50D4604
:10494000040005D140F2F53224A129A002F001FFB4
:10495000FDF729FEE561BDE87040FDF73EBE1FB5DD
:104960001C466FF00103CDE90030CDE902121A4870
:104970000023224669460068FEF78FF904B010BD97
:104980002DE9FF41144C07469846206815460E460F
:1049900028B940F2214211A115A002F0DAFE4FF031
:1049A000FF30CDE90007CDE90265002342466946A4
:1049B0002068FDF783FF04B0BDE8F08170B50546BF
:1049C000FFF773F9044E0446B068844236D200F013
:1049D0006BF8012033E00000900000202E2E5C6F69
:1049E000735C636F72655C74696D6572732E6300CE
:1049F0004572726F723A25732C25640D0A0000000F
:104A0000543B0020546D725100000000546D722020
:104A100053766300734700082E2E5C6F735C636FE0
:104A200072655C74696D6572732E63004572726F96
:104A3000723A25732C25640D0A00000000202860BE
:104A40002046B46070BDF8B50D460646FEF76CFE14
:104A50006846FFF7B3FF0446009810B1FEF7D6FD95
:104A6000F8BD4448ADB101690968D9B10025311BD1
:104A70002A460068FEF72AFCFEF7C8FD0028EFD1A1
:104A80003D494FF080500860BFF34F8FBFF36F8FE9
:104A9000F8BDA642EBD8FEF7B9FD2146304600F03E
:104AA00037F8F8BD0125E2E7F8B5324D28E0C068D7
:104AB000C4680668201DFDF7B3FC216A20468847BC
:104AC00094F8240040071BD5A0693044B04206D9B1
:104AD00024616060211DE868FDF78AFC10E0002079
:104AE00003460146009032462046FFF793FD38B951
:104AF0004FF46172AFF2E001AFF2D00002F029FE94
:104B0000E86801680029D2D12969C5E90310F8BD18
:104B1000F8B5054617480E46C068C068C468201D31
:104B2000FDF77EFC94F82400410719D5A0692B46B7
:104B3000411932462046FFF753FDA8B10020034635
:104B4000014600902A462046FFF764FD60B94FF405
:104B5000FC72AFF23C11AFF22C1002F0FAFD03E050
:104B600020F0010084F82400216A01B02046BDE84D
:104B7000F04008479000002004ED00E04EA002F055
:104B8000E8BD1CB551480324CDE900400023802234
:104B90004FA15448FEF765FC53480023CDE900407F
:104BA000802252A15548FEF75CFC55480023CDE910
:104BB0000040802253A15748FEF753FC564800237B
:104BC000CDE90040802255A15A48FEF74AFC5A48D8
:104BD0000023CDE90040802258A15E48FEF741FC49
:104BE0005D480023CDE9004080225CA16148FEF7CA
:104BF00038FC61480023CDE9004080225FA1634872
:104C0000FEF72FFC62480023CDE90040802261A11D
:104C10006748FEF726FC67480023CDE90040802264
:104C200065A16948FEF71DFC68480023CDE90040F6
:104C3000802267A16A48FEF714FC6A480023CDE988
:104C40000040802268A16C48FEF70BFC6B480224F0
:104C5000CDE900400023E20169A16D48FEF701FCA7
:104C60006C480023CDE9004080226BA16E48FEF71E
:104C7000F8FB00201CBD6D4810B501686C4A11603E
:104C800040686C490860FDF709F96B49086001212B
:104C9000FDF711F9032200210120FDF743FD6749CB
:104CA00000231A4608601946FDF708FEBDE81040CB
:104CB00067E763A002F04DBD6C77697020696E698B
:104CC0007420737563636573730D0A0044020020DA
:104CD00073686F775F7379735F636C6F636B5F7417
:104CE00061736B00318A0008080200206F70656EE6
:104CF0005F6C65645F7461736B00000095880008E9
:104D00000C020020636C6F73655F6C65645F746197
:104D1000736B0000B5880008100200207573617283
:104D2000745F68656172745F626561745F746173FA
:104D30006B000000D98800081C0200207077725FA9
:104D40006D6F64655F7377697463685F7461736BBB
:104D500000000000F5880008200200207077725FD4
:104D60006D6F64655F73656E645F6D73675F7461BB
:104D7000736B00002F890008300200206372635FAC
:104D800063616C5F7461736B00000000B58900089B
:104D9000340200206372635F706F73745F62696EC8
:104DA0006172795F73656D5F7461736B0000000001
:104DB000F38900084C020020666C6173685F7369B8
:104DC0007A655F7461736B00DB8A00085C02002007
:104DD00066735F746573745F7461736B00000000C9
:104DE000EB8B000864020020696F5F746573745F69
:104DF0007461736B00000000E78C00086C020020F7
:104E00007368656C6C5F746573745F7461736B0059
:104E1000758D000884020020657874695F7465737D
:104E2000745F7461736B0000578E000828000020C7
:104E3000B0000020B80000203C02002060020020EA
:104E40007461736B20257320737461636B6F766577
:104E500072666C6F77210D0A0000000070B5044681
:104E6000C078002548B104F13801607801230E466E
:104E7000626B02F0D6FA10B10125284670BD002001
:104E8000E070616BA06A0A1A206A8242F5D2A278A9
:104E9000022AF2D10A1860780123314602F0C1FAE1
:104EA000EBE770B50446406B0D460026A8420FD0D4
:104EB0002046FFF7D3FF06000AD1607801232A4677
:104EC00004F1380102F09EFA08B1751E01266563EF
:104ED000304670BD70B50446FFF7C0FF050036D1FF
:104EE000207803282CD12079012829D1420204F10D
:104EF00038000021064602F0FAF84AF6552104F27D
:104F0000362002F0DFF8FE49304602F0DFF8FD49B6
:104F100004F5077002F0DAF804F50870616902F030
:104F2000D5F804F50970216902F0D0F8626A01230E
:104F3000521C62636078314602F073FA00202071DF
:104F400000226078114602F07BFA00B10125284664
:104F500070BD2DE9F04104680D4602290BD3E069CC
:104F6000A84208D920784FF0FF36012807D0022840
:104F70002BD0032839D001263046BDE8F081A06A45
:104F800005EB550700EB57212046FFF78AFF002865
:104F9000F2D1C7F3080020447F1C90F83880A06A43
:104FA00000EB57212046FFF77CFF0028E4D1C7F330
:104FB0000800204490F8381048EA0120E90701D0A1
:104FC0000609D9E7C0F30B06D6E7A06A00EB152166
:104FD0002046FFF766FF0028CED1E8B204EB400080
:104FE000383002F05FF80646C6E7A06A00EBD5113C
:104FF0002046FFF756FF0028BED140F2FF1000EA1E
:1050000085002044383002F052F820F07046B3E7B3
:105010002DE9F047022617460D460446022969D3BA
:10502000E069A84266D920784FF00109012804D030
:10503000022836D003285DD143E0A16A05EB55086C
:1050400001EB58212046FFF72CFF060052D1C8F390
:1050500008002044383008F10108E90704D001783D
:10506000FAB262F31F1100E03946017084F8039030
:10507000A16A204601EB5821FFF713FF060039D142
:10508000C8F3080020443830E90702D0C7F30711FD
:1050900005E00178C7F3032201F0F001114301702C
:1050A00026E0A06A00EB15212046FFF7FAFE060075
:1050B00020D1E8B204EB4000B9B2383002F002F877
:1050C00016E0A06A00EBD5112046FFF7EAFE0600C5
:1050D00010D140F2FF1000EA850020443830054628
:1050E00001F0E5FF67F31B000146284601F0EEFFE3
:1050F00084F803903046BDE8F0872DE9F04105685B
:1051000013460E46074602292CD3E869B04229D936
:105110003BB14FF0FF3219462846FFF779FF0028D0
:105120001FD131463846FFF714FF040018D0012C78
:1051300018D0601C18D0002231462846FFF768FFBF
:1051400000280ED1E8696969821E914205D2491C86
:105150006961297941F0010129712646B042E0D800
:1051600000200AE7022008E7012006E72DE9F041C8
:1051700006680F00804605D0FFF7EBFE022808D234
:105180000120FAE6346914B1F069A04207D801247D
:1051900005E0411CF5D0F1698142F2D83C467069C6
:1051A0000028EED0BC4216D1F069651CA84200D898
:1051B000022529464046FFF7CCFE0128E1D0411CDC
:1051C000DFD038B13069022805D3F169814202D9B4
:1051D000044600E0A5B92546F0696D1CA84202D836
:1051E0000225022C0AD329464046FFF7B2FE38B109
:1051F0000128C6D0411CC4D0A542EDD10020BCE698
:105200004FF0FF34224629463046FFF701FF30B900
:105210005FB12A4639463046FFF7FAFE28B1012829
:1052200000D0012425462846A7E63561F16970695A
:10523000891E884201D8401E7061307940F001001B
:105240003071F0E72DE9F0410C460546FFF706FE08
:1052500000BB2146284601F068FF0646686305F159
:1052600038004FF400720021044601F040FFA046D0
:105270000127002400E03C446889A04207D9321984
:1052800068783B46414602F0CCF80028F3D06889A4
:10529000A04201D0012070E600206EE62DE9F04129
:1052A00007680E460546B1F5001F3AD2F00638D120
:1052B0002E61AC6824B93878032805D3FC6A1CB188
:1052C00078894FEA402812E03889B0EB561F28D978
:1052D000F86A12E02846FFF73CFE0446401C1ED048
:1052E000022C1ED3F869A0421BD9A6EB080646453E
:1052F0002146EFD2384601F018FFC5E9054003E02A
:10530000525261417272416158B100EB5620A8615E
:10531000C6F3080038443830E86100202DE601204B
:105320002BE6022029E62DE9F047066907682036BA
:10533000894604464FF00008B6F5001F34D2A06934
:1053400010B1F10502D03CE00420D4E6401CA0617D
:10535000616929B17889401E10EA562F05D030E0E6
:105360003889B0EB561F1FD92BE02046FFF7F1FD1F
:10537000054601281DD9681C14D0F869A8421AD81E
:10538000B9F1000F10D020466169FFF7EFFE05006C
:105390000DD0012D0DD0681C04D029463846FFF7EA
:1053A00051FF40B10120A6E6C4F81880CCE70720E1
:1053B000A1E602209FE629463846656101F0B5FE68
:1053C000A061C6F30800384438302661E06100204F
:1053D00091E62DE9F0470426FF2489460546274635
:1053E000D0F8008047E04046FFF75BFD060046D15D
:1053F000E969087880B1CA7AE52802F03F02AA710B
:1054000008D02E2806D022F02003082B06D0B44660
:10541000CC4506D0FF241EE0042630E04FF0010CFE
:10542000F6E70F2A01D014BB1CE0420605D54F7BDE
:1054300000F0BF002A690446EA62A04209D1487B15
:10544000B84206D1D8F80C0001F000FF08B1641E84
:1054500000E0FF24E4B200212846FFF764FF0600C5
:1054600009D00CE0084601F06EFFB84209D04FF0B9
:10547000FF30E86205E0A9690029B4D10EB100202F
:10548000A861304637E62DE9F04705460021D0F8FF
:105490000090FFF703FF002852D1FF24471EA046CB
:1054A000EF624846A969FFF7FCFC060047D1E969AD
:1054B000087850B1CA7AE52802F03F02AA7136D0C6
:1054C000130704D50F2A32D105E0042637E00F2A4E
:1054D00001D0E4B120E095F82B20520629D44206F1
:1054E00006D591F80D8000F0BF002A690446EA62F3
:1054F000A04209D14A7B424506D1D9F80C0001F0FF
:1055000068FE08B1641E00E0FF24E4B211E0084622
:1055100001F019FF404512D095F82B00C00706D1C5
:105520000B2205F12001E86901F0E7FD38B1FF2405
:10553000EF6200212846FFF7F6FE0600B1D03046A4
:10554000D9E52DE9F04F0446D0F8009090F82B00F3
:1055500089B010F0A00F03D0062009B0BDE8F08F8D
:105560000025D9F80C0000E06D1C30F8151000295A
:10557000FAD104F120010C226846039101F0AEFD3E
:105580009DF80B00C00719D0402084F82B0001269D
:1055900033466946D9F80C20039801F08FFE204667
:1055A000FFF771FF10B9761C642EF1D3642E0FD073
:1055B0000428D2D19DF80B0084F82B009DF80B0035
:1055C000800707D50D200C35B5FBF0F56D1C02E00A
:1055D0000720C2E70125002120462768FFF75EFE6D
:1055E00088B900263846A169FFF75BFC58B9E06925
:1055F0000078E5280AD048B1002601212046FFF7AF
:1056000092FE0028EED0042812D012E0761C284624
:10561000AE42F2D1451E059567D02169684201EB83
:1056200040112046FFF73AFE5FEA000803D076E01B
:105630000720804673E0039801F085FE4FF6FF7B5C
:1056400007904846A169FFF72CFC5FEA000866D185
:10565000D9F80C0006900598D4F81C80C0B20490CC
:10566000079988F80D100F2188F80B10002188F891
:105670000C1008F11A0001F025FD0498DFF8FCA6D3
:10568000401E00EB800101EBC006002701E05D45F4
:1056900003D0069830F81650761C1AF8071001EB64
:1056A0000800294601F00EFD05B95D467F1C0D2F4F
:1056B000EDD35D4505D0069830F8160008B1049882
:1056C00003E0049840F04000049088F800000121B5
:1056D00089F8031000212046FFF725FE5FEA000845
:1056E0001DD10598401E0590ABD14846A169FFF732
:1056F000D8FB5FEA000812D120220021E06901F006
:10570000F6FC0B22E069039901F0E8FC94F82B0009
:10571000E16900F018000873012089F80300404691
:105720001BE72DE9F041C16A044606690568481C7B
:1057300004D02046FFF7B2FD002817D1E5274FF02F
:1057400001082846A169FFF7ACFB60B9E1690F7059
:1057500085F803802169B14208D200212046FFF775
:10576000E2FD0028EDD0042800D1022005E42DE957
:10577000F84F4FF0000AD0F80090064681F816A0C6
:1057800080690C4600287DD0F06A401C1BD00025A3
:10579000A846474609E07F1CB8F1000F1ED1A0F5CE
:1057A0005841B1F5006F19D28046D9F80C0030F895
:1057B00017000028EFD100BFB8F1000F00D000257E
:1057C000601980F816A0002001462E23F269125CB1
:1057D000401C202A30D0052A23D023E0611901F192
:1057E000160BC5F1FF01009140EA084040F2B511E7
:1057F00001F038FEFF2809D9009902290FD3020AC7
:105800008BF800208BF80100022005E038B10099E8
:1058100029B18BF80000012005440020C4E70025D1
:10582000CAE7E522092804D10C2902D26518491CCF
:105830006B726518491C6A720B28C7D360185246F0
:1058400080F809A0A07D18BB19B100210B460825DE
:1058500013E03F20A075012113E02E2819D0A0F1FC
:105860004107192F05D8F7693F7B2F4201D020301F
:1058700080B26718491CB8755B1CE018407A002894
:10588000EBD100E01AE060188275F069007B10B17E
:1058900002E01025EDE76272F069C07A2072F069CB
:1058A0001C3001F004FC2060F069163001F0FAFBB6
:1058B000E080F069183001F0F5FBA080BDE8F88FBA
:1058C000FFB583B01E461446054604E004A801F067
:1058D00047FD00281AD0641EF8D2287800B9A6B96E
:1058E000049800950190009800783F2810D02A284D
:1058F0000ED0684601F034FD074601A801F030FDE6
:105900000446A7421AD1002FEDD1012007B0F0BD07
:1059100000221346009810F8011B00903F2915D073
:10592000012300783F28F5D02A28F3D0DDE90001D3
:10593000FFF7C6FF0028E8D10198047804A801F019
:105940000FFD0EB1002CCBD10020DFE7521CE8E7A1
:105950002DE9F84F804600680F688946C568002425
:1059600017F8016B304601F0DCFBE8BB36B140F2C2
:10597000B511304601F091FD060059D0701C57D08A
:10598000B6F5803F03D3300C25F81400641C202E9C
:1059900010D32F2E10D05C2E0ED0802E04D2314684
:1059A000F7A001F0B6FBF8B9FF2C41D225F814603E
:1059B000641CD5E7042607E0002600E07F1C387849
:1059C0002F28FBD05C28F9D00021C9F80070012CE9
:1059D00004D0022C25D168882E2819D128882E2899
:1059E00016D125F8141000E022E00020A04201D2D8
:1059F0002E2100E0202108EB0002401C82F820103C
:105A00000B28F3D3404446F0200280F82020D4E055
:105A100005EB440030F8020C202801D02E2802D1DA
:105A2000641E002CF4D125F814100CB1002702E0FC
:105A3000062043E77F1C35F817002028FAD017B955
:105A400028882E2803D146F0030600E0641E2CB1FE
:105A500005EB440030F8020C2E28F7D10B22202150
:105A600008F1200001F043FB4FF000094FF0080B54
:105A7000CDF8009035F8170007F101075FEA000A3A
:105A800024D0BAF1200F04D0BAF12E0F04D1A742CE
:105A900002D046F00306EDE70098584501D2A74230
:105AA00019D1BBF10B0F0FD0A74201D046F003066E
:105AB0000CD84FF0080000904FEA896027464FF05D
:105AC0000B0B4FEA1069D5E746F0030698F8200063
:105AD000E52850D052E05046BAF1800F0ED346F080
