:020000040800F2
:1000000030480020E1010008DD090008DF09000890
:10001000E1090008E3090008E50900080000000004
:10002000000000000000000000000000490100087E
:10003000E7090008000000008D0100081D250008E8
:10004000FB010008FB010008FB010008FB010008A0
:10005000FB010008FB010008FB010008FB01000890
:10006000FB010008FB010008FB010008FB01000880
:10007000FB010008FB010008FB010008FB01000870
:10008000FB010008FB010008FB010008FB01000860
:10009000FB010008FB010008FB010008FB01000850
:1000A000FB010008FB010008FB010008FB01000840
:1000B000FB010008FB010008FB010008FB01000830
:1000C000FB010008FB010008FB010008FB01000820
:1000D000FB010008A3150008B7160008A1170008C7
:1000E000FB010008FB010008FB010008FB01000800
:1000F000FB010008FB010008FB010008FB010008F0
:10010000FB010008FB010008FB010008FB010008DF
:100110008D1800087B190008FB010008FB0100088E
:10012000FB010008FB010008FB010008FB010008BF
:10013000DFF810D009F076F909F012F9004800470D
:100140006923000830480020224B19680868B0E88D
:10015000F00F80F30988BFF36F8F4FF0000080F33A
:1001600011884EF00D0E7047000000000648006830
:10017000006880F3088862B661B6BFF34F8FBFF3A3
:100180006F8F00DF00BF00BF08ED00E0EFF30980D4
:10019000BFF36F8F0F4B1A6820E9F00F106008B59E
:1001A0004FF0500080F31188BFF34F8FBFF36F8F74
:1001B00003F077FB4FF0000080F31188BDE80840A2
:1001C00019680868B0E8F00F80F30988BFF36F8FF3
:1001D000704700BF54000020EFF305807047000017
:1001E0000648804706480047FEE77047FEE7FEE7FF
:1001F000FEE7FEE7FEE7FEE7FEE7FEE71111000877
:10020000310100082849084328490860704770B543
:100210000F23C47801780122F4B1244C2468457876
:1002200004F4E064C4F5E064240AC4F10406E34085
:100230008478B5401C402C4301F1E021230181F872
:100240000034007800F01F018A404009800000F16E
:10025000E020C0F8002170BD01F01F008240480975
:10026000800000F1E020C0F8802170BD104A1140EC
:1002700001430E48001F016070470C4A121D0029FF
:10028000116801D0014300E08143116070474FF0D5
:10029000E0210428086903D020F0040008617047B9
:1002A00040F00400FAE700000000FA050CED00E061
:1002B00080FFFF1F0E490120886070470C490860CD
:1002C0000868704710B50022094B03E050F822403F
:1002D0001C60521C8A42F9D3186810BD044800689B
:1002E0007047034908717047014800797047000062
:1002F00000300240FC4A116801F0380101431160EE
:100300007047F9490A6822F008020A600A68024345
:100310000A607047F4490A6822F010020A600A680D
:1003200002430A607047F048F0494160F04941607B
:100330007047ED48ED494160ED4941607047EA483A
:10034000016941F0800101617047E748016941F0AE
:10035000800101617047E4490420CA68D20701D0D6
:1003600001207047CA68520701D502207047C9684A
:10037000C906FBD50320704700B50346FFF7EBFF26
:1003800003E000BFFFF7E7FF5B1E012803D0002B4F
:1003900000D1052000BD002BF4D1FAE770B5054669
:1003A0004FF430263046FFF7E7FF042811D1CE4C3A
:1003B000206940F0020020616561206940F0400042
:1003C00020613046FFF7D8FF216941F6FD721140E8
:1003D000216170BD30B54FF430252846FFF7CCFFC2
:1003E000042810D1C04C206940F00400206120692D
:1003F00040F0400020612846FFF7BEFF216941F62A
:10040000FB721140216130BD00B50346FFF7A3FF29
:1004100003E000BFFFF79FFF5B1E012803D0002B06
:1004200000D1052000BD002BF4D1FAE730B54FF420
:1004300030252846FFF7E8FF042810D1AA4C206990
:1004400040F004002061206940F04000206128460F
:10045000FFF7DAFF216941F6FB721140216130BDDF
:10046000A1490020C969890700D50120704770B5EE
:10047000A525FFF7F5FF00B100254FF430263046E3
:10048000FFF77AFF042827D1974C9848A060984836
:10049000A060206940F020002061206940F0400009
:1004A00020613046FFF768FF41F6EF7604280ED151
:1004B000206941F6DF7108402061206940F010009A
:1004C00020618C4805804FF40050FFF755FF052848
:1004D00002D021693140216170BDF8B50646002087
:1004E0004FF4005C00900D466046FFF745FF04287E
:1004F00016D17D4C206940F00100206135806046B6
:10050000FFF73AFF41F6FE77042806D1B61C280C07
:10051000009630806046FFF72FFF21693940216146
:10052000F8BDF0B506464FF400570D463846FFF7C4
:1005300023FF04280CD16C4C206940F0010020619D
:1005400035803846FFF718FF2169BA1E1140216136
:10055000F0BDF0B506464FF400570D463846FFF79C
:100560000BFF042813D1604C6048A0606048A06075
:10057000206940F01000206135803846FFF7FCFE0E
:10058000052804D0216941F6EF7211402161F0BDC8
:100590002DE9F041C04300F0FF0CC0F30727C0F382
:1005A0000746050E4FF400584046FFF7E5FE0428C5
:1005B00037D14D4C4D49A1604D49A160216941F0B1
:1005C00010012161BCF1FF0F08D04A480830A0F8A3
:1005D00000C04046FFF7D0FE04281BD1FF2F07D0F4
:1005E00044480A3007804046FFF7C6FE042811D170
:1005F000FF2E07D03F480C3006804046FFF7BCFE78
:10060000042807D1FF2D07D03A480E300580404618
:10061000FFF7B2FE052804D0216941F6EF721140C0
:100620002161BDE8F08170B505464FF430263046B3
:10063000FFF7A2FE042818D12B4C2C48A0602C48B0
:10064000A060206940F020002061206940F0400057
:1006500020613046FFF790FE41F6DF71042805D097
:10066000052802D022690A40226170BD2069084035
:100670002061206940F0100020611E480DB100216A
:1006800000E0A52101803046FFF776FE0528ECD07A
:10069000216941F6EF721140216170BDF0B5124C35
:1006A0000746124816460D46A0601148A0604FF458
:1006B000005C6046FFF760FE042814D1206940F01A
:1006C0001000206135430B493D43891C45F0F8007B
:1006D00008806046FFF750FE052804D0216941F6E6
:1006E000EF7211402161F0BD0020024023016745F7
:1006F000AB89EFCD00F8FF1F1C48C0698008704728
:100700001A48006A7047194900200968890600D50F
:1007100001207047154A0029116901D0014300E00A
:1007200081431161704701460020104A012903D01E
:10073000D2680A4203D17047D169C907FBD00120B2
:1007400070470A49C860704708490420CA68D20740
:1007500001D001207047CA68520701D502207047B6
:10076000C968C906FBD5032070470000002002407D
:10077000914910B5884206D10121042000F0A7FA62
:10078000002104203BE08D49884206D10121082048
:1007900000F09DFA0021082031E08949884206D105
:1007A0000121102000F093FA0021102027E0854954
:1007B000884206D10121202000F089FA0021202062
:1007C0001DE08149884206D10121402000F07FFAD6
:1007D0000021402013E07D49884206D1012180207C
:1007E00000F075FA0021802009E0794988420AD199
:1007F00084150121204600F06AFA00212046BDE858
:10080000104000F064BA10BD10B50121084600F098
:100810005EFA0021BDE81040012000F058BAF0B5A2
:10082000CA78002502F00F03D20601D58A78134357
:100830000A784FF00F0E12F0FF0F4FF001021DD09B
:10084000D0F800400F8802FA05F63740B74211D1C0
:100850004FEA850C0EFA0CF724EA070703FA0CF4AA
:100860003C43CF78282F02D0482F02D002E04661C7
:1008700000E006616D1C082DE4D304600C88FF2C99
:100880001ED944685FF0000606F1080702FA07F572
:100890000F882F40AF420FD14FEA860C0EFA0CF7AB
:1008A000BC4303FA0CF73C43CF78282F00D14561B5
:1008B000CF78482F00D10561761C082EE4D3446020
:1008C000F0BD4FF6FF710180022181700421C170DB
:1008D00070470246002092680A4200D0012070470B
:1008E000806880B2704702460020D2680A4200D079
:1008F00001207047C06880B2704701617047416154
:1009000070470AB10161704741617047C16070472B
:1009100041F48032826181618261816980697047BE
:100920002C4B10B51A684FF68074224042EA001032
:100930000843186010BD2849C8617047F0B5254CC0
:10094000002801DAE36900E06368420D120185B214
:10095000C0F301579540C0F30346032F05D0C202F0
:100960000AD50322B240934307E023F07062636824
:1009700023F07063636002E0AB4343F0706201B147
:100980002A43002801DAE261F0BD6260F0BD10B5D3
:100990008A0721F003040F49130F21440F228C68AA
:1009A0009A4094438C608A68984002438A6010BDE4
:1009B0000949C1F8DC00704700080140000C014003
:1009C000001001400014014000180140001C0140CB
:1009D00000200140000001400000204270477047A5
:1009E000FEE7FEE7FEE7704710B501210C07204641
:1009F00000F076F92046BDE81040002100F070B903
:100A00002149086270472049086170471F4A1168F0
:100A100021F0E0010143116070471B49C1F8A000BB
:100A200070471A4B1A6822F0030202431A601848F2
:100A3000026842F004020260012905D020BF01686B
:100A400021F004010160704730BFF8E70F480168EA
:100A500041F004010160016841F0020101600C48AD
:100A6000016841F00401016030BF7047074A014648
:100A7000002052680A4200D00120704703490A68EA
:100A800042EA80000860704700000E42007000409B
:100A900010ED00E0A448016841F0010101604168E7
:100AA000A24A114041600168A14A114001600168F9
:100AB00021F480210160416821F4FE0141604FF47E
:100AC0001F018160704798490A6822F480320A60E9
:100AD0000A6822F480220A60B0F5803F07D0B0F5A2
:100AE000802F03D1086840F4A02008607047086890
:100AF00040F48030F9E70246002053098A49012B6F
:100B00000AD0022B0AD0496A02F01F020123934047
:100B10000B4200D0012070470968F5E7096AF3E746
:100B200018B500204FF4A06400903120FFF7E3FFD8
:100B30000099491C0091A14201D00028F5D0312034
:100B4000FFF7D9FF002800D0012018BD76490A68B8
:100B500022F0F80242EAC000086070477549086058
:100B60007047714A5368084323F47C13184350605C
:100B700070477049086670476B4A516821F003015D
:100B80000143516070476848406800F00C007047AE
:100B9000654A516821F0F001014351607047624A93
:100BA000516821F4E0610143516070475E494A6831
:100BB00022F4605242EAC000486070475A4A002955
:100BC000517A01D0014300E0814351727047594985
:100BD000C1F8D8007047544A516821F4404101439C
:100BE000516070475049002281F8202081F8202070
:100BF000012802D0042802D1052081F82000704786
:100C00004D490860704748490A6A02430A627047C2
:100C1000494944390860704730B543494A6812F081
:100C20000C03464A03D0042B01D0082B21D00260CC
:100C30004A680F23424C03EA1212A35C0268DA40AE
:100C400042604B68072505EA1323E35C22FA03F3AD
:100C500083604B6805EAD323E35CDA40C2604968ED
:100C6000032303EA9131231F595CB2FBF1F10161C7
:100C700030BD4A684B6802F470124FF0020413F45E
:100C8000803F04EB924202D04B689B0301D52D4B71
:100C900000E02A4B5A43CAE7234A0029516901D090
:100CA000014300E08143516170471F4A0029916967
:100CB00001D0014300E08143916170471A4A002945
:100CC000D16901D0014300E08143D1617047164AE8
:100CD0000029D16801D0014300E08143D160704711
:100CE000114A0029116901D0014300E081431161DB
:100CF000704711494039086070470E49C864704711
:100D00000949C87170470848416A41F080714162E1
:100D10007047054A0146002092680A4200D001202F
:100D20007047014988727047001002400000FFF8C8
:100D3000FFFFF6FE000042428004424200127A00A9
:100D40000400002000093D00C44910B588420AD1C2
:100D500001218C032046FFF7BAFF2046BDE8104072
:100D60000021FFF7B4BFBE49884202D101214C04E3
:100D700010E0BC49884202D101218C040AE0BA4942
:100D8000884202D10121CC0404E0B84988420AD14A
:100D900001210C052046FFF7A3FF2046BDE81040C7
:100DA0000021FFF79DBF10BD30B50446008A85B015
:100DB0000D464CF6FF710840E98801432182A18964
:100DC0004EF6F3100140A8882A8910436A890A4325
:100DD0001043A081A08A4FF6FF410840A989014332
:100DE000A1826846FFF718FF9C48844201D103980E
:100DF00000E00298A189090400EBC00101EB00109A
:100E0000296801D5490000E08900B0FBF1F06422B7
:100E1000B0FBF2F109010B096FF018056B4300EB11
:100E20008300A3891D044FF0320306D503EBC000F5
:100E3000B0FBF2F000F0070005E003EB0010B0FBA0
:100E4000F2F000F00F000843208105B030BD4FF4F0
:100E50001651016000218180C18001810C224281F4
:100E60008181704710B5038A4FF2FF0213400A8850
:100E70004C8822438C88C9880C4322431A4302823F
:100E800010BD0021018041808180C1807047002910
:100E9000818902D041F4005101E021F400518181A7
:100EA000704710B5C1F3421301F01F040121A140A6
:100EB000012B07D0022B07D01430002A026805D07E
:100EC0000A4304E00C30F8E71030F6E78A4302608A
:100ED00010BD002A828A01D00A4300E08A43828240
:100EE0007047028A22F00F020282028A0A430282BB
:100EF0007047828922F40062828182890A4382815A
:100F000070470029818902D041F0020101E021F0FF
:100F1000020181817047028A22F020020282028A45
:100F20000A43028270470029018A02D041F48041BD
:100F300001E021F4804101827047C1F30801818002
:100F400070478088C0F308007047818941F0010133
:100F500081817047028BD2B20283028B42EA012167
:100F600001837047028B02F47F420283028B0A43A3
:100F7000028370470029818A02D041F0200101E0FC
:100F800021F02001818270470029818A02D041F03E
:100F9000100101E021F01001818270470029818A4F
:100FA00002D041F0080101E021F008018182704780
:100FB0000029818902D041F4004101E0C1F30E0112
:100FC000818170470029818A02D041F4006101E0EB
:100FD00021F4006181827047828A22F004028282B9
:100FE000828A0A43828270470029818A02D041F0B6
:100FF000020101E021F002018182704702460020D7
:1010000012880A4200D001207047C943018070470E
:1010100030B501F01F0201240025C1F3421304FA88
:1010200002F2012B0FD0022B0FD0838A4FEA11213D
:101030000088134204FA01F400EA040001D000B170
:101040000125284630BD8389F0E7038AEEE70A0AC6
:1010500001219140C94301807047000000380140E0
:101060000044004000480040004C00400050004058
:101070000CB500214B4801910091026842F4803286
:1010800002604FF4A063026802F400320092019AF9
:10109000521C0192009A12B9019A9A42F3D1026845
:1010A000920333D5012100913F490A6842F01002B2
:1010B0000A600A6822F003020A600A6842F002022B
:1010C0000A604168416041684160416841F4806163
:1010D0004160416821F47C114160416841F4E811AC
:1010E0004160016841F08071016001688901FCD5AF
:1010F000416821F003014160416841F00201416013
:101100004168C1F381010229FAD10CBD00910CBDE7
:10111000244810B5016841F0010101604168234A8B
:10112000114041600168224A11400160016821F4C8
:1011300080210160416821F4FE0141604FF41F01EC
:101140008160FFF795FF1B494FF00060086010BDFC
:10115000144910B54868184A10F00C03174803D01A
:10116000042B01D0082B0AD002604968134AC1F34E
:101170000311121D515C0268CA40026010BD4A682A
:101180004B6802F470124FF0020413F4803F04EB3A
:10119000924202D04B689B0301D5094B00E0064BFD
:1011A0005A43E1E700100240002002400000FFF82F
:1011B000FFFFF6FE08ED00E000127A0014000020A8
:1011C00000093D00F0B5054687B001210520FFF775
:1011D0006CFD01218803FFF768FDFE4E3046FFF7E6
:1011E000B3FD7015ADF8100018208DF81300FA4FFC
:1011F00003248DF8124004A93846FFF710FB301580
:10120000ADF8100004208DF8130004A93846FFF74C
:1012100006FB25208DF814008DF815408DF816403A
:1012200001208DF8170005A8FEF7F1FF0020ADF8AA
:101230000400ADF80600ADF80800ADF80C000C2075
:10124000ADF80A00009569463046FFF7ADFD012272
:1012500040F225513046FFF724FE01213046FFF7CA
:1012600016FE40213046FFF7D0FE07B0F0BD70B546
:101270000546012186B04804FFF720FD0121042026
:10128000FFF713FD0420ADF8100018208DF81300AF
:10129000D14E03248DF8124004A93046FFF7BFFA5F
:1012A0000820ADF8100048208DF8130004A930463E
:1012B000FFF7B5FA26208DF814008DF815408DF84B
:1012C000164001208DF8170005A8FEF7A0FF0020AA
:1012D000ADF80400ADF80600ADF80800ADF80C005C
:1012E0000C20BE4CADF80A00009569462046FFF779
:1012F0005BFD012240F225512046FFF7D2FD01217E
:101300002046FFF7C4FD40212046FFF77EFE06B0D1
:1013100070BD70B50546012186B08804FFF7CEFC8C
:1013200001210820FFF7C1FC4FF48060ADF81000E8
:1013300018208DF81300AA4E03248DF8124004A93A
:101340003046FFF76CFAF014ADF8100048208DF825
:10135000130004A93046FFF762FA27208DF8140025
:101360008DF815408DF8164001208DF8170005A85E
:10137000FEF74DFF0020ADF80400ADF80600ADF813
:101380000800ADF80C000C20964CADF80A00009552
:1013900069462046FFF708FD012240F2255120460C
:1013A000FFF77FFD01212046FFF771FD4021204618
:1013B000FFF72BFEABE770B50546012186B0C804E8
:1013C000FFF77CFC01211020FFF76FFC4FF48060D9
:1013D000ADF8100018208DF81300834E03248DF80B
:1013E000124004A93046FFF71AFAF014ADF81000C5
:1013F00004208DF8130004A93046FFF710FA3420BA
:101400008DF814008DF815408DF8164001208DF8E8
:10141000170005A8FEF7FBFE0020ADF80400ADF8AC
:101420000600ADF80800ADF80C000C206F4CADF8CC
:101430000A00009569462046FFF7B6FC012240F2FB
:1014400025512046FFF72DFD01212046FFF71FFD06
:1014500040212046FFF7D9FD59E730B50546012167
:1014600087B00805FFF72AFC01211020FFF71DFCBB
:101470004FF48050ADF8100018208DF813000324AD
:101480008DF8124004A95848FFF7C9F90420ADF8B7
:1014900010008DF8130004A95548FFF7C0F9352056
:1014A0008DF814008DF815408DF8164001208DF848
:1014B000170005A8FEF7ABFE0020ADF80400ADF85C
:1014C0000600ADF80800ADF80C000C20494CADF852
:1014D0000A00009569462046FFF766FC012240F2AB
:1014E00025512046FFF7DDFC01212046FFF7CFFC08
:1014F00040212046FFF789FD07B030BD10B50446F6
:10150000FFF71BFD80212046FFF778FD0028F9D06A
:1015100010BD70B50C46064600250AE03046FFF7C0
:101520000CFD80213046FFF769FD0028F9D0641CCE
:101530006D1C21780029F1D1284670BD10B52E4AC6
:1015400091888029FCD2518853181873491CC817F8
:1015500001EB506020F07F00081A508072B690882E
:10156000401C9080012240F227711A48FFF799FC35
:1015700062B6002010BD204A50890028FCD0D188D6
:10158000501890F88C00491CCB1701EB536323F0E3
:101590007F03C91AD18072B65189491E518162B642
:1015A000704770B50B4D40F2255631462846FFF77F
:1015B0002FFD114C012829D12846FFF7C2FCC1B2EA
:1015C000608980281ED2401C60812089221882F800
:1015D0008C1013E000380140000801400044004036
:1015E000000C01400048004000100140004C004049
:1015F0000014014000500040B8020020401C00F0E0
:101600007F00208131462846FFF721FD40F22776F2
:1016100031462846FFF7FCFC01280DD1A288521E56
:101620000BD3A2802688A019017B2846FFF766FF0E
:10163000761C06F07F00208070BD002231462846CF
:10164000FFF72FFC31462846BDE87040FFF7FFBC8E
:1016500010B5EB4A91888029FCD251885318187331
:10166000491CC81701EB506020F07F00081A508019
:1016700072B69088401C9080012240F22771E148A8
:10168000FFF70FFC62B6002010BDDD4A508900282C
:10169000FCD0D188501890F88C00491CCB1701EB76
:1016A000536323F07F03C91AD18072B65189491E52
:1016B000518162B6704770B5D24D40F22556314621
:1016C0002846FFF7A5FCCE4C012814D12846FFF789
:1016D00038FCC1B26089802809D2401C6081208911
:1016E000221882F88C10401C00F07F0020813146C7
:1016F0002846FFF7ACFC40F2277631462846FFF734
:1017000087FC01280DD1A288521E0BD3A280268807
:10171000A019017B2846FFF7F1FE761C06F07F003A
:10172000208070BD002231462846FFF7BAFB3146C3
:101730002846BDE87040FFF78ABC10B5B24A9188D0
:101740008029FCD2518853181873491CC81701EB23
:10175000506020F07F00081A508072B69088401CBC
:101760009080012240F22771A848FFF79AFB62B6E9
:10177000002010BDA44A50890028FCD0D188501800
:1017800090F88C00491CCB1701EB536323F07F03C7
:10179000C91AD18072B65189491E518162B670470B
:1017A00070B59A4D40F2255631462846FFF730FC79
:1017B000954C012814D12846FFF7C3FBC1B26089BC
:1017C000802809D2401C60812089221882F88C1060
:1017D000401C00F07F00208131462846FFF737FC8F
:1017E00040F2277631462846FFF712FC01280DD13A
:1017F000A288521E0BD3A2802688A019017B2846FE
:10180000FFF77CFE761C06F07F00208070BD002272
:1018100031462846FFF745FB31462846BDE8704073
:10182000FFF715BC10B57A4A91888029FCD25188FF
:1018300053181873491CC81701EB506020F07F0043
:10184000081A508072B69088401C9080012240F2A5
:1018500027717048FFF725FB62B6002010BD6C4A67
:1018600050890028FCD0D188501890F88C00491C71
:10187000CB1701EB536323F07F03C91AD18072B6F3
:10188000654A5189491E518162B6704770B5614DF4
:1018900040F2255631462846FFF7BAFB5C4C01283A
:1018A00014D12846FFF74DFBC1B26089802809D2C8
:1018B000401C60812089221882F88C10401C00F0A6
:1018C0007F00208131462846FFF7C1FB40F2277692
:1018D00031462846FFF79CFB01280ED1A288521EF4
:1018E0000CD34D4882802688A019017B2846FFF73B
:1018F00005FE761C06F07F00208070BD0022314678
:101900002846FFF7CEFA31462846BDE87040FFF77B
:101910009EBB10B5414A91888029FCD2518853184A
:101920001873491CC81701EB506020F07F00081A9B
:10193000508072B69088401C9080012240F227713E
:101940003748FFF7AEFA62B6002010BD334A50891F
:101950000028FCD0D188501890F88C00491CCB1777
:1019600001EB536323F07F03C91AD18072B62A4A70
:101970005189491E518162B6704770B5284D40F2B9
:10198000255631462846FFF743FB244C012814D145
:101990002846FFF7D6FAC1B26089802809D2401CD8
:1019A00060812089221882F88C10401C00F07F0092
:1019B000208131462846FFF74AFB40F22776314620
:1019C0002846FFF725FB01280ED1A288521E0CD312
:1019D000114882802688A019017B2846FFF78EFDDA
:1019E000761C06F07F00208070BD0022314628461C
:1019F000FFF757FA31462846BDE87040FFF727BB8E
:101A0000C403002000440040D004002000480040EF
:101A1000DC050020004C0040B8020020E806002051
:101A200000500040F8B501210820FFF73EF90121E0
:101A30004020FFF73AF91C4F3846FEF799FE202464
:101A4000ADF8004003258DF8025010268DF8036094
:101A500069463846FEF7E3FE20213846FEF74DFF83
:101A6000124F3846FEF784FEADF800408DF8025064
:101A70008DF8036069463846FEF7D1FE20213846CE
:101A8000FEF73BFFF8BD20210748FEF738BF2021B5
:101A90000548FEF732BF20210448FEF730BF202161
:101AA0000248FEF72ABF0000000C01400018014068
:101AB00010B5FEF7A5FF002010BD08B501210520D7
:101AC000FFF7F3F80120ADF8000028208DF803009F
:101AD00069461348FEF7A3FE01210807FFF7EEF859
:101AE0000120FEF79AFFFEF7B1FF08BD10B50121F6
:101AF0000807FFF7E3F801210846FEF792FF10BD43
:101B0000012080F3138807480168074A01F4E06167
:101B100011430160BFF3408FFEE7002070470000D3
:101B2000000801400CED00E00400FA0510B50121A9
:101B30004020FFF7B1F8BDE81040FEF7BBBB10B581
:101B4000FEF7BCFB0446FEF7B5FB204610BD10B502
:101B5000FEF7B8FB0446FEF7ADFB204610BD0000C3
:101B600019480068704710B5FEF794FF4FF48034B1
:101B70002046FEF7A8FFFEF7D3FF012822D1102050
:101B8000FEF7C8FB0220FEF7B5FB0020FFF700F8C8
:101B90000020FFF70BF8A011FFF701F84FF4E01158
:101BA0002046FEF7DEFF0120FEF7E3FF3920FEF7B7
:101BB000A2FF0028FAD00220FEF7DEFFFEF7E3FFC7
:101BC0000828FBD110BD00001400002010B5022031
:101BD000FEF790FB0020FEF794FB002010BD10B52F
:101BE0000020FFF7F3FF08B1012010BDFEF788FDCC
:101BF000002801DB042010BD002010BD2DE9F041BC
:101C00001F4614460E004FF000684FF0000502D04A
:101C1000E019C02802D30420BDE8F0810020FFF7BE
:101C2000D5FF08B10320F7E7603408EB44207902C0
:101C300004E000BF10F8012B72556D1C8D42F9D3E2
:101C40000020E9E72DE9FF5F1D4614465FEA010B1E
:101C50004FF000674FF0000602D06019C02803D390
:101C6000042004B0BDE8F09F0020FFF7AFFF08B1EB
:101C70000320F6E7FEF744FD002801DB0220F0E731
:101C8000603404EB050AAAF1010007EB442940F394
:101C9000000004F0010700F10108FEF744FB37B132
:101CA0000123A4F1610242490098FFF7A7FF4FF416
:101CB0000074B8F1000F06D0AAF1600201233D497B
:101CC0000098FFF79BFFA246AE420CD809EB4620D6
:101CD0000FB1514600E00021401AFEF75FFB0428D7
:101CE00037D1B61CF0E76E027942314D09EB412441
:101CF00077B10027E819C2780168204662F31F61B6
:101D0000FEF7EBFB042824D1241D3F1D5745F1D3DA
:101D100000270CE00BEB0700C2780168204662F355
:101D20001F61FEF7DAFB042813D1241D3F1DB742C3
:101D3000F0D3B8F1000F12D056464FF48067A819BF
:101D4000C2780168204662F31F61FEF7C6FB0428D3
:101D500001D0012085E7241D361DBE42EFD3FEF7DA
:101D6000EEFA00207DE770B514460D460020FFF71F
:101D70002DFF08B1032070BD9DB1012D07D0022DAC
:101D800008D0032D0AD0042D0BD0042070BD54B10F
:101D9000C02005E03CB14FF4007001E01CB102200E
:101DA0002060002070BD012070BD0348008870478E
:101DB000F4070020F4090020E0F7FF1F10B51820F9
:101DC00000F0B2F9040004D000202060201D00F0D3
:101DD00085FA204610BD2DE9F04100278846040011
:101DE00005D140F21222B2A1B8A005F00EFF5FEAC1
:101DF000186005D040F21322ADA1B4A005F005FF94
:101E0000261D04F10C0501F01FFC2168F06841EA71
:101E10000801216018E000BFD0E9001601F07F4200
:101E20005301236821F07F4102D40B4203D10AE021
:101E300031EA030307D1D20100D50F43216841F0F5
:101E4000007101F061FF3046A842E5D12068B84337
:101E5000206001F06BFB2068BDE8F0812DE9F041C6
:101E600004461F4615468846100E04D0C62290A18F
:101E700096A005F0CAFE25B9C7228DA193A005F052
:101E8000C4FE01F0D8FF28B927B1CA2288A18FA0CB
:101E900005F0BBFE01F0D8FB204641462668FFF75F
:101EA0009AFF46EA080635EA060008D06FB145F009
:101EB000A0613A46201D01F0AEFE002606E0206833
:101EC000A843206001F032FB1EE0266801F02EFBE3
:101ED000D7B138B981494FF080500860BFF34F8FB8
:101EE000BFF36F8F02F0A2F8064680010AD400F01B
:101EF000EAFA266835EA060002D126EA05002060E3
:101F000000F0FBFA26F07F463046A5E72DE9F047C2
:101F10009A46DDF8209090460D4604004FF00007E9
:101F200005D14FF4A07262A168A005F06EFE280EE4
:101F300005D040F241125EA164A005F066FE2DB905
:101F40004FF4A1725AA161A005F05FFE01F073FF8A
:101F500040B9B9F1000F05D040F2451254A15BA081
:101F600005F053FE01F070FB2668524629463046C4
:101F700000F093F830B1B8F1000F1AD02068A843F0
:101F8000206016E0B9F1000F13D0B8F1000F01D0B6
:101F90004FF08077BAF1000F01D047F0806745EA33
:101FA00007014A46201D01F036FE01F0BFFA18B1C4
:101FB0000AE001F0BBFA1FE048494FF0805008608A
:101FC000BFF34F8FBFF36F8F02F030F806468001EA
:101FD00010D400F078FA266852462946304600F0C0
:101FE0005CF828B1B8F1000F02D02068A843206047
:101FF00000F083FA26F07F463046BDE8F08770B5E2
:102000000E46040005D14FF4EA7229A12FA005F075
:10201000FCFD300E05D040F2D51225A12BA005F015
:10202000F4FD00F050FA256825EA0600206000F073
:1020300064FA284670BD5022EFF3118182F31188B3
:10204000BFF34F8FBFF36F8F006881F31188704724
:102050002DE9F0410546041D01F0F6FA04F10806E9
:1020600040F272274FF000780BE0E068B04204D1F4
:102070003A460FA115A005F0C8FD4146E06801F001
:1020800043FE20680028F0D1284600F0B7F8BDE8EC
:10209000F04101F04BBA9EE6B1E70346002012B1D1
:1020A000994302D070470B42FCD0012070470000DA
:1020B0002E2E5C6F735C636F72655C6576656E7403
:1020C0005F67726F7570732E630000004572726FE8
:1020D000723A25732C25640D0A00000004ED00E01F
:1020E00030B5734900E011460A688242FBD34B6861
:1020F0005C18844203D1406818444860084643682D
:102100001C18944209D16A4C103C2468A24209D0A0
:1021100052681A4442600A6812680260814200D024
:10212000086030BD0460F9E72DE9F041054600275D
:1021300001F08AFA5E4E103E306808B900F097F858
:10214000F06805424DD1002D4BD0083568070BD003
:1021500005F00700C0F108000544680704D0952287
:1021600054A159A005F051FDDDB37068854238D8FF
:102170004F4801460C6801E020460C466168A942C0
:1021800002D221680029F7D13168B0468C4228D0AC
:1021900007682168016060680837401B10280ED965
:1021A0006619700704D0C22242A147A005F02DFD98
:1021B0006068401B706030466560FFF791FF6268A1
:1021C000D8F804104046891AC8F80410D8F8083026
:1021D000994200D28160D8F80C0002430020C4E983
:1021E000000201F0A3F9780705D04FF4817231A104
:1021F00035A005F00AFD3846BDE8F08170B500282D
:102200002BD02B4DA0F10804103D6068E96808420E
:1022100005D14FF48B7227A12BA005F0F6FC2068A6
:1022200028B140F2171223A127A005F0EEFC616847
:10223000E868014211D02268002A0ED18143616012
:1022400001F002FA60686968084468602046FFF798
:1022500047FFBDE8704001F069B970BD14481038FF
:1022600040687047124810388068704770471A48B5
:102270004FF43051420706D0C01D174920F0070027
:10228000411AC1F530510A4A00230144C2E9000352
:102290000839103A21F0070111604B600B600B1AEE
:1022A000C0E9001393604FF000405360D060704766
:1022B000400000202E2E5C6F735C636F72655C685B
:1022C0006561705F342E63004572726F723A2573D8
:1022D0002C25640D0A000000F40B002000F1080119
:1022E0004FF0FF32C0E90112C160016100210160BD
:1022F000704700210161704742684A6093688B60B3
:1023000093685960916008610168491C01607047D9
:1023100030B50B685A1C02D000F1080202E00269D5
:1023200004E02246546825689D42FAD953684B6000
:1023300099608A60516008610168491C016030BD84
:10234000D0E9013201699A60D0E901235A604A68F4
:10235000824201D182684A60002202610868401E00
:10236000086008687047000010B54FF4E13420465B
:10237000FEF728FF2046FEF77AFF2046FEF7C9FF4A
:10238000FFF750FBFFF7D2FB0548006805A105F0F9
:102390006BFC02F0E8FB01F0C4FB002010BD000064
:1023A00028000020627370207365747570210D0A17
:1023B0000000000075484068401C04D0CA2274A187
:1023C00078A005F022FC502080F31188BFF34F8FD6
:1023D000BFF36F8FFEE710B5031F4FF080741C60D2
:1023E0001B1F21F001011960191F724B0B6014397A
:1023F00040380A6010BD4FF0E0200021016181618A
:102400006D494FF47A720968B1FBF2F1491E4161DE
:102410000721016170477CB5684D28780190FF2045
:10242000287028788DF800009DF800009DF80010B5
:1024300000F0F000884205D04FF48A7254A159A0F0
:1024400005F0E3FB9DF80000504C00F050002070B8
:102450000720A06006E000BF9DF8001049008DF83D
:102460000010401E9DF800100906F5D4A060032856
:1024700005D04FF4987246A14AA005F0C6FB207A19
:10248000000200F4E060A060019828704C480168E8
:1024900041F470010160016841F070410160FFF793
:1024A000AAFF00206060FDF761FE00207CBD374878
:1024B0004068B0F57A7F05D04FF4AB7234A139A0F3
:1024C00005F0A3BB7047502080F31188BFF34F8FF6
:1024D000BFF36F8F2D494868401C486001280BD11D
:1024E00037481C38006810F0FF0F05D04FF4B37266
:1024F00027A12CA005F089BB704710B5234C60685C
:1025000028B940F26D1222A126A005F07EFB60687A
:10251000401E606001D180F3118810BD10B55020BD
:1025200080F31188BFF34F8FBFF36F8F00F0A1FFCF
:1025300020B123494FF080501C390860002080F3FF
:10254000118810BD10B5FDF747FE104C10280CD3B4
:1025500000F1E02090F8F0032178884205D240F2A3
:10256000A5220BA10FA005F050FB154814380068F8
:10257000A16800F4E060884207D9BDE8104040F24D
:10258000B52203A107A005F040BB10BD4800002004
:102590002E2E5C6F735C636F72655C706F72742E4D
:1025A000630000004572726F723A25732C25640D2A
:1025B0000A000000B52300081400002000E400E039
:1025C00020ED00E070B50D46040005D140F2031285
:1025D000F2A1F7A005F019FBFFF775FFD4E90F2072
:1025E000216802FB0011A1600021A16321686160E4
:1025F0000A46D4E90F01401E00FB0121E16021469B
:102600004FF0FF3001F8440F487004F110004DB155
:10261000FFF764FE04F12400FFF760FEFFF76DFF93
:10262000012070BD21690029F8D001F038FB002895
:10263000F4D0E3494FF080500860BFF34F8FBFF3F1
:102640006F8FEBE770B50E46050005D14FF4BB72F6
:10265000D2A1D7A005F0D9FAA6B105FB06F04C30FF
:10266000FFF762FD04000CD004F14C0066B120605D
:10267000C4E90F5620460121FFF7A4FF00212046A0
:10268000A16470BD0020EAE72460F1E72DE9F04184
:10269000856B174604460026026C82B1C7B1E0681C
:1026A00006F0F0FEE168206C091AE16022689142B0
:1026B00002D2A168081AE060022F16D017E0206845
:1026C000A8B9A06801F009FC06460020A0600EE051
:1026D000606806F0D7FE216C606808446060A168FD
:1026E000884204D32068606001E005B16D1E6D1C56
:1026F000A5633046BDE8F0812DE9F3410F4600980F
:102700000026846C2CB940F64532A4A1A8A005F09F
:102710007CFAA06BE16B884205D340F646329FA15C
:10272000A3A005F072FAA06BE16B88420CD294F979
:1027300045503A4669462046FFF7A8FF0646681C02
:1027400005D06D1C84F845503046BDE8FC81606AB8
:102750000028F9D004F1240001F0A1FA0028F3D0F8
:102760000126F1E72DE9F0410446FFF7ACFE94F9AC
:10277000455004F1240610E0A06C20B10021204651
:10278000FFF7BAFF04E0606A48B1304601F087FA0B
:1027900008B101F047FB6D1E6DB2002DECDC4FF06F
:1027A000FF3684F84560FFF7A8FEFFF78CFE94F92A
:1027B000445004F1100709E0206948B1384601F09F
:1027C0006EFA08B101F02EFB6D1E6DB2002DF3DC28
:1027D00084F84460BDE8F041FFF78FBE2DE9FF4764
:1027E00082B01D468A464FF00008040005D140F231
:1027F000F1226AA16EA005F008FABAF1000F07D124
:10280000206C28B140F2F22264A169A005F0FDF924
:10281000022D08D1E06B012805D040F2F3225FA120
:1028200063A005F0F2F901F006FB38B9049828B16D
:1028300040F2F62259A15EA005F0E7F9604F4FF093
:1028400000094FF0805600BFFFF73DFEA06BE16B23
:10285000884207D3022D05D0049840B3B8F1000F89
:1028600028D02CE0D4F838802A4651462046FFF77D
:102870000DFFA16C49B1022D02D1B8F1000F10D1AA
:1028800029462046FFF738FF05E0616A19B104F1D7
:10289000240001F004FA20B13E60BFF34F8FBFF374
:1028A0006F8FFFF72AFE012006B0BDE8F087FFF723
:1028B00024FE22E0684601F076FA4FF00108FFF7A7
:1028C0001CFE00F0C1FEFFF7FEFD94F94400401C21
:1028D00001D184F8449094F94500401C01D184F85A
:1028E0004590FFF70AFE04A9684601F063FA30B18B
:1028F0002046FFF737FF00F019FE0020D4E7FFF76E
:10290000E2FDA06BE16B884213D1FFF7F6FD04F105
:102910001000049901F067F92046FFF723FF00F04B
:1029200005FE002890D13E60BFF34F8FBFF36F8F3D
:102930008AE7FFF7E2FD2046FFF714FF00F0F6FDFF
:1029400082E710B5024600210120FFF77BFE04005C
:1029500007D00021816001600B460A46C160FFF785
:102960003DFF204610BD10B5040005D140F25922AC
:102970000AA10FA005F049F901F059FAA1688842AF
:1029800020D1E068401EE06005D100231A461946B8
:102990002046FFF723FF012010BD00002E2E5C6FA4
:1029A000735C636F72655C71756575652E6300009D
:1029B0004572726F723A25732C25640D0A0000006F
:1029C00004ED00E00020E7E72DE9F343002683B0A3
:1029D0000400354607D140F29152AFF24001AFF208
:1029E000300005F012F9206C38B140F29552AFF288
:1029F0005401AFF2440005F008F901F01CFA48B99F
:102A0000049838B140F29A52AFF27001AFF2600010
:102A100005F0FBF84FF000094FF08057DFF8988879
:102A2000FFF751FDA06BC8B1401EA063206810B92C
:102A300001F006FBA060206950B104F1100001F024
:102A40002EF928B1C8F80070BFF34F8FBFF36F8F16
:102A5000FFF753FD012005B0BDE8F083049808B1ED
:102A600066B10FE03DB140F2E152AFF2D001AFF2FA
:102A7000C00005F0CAF8FFF740FD5DE0684601F0D0
:102A800092F90126FFF739FD00F0DEFDFFF71BFD8F
:102A900094F94400401C01D184F8449094F9450015
:102AA000401C01D184F84590FFF727FD04A9684632
:102AB00001F080F90028204612D0FFF753FE00F005
:102AC00035FD204600F0ECFB0028A9D09DB3FFF7B0
:102AD000FAFC606A50B3206B0068C0F1200126E068
:102AE00000F0DEFBE0B1206838B9FFF7ECFCA0682D
:102AF00001F0ADF90546FFF700FD04F1240004994B
:102B000001F071F82046FFF72DFE00F00FFD0028C0
:102B100086D1C8F80070BFF34F8FBFF36F8F7FE788
:102B20002046FFF71FFE00F001FD79E70021A068B5
:102B300001F029FA9FE7FFE700208CE770B50D460A
:102B4000040007D14FF42472AFF2B011AFF2A0101D
:102B500005F05BF801F06BF9A168884204D1E068E8
:102B6000401CE060012070BD29462046FFF72CFF85
:102B70000028F8D0E168491CE16070BD70B50C46D2
:102B8000050007D140F2D522AFF2F011AFF2E0100C
:102B900005F03BF8AC4207D940F2D622AFF204214F
:102BA000AFF2F41005F031F8022200212846FFF7B9
:102BB00049FD002800D0846370BD2DE9F047984698
:102BC00017468946040007D140F2C332AFF23421E0
:102BD000AFF2242005F019F8B9F1000F09D1206CEB
:102BE00038B14FF47172AFF24C21AFF23C2005F0D6
:102BF0000CF8B8F1020F0AD1E06B012807D040F2BF
:102C0000C532AFF26821AFF2582004F0FEFFFFF7A3
:102C100099FC5020EFF3118680F31188BFF34F8F9A
:102C2000BFF36F8FA06BE16B884206D3B8F1020F40
:102C300003D0002086F3118837E694F945504246C8
:102C400049462046FFF722FD681C04D06D1C84F81D
:102C500045500120EEE7A06C012520B141462046F9
:102C6000FFF74AFD06E0606A0028F2D004F1240074
:102C700001F015F80028ECD0002FEAD03D60E8E71D
:102C80002DE9F0410E46040007D14FF48C62AFF2FB
:102C9000F421AFF2E42004F0B8FF206C38B140F228
:102CA0006442AFF20831AFF2F82004F0AEFF2068C2
:102CB00048B9A06838B140F26942AFF22031AFF2B2
:102CC000103004F0A2FFFFF73DFC5020EFF3118518
:102CD00080F31188BFF34F8FBFF36F8FA16BE06B51
:102CE00088421FD994F94500491CA163411C04D0B6
:102CF000401C84F84500012015E0A06C012720B19C
:102D000000212046FFF7F8FC06E0606A0028F2D0B8
:102D100004F1240000F0C3FF0028ECD0002EEAD01C
:102D20003760E8E7002085F31188E3E430B4026CF3
:102D30000B46002A0BD0C1681144C1608468A142CF
:102D400001D30168C16030BC184606F09BBB30BCA3
:102D500070472DE9F747002683B08A46040007D163
:102D60004FF4A062AFF2CC31AFF2BC3004F04DFFB3
:102D7000BAF1000F09D1206C38B140F20452AFF221
:102D8000E431AFF2D43004F040FF01F054F848B918
:102D9000059838B140F20952AFF20041AFF2F0307D
:102DA00004F033FF4FF000094FF08057DFF808853B
:102DB000FFF789FBA56BB5B151462046FFF7B6FF7B
:102DC0006D1EA563206950B104F1100000F067FF8B
:102DD00028B1C8F80070BFF34F8FBFF36F8FFFF7B4
:102DE0008CFB012060E5059808B11EB106E0FFF7F5
:102DF00084FB27E0684600F0D6FF0126FFF77DFB45
:102E000000F022FCFFF75FFB94F94400401C01D165
:102E100084F8449094F94500401C01D184F8459011
:102E2000FFF76BFB05A9684600F0C4FF00282046A9
:102E30000AD0FFF797FC00F079FB204600F030FA4B
:102E40000028B5D000202FE500F02AFA90B104F157
:102E50002400059900F0C7FE2046FFF783FC00F030
:102E600065FB0028A4D1C8F80070BFF34F8FBFF3F3
:102E70006F8F9DE72046FFF775FC00F057FB97E743
:102E80002DE9F743002582B08946040007D14FF4AD
:102E9000CD62AFF2F841AFF2E84004F0B6FEB9F10E
:102EA000000F09D1206C38B140F26C62AFF21451BE
:102EB000AFF2045004F0A9FE00F0BDFF48B9049839
:102EC00038B140F27162AFF22C51AFF21C5004F0F5
:102ED0009CFE4FF000084FF08056F74FFFF7F3FAD3
:102EE000A06BA8B149462046E568FFF71FFFE560E3
:102EF000606A48B104F1240000F0D1FE20B13E60C8
:102F0000BFF34F8FBFF36F8FFFF7F7FA0120A2E5F2
:102F1000049808B11DB106E0FFF7EFFA27E0684614
:102F200000F041FF0125FFF7E8FA00F08DFBFFF705
:102F3000CAFA94F94400401C01D184F8448094F901
:102F40004500401C01D184F84580FFF7D6FA04A95A
:102F5000684600F02FFF002820460AD0FFF702FC49
:102F600000F0E4FA204600F09BF90028B6D00020DB
:102F700071E500F095F988B104F12400049900F09E
:102F800032FE2046FFF7EEFB00F0D0FA0028A5D174
:102F90003E60BFF34F8FBFF36F8F9FE72046FFF771
:102FA000E1FB00F0C3FA99E72DE9F0479046894626
:102FB000040007D140F2FB62AFF22061AFF2106073
:102FC00004F023FEB9F1000F09D1206C38B140F2B2
:102FD000FC62AFF23861AFF2286004F016FEFFF732
:102FE000B1FA5020EFF3118680F31188BFF34F8FB1
:102FF000BFF36F8FA76BF7B194F944504946204651
:10300000FFF794FE7F1EA763681C04D06D1C84F834
:103010004450012010E020690028FAD004F110008B
:1030200000F03DFE0028F4D0B8F1000FF1D00121EE
:10303000C8F80010EDE7002086F3118835E42DE98B
:10304000F0410E46040007D140F25772AFF2B4616E
:10305000AFF2A46004F0D9FD4EB9206C48B14FF432
:10306000EB62AFF2C861AFF2B86004F0CEFD206C45
:1030700038B940F25972AFF2DC61AFF2CC6004F0C3
:10308000C4FDFFF75FFA5020EFF3118580F311883C
:10309000BFF34F8FBFF36F8FA06B30B13146204627
:1030A000E768FFF743FE0120E76085F311883CE6FF
:1030B00010B5040007D140F28A72AFF22071AFF26E
:1030C000107004F0A2FDFFF7FEF9A46BFFF715FAEC
:1030D000204661E410B5040007D140F29B72AFF2C4
:1030E0004471AFF2347004F090FDFFF7ECF9D4E9CD
:1030F0000E10441AFFF701FA20464DE410B5040003
:1031000007D140F2AC72AFF26C71AFF25C7004F0B8
:103110007CFDA06B40E4694A002100BF02EBC103C3
:103120005B68834206D1002042F8310002EBC10106
:1031300048607047491C0A29F0D3704710B5040055
:1031400007D140F2B772AFF2AC71AFF29C7004F0ED
:103150005CFD2046FFF7DFFF2046BDE81040FFF78B
:103160004DB810B5040007D140F60912AFF2D47182
:10317000AFF2C47004F049FDA06B08B100200BE46D
:10318000012009E410B5040007D140F63112AFF276
:10319000F471AFF2E47004F038FDA06BE16B88428B
:1031A00001D101200FE400200DE410B5434B0022B3
:1031B00053F832401CB1521C0A2AF9D303E443F8F5
:1031C000321003EBC201486083E7034610B50020CC
:1031D0003A4A014602EBC10464689C4202D152F8AB
:1031E000310076E7491C0A29F4D372E770B5154619
:1031F0000E460446FFF767F994F944100020491C75
:1032000001D184F8440094F94510491C01D184F897
:103210004500FFF772F9A06B28B92A46314604F140
:10322000240000F020FD2046BDE87040FFF79ABA68
:1032300000220421FFF706BA70B50D460446FFF7D9
:1032400042F9A06C08B9A06B08B1002401E0A564A4
:103250000124FFF752F9204670BD10B50446806C7A
:10326000884201D1A06B08B1002032E7FFF72BF9AB
:103270000020A064FFF741F901202AE708B50022E9
:1032800000920A466946FFF764FD009808BD08B53C
:1032900000210A4600916946FFF786FE009808BDA6
:1032A00010B50446FFF70FF9A06B48B15FF00004BA
:1032B000FFF723F920460CE704ED00E0F437002087
:1032C0000124F5E72DE9F0410546FFF7FCF8F84C3D
:1032D000A068401CA0602068F64F10B1606930B350
:1032E0002BE02560A068012827D1002606EB860088
:1032F00007EB8000FEF7F2FF761C202EF6D3EE4897
:10330000FEF7ECFFEC481430FEF7E8FFEA482830FF
:10331000FEF7E4FFE8483C30FEF7E0FFE6485030B7
:10332000FEF7DCFFE44860631430A06305E020682A
:10333000E96AC06A884200D82560606A401C606201
:10334000E96A0120226988401043206101EB810075
:1033500007EB8000291DFEF7CFFFFFF7CEF860696D
:1033600000280CD02068E96AC06A884207D2D34995
:103370004FF080500860BFF34F8FBFF36F8FBDE8F1
:10338000F0812DE9FF5F8346DDE90E8799461646F9
:103390008A469000FEF7C8FE05001AD05420FEF7BA
:1033A000C3FE040012D025630021CDE90241CDE91E
:1033B00000874B4632465146584601F015F82046E4
:1033C000FFF780FF012004B0BDE8F09F2846FEF71C
:1033D00015FF4FF0FF30F6E770B50546FFF773F8BD
:1033E000B34C05B92568281DFEF7AAFF58B9E86A4D
:1033F000B04A00EB800152F8211021B9012181402F
:10340000206988432061A86A18B105F11800FEF709
:1034100097FF606A401C60622068854208D1A64818
:10342000291D3C30FEF768FF6068401C606007E0C3
:10343000A068401EA060284601F033F801F024F88F
:10344000FFF75BF86069002812D0206885420FD131
:10345000206B28B140F2D24299A19EA004F0D5FB86
:1034600096494FF080500860BFF34F8FBFF36F8FC6
:1034700070BD2DE9F0418E4C0027206B38B1A0695A
:10348000401CA061E06900B10127384677E7E66893
:10349000761CE66011D1606B006828B140F67F228F
:1034A00087A18CA004F0B1FB606BA16B6163A0638A
:1034B000206A401C206200F0E7FFA06ADFF8F48178
:1034C000864209D3606B006880B1606BC068C568D4
:1034D000686886420DD2A0622068C06A00EB800155
:1034E00058F821000128CDD90127CBE74FF0FF3054
:1034F000F1E7281DFEF724FFA86A18B105F11800AE
:10350000FEF71EFFE86A0121226981401143216113
:1035100000EB800108EB8100291DFEF7EDFEE86A53
:103520002168C96A8842CDD30127CBE72DE9F0474E
:103530005F4C00252E46206B28B940F6850260A11D
:1035400064A004F062FBFEF7BEFF206B401E206308
:10355000206BE0BBA168584F28370120B9B3DFF8D2
:10356000549180463868E8B1F868C56805F11800DC
:10357000FEF7E6FE281DFEF7E3FEE86A226908FA78
:1035800000F11143216100EB800109EB8100291D4D
:10359000FEF7B2FEE86A2168C96A8842E2D3C4F83D
:1035A0001C80DFE70DB100F06FFFA56945B147460C
:1035B000FFF75FFF00B1E7616D1EF9D10020A06148
:1035C000E06920B13D4901263007086000E003E0D2
:1035D000BFF34F8FBFF36F8FFEF78FFF3046BDE80D
:1035E000F0872DE9F041324C0F460546E668206829
:1035F000001DFEF7A5FE38B9206890F82C100120B8
:103600008840216981432161681C08D13FB121684C
:10361000BDE8F04128485030091DFEF76DBE206816
:103620003544B5424560216805D2A06BBDE8F04144
:10363000091DFEF76DBE606B091DFEF769FEA06AED
:10364000854200D2A5629AE61948016B491C0163C4
:10365000704770B50D46040005D140F2E64218A14E
:103660001CA004F0D2FA2DB940F2E74214A119A02F
:1036700004F0CBFA0E4E306B28B14FF49D6210A1CE
:1036800014A004F0C2FAFFF7DFFFF26823685919AB
:10369000934204D98B4225D9914202D822E08B4231
:1036A000FAD9881A21600021FFF79BFF1BE0000078
:1036B0005400002044380020C43A002004ED00E00B
:1036C0002E2E5C6F735C636F72655C7461736B73D9
:1036D0002E6300004572726F723A25732C25640DBB
:1036E0000A0000002160FFF721FF002807D1F949F7
:1036F0004FF080500860BFF34F8FBFF36F8F70BDE6
:1037000010B5040014D0F448006B38B140F23C52BC
:10371000AFF25401AFF2440004F077FAFFF794FFE0
:1037200000212046FFF75DFFFFF700FF002807D1CB
:10373000E8494FF080500860BFF34F8FBFF36F8FA1
:1037400010BD2DE9F041040007D14FF4AD62AFF296
:103750009001AFF2800004F058FADF4E30688442E6
:1037600001D100200BE6FEF7AEFE6569776BB66B04
:10377000FEF7C3FEBD4201D0B54201D10220FEE5F5
:10378000D648854208D1A06A0028F7D194F85000A5
:103790000128F3D00320F2E5D0481438854202D046
:1037A0000DB10120EBE50420E9E510B50446FEF774
:1037B0008AFE0CB9C8480468E46AFEF79EFE2046FB
:1037C00010BD10B50446FEF7BDFE5020EFF3118189
:1037D00080F31188BFF34F8FBFF36F8F0CB9BE48D2
:1037E0000468E06A81F3118810BD2DE9F0410027DB
:1037F0000E460446202908D340F20262AFF240117F
:10380000AFF2301004F001FA1F26FEF75CFEB24D55
:1038100004B92C68606CB0423FD02968864206D952
:103820008C4207D02968C96AB14202D902E08C42B1
:1038300000D10127E16A8846884200D1E6626664C9
:10384000A069002802DBC6F12000A061A44E08EBAD
:103850008800616906EB8000814215D1201DFEF7CA
:103860006FFD012120B92A6901FA08F082432A611B
:10387000E06A2A6981401143296100EB800006EB70
:103880008000211DFEF738FD3FB192494FF0805076
:103890000860BFF34F8FBFF36F8FBDE8F041FEF7B5
:1038A0002CBE70B58C4C206B10B10120E06170BD56
:1038B0000020E06120698A4EB0FA80F0C0F11F005C
:1038C00000EB800556F8250038B940F6B732AFF264
:1038D0001021AFF2002004F098F906EB850000F10A
:1038E0000802416849684160914201D149684160DC
:1038F000C868206070BD70B50446FEF7E4FD764DE3
:1039000004B92C68201DFEF71BFD58B9E06A744A03
:1039100000EB800152F8211021B901218140286972
:1039200088432861A06A18B104F11800FEF708FD69
:10393000211D6A48FEF7E0FC94F85000002601289B
:1039400001D184F85060FEF7D8FD686928B1FEF710
:10395000BAFD00F099FDFEF7D0FD2868844213D12E
:10396000686990B1286B38B140F2E462AFF2B021DF
:10397000AFF2A02004F049F956494FF0805008609A
:10398000BFF34F8FBFF36F8F70BD54480068A968B5
:10399000884201D12E6070BDBDE8704081E770B5EE
:1039A0000025040007D140F20E72AFF2EC21AFF215
:1039B000DC2004F02AF949496069884205D1A06AEF
:1039C0002839884201D000B90125284670BD70B55C
:1039D000040007D14FF4E762AFF21C31AFF20C30B4
:1039E00004F013F93C4D2868844229D0002C27D0DC
:1039F000FEF769FD2046FFF7D2FFE8B1201DFEF774
:103A00009FFCE06A01212A69814011432961344900
:103A100000EB800001EB8000211DFEF76DFCE06AE9
:103A20002968C96A884207D32A494FF08050086044
:103A3000BFF34F8FBFF36F8FBDE87040FEF75DBDE2
:103A400070BD2DE9F0410027040007D140F26F72EC
:103A5000AFF29431AFF2843004F0D7F8FEF772FD84
:103A60005020EFF3118580F31188BFF34F8FBFF320
:103A70006F8F2046FFF793FFF0B1174E306B20B1E8
:103A8000164804F11801283814E0E06A3168C96A60
:103A9000884200D30127201DFEF752FCE16A012075
:103AA000326988401043306101EB81000C4901EB21
:103AB0008000211DFEF720FC85F3118838465EE466
:103AC000064E054C143E064F4FF08058DFF8049028
:103AD0001AE0000004ED00E054000020143B002038
:103AE00044380020FEF7EFFCF068C568281DFEF79B
:103AF00027FCA068401EA0606068401E6060FEF762
:103B0000FCFC284600F0CDFC60680028EAD138684B
:103B10000128F9D9C9F80080BFF34F8FBFF36F8F29
:103B2000F2E71CB5FE480024CDE900402346802280
:103B3000FCA1FE48FFF725FC012803D100F0CBFDD6
:103B400001280CD0401C1DD14FF40262AFF290410D
:103B5000AFF2804002B0BDE8104004F056B85020EB
:103B600080F31188BFF34F8FBFF36F8FEC484FF096
:103B7000FF312C38816201214161C460BDE81C40E5
:103B8000FEF749BC1CBD502080F31188BFF34F8F56
:103B9000BFF36F8FE24900202C394861FEF787BCE4
:103BA000DF482C38C068704710B5FEF7CBFCDC4806
:103BB0002C38C06810BDDA482C388068704710B5C2
:103BC00010B1044624B10BE0D5482C380468F9E75D
:103BD00040F62912AFF21851AFF2085004F015F870
:103BE00004F1340010BD70B50D46040007D140F655
:103BF000CE32AFF23451AFF2245004F006F8C84888
:103C00002C38016820461831FEF782FB2846BDE8B3
:103C100070400121E5E42DE9F04116460F4605000C
:103C200007D140F6DF32AFF26851AFF2585003F0DF
:103C3000ECFFBB4C2C3C206B38B940F6E332AFF2C2
:103C40008051AFF2705003F0E0FF216847F0004070
:103C50008861216828461831FEF74EFB3046BDE8E2
:103C6000F0410121BDE470B514460D46060007D1B0
:103C700040F6F932AFF2B851AFF2A85003F0C5FFE9
:103C8000A7482C38016830461831FEF735FB0CB1D7
:103C90004FF0FF3521462846BDE87040A1E42DE9EC
:103CA000F041C068C4683CB940F62942AFF2F05117
:103CB000AFF2E05003F0A9FF04F118000746FEF749
:103CC0003FFB974D2C3D286B012658B1394698484B
:103CD000FEF712FBE06A2968C96A884212D90120FE
:103CE000EE61B0E4201DFEF72BFBE16A2A6906FABB
:103CF00001F01043286101EB81008E4901EB800047
:103D0000211DE5E700209EE470B5854D06462C3D5B
:103D10000C46286B38B94FF44662AFF25C61AFF2E3
:103D20004C6003F072FF44F000403060F4683CB92E
:103D300040F66842AFF27861AFF2686003F065FF69
:103D40003046FEF7FDFA201DFEF7FAFAE16A012679
:103D50002A6906FA01F01043286101EB81007549D8
:103D600001EB8000211DFEF7C7FAE06A2968C96AE5
:103D7000884200D9EE6170BD10B5040007D140F64D
:103D80007E42AFF2C461AFF2B46003F03EFFFEF7D3
:103D90009AFB63482C38016A2160C0686060BDE806
:103DA0001040FEF7AABB5E492C390A6A0260C96856
:103DB000416070472DE9F0410C46050007D140F6FF
:103DC0009442AFF20471AFF2F46003F01EFF3CB90D
:103DD00040F69542AFF21871AFF2087003F015FF8C
:103DE000FEF771FB4E4E2C3EF2686B682068D11ACC
:103DF000471C07D02F68366AB74208D0934206D8CE
:103E0000012400E00024FEF778FB20461BE48842F2
:103E100005D9401A20602846FFF7C5FFF2E70020C9
:103E20002060EDE73E4901202C39C86170473C48CD
:103E30002C38006870473A482C38416919B1006B3A
:103E400018B100207047012070470220704770B5FC
:103E500004004FF0000039D0314DE16A2C3D2A6852
:103E6000D26A914233D2A069002804DB2868C06A74
:103E7000C0F12000A0612F4E01EB8101606906EBCB
:103E8000810188421ED1201DFEF75AFA012150B946
:103E9000E06A00EB800256F8222022B92A6901FA72
:103EA00000F082432A612868C06AE0622A69814082
:103EB0001143296100EB800006EB8000211DFEF715
:103EC0001BFA02E02868C06AE062012070BD616CE4
:103ED0002A68D26A9142F8D370BD70B504004FF0E1
:103EE00000064ED00E4D2C3D2868844207D040F687
:103EF000D172AFF63401AFF6240003F086FEA06C59
:103F000038B940F6D272AFF64801AFF6380003F088
:103F10007CFEA06C401EA064626CE16A91420BE0E2
:103F20008000002049444C4500000000C13A0008D0
:103F3000EC3A00204438002023D010BB201DFEF7AF
:103F4000FFF9FE4A012150B9E06A00EB800352F804
:103F5000233023B92B6901FA00F083432B61606C95
:103F6000E062C0F12000A061E06A2B698140194342
:103F7000296100EB800002EB8000211DFEF7BCF9F7
:103F80000126304670BD70B50D4604004DD0A06CC2
:103F900038B94FF48152AFF6D801AFF6C80003F03C
:103FA00034FE606CA84200D30546E06AA8423CD0CB
:103FB000A06C012839D1E24E3068844207D141F229
:103FC0003B02AFF60411AFF6F40003F01EFEE06A08
:103FD000E562A169002902DBC5F12001A161D74D8D
:103FE00000EB8000616905EB800081421DD1201D3E
:103FF000FEF7A6F9012150B9E06A00EB800255F8FE
:10400000222022B9326901FA00F082433261E06A6B
:10401000326981401143316100EB800005EB800083
:10402000211DBDE87040FEF767B970BDC44908683E
:104030000A688069D26A0968C2F120028A61704701
:10404000BF49086818B10868826C521C826408680D
:10405000704770B50C460646FEF735FAB84D28682D
:10406000C06C80B92968012081F850005CB1012141
:104070002046FFF7B6FAB3494FF080500860BFF30F
:104080004F8FBFF36F8FFEF738FAFEF71CFA2868E0
:10409000C46C002034B116B12968C86402E02A68F3
:1040A000611ED164296881F85000FEF726FA204687
:1040B00070BD2DE9F0411E46154688460746FEF7BD
:1040C00002FA9F4C206890F85000022814D0206813
:1040D000C16CB943C1642168012081F850005EB110
:1040E00001213046FFF77DFA96494FF08050086075
:1040F000BFF34F8FBFF36F8FFEF7FFF9FEF7E3F9C2
:1041000015B12068C06C2860206890F85000022823
:1041100001D0002505E02068C16C21EA0801C164D6
:1041200001252168002081F85000FEF7E6F92846B5
:10413000C5E42DE9F0411F4690460D4604004FF0BE
:10414000010607D141F27022AFF68C21AFF67C2038
:1041500003F05BFDFEF7B7F90FB1E06C386094F83F
:104160005070022084F85000B8F1050F11D2DFE83A
:1041700008F01B03060C0A00E06C284301E0E06C29
:10418000401CE06410E0022F01D0E5640CE0002642
:1041900035E0E06C401C07D041F2A122AFF6E021EF
:1041A000AFF6D02003F031FD012F28D1201DFEF7FE
:1041B000C7F8634DE06A01212A69814011432961F2
:1041C0005E4900EB800001EB8000211DFEF794F8B2
:1041D000A06A38B141F2B022AFF61C31AFF60C3014
:1041E00003F013FDE06A2968C96A884207D9554976
:1041F0004FF080500860BFF34F8FBFF36F8FFEF713
:104200007CF930465BE42DE9F0471F46DDF820904D
:1042100092460D4604004FF0010807D141F2E32217
:10422000AFF66431AFF6543003F0EFFCFEF78AF9D5
:104230005020EFF3118680F31188BFF34F8FBFF347
:104240006F8F0FB1E06C386094F85070022084F8E2
:104250005000BAF1050F12D2DFE80AF01C03060C79
:104260000A00E06C284301E0E06C401CE06411E0CF
:10427000022F01D0E5640DE04FF000082BE0E06C68
:10428000401C07D041F22632AFF6CC31AFF6BC303D
:1042900003F0BBFC012F1ED1A06A38B141F23132CC
:1042A000AFF6E431AFF6D43003F0AFFC244D286B09
:1042B0000127A8B1244804F1180100BFFEF71CF83B
:1042C000E06A2968C96A884205D9B9F1000F01D0AE
:1042D000C9F80070EF6186F311884046BDE8F087A9
:1042E000201DFEF72DF8E16A2A6907FA01F0104354
:1042F000286101EB8100114901EB8000211DDDE700
:104300002DE9F0418846040007D141F26332AFF64F
:104310005041AFF6404003F078FCFEF713F950200F
:10432000EFF3118680F31188BFF34F8FBFF36F8FC8
:1043300094F85000022184F8501007E0443800201F
:104340005400002004ED00E0EC3A0020E16C491C30
:10435000E16401281DD1A06A38B141F28932AFF67B
:10436000A041AFF6904003F050FC534D286B01275D
:1043700090B104F118015148FDF7BEFFE06A2968C9
:10438000C96A884205D9B8F1000F01D0C8F8007099
:10439000EF6186F31188A4E4201DFDF7D1FFE16AE7
:1043A0002A6907FA01F01043286101EB81004449B2
:1043B00001EB8000211DDFE710B568B14FEA000472
:1043C000FEF781F894F85000022808D05FF000044E
:1043D000FEF793F8204610BD37480468F0E7002048
:1043E00084F850000124F3E72DE9F05F8846DDE909
:1043F0000B9483466FF00301206B01EB82010844AC
:104400000A9E20F007079A46780705D040F26132ED
:104410002CA131A003F0F9FB0025B8F1000F0FD05B
:104420005FF00000221818F8001082F8341018F815
:10443000001011B1401C1028F4D384F8435001E05F
:1044400084F83450202E00D31F26E662C4E911659B
:10445000201DFDF74EFF04F11800FDF74AFF24610F
:10446000C6F120006462A061E56484F850505246B1
:1044700059463846FDF7AFFF2060B9F1000F01D073
:10448000C9F80040BDE8F09F0B48416B096829B1AD
:10449000416BC968C9684968816270474FF0FF3154
:1044A000FAE710B50446006BFDF7A8FE2046BDE80C
:1044B0001040FDF7A3BE000054000020EC3A00209D
:1044C000443800202E2E5C6F735C636F72655C74E1
:1044D00061736B732E6300004572726F723A2573BD
:1044E0002C25640D0A00000070B500244160FC4DCD
:1044F0000061914206D8D11A8269914206D2011D0B
:10450000286907E09A4203D2994201D3012403E0CB
:10451000011DE868FDF7FCFE204670BD2DE9FF4750
:104520009946DDF830A090460E4607004FF0000493
:1045300005D14FF4C172EBA1EFA003F066FBE84D8B
:10454000286880B1CDE900680297062E11DAFFF7DE
:1045500072FC02284FF0000309D000226946286847
:10456000FEF73CF9044604B02046BDE8F087524609
:10457000F4E700234A466946FEF71FFBF2E770B5F1
:1045800086B0D74E70E00198002806DADDE9030115
:10459000029A90470198002866DB039C606910B17D
:1045A000201DFDF7CDFE05A800F08CF90546019809
:1045B0000A2859D2DFE800F00505052F354C05051E
:1045C0002F3594F824002A4640F0010084F8240096
:1045D0000298A169034601442046FFF785FF0028A1
:1045E00042D0216A2046884794F8240040073BD5F2
:1045F000002000900298A169002342181946204625
:10460000FFF78CFF00282FD140F21332B5A1BAA0DA
:1046100003F0FBFA28E014F8240F20F001002070CA
:1046200022E094F8240040F0010084F8240002986D
:10463000A06128B940F22B32AAA1AFA003F0E5FA9D
:10464000A0692B4641191A462046FFF74DFF0BE0A3
:1046500094F82400810703D42046FDF7CFFD03E042
:1046600020F0010084F82400002201A93068FEF740
:1046700070FB002887D106B070BD994CE0680168D6
:1046800039B1C0680021006800F061F9FFF777FFD9
:10469000F4E701210020F7E710B5FDF714FF904C77
:1046A0002068A0B99848FDF719FE97481430FDF727
:1046B00015FE9548E06014302061002210210A2088
:1046C000FDF7C0FF206010B190A1FEF76EFDBDE8C0
:1046D0001040FDF712BF1CB50024FFF7DDFF804836
:1046E000006868B17E491F20091DCDE90001002343
:1046F0004FF4807287A18948FEF743FE040005D17C
:1047000040F2131277A17CA003F07FFA20461CBD73
:104710002DE9F0470746994616460D462820DDF854
:1047200020A0FDF701FD04001ED0B84600204F4632
:1047300084F82400D1462DB940F2651278A17DA0FD
:1047400003F063FAFFF7A8FF04F11801C4F8008032
:1047500081E8A002201DFDF7CCFD2EB194F82400C5
:1047600040F0040184F824102046FEE610B55C4CAD
:10477000606828B94FF4D6725AA15FA003F045FAD9
:10478000606810BD10B5040005D140F2B51255A106
:1047900059A003F03AFAA06910BD70B50D460400A7
:1047A00005D14FF4DF724FA153A003F02EFAFDF7AD
:1047B0008AFE14F8240F15B140F0040001E020F047
:1047C00004002070BDE87040FDF797BE10B50400EE
:1047D00005D140F2D31243A147A003F016FA606856
:1047E00010BD10B5040005D140F2DD123DA142A07C
:1047F00003F00BFA206810BD10B5040005D14FF48A
:10480000737238A13CA003F000FAFDF75CFE94F847
:104810002400C00704D00124FDF76FFE204610BD20
:104820000024F9E710B5040005D140F2E5322DA1CE
:1048300031A003F0EAF9FDF746FEE469FDF75DFEFD
:10484000204610BD70B50D46040005D140F2F5328A
:1048500024A129A003F0D9F9FDF735FEE561BDE8F3
:104860007040FDF74ABE1FB51C466FF00103CDE94D
:104870000030CDE902121A4800232246694600683A
:10488000FEF79BF904B010BD2DE9FF41144C07461B
:104890009846206815460E4628B940F2214211A1DB
:1048A00015A003F0B2F94FF0FF30CDE90007CDE9D4
:1048B00002650023424669462068FDF78FFF04B079
:1048C000BDE8F08170B50546FFF76AF9044E04466D
:1048D000B068844236D200F06BF8012033E000006B
:1048E000900000202E2E5C6F735C636F72655C74A9
:1048F000696D6572732E63004572726F723A25732B
:104900002C25640D0A000000283B0020546D7251D4
:1049100000000000546D7220537663007B4600084F
:104920002E2E5C6F735C636F72655C74696D65726B
:10493000732E63004572726F723A25732C25640DD5
:104940000A000000002028602046B46070BDF8B561
:104950000D460646FEF778FE6846FFF7B3FF0446AD
:10496000009810B1FEF7E2FDF8BD4448ADB1016911
:104970000968D9B10025311B2A460068FEF736FCCC
:10498000FEF7D4FD0028EFD13D494FF0805008607C
:10499000BFF34F8FBFF36F8FF8BDA642EBD8FEF782
:1049A000C5FD2146304600F037F8F8BD0125E2E7A5
:1049B000F8B5324D28E0C068C4680668201DFDF7D0
:1049C000BFFC216A2046884794F8240040071BD585
:1049D000A0693044B04206D924616060211DE868B6
:1049E000FDF796FC10E00020034601460090324699
:1049F0002046FFF793FD38B94FF46172AFF2E00142
:104A0000AFF2D00003F001F9E86801680029D2D1C3
:104A10002969C5E90310F8BDF8B5054617480E46E3
:104A2000C068C068C468201DFDF78AFC94F82400A3
:104A3000410719D5A0692B46411932462046FFF798
:104A400053FDA8B100200346014600902A462046A7
:104A5000FFF764FD60B94FF4FC72AFF23C11AFF2A6
:104A60002C1003F0D2F803E020F0010084F82400B9
:104A7000216A01B02046BDE8F040084790000020C0
:104A800004ED00E01CB547480324CDE900400023B5
:104A9000802245A14948FEF774FC49480023CDE92E
:104AA0000040802247A14B48FEF76BFC4A48002398
:104AB000CDE90040802249A14C48FEF762FC4C48F9
:104AC0000023CDE9004080224AA15048FEF759FC5E
:104AD0004F480023CDE9004080224EA15348FEF705
:104AE00050FC53480023CDE90040802251A1574893
:104AF000FEF747FC56480023CDE90040802255A12F
:104B00005848FEF73EFC58480023CDE9004080227B
:104B100056A15D48FEF735FC5C480023CDE9004016
:104B200080225BA15E48FEF72CFC5E480023CDE9A5
:104B3000004080225CA16048FEF723FC5F48002310
:104B4000CDE9004080225EA16148FEF71AFC614970
:104B50000220CDE90001002380225FA16248FEF718
:104B600010FC00201CBD614810B50168604A11604E
:104B7000406860490860FDF721F95F49086001213C
:104B8000FDF729F9032200210120FDF75BFD5B49B8
:104B900000231A4608601946FDF720FEBDE81040C4
:104BA00070E700004402002073686F775F737973C9
:104BB0005F636C6F636B5F7461736B00E98E0008F9
:104BC000080200206F70656E5F6C65645F746173CE
:104BD0006B0000004D8D00080C020020636C6F73A9
:104BE000655F6C65645F7461736B00006D8D0008B8
:104BF0001002002075736172745F68656172745F82
:104C0000626561745F7461736B000000918D0008D0
:104C10001C0200207077725F6D6F64655F73776947
:104C20007463685F7461736B00000000AD8D0008F1
:104C3000200200207077725F6D6F64655F73656E30
:104C4000645F6D73675F7461736B0000E78D0008CC
:104C5000300200206372635F63616C5F7461736B29
:104C6000000000006D8E0008340200206372635F54
:104C7000706F73745F62696E6172795F73656D5F87
:104C80007461736B00000000AB8E00084C020020C2
:104C9000666C6173685F73697A655F7461736B00DA
:104CA000938F00085C02002066735F746573745F05
:104CB0007461736B00000000A39000086402002080
:104CC000696F5F746573745F7461736B00000000DB
:104CD0009F9100086C0200207368656C6C5F7465BE
:104CE00073745F7461736B002D92000828000020BC
:104CF000B0000020B80000203C020020600200202C
:104D000070B50446C078002548B104F138016078D8
:104D100001230E46626B02F0E0FD10B1012528462A
:104D200070BD0020E070616BA06A0A1A206A82429E
:104D3000F5D2A278022AF2D10A186078012331460E
:104D400002F0CBFDEBE770B50446406B0D46002644
:104D5000A8420FD02046FFF7D3FF06000AD16078A3
:104D600001232A4604F1380102F0A8FD08B1751E9E
:104D700001266563304670BD70B50446FFF7C0FF7D
:104D8000050036D1207803282CD12079012829D19B
:104D9000420204F138000021064602F026FC4AF6E1
:104DA000552104F2362002F00BFCFE49304602F099
:104DB0000BFCFD4904F5077002F006FC04F50870D1
:104DC000616902F001FC04F50970216902F0FCFB45
:104DD000626A0123521C62636078314602F07DFDF5
:104DE0000020207100226078114602F085FD00B19C
:104DF0000125284670BD2DE9F04104680D460229C1
:104E00000BD3E069A84208D920784FF0FF3601287B
:104E100007D002282BD0032839D001263046BDE820
:104E2000F081A06A05EB550700EB57212046FFF7FC
:104E30008AFF0028F2D1C7F3080020447F1C90F8B5
:104E40003880A06A00EB57212046FFF77CFF00283E
:104E5000E4D1C7F30800204490F8381048EA012054
:104E6000E90701D00609D9E7C0F30B06D6E7A06A27
:104E700000EB15212046FFF766FF0028CED1E8B2EF
:104E800004EB4000383002F08BFB0646C6E7A06A10
:104E900000EBD5112046FFF756FF0028BED140F2A7
:104EA000FF1000EA85002044383002F07EFB20F03D
:104EB0007046B3E72DE9F047022617460D46044633
:104EC000022969D3E069A84266D920784FF0010928
:104ED000012804D0022836D003285DD143E0A16A1E
:104EE00005EB550801EB58212046FFF72CFF060083
:104EF00052D1C8F308002044383008F10108E9070E
:104F000004D00178FAB262F31F1100E03946017053
:104F100084F80390A16A204601EB5821FFF713FFA4
:104F2000060039D1C8F3080020443830E90702D020
:104F3000C7F3071105E00178C7F3032201F0F00180
:104F40001143017026E0A06A00EB15212046FFF70F
:104F5000FAFE060020D1E8B204EB4000B9B23830C6
:104F600002F02EFB16E0A06A00EBD5112046FFF7F9
:104F7000EAFE060010D140F2FF1000EA850020444E
:104F80003830054602F011FB67F31B000146284646
:104F900002F01AFB84F803903046BDE8F0872DE953
:104FA000F041056813460E46074602292CD3E869EE
:104FB000B04229D93BB14FF0FF3219462846FFF7DE
:104FC00079FF00281FD131463846FFF714FF04004F
:104FD00018D0012C18D0601C18D000223146284669
:104FE000FFF768FF00280ED1E8696969821E9142C7
:104FF00005D2491C6961297941F0010129712646D0
:10500000B042E0D800200AE7022008E7012006E7C6
:105010002DE9F04106680F00804605D0FFF7EBFE52
:10502000022808D20120FAE6346914B1F069A042DE
:1050300007D8012405E0411CF5D0F1698142F2D87E
:105040003C4670690028EED0BC4216D1F069651C60
:10505000A84200D8022529464046FFF7CCFE012889
:10506000E1D0411CDFD038B13069022805D3F169A5
:10507000814202D9044600E0A5B92546F0696D1CBD
:10508000A84202D80225022C0AD329464046FFF73F
:10509000B2FE38B10128C6D0411CC4D0A542EDD122
:1050A0000020BCE64FF0FF34224629463046FFF789
:1050B00001FF30B95FB12A4639463046FFF7FAFEA4
:1050C00028B1012800D0012425462846A7E63561ED
:1050D000F1697069891E884201D8401E706130797B
:1050E00040F001003071F0E72DE9F0410C46054633
:1050F000FFF706FE00BB2146284602F094FA06465A
:10510000686305F138004FF400720021044602F094
:105110006CFAA0460127002400E03C446889A042C4
:1051200007D9321968783B46414602F0D6FB002881
:10513000F3D06889A04201D0012070E600206EE61D
:105140002DE9F04107680E460546B1F5001F3AD239
:10515000F00638D12E61AC6824B93878032805D31D
:10516000FC6A1CB178894FEA402812E03889B0EB1C
:10517000561F28D9F86A12E02846FFF73CFE04467D
:10518000401C1ED0022C1ED3F869A0421BD9A6EBEE
:10519000080646452146EFD2384602F044FAC5E9F2
:1051A000054003E0525261417272416158B100EB17
:1051B0005620A861C6F3080038443830E861002062
:1051C0002DE601202BE6022029E62DE9F0470669AD
:1051D00007682036894604464FF00008B6F5001FE0
:1051E00034D2A06910B1F10502D03CE00420D4E62D
:1051F000401CA061616929B17889401E10EA562FD0
:1052000005D030E03889B0EB561F1FD92BE020467F
:10521000FFF7F1FD054601281DD9681C14D0F86977
:10522000A8421AD8B9F1000F10D020466169FFF7E3
:10523000EFFE05000DD0012D0DD0681C04D02946CD
:105240003846FFF751FF40B10120A6E6C4F81880A8
:10525000CCE70720A1E602209FE629463846656193
:1052600002F0E1F9A061C6F3080038443830266145
:10527000E061002091E62DE9F0470426FF248946ED
:1052800005462746D0F8008047E04046FFF75BFD23
:10529000060046D1E969087880B1CA7AE52802F0AB
:1052A0003F02AA7108D02E2806D022F02003082B36
:1052B00006D0B446CC4506D0FF241EE0042630E0DC
:1052C0004FF0010CF6E70F2A01D014BB1CE0420698
:1052D00005D54F7B00F0BF002A690446EA62A04270
:1052E00009D1487BB84206D1D8F80C0002F00AFA7E
:1052F00008B1641E00E0FF24E4B200212846FFF755
:1053000064FF060009D00CE0084602F078FAB842C3
:1053100009D04FF0FF30E86205E0A9690029B4D157
:105320000EB10020A861304637E62DE9F04705466A
:105330000021D0F80090FFF703FF002852D1FF248E
:10534000471EA046EF624846A969FFF7FCFC06002D
:1053500047D1E969087850B1CA7AE52802F03F02DE
:10536000AA7136D0130704D50F2A32D105E00426DE
:1053700037E00F2A01D0E4B120E095F82B20520647
:1053800029D4420606D591F80D8000F0BF002A69A5
:105390000446EA62A04209D14A7B424506D1D9F8C7
:1053A0000C0002F072F908B1641E00E0FF24E4B2C0
:1053B00011E0084602F023FA404512D095F82B0080
:1053C000C00706D10B2205F12001E86902F013F9AC
:1053D00038B1FF24EF6200212846FFF7F6FE0600F1
:1053E000B1D03046D9E52DE9F04F0446D0F8009011
:1053F00090F82B0089B010F0A00F03D0062009B060
:10540000BDE8F08F0025D9F80C0000E06D1C30F8E5
:1054100015100029FAD104F120010C2268460391ED
:1054200002F0DAF89DF80B00C00719D0402084F88C
:105430002B00012633466946D9F80C20039802F068
:1054400099F92046FFF771FF10B9761C642EF1D34D
:10545000642E0FD00428D2D19DF80B0084F82B00C5
:105460009DF80B00800707D50D200C35B5FBF0F536
:105470006D1C02E00720C2E70125002120462768B5
:10548000FFF75EFE88B900263846A169FFF75BFC8E
:1054900058B9E0690078E5280AD048B10026012112
:1054A0002046FFF792FE0028EED0042812D012E02A
:1054B000761C2846AE42F2D1451E059567D021697B
:1054C000684201EB40112046FFF73AFE5FEA000810
:1054D00003D076E00720804673E0039802F08FF94E
:1054E0004FF6FF7B07904846A169FFF72CFC5FEA67
:1054F000000866D1D9F80C0006900598D4F81C80F5
:10550000C0B20490079988F80D100F2188F80B108D
:10551000002188F80C1008F11A0002F051F80498E4
:10552000DFF8FCA6401E00EB800101EBC00600275F
:1055300001E05D4503D0069830F81650761C1AF845
:10554000071001EB0800294602F03AF805B95D465C
:105550007F1C0D2FEDD35D4505D0069830F8160061
:1055600008B1049803E0049840F04000049088F8E3
:105570000000012189F8031000212046FFF725FED5
:105580005FEA00081DD10598401E0590ABD1484642
:10559000A169FFF7D8FB5FEA000812D120220021A1
:1055A000E06902F022F80B22E069039902F014F896
:1055B00094F82B00E16900F018000873012089F8C5
:1055C000030040461BE72DE9F041C16A0446066925
:1055D0000568481C04D02046FFF7B2FD002817D10B
:1055E000E5274FF001082846A169FFF7ACFB60B939
:1055F000E1690F7085F803802169B14208D200216A
:105600002046FFF7E2FD0028EDD0042800D102205B
:1056100005E42DE9F84F4FF0000AD0F80090064657
:1056200081F816A080690C4600287DD0F06A401CE5
:105630001BD00025A846474609E07F1CB8F1000FA3
:105640001ED1A0F55841B1F5006F19D28046D9F8A6
:105650000C0030F817000028EFD100BFB8F1000FA0
:1056600000D00025601980F816A0002001462E23E6
:10567000F269125C401C202A30D0052A23D023E096
:10568000611901F1160BC5F1FF01009140EA0840D4
:1056900040F2B51102F042F9FF2809D90099022918
:1056A0000FD3020A8BF800208BF80100022005E0DE
:1056B00038B1009929B18BF8000001200544002081
:1056C000C4E70025CAE7E522092804D10C2902D243
:1056D0006518491C6B726518491C6A720B28C7D380
:1056E0006018524680F809A0A07D18BB19B10021AE
:1056F0000B46082513E03F20A075012113E02E285A
:1057000019D0A0F14107192F05D8F7693F7B2F4227
:1057100001D0203080B26718491CB8755B1CE018B6
:10572000407A0028EBD100E01AE060188275F06939
:10573000007B10B102E01025EDE76272F069C07ADB
:105740002072F0691C3001F030FF2060F0691630E3
:1057500001F026FFE080F069183001F021FFA08001
:10576000BDE8F88FFFB583B01E461446054604E039
:1057700004A802F051F800281AD0641EF8D2287844
:1057800000B9A6B9049800950190009800783F28C8
:1057900010D02A280ED0684602F03EF8074601A82D
:1057A00002F03AF80446A7421AD1002FEDD10120A9
:1057B00007B0F0BD00221346009810F8011B0090BE
:1057C0003F2915D0012300783F28F5D02A28F3D0AF
:1057D000DDE90001FFF7C6FF0028E8D10198047851
:1057E00004A802F019F80EB1002CCBD10020DFE79D
:1057F000521CE8E72DE9F84F804600680F6889469B
:10580000C568002417F8016B304601F008FFE8BBBB
:1058100036B140F2B511304602F09BF8060059D07F
:10582000701C57D0B6F5803F03D3300C25F8140018
:10583000641C202E10D32F2E10D05C2E0ED0802E64
:1058400004D23146F7A001F0E2FEF8B9FF2C41D2B4
:1058500025F81460641CD5E7042607E0002600E064
:105860007F1C38782F28FBD05C28F9D00021C9F89C
:105870000070012C04D0022C25D168882E2819D163
:1058800028882E2816D125F8141000E022E00020E8
:10589000A04201D22E2100E0202108EB0002401C92
:1058A00082F820100B28F3D3404446F0200280F801
:1058B0002020D4E005EB440030F8020C202801D071
:1058C0002E2802D1641E002CF4D125F814100CB13E
:1058D000002702E0062043E77F1C35F81700202848
:1058E000FAD017B928882E2803D146F0030600E025
:1058F000641E2CB105EB440030F8020C2E28F7D1C1
:105900000B22202108F1200001F06FFE4FF000096A
:105910004FF0080BCDF8009035F8170007F101079C
:105920005FEA000A24D0BAF1200F04D0BAF12E0F9A
:1059300004D1A74202D046F00306EDE7009858458F
:1059400001D2A74219D1BBF10B0F0FD0A74201D052
:1059500046F003060CD84FF0080000904FEA89602B
:1059600027464FF00B0B4FEA1069D5E746F00306C8
:1059700098F82000E52850D052E05046BAF1800F48
:105980000ED346F0020640F2B51101F0C7FF824681
:10599000000605D5A2490AF07F000D3111F800A0DC
:1059A0005046BAF1FF0F13D90099ABF101008142C3
:1059B00004D346F00306CDF800B0ADE708EB0100D4
:1059C0004FEA1A2280F820200098401C00901BE02B
:1059D000BAF1000F04D0014695A001F018FE20B1E5
:1059E0004FF05F0A46F003060EE0AAF141001928C5
:1059F00001D849F00209AAF16100192804D8413000
:105A000049F001091FFA80FA009A08EB020181F8B7
:105A100020A00098401C00907EE7052188F8201007
:105A2000BBF1080F03D14FEA89604FEA1069C9F34F
:105A30008100032803D06FEA0900800701D146F0F6
:105A40000206B00709D45FEAC97001D046F010061B
:105A50005FEA497001D546F0080688F82B600020FF
:105A60007EE673B504460568019800782F2803D0B8
:105A70005C2801D0A86908E00198401C01900078DA
:105A80002F28F9D05C28F7D00020A060019880264C
:105A90000078202806D284F82B6000212046FFF7EA
:105AA0004FFB7CBD01A92046FFF7A4FE0028F8D1DA
:105AB0002046FFF73AFC94F82B1068B10428F0D187
:105AC0008A0605D54807EDD584F82B6000207CBDFB
:105AD0004907FCD405207CBD4907FCD4A079C00649
