:020000040800F2
:100000006032002075020008D1050008D305000801
:10001000D5050008D7050008D90500080000000034
:10002000000000000000000000000000DD010008EA
:10003000DB050008000000002102000899150008F7
:100040008F0200088F0200088F0200088F0200084C
:100050008F0200088F0200088F0200088F0200083C
:100060008F0200088F0200088F0200088F0200082C
:100070008F0200088F0200088F0200088F0200081C
:100080008F0200088F0200088F0200088F0200080C
:100090008F0200088F0200088F0200088F020008FC
:1000A0008F0200088F0200088F0200088F020008EC
:1000B0008F0200088F0200088F0200088F020008DC
:1000C0008F0200088F0200088F0200088F020008CC
:1000D0008F020008311000086F100008A7100008F8
:1000E0008F0200088F0200088F0200088F020008AC
:1000F0008F0200088F0200088F0200088F0200089C
:100100008F0200088F0200088F0200088F0200088B
:100110008F0200088F0200088F0200088F0200087B
:100120008F0200088F0200088F0200088F0200086B
:1001300000F002F800F042F80AA090E8000C8244B7
:100140008344AAF10107DA4501D100F037F8AFF294
:10015000090EBAE80F0013F0010F18BFFB1A43F0A5
:1001600001031847643D0000843D0000103A24BF9D
:1001700078C878C1FAD8520724BF30C830C144BF0C
:1001800004680C607047000000230024002500264E
:10019000103A28BF78C1FBD8520728BF30C148BFEA
:1001A0000B607047642903F00B85732903F0F88511
:1001B000002070471FB51FBD10B510BD03F054FEE1
:1001C0001146FFF7F7FF01F023F903F072FE03B4C5
:1001D000FFF7F2FF03BC00F099FD0000224B196805
:1001E0000868B0E8F00F80F30988BFF36F8F4FF015
:1001F000000080F311884EF00D0E704700000000E3
:1002000006480068006880F3088862B661B6BFF3EC
:100210004F8FBFF36F8F00DF00BF00BF08ED00E01E
:10022000EFF30980BFF36F8F0F4B1A6820E9F00FCF
:10023000106008B54FF0500080F31188BFF34F8F66
:10024000BFF36F8F02F065FB4FF0000080F3118861
:10025000BDE8084019680868B0E8F00F80F3098825
:10026000BFF36F8F704700BF50000020EFF3058091
:10027000704700000948804709480047FEE7FEE74D
:10028000FEE7FEE7FEE7FEE7FEE7FEE7FEE7FEE746
:1002900004480549054A064B70470000590C000800
:1002A00031010008602C002060320020602E002008
:1002B000602E00202849084328490860704770B51F
:1002C0000F23C47801780122F4B1244C24684578C6
:1002D00004F4E064C4F5E064240AC4F10406E340D5
:1002E0008478B5401C402C4301F1E021230181F8C2
:1002F0000034007800F01F018A404009800000F1BE
:10030000E020C0F8002170BD01F01F0082404809C4
:10031000800000F1E020C0F8802170BD104A11403B
:1003200001430E48001F016070470C4A121D00294E
:10033000116801D0014300E08143116070474FF024
:10034000E0210428086903D020F004000861704708
:1003500040F00400FAE700000000FA050CED00E0B0
:1003600080FFFF1F914910B5884206D1012104206A
:1003700000F051FA002104203BE08D49884206D16B
:100380000121082000F047FA0021082031E08949C6
:10039000884206D10121102000F03DFA00211020F2
:1003A00027E08549884206D10121202000F033FA58
:1003B000002120201DE08149884206D101214020F2
:1003C00000F029FA0021402013E07D49884206D13F
:1003D0000121802000F01FFA0021802009E07949E6
:1003E00088420AD184150121204600F014FA002128
:1003F0002046BDE8104000F00EBA10BD10B5012136
:10040000084600F008FA0021BDE81040012000F085
:1004100002BAF0B5CA78002502F00F03D20601D562
:100420008A7813430A784FF00F0E12F0FF0F4FF047
:1004300001021DD0D0F800400F8802FA05F63740BF
:10044000B74211D14FEA850C0EFA0CF724EA0707E0
:1004500003FA0CF43C43CF78282F02D0482F02D067
:1004600002E0466100E006616D1C082DE4D30460E3
:100470000C88FF2C1ED944685FF0000606F10807BF
:1004800002FA07F50F882F40AF420FD14FEA860CD2
:100490000EFA0CF7BC4303FA0CF73C43CF78282F35
:1004A00000D14561CF78482F00D10561761C082E18
:1004B000E4D34460F0BD4FF6FF71018002218170EA
:1004C0000421C17070470246002092680A4200D0A1
:1004D00001207047806880B2704702460020D268D1
:1004E0000A4200D001207047C06880B270470161A5
:1004F0007047416170470AB10161704741617047BF
:10050000C160704741F4803282618161826181699A
:10051000806970472C4B10B51A684FF680742240E2
:1005200042EA00100843186010BD2849C8617047AE
:10053000F0B5254C002801DAE36900E06368420D5C
:10054000120185B2C0F301579540C0F30346032F53
:1005500005D0C2020AD50322B240934307E023F03C
:100560007062636823F07063636002E0AB4343F042
:10057000706201B12A43002801DAE261F0BD6260D5
:10058000F0BD10B58A0721F003040F49130F214471
:100590000F228C689A4094438C608A68984002438A
:1005A0008A6010BD0949C1F8DC00704700080140AD
:1005B000000C0140001001400014014000180140EF
:1005C000001C0140002001400000014000002042CA
:1005D0007047FEE7FEE7FEE7FEE77047A4480168C4
:1005E00041F0010101604168A24A11404160016887
:1005F000A14A11400160016821F480210160416835
:1006000021F4FE0141604FF41F0181607047984959
:100610000A6822F480320A600A6822F480220A60A2
:10062000B0F5803F07D0B0F5802F03D1086840F4C3
:10063000A02008607047086840F48030F9E702465F
:10064000002053098A49012B0AD0022B0AD0496A9B
:1006500002F01F02012393400B4200D0012070479B
:100660000968F5E7096AF3E718B500204FF4A064BC
:1006700000903120FFF7E3FF0099491C0091A1424F
:1006800001D00028F5D03120FFF7D9FF002800D095
:10069000012018BD76490A6822F0F80242EAC0003B
:1006A00008607047754908607047714A536808438D
:1006B00023F47C13184350607047704908667047F4
:1006C0006B4A516821F0030101435160704768484B
:1006D000406800F00C007047654A516821F0F00155
:1006E000014351607047624A516821F4E06101435F
:1006F000516070475E494A6822F4605242EAC00085
:10070000486070475A4A0029517A01D0014300E0FD
:100710008143517270475949C1F8D8007047544A13
:10072000516821F440410143516070475049002213
:1007300081F8202081F82020012802D0042802D14D
:10074000052081F8200070474D49086070474849EE
:100750000A6A02430A62704749494439086070478F
:1007600030B543494A6812F00C03464A03D0042BC3
:1007700001D0082B21D002604A680F23424C03EAC3
:100780001212A35C0268DA4042604B68072505EA52
:100790001323E35C22FA03F383604B6805EAD32357
:1007A000E35CDA40C2604968032303EA9131231F06
:1007B000595CB2FBF1F1016130BD4A684B6802F44B
:1007C00070124FF0020413F4803F04EB924202D007
:1007D0004B689B0301D52D4B00E02A4B5A43CAE7D7
:1007E000234A0029516901D0014300E0814351614E
:1007F00070471F4A0029916901D0014300E08143FD
:10080000916170471A4A0029D16901D0014300E083
:100810008143D1617047164A0029D16801D0014354
:1008200000E08143D1607047114A0029116901D06D
:10083000014300E08143116170471149403908606C
:1008400070470E49C86470470949C8717047084825
:10085000416A41F0807141627047054A01460020BB
:1008600092680A4200D0012070470149887270479F
:10087000001002400000FFF8FFFFF6FE00004242B9
:100880008004424200127A000400002000093D006A
:10089000C44910B588420AD101218C032046FFF7D4
:1008A000BAFF2046BDE810400021FFF7B4BFBE49A3
:1008B000884202D101214C0410E0BC49884202D197
:1008C00001218C040AE0BA49884202D10121CC04FA
:1008D00004E0B84988420AD101210C052046FFF7FF
:1008E000A3FF2046BDE810400021FFF79DBF10BDCB
:1008F00030B50446008A85B00D464CF6FF710840BD
:10090000E98801432182A1894EF6F3100140A888AD
:100910002A8910436A890A431043A081A08A4FF6AE
:10092000FF410840A9890143A1826846FFF718FFEB
:100930009C48844201D1039800E00298A1890904EF
:1009400000EBC00101EB0010296801D5490000E06F
:100950008900B0FBF1F06422B0FBF2F109010B0950
:100960006FF018056B4300EB8300A3891D044FF063
:10097000320306D503EBC000B0FBF2F000F0070035
:1009800005E003EB0010B0FBF2F000F00F000843AD
:10099000208105B030BD4FF41651016000218180E7
:1009A000C18001810C2242818181704710B5038A88
:1009B0004FF2FF0213400A884C8822438C88C98872
:1009C0000C4322431A43028210BD00210180418062
:1009D0008180C18070470029818902D041F4005193
:1009E00001E021F400518181704710B5C1F3421339
:1009F00001F01F040121A140012B07D0022B07D0D9
:100A00001430002A026805D00A4304E00C30F8E7ED
:100A10001030F6E78A43026010BD002A828A01D0B6
:100A20000A4300E08A4382827047028A22F00F0262
:100A30000282028A0A4302827047828922F400629B
:100A4000828182890A43828170470029818902D08C
:100A500041F0020101E021F0020181817047028A28
:100A600022F020020282028A0A4302827047002991
:100A7000018A02D041F4804101E021F480410182E9
:100A80007047C1F30801818070478088C0F3080077
:100A90007047818941F0010181817047028BD2B298
:100AA0000283028B42EA012101837047028B02F428
:100AB0007F420283028B0A43028370470029818AA6
:100AC00002D041F0200101E021F020018182704735
:100AD0000029818A02D041F0100101E021F01001CB
:100AE000818270470029818A02D041F0080101E02B
:100AF00021F00801818270470029818902D041F4E8
:100B0000004101E0C1F30E01818170470029818A13
:100B100002D041F4006101E021F40061818270475C
:100B2000828A22F004028282828A0A438282704789
:100B30000029818A02D041F0020101E021F0020186
:100B4000818270470246002012880A4200D00120AC
:100B50007047C9430180704730B501F01F0201247E
:100B60000025C1F3421304FA02F2012B0FD0022B2D
:100B70000FD0838A4FEA11210088134204FA01F44E
:100B800000EA040001D000B10125284630BD838968
:100B9000F0E7038AEEE70A0A01219140C943018088
:100BA0007047000000380140004400400048004009
:100BB000004C0040005000400CB500214B48019112
:100BC0000091026842F4803202604FF4A063026830
:100BD00002F400320092019A521C0192009A12B95A
:100BE000019A9A42F3D10268920333D50121009110
:100BF0003F490A6842F010020A600A6822F00302C4
:100C00000A600A6842F002020A6041684160416875
:100C10004160416841F480614160416821F47C1188
:100C20004160416841F4E8114160016841F0807120
:100C3000016001688901FCD5416821F00301416030
:100C4000416841F0020141604168C1F3810102291C
:100C5000FAD10CBD00910CBD244810B5016841F0DB
:100C6000010101604168234A114041600168224A44
:100C700011400160016821F480210160416821F484
:100C8000FE0141604FF41F018160FFF795FF1B4992
:100C90004FF00060086010BD144910B54868184A4C
:100CA00010F00C03174803D0042B01D0082B0AD0F6
:100CB00002604968134AC1F30311121D515C0268B6
:100CC000CA40026010BD4A684B6802F470124FF0CF
:100CD000020413F4803F04EB924202D04B689B0362
:100CE00001D5094B00E0064B5A43E1E700100240F2
:100CF000002002400000FFF8FFFFF6FE08ED00E0D4
:100D000000127A001400002000093D007047FE49DF
:100D10000A885206FCD5FC4AC1B2121D11807047E8
:100D2000F0B5054687B001210520FFF762FD0121DE
:100D30008803FFF75EFDF44E3046FFF7A9FD7015FE
:100D4000ADF8100018208DF81300F04F03248DF833
:100D5000124004A93846FFF75CFB3015ADF81000CF
:100D600048208DF8130004A93846FFF752FB2520D0
:100D70008DF814008DF815408DF8164001208DF87F
:100D8000170005A8FFF79BFA0020ADF80400ADF8A6
:100D90000600ADF80800ADF80C000C20ADF80A0014
:100DA000009569463046FFF7A3FD012240F2255128
:100DB0003046FFF71AFE01213046FFF70CFE4021B6
:100DC0003046FFF7C6FE07B0F0BD30B5044601213E
:100DD00085B04804FFF716FD01210520FFF709FD46
:100DE0000420ADF8100018208DF813000320C74D23
:100DF0008DF8120004A92846FFF70BFB0820ADF878
:100E0000100048208DF8130004A92846FFF701FBC5
:100E10000020ADF804000094ADF80600ADF808001D
:100E2000ADF80C000C20BA4CADF80A00694620461B
:100E3000FFF75EFD012240F225512046FFF7D5FD68
:100E400001212046FFF7C7FD40212046FFF781FE24
:100E500005B030BD30B50446012185B08804FFF7E8
:100E6000D1FC01210820FFF7C4FC4FF48060ADF8ED
:100E7000100018208DF813000320A64D8DF81200E5
:100E800004A92846FFF7C5FAE814ADF810000420BD
:100E90008DF8130004A92846FFF7BBFA0020ADF82F
:100EA00004000094ADF80600ADF80800ADF80C00A1
:100EB0000C20994CADF80A0069462046FFF718FD52
:100EC000012240F225512046FFF78FFD01212046E7
:100ED000FFF781FD40212046FFF73BFEB8E730B524
:100EE0000446012185B0C804FFF78CFC01211020C5
:100EF000FFF77FFC4FF48060ADF8100018208DF8EC
:100F000013000320854D8DF8120004A92846FFF731
:100F100080FAE814ADF8100004208DF8130004A93D
:100F20002846FFF776FA0020ADF804000094ADF8EB
:100F30000600ADF80800ADF80C000C20784CADF8B8
:100F40000A0069462046FFF7D3FC012240F22551F2
:100F50002046FFF74AFD01212046FFF73CFD4021D6
:100F60002046FFF7F6FD73E710B50446012186B071
:100F70000805FFF747FC01211020FFF73AFC4FF46A
:100F80008050ADF8100018208DF8130003208DF864
:100F9000120004A96148FFF73CFA0420ADF81000E4
:100FA0008DF8130004A95F48FFF733FA0020ADF86D
:100FB00004000094ADF80600ADF80800ADF80C0090
:100FC0000C20594CADF80A0069462046FFF790FC0A
:100FD000012240F225512046FFF707FD012120465E
:100FE000FFF7F9FC40212046FFF7B3FD06B010BD26
:100FF00010B50446FFF745FD80212046FFF7A2FD0E
:101000000028F9D010BD70B50C46064600250AE050
:101010003046FFF736FD80213046FFF793FD00286C
:10102000F9D0641C6D1C21780029F1D1284670BDCF
:1010300070B5354C40F2255529462046FFF78CFD0A
:1010400030B92046FFF721FD29462046FFF7A3FDD2
:1010500040F2277529462046FFF77EFD002805D17E
:1010600029462046BDE87040FFF795BD70BD70B5BC
:10107000274C40F2255529462046FFF76DFD18B94B
:1010800029462046FFF787FD40F22775294620466E
:10109000FFF762FD002805D129462046BDE87040D3
:1010A000FFF779BD70BD70B51B4C40F22555294640
:1010B0002046FFF751FD18B929462046FFF76BFD82
:1010C00040F2277529462046FFF746FD002805D146
:1010D00029462046BDE87040FFF75DBD70BD70B584
:1010E0000F4C40F2255529462046FFF735FD18B92B
:1010F00029462046FFF74FFD40F227752946204636
:10110000FFF72AFD002811E00038014000080140E7
:1011100000440040000C0140004800400010014025
:10112000004C0040001401400050004005D1294609
:101130002046BDE87040FFF72EBD70BD70B50D4C68
:1011400040F2255529462046FFF706FD18B92946E5
:101150002046FFF720FD40F2277529462046FFF77D
:10116000FBFC002805D129462046BDE87040FFF76A
:1011700012BD70BD0050004030B5734900E011460B
:101180000A688242FBD34B685C18844203D14068F2
:1011900018444860084643681C18944209D16A4CB8
:1011A000103C2468A24209D052681A4442600A687E
:1011B00012680260814200D0086030BD0460F9E727
:1011C0002DE9F0410546002701F078FA5E4E103E09
:1011D000306808B900F097F8F06805424DD1002D4D
:1011E0004BD0083568070BD005F00700C0F10800A8
:1011F0000544680704D0952254A158A002F076FC5B
:10120000DDB37068854238D84F4801460C6801E06C
:1012100020460C466168A94202D221680029F7D114
:101220003168B0468C4228D0076821680160606848
:101230000837401B10280ED96619700704D0C22247
:1012400042A146A002F052FC6068401B706030462C
:101250006560FFF791FF6268D8F804104046891A6C
:10126000C8F80410D8F80830994200D28160D8F844
:101270000C0002430020C4E9000201F091F9780754
:1012800005D04FF4817231A134A002F02FFC384612
:10129000BDE8F08170B500282BD02B4DA0F10804DB
:1012A000103D6068E968084205D14FF48B7227A1B0
:1012B0002AA002F01BFC206828B140F2171223A1DB
:1012C00026A002F013FC6168E868014211D0226890
:1012D000002A0ED18143616001F0F0F9606869680D
:1012E000084468602046FFF747FFBDE8704001F002
:1012F00057B970BD1448103840687047124810380C
:1013000080687047704719484FF42051420706D053
:10131000C01D164920F00700411AC1F520510A4AA4
:1013200000230144C2E900030839103A21F0070103
:1013300011604B600B600B1AC0E9001393604FF013
:1013400000405360D06070473C0000202E2E5C6F40
:10135000735C686561705F342E6300004572726F64
:10136000723A25732C25640D0A000000A0000020AD
:1013700000F108014FF0FF32C0E90112C1600161C4
:1013800000210160704700210161704742684A6096
:1013900093688B6093685960916008610168491C8B
:1013A0000160704730B50B685A1C02D000F108028A
:1013B00002E0026904E02246546825689D42FAD999
:1013C00053684B6099608A60516008610168491CEC
:1013D000016030BDD0E9013201699A60D0E9012392
:1013E0005A604A68824201D182684A6000220261E2
:1013F0000868401E086008687047000010B54FF488
:10140000E130FFF78DFCBDE8104005A002F06EBB97
:1014100010B5FFF7F3FF01F0BCFB002010BD00008A
:1014200073746D3332207365747570210A00000087
:1014300075484068401C04D0CA2274A177A002F00D
:1014400055FB502080F31188BFF34F8FBFF36F8F90
:10145000FEE710B5031F4FF080741C601B1F21F0C6
:1014600001011960191F714B0B60143940380A6073
:1014700010BD4FF0E0200021016181616C494FF403
:101480007A720968B1FBF2F1491E416107210161DD
:1014900070477CB5674D28780190FF202870287828
:1014A0008DF800009DF800009DF8001000F0F0009D
:1014B000884205D04FF48A7254A158A002F016FB5E
:1014C0009DF80000504C00F0500020700720A060F4
:1014D00006E000BF9DF8001049008DF80010401E86
:1014E0009DF800100906F5D4A060032805D04FF43C
:1014F000987246A149A002F0F9FA207A000200F49D
:10150000E060A060019828704B48016841F47001C8
:101510000160016841F070410160FFF7AAFF0020FF
:101520006060FEF76DFE00207CBD37484068B0F576
:101530007A7F05D04FF4AB7234A138A002F0D6BA4E
:101540007047502080F31188BFF34F8FBFF36F8F28
:101550002D494868401C486001280BD136481C388A
:10156000006810F0FF0F05D04FF4B37227A12BA035
:1015700002F0BCBA704710B5234C606828B940F23D
:101580006D1222A125A002F0B1FA6068401E6060D1
:1015900001D180F3118810BD10B5502080F311885F
:1015A000BFF34F8FBFF36F8F00F09DFF20B1224933
:1015B0004FF080501C390860002080F3118810BD66
:1015C00010B5FEF753FE104C10280CD300F1E020AC
:1015D00090F8F0032178884205D240F2A5220BA1B1
:1015E0000EA002F083FA144814380068A16800F4D1
:1015F000E060884207D9BDE8104040F2B52203A15F
:1016000006A002F073BA10BD440000202E2E5C6FBD
:10161000735C706F72742E63000000004572726F0D
:10162000723A25732C25640D0A000000311400085D
:101630001400002000E400E020ED00E070B50D464D
:10164000040005D140F20312F3A1F7A002F04EFA14
:10165000FFF777FFD4E90F20216802FB0011A1609A
:101660000021A163216861600A46D4E90F01401E90
:1016700000FB0121E16021464FF0FF3001F8440FEB
:10168000487004F110004DB1FFF772FE04F1240020
:10169000FFF76EFEFFF76FFF012070BD2169002983
:1016A000F8D001F034FB0028F4D0E3494FF080502B
:1016B0000860BFF34F8FBFF36F8FEBE770B50E4637
:1016C000050005D14FF4BB72D3A1D7A002F00EFAEA
:1016D000A6B105FB06F04C30FFF772FD04000CD0FC
:1016E00004F14C0066B12060C4E90F562046012188
:1016F000FFF7A4FF00212046A16470BD0020EAE7A7
:101700002460F1E72DE9F041856B17460446002679
:10171000026C82B1C7B1E06802F08EFAE168206C19
:10172000091AE1602268914202D2A168081AE060B9
:10173000022F16D017E02068A8B9A06801F005FCB8
:1017400006460020A0600EE0606802F075FA216C89
:10175000606808446060A168884204D320686060C3
:1017600001E005B16D1E6D1CA5633046BDE8F0813A
:101770002DE9F3410F4600980026846C2CB940F601
:101780004532A5A1A8A002F0B1F9A06BE16B884297
:1017900005D340F64632A0A1A3A002F0A7F9A06BA2
:1017A000E16B88420CD294F945503A46694620468E
:1017B000FFF7A8FF0646681C05D06D1C84F845504D
:1017C0003046BDE8FC81606A0028F9D004F12400AD
:1017D00001F09DFA0028F3D00126F1E72DE9F04150
:1017E0000446FFF7AEFE94F9455004F1240610E0DC
:1017F000A06C20B100212046FFF7BAFF04E0606A28
:1018000048B1304601F083FA08B101F043FB6D1E88
:101810006DB2002DECDC4FF0FF3684F84560FFF729
:10182000AAFEFFF78EFE94F9445004F1100709E078
:10183000206948B1384601F06AFA08B101F02AFB84
:101840006D1E6DB2002DF3DC84F84460BDE8F041FC
:10185000FFF791BE2DE9FF4782B01D468A464FF043
:101860000008040005D140F2F1226BA16EA002F045
:101870003DF9BAF1000F07D1206C28B140F2F222F5
:1018800065A169A002F032F9022D08D1E06B0128B0
:1018900005D040F2F32260A163A002F027F901F025
:1018A00002FB38B9049828B140F2F6225AA15EA092
:1018B00002F01CF9604F4FF000094FF0805600BF56
:1018C000FFF73FFEA06BE16B884207D3022D05D0E6
:1018D000049840B3B8F1000F28D02CE0D4F8388039
:1018E0002A4651462046FFF70DFFA16C49B1022D53
:1018F00002D1B8F1000F10D129462046FFF738FF7A
:1019000005E0616A19B104F1240001F000FA20B188
:101910003E60BFF34F8FBFF36F8FFFF72CFE0120A8
:1019200006B0BDE8F087FFF726FE22E0684601F02A
:1019300072FA4FF00108FFF71EFE00F0BFFEFFF73E
:1019400000FE94F94400401C01D184F8449094F9BD
:101950004500401C01D184F84590FFF70CFE04A916
:10196000684601F05FFA30B12046FFF737FF00F01C
:1019700017FE0020D4E7FFF7E4FDA06BE16B88427F
:1019800013D1FFF7F8FD04F11000049901F063F999
:101990002046FFF723FF00F003FE002890D13E60B1
:1019A000BFF34F8FBFF36F8F8AE7FFF7E4FD204649
:1019B000FFF714FF00F0F4FD82E710B502460021A6
:1019C0000120FFF77BFE040007D000218160016049
:1019D0000B460A46C160FFF73DFF204610BD10B51B
:1019E000040005D140F259220BA10FA002F07EF8AD
:1019F00001F055FAA16888420BD1E068401EE06012
:101A000005D100231A4619462046FFF723FF01207F
:101A100010BD002010BD00002E2E5C6F735C717530
:101A20006575652E630000004572726F723A25730A
:101A30002C25640D0A00000004ED00E02DE9F343BD
:101A4000002683B00400354607D140F29152AFF230
:101A50003801AFF22C0002F049F8206C38B140F2A6
:101A60009552AFF24C01AFF2400002F03FF801F0A6
:101A70001AFA48B9049838B140F29A52AFF26801A4
:101A8000AFF25C0002F032F84FF000094FF08057DF
:101A9000DFF89888FFF755FDA06BC8B1401EA06322
:101AA000206810B901F004FBA060206950B104F176
:101AB000100001F02CF928B1C8F80070BFF34F8F67
:101AC000BFF36F8FFFF757FD012005B0BDE8F0832E
:101AD000049808B166B10FE03DB140F2E152AFF2B7
:101AE000C801AFF2BC0002F001F8FFF744FD5DE071
:101AF000684601F090F90126FFF73DFD00F0DEFD9C
:101B0000FFF71FFD94F94400401C01D184F8449074
:101B100094F94500401C01D184F84590FFF72BFD56
:101B200004A9684601F07EF90028204612D0FFF78C
:101B300055FE00F035FD204600F0ECFB0028A9D052
:101B40009DB3FFF7FEFC606A50B3206B0068C0F1E4
:101B5000200126E000F0DEFBE0B1206838B9FFF795
:101B6000F0FCA06801F0ABF90546FFF704FD04F1B5
:101B70002400049901F06FF82046FFF72FFE00F0D3
:101B80000FFD002886D1C8F80070BFF34F8FBFF358
:101B90006F8F7FE72046FFF721FE00F001FD79E718
:101BA0000021A06801F027FA9FE7FFE700208CE7FB
:101BB00070B50D46040007D14FF42472AFF2A8119E
:101BC000AFF29C1001F092FF01F069F9A168884220
:101BD00004D1E068401CE060012070BD2946204629
:101BE000FFF72CFF0028F8D0E168491CE16070BDC8
:101BF00070B50C46050007D140F2D522AFF2E811CE
:101C0000AFF2DC1001F072FFAC4207D940F2D622ED
:101C1000AFF2FC11AFF2F01001F068FF02220021D8
:101C20002846FFF74BFD002800D0846370BD2DE9E6
:101C3000F047984617468946040007D140F2C33260
:101C4000AFF22C21AFF2202001F050FFB9F1000FCC
:101C500009D1206C38B14FF47172AFF24421AFF268
:101C6000382001F043FFB8F1020F0AD1E06B0128E0
:101C700007D040F2C532AFF26021AFF2542001F03C
:101C800035FFFFF79DFC5020EFF3118680F311889C
:101C9000BFF34F8FBFF36F8FA06BE16B884206D30A
:101CA000B8F1020F03D0002086F3118839E694F9C9
:101CB0004550424649462046FFF724FD681C04D0A3
:101CC0006D1C84F845500120EEE7A06C012520B181
:101CD00041462046FFF74CFD06E0606A0028F2D03E
:101CE00004F1240001F013F80028ECD0002FEAD012
:101CF0003D60E8E72DE9F0410E46040007D14FF4BE
:101D00008C62AFF2EC21AFF2E02001F0EFFE206C2C
:101D100038B140F26442AFF20031AFF2F42001F08A
:101D2000E5FE206848B9A06838B140F26942AFF2D8
:101D30001831AFF20C3001F0D9FEFFF741FC502012
:101D4000EFF3118580F31188BFF34F8FBFF36F8FCF
:101D5000A16BE06B88421FD994F94500491CA1632F
:101D6000411C04D0401C84F84500012015E0A06C03
:101D7000012720B100212046FFF7FAFC06E0606A47
:101D80000028F2D004F1240000F0C1FF0028ECD0BC
:101D9000002EEAD03760E8E7002085F31188E5E4FB
:101DA00030B4026C0B46002A0BD0C1681144C160EC
:101DB0008468A14201D30168C16030BC184601F0BB
:101DC0003BBF30BC70472DE9F747002683B08A46F9
:101DD000040007D14FF4A062AFF2C431AFF2B830C3
:101DE00001F084FEBAF1000F09D1206C38B140F245
:101DF0000452AFF2DC31AFF2D03001F077FE01F0E7
:101E000052F848B9059838B140F20952AFF2F831AA
:101E1000AFF2EC3001F06AFE4FF000094FF080574E
:101E2000DFF80885FFF78DFBA56BB5B1514620465D
:101E3000FFF7B6FF6D1EA563206950B104F11000D5
:101E400000F065FF28B1C8F80070BFF34F8FBFF3F3
:101E50006F8FFFF790FB012062E5059808B11EB176
:101E600006E0FFF788FB27E0684600F0D4FF012674
:101E7000FFF781FB00F022FCFFF763FB94F94400BD
:101E8000401C01D184F8449094F94500401C01D1D4
:101E900084F84590FFF76FFB05A9684600F0C2FF84
:101EA000002820460AD0FFF799FC00F079FB204675
:101EB00000F030FA0028B5D0002031E500F02AFA11
:101EC00090B104F12400059900F0C5FE2046FFF70B
:101ED00085FC00F065FB0028A4D1C8F80070BFF3B2
:101EE0004F8FBFF36F8F9DE72046FFF777FC00F021
:101EF00057FB97E72DE9F743002582B08946040098
:101F000007D14FF4CD62AFF2F041AFF2E44001F0FF
:101F1000EDFDB9F1000F09D1206C38B140F26C62CF
:101F2000AFF20C51AFF2005001F0E0FD00F0BBFF4A
:101F300048B9049838B140F27162AFF22451AFF25F
:101F4000185001F0D3FD4FF000084FF08056F74FC6
:101F5000FFF7F7FAA06BA8B149462046E568FFF7FE
:101F60001FFFE560606A48B104F1240000F0CFFE75
:101F700020B13E60BFF34F8FBFF36F8FFFF7FBFAC7
:101F80000120A2E5049808B11DB106E0FFF7F3FABD
:101F900027E0684600F03FFF0125FFF7ECFA00F06C
:101FA0008DFBFFF7CEFA94F94400401C01D184F870
:101FB000448094F94500401C01D184F84580FFF726
:101FC000DAFA04A9684600F02DFF002820460AD05E
:101FD000FFF704FC00F0E4FA204600F09BF900282B
:101FE000B6D0002071E500F095F988B104F1240025
:101FF000049900F030FE2046FFF7F0FB00F0D0FA25
:102000000028A5D13E60BFF34F8FBFF36F8F9FE7CE
:102010002046FFF7E3FB00F0C3FA99E72DE9F0470C
:1020200090468946040007D140F2FB62AFF2186186
:10203000AFF20C6001F05AFDB9F1000F09D1206C2C
:1020400038B140F2FC62AFF23061AFF2246001F0CF
:102050004DFDFFF7B5FA5020EFF3118680F311889C
:10206000BFF34F8FBFF36F8FA76BF7B194F9445055
:1020700049462046FFF794FE7F1EA763681C04D0E4
:102080006D1C84F84450012010E020690028FAD02B
:1020900004F1100000F03BFE0028F4D0B8F1000F6E
:1020A000F1D00121C8F80010EDE7002086F3118877
:1020B00037E42DE9F0410E46040007D140F2577293
:1020C000AFF2AC61AFF2A06001F010FD4EB9206C30
:1020D00048B14FF4EB62AFF2C061AFF2B46001F00F
:1020E00005FD206C38B940F25972AFF2D461AFF2FD
:1020F000C86001F0FBFCFFF763FA5020EFF3118595
:1021000080F31188BFF34F8FBFF36F8FA06B30B197
:1021100031462046E768FFF743FE0120E76085F37C
:1021200011883CE610B5040007D140F28A72AFF284
:102130001871AFF20C7001F0D9FCFFF702FAA46B32
:10214000FFF719FA204665E410B5040007D140F204
:102150009B72AFF23C71AFF2307001F0C7FCFFF739
:10216000F0F9D4E90E10441AFFF705FA204651E4BD
:1021700010B5040007D140F2AC72AFF26471AFF257
:10218000587001F0B3FCA06B44E4694A002100BF21
:1021900002EBC1035B68834206D1002042F83100A4
:1021A00002EBC10148607047491C0A29F0D370470F
:1021B00010B5040007D140F2B772AFF2A471AFF2CC
:1021C000987001F093FC2046FFF7DFFF2046BDE842
:1021D0001040FFF75FB810B5040007D140F60912B0
:1021E000AFF2CC71AFF2C07001F080FCA06B08B10F
:1021F00000200FE401200DE410B5040007D140F6E3
:102200003112AFF2EC71AFF2E07001F06FFCA06B35
:10221000E16B884201D1012095E7002093E710B5DA
:10222000434B002253F832401CB1521C0A2AF9D306
:1022300089E743F8321003EBC201486083E70346A5
:1022400010B500203A4A014602EBC10464689C4282
:1022500002D152F8310076E7491C0A29F4D372E71B
:1022600070B515460E460446FFF76BF994F9441015
:102270000020491C01D184F8440094F94510491C00
:1022800001D184F84500FFF776F9A06B28B92A46FA
:10229000314604F1240000F01EFD2046BDE87040E8
:1022A000FFF79CBA00220421FFF708BA70B50D466B
:1022B0000446FFF746F9A06C08B9A06B08B10024EA
:1022C00001E0A5640124FFF756F9204670BD10B562
:1022D0000446806C884201D1A06B08B1002032E72F
:1022E000FFF72FF90020A064FFF745F901202AE746
:1022F00008B5002200920A466946FFF764FD00987F
:1023000008BD08B500210A4600916946FFF786FE20
:10231000009808BD10B50446FFF713F9A06B48B14B
:102320005FF00004FFF727F920460CE704ED00E01A
:10233000A02800200124F5E72DE9F0410546FFF72C
:1023400000F9F84CA068401CA0602068F64F10B15E
:10235000606930B32BE02560A068012827D10026F2
:1023600006EB860007EB8000FFF702F8761C202EB4
:10237000F6D3EE48FEF7FCFFEC481430FEF7F8FF0A
:10238000EA482830FEF7F4FFE8483C30FEF7F0FF5B
:10239000E6485030FEF7ECFFE44860631430A06379
:1023A00005E02068E96AC06A884200D82560606A52
:1023B000401C6062E96A0120226988401043206164
:1023C00001EB810007EB8000291DFEF7DFFFFFF71F
:1023D000D2F8606900280CD02068E96AC06A884297
:1023E00007D2D3494FF080500860BFF34F8FBFF33F
:1023F0006F8FBDE8F0812DE9FF5F8346DDE90E8731
:10240000994616468A469000FEF7DAFE05001AD075
:102410005420FEF7D5FE040012D025630021CDE93B
:102420000241CDE900874B4632465146584601F0FD
:1024300013F82046FFF780FF012004B0BDE8F09FAD
:102440002846FEF727FF4FF0FF30F6E770B5054648
:10245000FFF777F8B34C05B92568281DFEF7BAFFDA
:1024600058B9E86AB04A00EB800152F8211021B94E
:1024700001218140206988432061A86A18B105F1D3
:102480001800FEF7A7FF606A401C60622068854262
:1024900008D1A648291D3C30FEF778FF6068401C33
:1024A000606007E0A068401EA060284601F031F897
:1024B00001F022F8FFF75FF86069002812D0206869
:1024C00085420FD1206B28B140F2D24299A19DA044
:1024D00001F00CFB96494FF080500860BFF34F8F1E
:1024E000BFF36F8F70BD2DE9F0418E4C0027206B3C
:1024F00038B1A069401CA061E06900B101273846ED
:1025000077E7E668761CE66011D1606B006828B159
:1025100040F67F2287A18BA001F0E8FA606BA16BE7
:102520006163A063206A401C206200F0E5FFA06A9E
:10253000DFF8F481864209D3606B006880B1606B7C
:10254000C068C568686886420DD2A0622068C06A0B
:1025500000EB800158F821000128CDD90127CBE7F5
:102560004FF0FF30F1E7281DFEF734FFA86A18B1DD
:1025700005F11800FEF72EFFE86A0121226981406B
:102580001143216100EB800108EB8100291DFEF75A
:10259000FDFEE86A2168C96A8842CDD30127CBE7EE
:1025A0002DE9F0475F4C00252E46206B28B940F6F8
:1025B000850260A163A001F099FAFEF7C2FF206BCB
:1025C000401E2063206BE0BBA168584F28370120D4
:1025D000B9B3DFF8549180463868E8B1F868C56847
:1025E00005F11800FEF7F6FE281DFEF7F3FEE86A77
:1025F000226908FA00F11143216100EB800109EB27
:102600008100291DFEF7C2FEE86A2168C96A884276
:10261000E2D3C4F81C80DFE70DB100F06DFFA569BF
:1026200045B14746FFF75FFF00B1E7616D1EF9D185
:102630000020A061E06920B13D4901263007086013
:1026400000E003E0BFF34F8FBFF36F8FFEF793FF00
:102650003046BDE8F0872DE9F041324C0F46054683
:10266000E6682068001DFEF7B5FE38B9206890F8CE
:102670002C1001208840216981432161681C08D108
:102680003FB12168BDE8F04128485030091DFEF7F0
:102690007DBE20683544B5424560216805D2A06BF7
:1026A000BDE8F041091DFEF77DBE606B091DFEF718
:1026B00079FEA06A854200D2A5629AE61948016BAC
:1026C000491C0163704770B50D46040005D140F206
:1026D000E64218A11BA001F009FA2DB940F2E74229
:1026E00014A118A001F002FA0E4E306B28B14FF47D
:1026F0009D6210A113A001F0F9F9FFF7DFFFF26866
:1027000023685919934204D98B4223D9914202D8A4
:1027100020E08B42FAD9881A21600021FFF79BFF45
:1027200019E0000050000020F0280020702B00204D
:1027300004ED00E02E2E5C6F735C7461736B732E7E
:10274000630000004572726F723A25732C25640D88
:102750000A0000002160FFF723FF002807D1F94994
:102760004FF080500860BFF34F8FBFF36F8F70BD85
:1027700010B5040014D0F448006B38B140F23C525C
:10278000AFF25001AFF2440001F0B0F9FFF796FF4D
:1027900000212046FFF75FFFFFF702FF002807D167
:1027A000E8494FF080500860BFF34F8FBFF36F8F41
:1027B00010BD2DE9F041040007D14FF4AD62AFF236
:1027C0008C01AFF2800001F091F9DF4E3068844255
:1027D00001D100200DE6FEF7B4FE6569776BB66B9C
:1027E000FEF7C9FEBD4201D0B54201D1022000E68C
:1027F000D648854208D1A06A0028F7D194F8500045
:102800000128F3D00320F4E5D0481438854202D0E3
:102810000DB10120EDE50420EBE510B50446FEF70F
:1028200090FE0CB9C8480468E46AFEF7A4FE20468E
:1028300010BD10B50446FEF7C3FE5020EFF3118122
:1028400080F31188BFF34F8FBFF36F8F0CB9BE4871
:102850000468E06A81F3118810BD2DE9F04100277A
:102860000E460446202908D340F20262AFF23C1122
:10287000AFF2301001F03AF91F26FEF762FEB24DBA
:1028800004B92C68606CB0423FD02968864206D9F2
:102890008C4207D02968C96AB14202D902E08C4251
:1028A00000D10127E16A8846884200D1E662666469
:1028B000A069002802DBC6F12000A061A44E08EB4D
:1028C0008800616906EB8000814215D1201DFEF76A
:1028D00081FD012120B92A6901FA08F082432A61A9
:1028E000E06A2A6981401143296100EB800006EB10
:1028F0008000211DFEF74AFD3FB192494FF0805004
:102900000860BFF34F8FBFF36F8FBDE8F041FEF754
:1029100032BE70B58C4C206B10B10120E06170BDEF
:102920000020E06120698A4EB0FA80F0C0F11F00FB
:1029300000EB800556F8250038B940F6B732AFF203
:102940000C21AFF2002001F0D1F806EB850000F178
:102950000802416849684160914201D1496841607B
:10296000C868206070BD70B50446FEF7EAFD764D7C
:1029700004B92C68201DFEF72DFD58B9E06A744A91
:1029800000EB800152F8211021B901218140286912
:1029900088432861A06A18B104F11800FEF71AFDF7
:1029A000211D6A48FEF7F2FC94F850000026012829
:1029B00001D184F85060FEF7DEFD686928B1FEF7AA
:1029C000C0FD00F099FDFEF7D6FD2868844213D1C2
:1029D000686990B1286B38B140F2E462AFF2AC2183
:1029E000AFF2A02001F082F856494FF08050086005
:1029F000BFF34F8FBFF36F8F70BD54480068A96855
:102A0000884201D12E6070BDBDE8704081E770B58D
:102A10000025040007D140F20E72AFF2E821AFF2B8
:102A2000DC2001F063F849496069884205D1A06A59
:102A30002839884201D000B90125284670BD70B5FB
:102A4000040007D14FF4E762AFF21831AFF20C3057
:102A500001F04CF83C4D2868844229D0002C27D046
:102A6000FEF76FFD2046FFF7D2FFE8B1201DFEF70D
:102A7000B1FCE06A01212A6981401143296134498E
:102A800000EB800001EB8000211DFEF77FFCE06A77
:102A90002968C96A884207D32A494FF080500860E4
:102AA000BFF34F8FBFF36F8FBDE87040FEF763BD7C
:102AB00070BD2DE9F0410027040007D140F26F728C
:102AC000AFF29031AFF2843001F010F8FEF778FDEC
:102AD0005020EFF3118580F31188BFF34F8FBFF3C0
:102AE0006F8F2046FFF793FFF0B1174E306B20B188
:102AF000164804F11801283814E0E06A3168C96A00
:102B0000884200D30127201DFEF764FCE16A012002
:102B1000326988401043306101EB81000C4901EBC0
:102B20008000211DFEF732FC85F31188384660E4F1
:102B3000064E054C143E064F4FF08058DFF80490C7
:102B40001AE0000004ED00E050000020C02B00203F
:102B5000F0280020FEF7F5FCF068C568281DFEF798
:102B600039FCA068401EA0606068401E6060FEF7EF
:102B700002FD284600F0CDFC60680028EAD13868E4
:102B80000128F9D9C9F80080BFF34F8FBFF36F8FC9
:102B9000F2E71CB5FE480024CDE900402346802220
:102BA000FCA1FE48FFF727FC012803D100F0C9FD76
:102BB00001280CD0401C1DD14FF40262AFF28C41B1
:102BC000AFF2804002B0BDE8104000F08FBF50204F
:102BD00080F31188BFF34F8FBFF36F8FEC484FF036
:102BE000FF312C38816201214161C460BDE81C4085
:102BF000FEF74FBC1CBD502080F31188BFF34F8FF0
:102C0000BFF36F8FE24900202C394861FEF78DBC7D
:102C1000DF482C38C068704710B5FEF7D1FCDC489F
:102C20002C38C06810BDDA482C388068704710B561
:102C300010B1044624B10BE0D5482C380468F9E7FC
:102C400040F62912AFF21451AFF2085000F04EFFD7
:102C500004F1340010BD70B50D46040007D140F6F4
:102C6000CE32AFF23051AFF2245000F03FFFC848EF
:102C70002C38016820461831FEF794FB2846BDE841
:102C800070400121E7E42DE9F04116460F460500AA
:102C900007D140F6DF32AFF26451AFF2585000F086
:102CA00025FFBB4C2C3C206B38B940F6E332AFF229
:102CB0007C51AFF2705000F019FF216847F00040DE
:102CC0008861216828461831FEF760FB3046BDE870
:102CD000F0410121BFE470B514460D46060007D14E
:102CE00040F6F932AFF2B451AFF2A85000F0FEFE58
:102CF000A7482C38016830461831FEF747FB0CB165
:102D00004FF0FF3521462846BDE87040A3E42DE989
:102D1000F041C068C4683CB940F62942AFF2EC51BA
:102D2000AFF2E05000F0E2FE04F118000746FEF7B3
:102D300051FB974D2C3D286B012658B139469848D8
:102D4000FEF724FBE06A2968C96A884212D901208B
:102D5000EE61B2E4201DFEF73DFBE16A2A6906FA46
:102D600001F01043286101EB81008E4901EB8000E6
:102D7000211DE5E70020A0E470B5854D06462C3DF9
:102D80000C46286B38B94FF44662AFF25861AFF287
:102D90004C6000F0ABFE44F000403060F4683CB999
:102DA00040F66842AFF27461AFF2686000F09EFED8
:102DB0003046FEF70FFB201DFEF70CFBE16A0126F3
:102DC0002A6906FA01F01043286101EB8100754978
:102DD00001EB8000211DFEF7D9FAE06A2968C96A73
:102DE000884200D9EE6170BD10B5040007D140F6ED
:102DF0007E42AFF2C061AFF2B46000F077FEFEF742
:102E0000A0FB63482C38016A2160C0686060BDE89F
:102E10001040FEF7B0BB5E492C390A6A0260C968EF
:102E2000416070472DE9F0410C46050007D140F69E
:102E30009442AFF20071AFF2F46000F057FE3CB97B
:102E400040F69542AFF21471AFF2087000F04EFEFA
:102E5000FEF777FB4E4E2C3EF2686B682068D11A65
:102E6000471C07D02F68366AB74208D0934206D86D
:102E7000012400E00024FEF77EFB20461DE488428A
:102E800005D9401A20602846FFF7C5FFF2E7002069
:102E90002060EDE73E4901202C39C86170473C486D
:102EA0002C38006870473A482C38416919B1006BDA
:102EB00018B100207047012070470220704770B59C
:102EC00004004FF0000039D0314DE16A2C3D2A68F2
:102ED000D26A914233D2A069002804DB2868C06A14
:102EE000C0F12000A0612F4E01EB8101606906EB6B
:102EF000810188421ED1201DFEF76CFA012150B9D4
:102F0000E06A00EB800256F8222022B92A6901FA11
:102F100000F082432A612868C06AE0622A69814021
:102F20001143296100EB800006EB8000211DFEF7B4
:102F30002DFA02E02868C06AE062012070BD616C71
:102F40002A68D26A9142F8D370BD70B504004FF080
:102F500000064ED00E4D2C3D2868844207D040F626
:102F6000D172AFF63001AFF6240000F0BFFDA06CC7
:102F700038B940F6D272AFF64401AFF6380000F02F
:102F8000B5FDA06C401EA064626CE16A91420BE04A
:102F90007C00002049444C4500000000312B000813
:102FA000982B0020F028002023D010BB201DFEF716
:102FB00011FAFE4A012150B9E06A00EB800352F891
:102FC000233023B92B6901FA00F083432B61606C35
:102FD000E062C0F12000A061E06A2B6981401943E2
:102FE000296100EB800002EB8000211DFEF7CEF985
:102FF0000126304670BD70B50D4604004DD0A06C62
:1030000038B94FF48152AFF6D401AFF6C80000F0E2
:103010006DFD606CA84200D30546E06AA8423CD032
:10302000A06C012839D1E24E3068844207D141F2C8
:103030003B02AFF60011AFF6F40000F057FDE06A76
:10304000E562A169002902DBC5F12001A161D74D2C
:1030500000EB8000616905EB800081421DD1201DDD
:10306000FEF7B8F9012150B9E06A00EB800255F88B
:10307000222022B9326901FA00F082433261E06A0B
:10308000326981401143316100EB800005EB800023
:10309000211DBDE87040FEF779B970BDC4490868CC
:1030A0000A688069D26A0968C2F120028A617047A1
:1030B000BF49086818B10868826C521C82640868AD
:1030C000704770B50C460646FEF73BFAB84D2868C7
:1030D000C06C80B92968012081F850005CB10121E1
:1030E0002046FFF7B8FAB3494FF080500860BFF3AD
:1030F0004F8FBFF36F8FFEF73EFAFEF722FA286874
:10310000C46C002034B116B12968C86402E02A6892
:10311000611ED164296881F85000FEF72CFA204620
:1031200070BD2DE9F0411E46154688460746FEF75C
:1031300008FA9F4C206890F85000022814D02068AC
:10314000C16CB943C1642168012081F850005EB1AF
:1031500001213046FFF77FFA96494FF08050086012
:10316000BFF34F8FBFF36F8FFEF705FAFEF7E9F954
:1031700015B12068C06C2860206890F850000228C3
:1031800001D0002505E02068C16C21EA0801C16476
:1031900001252168002081F85000FEF7ECF928464F
:1031A000C5E42DE9F0411F4690460D4604004FF05E
:1031B000010607D141F27022AFF68821AFF67C20DC
:1031C00000F094FCFEF7BDF90FB1E06C386094F8A4
:1031D0005070022084F85000B8F1050F11D2DFE8DA
:1031E00008F01B03060C0A00E06C284301E0E06CC9
:1031F000401CE06410E0022F01D0E5640CE00026E2
:1032000035E0E06C401C07D041F2A122AFF6DC2192
:10321000AFF6D02000F06AFC012F28D1201DFEF768
:10322000D9F8634DE06A01212A698140114329617F
:103230005E4900EB800001EB8000211DFEF7A6F83F
:10324000A06A38B141F2B022AFF61831AFF60C30B7
:1032500000F04CFCE06A2968C96A884207D95549E0
:103260004FF080500860BFF34F8FBFF36F8FFEF7B2
:1032700082F930465BE42DE9F0471F46DDF82090E7
:1032800092460D4604004FF0010807D141F2E322B7
:10329000AFF66031AFF6543000F028FCFEF790F93D
:1032A0005020EFF3118680F31188BFF34F8FBFF3E7
:1032B0006F8F0FB1E06C386094F85070022084F882
:1032C0005000BAF1050F12D2DFE80AF01C03060C19
:1032D0000A00E06C284301E0E06C401CE06411E06F
:1032E000022F01D0E5640DE04FF000082BE0E06C08
:1032F000401C07D041F22632AFF6C831AFF6BC30E1
:1033000000F0F4FB012F1ED1A06A38B141F2313236
:10331000AFF6E031AFF6D43000F0E8FB244D286B77
:103320000127A8B1244804F1180100BFFEF72EF8C8
:10333000E06A2968C96A884205D9B9F1000F01D04D
:10334000C9F80070EF6186F311884046BDE8F08748
:10335000201DFEF73FF8E16A2A6907FA01F01043E1
:10336000286101EB8100114901EB8000211DDDE79F
:103370002DE9F0418846040007D141F26332AFF6EF
:103380004C41AFF6404000F0B1FBFEF719F9502078
:10339000EFF3118680F31188BFF34F8FBFF36F8F68
:1033A00094F85000022184F8501007E0F028002023
:1033B0005000002004ED00E0982B0020E16C491C37
:1033C000E16401281DD1A06A38B141F28932AFF61B
:1033D0009C41AFF6904000F089FB534D286B0127CC
:1033E00090B104F118015148FDF7D0FFE06A296857
:1033F000C96A884205D9B8F1000F01D0C8F8007039
:10340000EF6186F31188A4E4201DFDF7E3FFE16A74
:103410002A6907FA01F01043286101EB8100444951
:1034200001EB8000211DDFE710B568B14FEA000411
:10343000FEF787F894F85000022808D05FF00004E7
:10344000FEF799F8204610BD37480468F0E70020E1
:1034500084F850000124F3E72DE9F05F8846DDE9A8
:103460000B9483466FF00301206B01EB820108444B
:103470000A9E20F007079A46780705D040F261328D
:103480002CA130A000F032FB0025B8F1000F0FD0C6
:103490005FF00000221818F8001082F8341018F8B5
:1034A000001011B1401C1028F4D384F8435001E0FF
:1034B00084F83450202E00D31F26E662C4E911653B
:1034C000201DFDF760FF04F11800FDF75CFF24618B
:1034D000C6F120006462A061E56484F85050524651
:1034E00059463846FDF7B5FF2060B9F1000F01D00D
:1034F000C9F80040BDE8F09F0B48416B096829B14D
:10350000416BC968C9684968816270474FF0FF31F3
:10351000FAE710B50446006BFDF7BCFE2046BDE897
:103520001040FDF7B7BE000050000020982B00208F
:10353000F02800202E2E5C6F735C7461736B732E09
:10354000630000004572726F723A25732C25640D7A
:103550000A00000070B500244160FC4D00619142FA
:1035600006D8D11A8269914206D2011D286907E066
:103570009A4203D2994201D3012403E0011DE86875
:10358000FDF710FF204670BD2DE9FF479946DDF895
:1035900030A090460E4607004FF0000405D14FF4CE
:1035A000C172EBA1EEA000F0A1FAE84D286880B14D
:1035B000CDE900680297062E11DAFFF774FC0228A5
:1035C0004FF0000309D0002269462868FEF742F94F
:1035D000044604B02046BDE8F0875246F4E70023D5
:1035E0004A466946FEF723FBF2E770B586B0D74E30
:1035F0006FE00198002806DADDE90301029A90479E
:103600000198002865DB039C606910B1201DFDF75F
:10361000E1FE05A800F08CF9054601980A2858D269
:10362000DFE800F00505052E344B05052E3494F82F
:1036300024002A4640F0010084F824000298A16981
:10364000034601442046FFF785FF002841D0216A48
:103650002046884794F8240040073AD5002000907F
:103660000298A1690023421819462046FFF78CFFF3
:1036700010BB40F21332B6A1B9A000F037FA28E02F
:1036800014F8240F20F00100207022E094F82400A8
:1036900040F0010084F824000298A06128B940F2AB
:1036A0002B32ABA1AEA000F021FAA0692B46411944
:1036B0001A462046FFF74EFF0BE094F824008107DE
:1036C00003D42046FDF7E6FD03E020F0010084F876
:1036D0002400002201A93068FEF775FB002888D17C
:1036E00006B070BD994CE068016841B1C068002126
:1036F000D0F8000000F05DF9FFF777FFF3E7012154
:103700000020F7E710B5FDF71CFF904C2068A0B92A
:103710009748FDF72DFE96481430FDF729FE944892
:10372000E06014302061002210210A20FDF7C6FF5E
:10373000206010B18FA1FEF772FDBDE81040FDF7CB
:103740001ABF1CB50024FFF7DDFF8048006868B190
:103750007E491F20091DCDE9000100234FF480722E
:1037600086A18848FEF747FE040005D140F21312F7
:1037700077A17BA000F0BAF920461CBD2DE9F047E7
:103780000746994616460D462820DDF820A0FDF78D
:1037900017FD04001ED0B84600204F4684F82400D0
:1037A000D1462DB940F2651277A17BA000F09EF9B9
:1037B000FFF7A8FF04F11801C4F8008081E8A00217
:1037C000201DFDF7E0FD2EB194F8240040F0040127
:1037D00084F824102046FEE610B55C4C606828B9D9
:1037E0004FF4D6725AA15EA000F080F9606810BD57
:1037F00010B5040005D140F2B51255A158A000F053
:1038000075F9A06910BD70B50D46040005D14FF4DF
:10381000DF724FA152A000F069F9FDF792FE14F893
:10382000240F15B140F0040001E020F004002070E6
:10383000BDE87040FDF79FBE10B5040005D140F211
:10384000D31243A146A000F051F9606810BD10B535
:10385000040005D140F2DD123DA141A000F046F97F
:10386000206810BD10B5040005D14FF4737238A163
:103870003BA000F03BF9FDF764FE94F82400C0077C
:1038800004D00124FDF777FE204610BD0024F9E79F
:1038900010B5040005D140F2E5322DA130A000F0B2
:1038A00025F9FDF74EFEE469FDF765FE204610BDE3
:1038B00070B50D46040005D140F2F53224A128A0D0
:1038C00000F014F9FDF73DFEE561BDE87040FDF73D
:1038D00052BE1FB51C466FF00103CDE90030CDE9A3
:1038E00002121A480023224669460068FEF79FF933
:1038F00004B010BD2DE9FF41144C074698462068DE
:1039000015460E4628B940F2214211A114A000F03C
:10391000EDF84FF0FF30CDE90007CDE90265002357
:10392000424669462068FDF795FF04B0BDE8F08186
:1039300070B50546FFF76CF9044E0446B068844242
:1039400032D200F067F801202FE000008C00002048
:103950002E2E5C6F735C74696D6572732E6300004C
:103960004572726F723A25732C25640D0A000000AF
:10397000D42B0020546D725100000000546D722051
:1039800053766300E53600082E2E5C6F735C746915
:103990006D6572732E6300004572726F723A257303
:1039A0002C25640D0A000000002028602046B46029
:1039B00070BDF8B50D460646FEF780FE6846FFF777
:1039C000B7FF0446009810B1FEF7EAFDF8BD444881
:1039D000ADB101690968D9B10025311B2A460068DB
:1039E000FEF73EFCFEF7DCFD0028EFD13D494FF02D
:1039F00080500860BFF34F8FBFF36F8FF8BDA642B2
:103A0000EBD8FEF7CDFD2146304600F037F8F8BD83
:103A10000125E2E7F8B5324D28E0C068C4680668C1
:103A2000201DFDF7D7FC216A2046884794F8240022
:103A300040071BD5A0693044B04206D924616060BC
:103A4000211DE868FDF7AEFC10E0002003460146AA
:103A5000009032462046FFF797FD38B94FF4617267
:103A6000AFF2DC01AFF2D00000F040F8E868016886
:103A70000029D2D12969C5E90310F8BDF8B505467A
:103A800017480E46C068C068C468201DFDF7A2FC38
:103A900094F82400410719D5A0692B4641193246F4
:103AA0002046FFF757FDA8B10020034601460090CD
:103AB0002A462046FFF768FD60B94FF4FC72AFF26A
:103AC0003811AFF22C1000F011F803E020F00100E3
:103AD00084F82400216A01B02046BDE8F040084780
:103AE0008C00002004ED00E0704700000FB4044992
:103AF00010B503AA029800F057F910BC5DF814FB4A
:103B0000280000202DE9F0410E46044600202062E6
:103B10002046E168884730B3252805D0D4E9012143
:103B20009047206A401CF2E7E1682046002788475A
:103B3000050018D0A5F14100192802D820354FF40E
:103B400000673246294620462760FCF72BFB40B130
:103B5000012804D0F61D26F007060836D8E7361DE2
:103B6000D6E72846DAE7206ABDE8F08170B50C4652
:103B70000546012A05D02878800600D5EA69002389
:103B800002E0012305E05B1C934202D2E05C0028C6
:103B9000F9D1A869E618C01AA861286A18442862F1
:103BA0002846AFF3008004E0D5E9012114F8010BA9
:103BB0009047B442F8D32846AFF3008070BD0000B0
:103BC0002DE9F0410646002410687529314616A5F6
:103BD00010D0AFF30080002802DA404213A507E0BE
:103BE00031688A0701D512A502E0490704D511A55D
:103BF000012401E0AFF3008000210A2206F124072E
:103C000009E0B0FBF2FCB0FBF2F302FB1C00303029
:103C100078541846491C0028F3D123462A463046DA
:103C2000BDE8F04100F051B8000000002D00000098
:103C30002B00000020000000032A40F2308010F02A
:103C4000030C00F0158011F8013BBCF1020F624437
:103C500098BF11F801CB00F8013B38BF11F8013BC8
:103C6000A2F1040298BF00F801CB38BF00F8013B75
:103C700011F0030300F0AA80083AC0F0088051F860
:103C8000043B083A51F804CBA0E80810F5E7121DF0
:103C90005CBF51F8043B40F8043BAFF30080D2070F
:103CA00024BF11F8013B11F801CB48BF11F8012BDB
:103CB00024BF00F8013B00F801CB48BF00F8012BFE
:103CC000704770477047704770472DE9F0470D46C1
:103CD00099469246044600F124080168880604D5F6
:103CE000E06921F01001216000E00120A84201DD1F
:103CF000471B00E00027A1697A1902EB0900081AA6
:103D0000A0612078C00602D42046AFF300800026D0
:103D100008E0D4E901211AF806009047206A401C07
:103D2000761C20624E45F4DB2078C0060AD520467A
:103D3000AFF3008006E0D4E9012130209047206AEB
:103D4000401C2062381EA7F10107F4DC07E0D4E92B
:103D5000012118F805009047206A401C2062281EA7
:103D6000A5F10105F3DC2046AFF3008020780006C2
:103D700002D50220BDE8F0870120FBE710B54369BA
:103D800013B1AFF3008001E0FFF7F0FE012010BD9A
:103D9000127800F124010A7000224A700122EDE736
:103DA00011684FF0FF32E9E7074B70B50D467B44D1
:103DB00000F043F80446284600F052F810B14FF0E6
:103DC000FF3070BD204670BD5DCFFFFF10B5203ABB
:103DD000C0F00B80B1E81850203AA0E81850B1E8C4
:103DE0001850A0E81850BFF4F5AF5FEA027C24BF7A
:103DF000B1E81850A0E8185044BF18C918C0BDE871
:103E000010405FEA827C24BF51F8043B40F8043B39
:103E100008BF7047D20728BF31F8023B48BF11F8EE
:103E2000012B28BF20F8023B48BF00F8012B704748
:103E300001694A1C02610878704700B58FB0CDE96E
:103E400001310021059105497944CDE9031011465E
:103E50006846FFF757FE0FB000BD0000E5FFFFFF0B
:103E6000007B00F080007047754600F029F8AE46F0
:103E700005006946534620F00700854618B020B576
:103E8000FCF706FABDE820404FF000064FF00007AF
:103E90004FF000084FF0000B21F00701AC46ACE8F2
:103EA000C009ACE8C009ACE8C009ACE8C0098D465F
:103EB00070470446AFF300802046FCF788F9000005
:103EC00000487047FC2B0020E83E0008000000205E
:103ED000A00000006C010008883F0008A00000203E
:103EE000C03100008801000802040608000000003C
:103EF00001020304010203040607080900A24A04A0
:103F00000000000000000000010203040607080989
:103F100000000000000000000000000000000000A1
:103F20000000000000000000000000000000000091
:103F3000AAAAAAAA000000000000000000000000D9
:103F40000000000000000000000000000000000071
:103F50000000000000000000000000000000000061
:103F60000000000000000000000000000000000051
:103F70000000000000000000000000000000000041
:083F8000000000000000000039
:0400000508000131BD
:00000001FF
