:020000040800F2
:100000006846002075020008C9050008CB050008F5
:10001000CD050008CF050008D1050008000000004C
:10002000000000000000000000000000DD010008EA
:10003000D30500080000000021020008E5150008B3
:100040008F0200088F0200088F0200088F0200084C
:100050008F0200088F0200088F0200088F0200083C
:100060008F0200088F0200088F0200088F0200082C
:100070008F0200088F0200088F0200088F0200081C
:100080008F0200088F0200088F0200088F0200080C
:100090008F0200088F0200088F0200088F020008FC
:1000A0008F0200088F0200088F0200088F020008EC
:1000B0008F0200088F0200088F0200088F020008DC
:1000C0008F0200088F0200088F0200088F020008CC
:1000D0008F020008311000086F100008A7100008F8
:1000E0008F0200088F0200088F0200088F020008AC
:1000F0008F0200088F0200088F0200088F0200089C
:100100008F0200088F0200088F0200088F0200088B
:100110008F0200088F0200088F0200088F0200087B
:100120008F0200088F0200088F0200088F0200086B
:1001300000F002F800F042F80AA090E8000C8244B7
:100140008344AAF10107DA4501D100F037F8AFF294
:10015000090EBAE80F0013F0010F18BFFB1A43F0A5
:10016000010318472C3E00004C3E0000103A24BF0B
:1001700078C878C1FAD8520724BF30C830C144BF0C
:1001800004680C607047000000230024002500264E
:10019000103A28BF78C1FBD8520728BF30C148BFEA
:1001A0000B607047642903F06F85732903F05C8648
:1001B000002070471FB51FBD10B510BD03F0B8FE7D
:1001C0001146FFF7F7FF01F041F903F0D6FE03B443
:1001D000FFF7F2FF03BC00F099FD0000224B196805
:1001E0000868B0E8F00F80F30988BFF36F8F4FF015
:1001F000000080F311884EF00D0E704700000000E3
:1002000006480068006880F3088862B661B6BFF3EC
:100210004F8FBFF36F8F00DF00BF00BF08ED00E01E
:10022000EFF30980BFF36F8F0F4B1A6820E9F00FCF
:10023000106008B54FF0500080F31188BFF34F8F66
:10024000BFF36F8F02F08EFB4FF0000080F3118838
:10025000BDE8084019680868B0E8F00F80F3098825
:10026000BFF36F8F704700BF50000020EFF3058091
:10027000704700000948804709480047FEE7FEE74D
:10028000FEE7FEE7FEE7FEE7FEE7FEE7FEE7FEE746
:1002900004480549054A064B70470000550C000804
:1002A00031010008684000206846002068420020B4
:1002B000684200202849084328490860704730B543
:1002C0000F23C27801780125F2B1244A126801F1A6
:1002D000E02102F4E062C2F5E062120AC2F1040415
:1002E000D3404278A24084781C401443220181F814
:1002F0000024007800F01F018D404009800000F1CB
:10030000E020C0F8005130BD01F01F0085404809D1
:10031000800000F1E020C0F8805130BD104A11404B
:1003200001430E48001F016070470C4A121D00294E
:10033000116801D0014300E08143116070474FF024
:10034000E0210428086903D020F004000861704708
:1003500040F00400FAE700000000FA050CED00E0B0
:1003600080FFFF1F8F4910B5884206D1012104206C
:1003700000F04FFA002104203BE08B49884206D16F
:100380000121082000F045FA0021082031E08749CA
:10039000884206D10121102000F03BFA00211020F4
:1003A00027E08349884206D10121202000F031FA5C
:1003B000002120201DE07F49884206D101214020F4
:1003C00000F027FA0021402013E07B49884206D143
:1003D0000121802000F01DFA0021802009E07749EA
:1003E00088420AD184150121204600F012FA00212A
:1003F0002046BDE8104000F00CBA10BD10B5012138
:10040000084600F006FA0021BDE81040012000F087
:1004100000BAF0B5CC78002204F00F03E40601D551
:100420008C7823430C784FF00F0C14F0FF0F4FF033
:10043000010E1BD005680E880EFA02F42640A64273
:1004400010D196000CFA06F725EA070703FA06F51D
:10045000CE783D43282E02D0482E02D002E04461DF
:1004600000E00461521C082AE5D305600A88FF2ACF
:100470001CD94468002202F108060EFA06F50E881F
:100480002E40AE420ED196000CFA06F7BC4303FA9A
:1004900006F7CE783C43282E00D14561CE78482E11
:1004A00000D10561521C082AE5D34460F0BD4FF627
:1004B000FF710180022181700421C17070470246E2
:1004C000002092680A4200D001207047806880B204
:1004D000704702460020D2680A4200D001207047CF
:1004E000C06880B2704701617047416170470AB1CE
:1004F0000161704741617047C160704741F48032CB
:100500008261816182618169806970472C4B10B57D
:100510001A684FF68074224042EA001008431860BF
:1005200010BD2849C8617047F0B5254C002801DA94
:10053000E36900E06368450D2E0185B2C0F3015701
:10054000B540C0F30342032F05D0C6020AD50326E7
:100550009640B34307E023F07062636823F0706352
:10056000636002E0AB4343F0706201B12A430028AC
:1005700001DAE261F0BD6260F0BD10B58A0721F0DA
:1005800003040F49120F21440F238C6893409C43AE
:100590008C608B68904003438B6010BD0949C1F8A3
:1005A000DC00704700080140000C014000100140D1
:1005B0000014014000180140001C014000200140CF
:1005C00000000140000020427047FEE7FEE7FEE722
:1005D000FEE77047A548016841F0010101604168EC
:1005E000A34A114041600168A24A114001600168BC
:1005F00021F480210160416821F4FE0141604FF443
:100600001F018160704799490A6822F480320A60AC
:100610000A6822F480220A60B0F5803F07D0B0F566
:10062000802F03D1086840F4A02008607047086854
:1006300040F48030F9E70346002059098B4A01292C
:100640000AD002290AD0516A03F01F020123934005
:100650000B4200D0012070471168F5E7116AF3E7FB
:1006600018B500204FF4A06400903120FFF7E3FF9D
:100670000099491C0091A14201D00028F5D03120F9
:10068000FFF7D9FF002800D0012018BD774A116874
:1006900021F0F80141EAC000106070477649086017
:1006A0007047724B5A68084322F47C12104358601A
:1006B00070477149086670476C4A516821F0030120
:1006C0000143516070476948406800F00C00704772
:1006D000664A516821F0F001014351607047634A56
:1006E000516821F4E0610143516070475F4A5168ED
:1006F00021F4605141EAC000506070475B4A002914
:10070000517A01D0014300E08143517270475A4948
:10071000C1F8D8007047554A516821F4404101435F
:10072000516070475149002281F8202081F8202033
:10073000012802D0042802D1052081F8200070474A
:100740004E490860704749490A6A02430A62704785
:100750004A4944390860704730B5444A5168484BAB
:1007600011F00C0103D0042901D0082901D0036045
:1007700012E05168536801F470114FF0020413F451
:10078000803F04EB914102D053689B0301D53D4B60
:1007900000E03B4B5943016051680F2303EA1111FC
:1007A000394B5C5C0168E14041605468072505EA0B
:1007B00014241C5D21FA04F48460546805EAD424EE
:1007C0001B5DD940C1605268032303EA92322E4B6D
:1007D0001B1F9A5CB1FBF2F1016130BD234A002975
:1007E000516901D0014300E08143516170471F4AC4
:1007F0000029916901D0014300E081439161704774
:100800001A4A0029D16901D0014300E08143D16136
:100810007047164A0029D16801D0014300E08143A6
:10082000D1607047114A0029116901D0014300E0ED
:1008300081431161704711494039086070470E4982
:10084000C86470470949C87170470848416A41F057
:10085000807141627047054A0146002092680A4251
:1008600000D0012070470149887270470010024093
:100870000000FFF8FFFFF6FE000042428004424203
:1008800000127A0000093D0004000020C44910B5A0
:1008900088420AD101218C032046FFF7BAFF204687
:1008A000BDE810400021FFF7B4BFBE49884202D125
:1008B00001214C0410E0BC49884202D101218C0482
:1008C0000AE0BA49884202D10121CC0404E0B849C7
:1008D00088420AD101210C052046FFF7A3FF2046DC
:1008E000BDE810400021FFF79DBF10BD30B50446A4
:1008F000008A85B00D464CF6FF710840E988014337
:100900002182A0894EF6F3110840A9882A89114353
:100910006A8902431143A181A08A4FF6FF41084032
:10092000A9890143A1826846FFF716FF9C488442CB
:1009300001D1039800E00298A189090400EBC001ED
:1009400001EB0010296801D5490000E08900B0FBE7
:10095000F1F06422B0FBF2F109010B096FF0180508
:100960006B4300EB8300A3891D044FF0320306D5CF
:1009700003EBC000B0FBF2F000F0070005E003EB72
:100980000010B0FBF2F000F00F000843208105B02A
:1009900030BD4FF41651016000218180C18001817A
:1009A0000C2242818181704710B5028A4FF2FF0309
:1009B0001A400B884C8823438C88C9880C432343F6
:1009C0001343038210BD0021018041808180C180DA
:1009D00070470029818902D041F4005101E021F4DF
:1009E00000518181704710B5C1F3421301F01F041B
:1009F0000121A140012B07D0022B07D01430002A7F
:100A0000026805D00A4304E00C30F8E71030F6E73E
:100A10008A43026010BD002A828A01D00A4300E0A6
:100A20008A4382827047028A22F00F020282028A7F
:100A30000A4302827047828922F40062828182899D
:100A40000A43828170470029818902D041F0020166
:100A500001E021F0020181817047028A22F0200228
:100A60000282028A0A43028270470029018A02D068
:100A700041F4804101E021F4804101827047C1F3DB
:100A80000801818070478088C0F308007047818921
:100A900041F0010181817047028BD2B20283028B47
:100AA00042EA012101837047028B02F47F420283F4
:100AB000028B0A43028370470029818A02D041F0E9
:100AC000200101E021F02001818270470029818A04
:100AD00002D041F0100101E021F010018182704745
:100AE0000029818A02D041F0080101E021F00801CB
:100AF000818270470029818902D041F4004101E0E0
:100B0000C1F30E01818170470029818A02D041F42E
:100B1000006101E021F4006181827047828A22F045
:100B200004028282828A0A43828270470029818A73
:100B300002D041F0020101E021F002018182704700
:100B40000246002012880A4200D001207047C943A3
:100B50000180704770B501F01F0501260024C1F324
:100B6000421306FA05F2012B0FD0022B0FD0838A15
:100B70004FEA11210088134206FA01F600EA060046
:100B800001D000B10124204670BD8389F0E7038ABB
:100B9000EEE70A0A01219140C94301807047000035
:100BA000003801400044004000480040004C004034
:100BB000005000400CB500224C48009201920168A0
:100BC00041F4803101604FF4A063016801F4003109
:100BD00001910099491C0091019911B9009999421C
:100BE000F3D10168890333D50121019140490A6895
:100BF00042F010020A600A6822F003020A600A68E2
:100C000042F002020A604168416041684160416807
:100C100041F480614160416821F47C114160416888
:100C200041F4E8114160016841F0807101600168A0
:100C30008901FCD5416821F003014160416841F020
:100C4000020141604168C1F381010229FAD10CBD62
:100C500001920CBD254810B5016841F00101016009
:100C60004168244A114041600168234A11400160F3
:100C7000016821F480210160416821F4FE01416096
:100C80004FF41F018160FFF795FF1C494FF0006092
:100C9000086010BD154A10B55068194B10F00C01D2
:100CA000184803D0042901D0082901D0036012E0BC
:100CB0005168536801F470114FF0020413F4803F3F
:100CC00004EB914102D053689B0301D50E4B00E029
:100CD0000B4B5943016051680A4AC1F30311121DBD
:100CE000515C0268CA40026010BD00000010024062
:100CF000002002400000FFF8FFFFF6FE08ED00E0D4
:100D000000127A001400002000093D007047FE49DF
:100D10000A885206FCD5FC4AC1B2121D11807047E8
:100D2000F0B5064687B001210520FFF760FD0121DF
:100D30008803FFF75CFDF44D2846FFF7A7FD681513
:100D4000ADF8100018208DF81300F04F03248DF833
:100D5000124004A93846FFF75CFB2815ADF81000D7
:100D600048208DF8130004A93846FFF752FB2520D0
:100D70008DF814008DF815408DF8164001208DF87F
:100D8000170005A8FFF79BFA0021ADF80810ADF891
:100D900004100C20ADF80610ADF80C10ADF80A00E8
:100DA000009669462846FFF7A1FD012240F2255131
:100DB0002846FFF718FE01212846FFF70AFE4021CA
:100DC0002846FFF7C4FE07B0F0BD30B50446012148
:100DD00085B04804FFF714FD01210520FFF707FD4A
:100DE0000421ADF8101018218DF813100320C74D01
:100DF0008DF8120004A92846FFF70BFB0821ADF877
:100E0000101048208DF8130004A92846FFF701FBB5
:100E10000020ADF804000094ADF80600ADF808001D
:100E2000ADF80C000C20BA4CADF80A00694620461B
:100E3000FFF75CFD012240F225512046FFF7D3FD6C
:100E400001212046FFF7C5FD40212046FFF77FFE28
:100E500005B030BD30B50446012185B08804FFF7E8
:100E6000CFFC01210820FFF7C2FC4FF48061ADF8F0
:100E7000101018218DF813100320A64D8DF81200C4
:100E800004A92846FFF7C5FAE914ADF810100420AC
:100E90008DF8130004A92846FFF7BBFA0020ADF82F
:100EA00004000094ADF80600ADF80800ADF80C00A1
:100EB0000C20994CADF80A0069462046FFF716FD54
:100EC000012240F225512046FFF78DFD01212046E9
:100ED000FFF77FFD40212046FFF739FEB8E730B528
:100EE0000446012185B0C804FFF78AFC01211020C7
:100EF000FFF77DFC4FF48061ADF8101018218DF8DC
:100F000013100320854D8DF8120004A92846FFF721
:100F100080FAE914ADF8101004208DF8130004A92C
:100F20002846FFF776FA0020ADF804000094ADF8EB
:100F30000600ADF80800ADF80C000C20784CADF8B8
:100F40000A0069462046FFF7D1FC012240F22551F4
:100F50002046FFF748FD01212046FFF73AFD4021DA
:100F60002046FFF7F4FD73E710B50446012186B073
:100F70000805FFF745FC01211020FFF738FC4FF46E
:100F80008051ADF8101018208DF8130003208DF853
:100F9000120004A96148FFF73CFA0421ADF81010D3
:100FA0008DF8131004A95F48FFF733FA0020ADF85D
:100FB00004000094ADF80600ADF80800ADF80C0090
:100FC0000C20594CADF80A0069462046FFF78EFC0C
:100FD000012240F225512046FFF705FD0121204660
:100FE000FFF7F7FC40212046FFF7B1FD06B010BD2A
:100FF00010B50446FFF743FD80212046FFF7A0FD12
:101000000028F9D010BD70B50C46064600250AE050
:101010003046FFF734FD80213046FFF791FD002870
:10102000F9D0641C6D1C21780029F1D1284670BDCF
:1010300070B5354C40F2255529462046FFF78AFD0C
:1010400030B92046FFF71FFD29462046FFF7A1FDD6
:1010500040F2277529462046FFF77CFD002805D180
:1010600029462046BDE87040FFF793BD70BD70B5BE
:10107000274C40F2255529462046FFF76BFD18B94D
:1010800029462046FFF785FD40F227752946204670
:10109000FFF760FD002805D129462046BDE87040D5
:1010A000FFF777BD70BD70B51B4C40F22555294642
:1010B0002046FFF74FFD18B929462046FFF769FD86
:1010C00040F2277529462046FFF744FD002805D148
:1010D00029462046BDE87040FFF75BBD70BD70B586
:1010E0000F4C40F2255529462046FFF733FD18B92D
:1010F00029462046FFF74DFD40F227752946204638
:10110000FFF728FD002811E00038014000080140E9
:1011100000440040000C0140004800400010014025
:10112000004C0040001401400050004005D1294609
:101130002046BDE87040FFF72CBD70BD70B50D4C6A
:1011400040F2255529462046FFF704FD18B92946E7
:101150002046FFF71EFD40F2277529462046FFF77F
:10116000F9FC002805D129462046BDE87040FFF76C
:1011700010BD70BD0050004038B501211020FFF7B0
:1011800036FB104D2846FFF7EDF86C14ADF8004023
:1011900003228DF8022010228DF80320694628468C
:1011A000FFF737F921462846FFF79DF938BD4FF480
:1011B00000510448FFF799B94FF400510148FFF777
:1011C00092B900000010014030B5734900E01146AB
:1011D0000A688242FBD34B685C18844203D14068A2
:1011E00018444860084643681C18944209D16A4C68
:1011F000103C2468A24209D052681A4442600A682E
:1012000012680260814200D0086030BD0460F9E7D6
:101210002DE9F0410546002601F076FA5E4F103FB9
:10122000386808B900F097F8F86805424DD1002DEC
:101230004BD0083568070BD005F00700C0F1080057
:101240000544680704D0952254A158A002F0B2FCCE
:10125000DDB37868854238D84F490846046801E014
:10126000214604466068A84202D220680028F7D1CF
:101270003868B846844228D00E68206808606068E4
:101280000836401B10280ED96719780704D0C222EF
:1012900042A146A002F08EFC6068401B7860384690
:1012A0006560FFF791FF6168D8F804004246401A74
:1012B000C8F80400D8F80830984200D29060D8F8F6
:1012C0000C0001430020C4E9000101F08FF9700710
:1012D00005D04FF4817231A134A002F06BFC30468E
:1012E000BDE8F08170B500282BD02B4DA0F108048B
:1012F000103D6068E968084205D14FF48B7227A160
:101300002AA002F057FC206828B140F2171223A14E
:1013100026A002F04FFC6068E968084211D02268FC
:10132000002A0ED18843606001F0EEF960686968B8
:10133000084468602046FFF747FFBDE8704001F0B1
:1013400055B970BD144810384068704712481038BD
:1013500080687047704719484FF47051420706D0B3
:10136000C01D164920F00700411AC1F570510A4A04
:1013700000230144C2E900030839103A21F00701B3
:1013800011604B600B600B1AC0E9001393604FF0C3
:1013900000405360D06070473C0000202E2E5C6FF0
:1013A000735C686561705F342E6300004572726F14
:1013B000723A25732C25640D0A000000A800002055
:1013C00000F108014FF0FF32C0E90112C160016174
:1013D00000210160704700210161704742684A6046
:1013E00093688B6093685960916008610168491C3B
:1013F0000160704730B50C68621C02D000F1080231
:1014000002E0026904E01A4653681D68A542FAD951
:1014100053684B6099608A60516008610168491C9B
:10142000016030BDD0E9013201699A60D0E9012341
:101430005A604A68824201D182684A600022026191
:101440000868401E086008687047000010B54FF437
:10145000E130FFF765FCFFF78FFE04A002F0AAFB66
:1014600002F066FB01F0BEFB002010BD73746D330B
:1014700032207365747570210A0000007548406859
:10148000401C04D0CA2274A177A002F093FB502024
:1014900080F31188BFF34F8FBFF36F8FFEE710B556
:1014A000031F4FF080741C601B1F21F001011960A5
:1014B000191F714B0B60143940380A6010BD4FF092
:1014C000E0200021016181616C494FF47A72096862
:1014D000B1FBF2F1491E41610721016170477CB502
:1014E000674D28780190FF20287028788DF800003B
:1014F0009DF800009DF8001000F0F000884205D033
:101500004FF48A7254A158A002F054FB9DF80000D9
:10151000504C00F0500020700720A06006E0401EF4
:10152000A0609DF8000040008DF800009DF80000CC
:101530000006A068F3D4032805D04FF4987246A1A2
:1015400049A002F037FB207A000200F4E060A060BE
:10155000019828704B48016841F4700101600168EE
:1015600041F070410160FFF7AAFF00206060FEF7C4
:1015700047FE00207CBD37484068B0F57A7F05D033
:101580004FF4AB7234A138A002F014BB7047502066
:1015900080F31188BFF34F8FBFF36F8F2D494868D9
:1015A000401C486001280BD136481C38006810F0F8
:1015B000FF0F05D04FF4B37227A12BA002F0FABAA7
:1015C000704710B5234C606828B940F26D1222A113
:1015D00025A002F0EFFA6068401E606001D180F340
:1015E000118810BD10B5502080F31188BFF34F8FC4
:1015F000BFF36F8F00F09DFF20B122494FF0805064
:101600001C390860002080F3118810BD10B5FEF76A
:101610002DFE104C10280CD300F1E02090F8F003C0
:101620002178884205D240F2A5220BA10EA002F03B
:10163000C1FA144814380068A16800F4E0608842D8
:1016400007D9BDE8104040F2B52203A106A002F080
:10165000B1BA10BD440000202E2E5C6F735C706F19
:1016600072742E63000000004572726F723A257327
:101670002C25640D0A0000007D14000814000020D1
:1016800000E400E020ED00E070B50D46040005D157
:1016900040F20312FAA1FEA002F08CFAFFF777FFE6
:1016A000D4E90F20216802FB0011A1600021A16391
:1016B000216861600A46D4E90F01401E00FB012148
:1016C000E16021464FF0FF3001F8440F487004F10B
:1016D00010004DB1FFF774FE04F12400FFF770FE17
:1016E000FFF76FFF012070BD21690029F8D001F0DC
:1016F00037FB0028F4D0EA494FF080500860BFF370
:101700004F8FBFF36F8FEBE770B50E46050005D125
:101710004FF4BB72DAA1DEA002F04CFAA6B105FBD1
:1017200006F04C30FFF774FD04000CD004F14C00BF
:1017300066B12060C4E90F5620460121FFF7A4FFDF
:1017400000212046A16470BD0020EAE72460F1E793
:101750002DE9F041856B174604460026026C82B1E4
:10176000C7B1E06802F0CCFAE168206C091AE160C8
:101770002268914202D2A168081AE060022F16D0B6
:1017800017E02068A8B9A06801F009FC064600200F
:10179000A0600EE0606802F0B3FA216C6068084453
:1017A0006060A168884204D32068606001E005B1F0
:1017B0006D1E6D1CA5633046BDE8F0812DE9F34137
:1017C0000F4600980026846C2CB940F64532ACA137
:1017D000AFA002F0EFF9A06BE16B884205D340F6B1
:1017E0004632A7A1AAA002F0E5F9A06BE16B8842FE
:1017F0000CD294F945503A4669462046FFF7A8FFB7
:101800000646681C05D06D1C84F845503046BDE87E
:10181000FC81606A0028F9D004F1240001F0A0FAEC
:101820000028F3D00126F1E72DE9F0410446FFF747
:10183000AEFE94F9455004F1240610E0A06C20B1EE
:1018400000212046FFF7BAFF04E0606A48B1304645
:1018500001F086FA08B101F046FB6D1E6DB2002D55
:10186000ECDC4FF0FF3684F84560FFF7AAFEFFF787
:101870008EFE94F9445004F1100709E0206948B144
:10188000384601F06DFA08B101F02DFB6D1E6DB206
:10189000002DF3DC84F84460BDE8F041FFF791BE11
:1018A0002DE9FF4F83B01F468B4604004FF0000622
:1018B00005D140F2F12272A175A002F07BF9BBF1D3
:1018C000000F07D1206C28B140F2F2226CA170A069
:1018D00002F070F9022F08D1E06B012805D040F228
:1018E000F32267A16AA002F065F901F005FB38B99F
:1018F000059828B140F2F62261A165A002F05AF9DC
:101900004FF0000A4FF08058DFF89491FFF73FFE48
:10191000A06BE16B884205D3022F03D0059820B35A
:1019200036B329E0A56B3A4659462046FFF710FF2B
:10193000A16C39B1022F00D18DB939462046FFF78D
:101940003DFF05E0616A19B104F1240001F008FAD5
:1019500028B1C9F80080BFF34F8FBFF36F8FFFF737
:1019600030FE012007B0BDE8F08FFFF72AFE21E02E
:10197000684601F079FA0126FFF723FE00F0C4FE65
:10198000FFF705FE94F94400401C01D184F844A0FF
:1019900094F94500401C01D184F845A0FFF711FEE1
:1019A00005A9684601F067FA30B12046FFF73CFF11
:1019B00000F01CFE0020D5E7FFF7E9FDA06BE16B0E
:1019C000884201D1012500E00025FFF7FAFD95B11D
:1019D00004F11000059901F067F92046FFF724FF94
:1019E00000F004FE002891D1C9F80080BFF34F8FAA
:1019F000BFF36F8F8AE72046FFF716FF00F0F6FD72
:101A000084E710B5024600210120FFF77DFE0400A7
:101A100007D00021816001600B460A46C160FFF7D4
:101A20003FFF204610BD10B5040005D140F25922F9
:101A300013A117A002F0BEF801F05AFAA16888427B
:101A40000BD1E068401EE06005D100231A4619461C
:101A50002046FFF725FF012010BD002010BD2DE915
:101A6000F3434FF0000583B004002E4605D140F249
:101A7000915203A106A002F09DF8206CD0B111E0B4
:101A80002E2E5C6F735C71756575652E63000000AA
:101A90004572726F723A25732C25640D0A0000009E
:101AA00004ED00E040F29552AFF22C01AFF22000BD
:101AB00002F080F801F020FA48B9049838B140F2F9
:101AC0009A52AFF24401AFF2380002F073F80027E7
:101AD0004FF08058DFF8A498FFF759FDA06BC8B10C
:101AE000401EA063206810B901F00CFBA0602069C3
:101AF00050B104F1100001F033F928B1C9F80080A9
:101B0000BFF34F8FBFF36F8FFFF75BFD012005B071
:101B1000BDE8F083049808B165B10FE03EB140F232
:101B2000E152AFF2A401AFF2980002F043F8FFF7E0
:101B300048FD5DE0684601F097F90125FFF741FD9A
:101B400000F0E2FDFFF723FD94F94400401C01D1B1
:101B500084F8447094F94500401C01D184F8457024
:101B6000FFF72FFD04A9684601F085F900282046FB
:101B700012D0FFF759FE00F039FD204600F0F0FBCF
:101B80000028A9D09EB3FFF702FD606A50B3206B16
:101B90000068C0F1200126E000F0E2FBE0B120681F
:101BA00038B9FFF7F4FCA06801F0B2F90646FFF778
:101BB00008FD04F12400049901F076F82046FFF7AF
:101BC00033FE00F013FD002886D1C9F80080BFF372
:101BD0004F8FBFF36F8F7FE72046FFF725FE00F0A2
:101BE00005FD79E70021A06801F02FFA9FE7FFE7E4
:101BF00000208CE770B50D46040007D14FF4247225
:101C0000AFF28411AFF2781001F0D4FF01F070F957
:101C1000A168884204D1E068401CE060012070BDEA
:101C200029462046FFF71BFF0028F8D0E168491C31
:101C3000E16070BD70B50C46050007D140F2D522B9
:101C4000AFF2C411AFF2B81001F0B4FFAC4207D943
:101C500040F2D622AFF2D811AFF2CC1001F0AAFFB9
:101C6000022200212846FFF74FFD002800D08463A0
:101C700070BD2DE9F047984615468946040007D106
:101C800040F2C332AFF20821AFF2FC1001F092FF34
:101C9000B9F1000F09D1206C38B14FF47172AFF275
:101CA0002021AFF2142001F085FFB8F1020F0AD114
:101CB000E06B012807D040F2C532AFF23C21AFF211
:101CC000302001F077FFFFF7A1FC5020EFF31187E0
:101CD00080F31188BFF34F8FBFF36F8FA06BE16B61
:101CE000884207D3B8F1020F04D0002087F311888F
:101CF000BDE8F08794F94560424649462046FFF723
:101D000027FD701C04D0761C84F845600120EDE7A7
:101D1000A06C012620B141462046FFF74FFD06E0AA
:101D2000606A0028F2D004F1240001F019F80028BC
:101D3000ECD0002DEAD02E60E8E72DE9F0410D4609
:101D4000040007D14FF48C62AFF2CC21AFF2C02077
:101D500001F030FF206C38B140F26442AFF2E02174
:101D6000AFF2D42001F026FF206848B9A06838B14E
:101D700040F26942AFF2F821AFF2EC2001F01AFF15
:101D8000FFF744FC5020EFF3118680F31188BFF376
:101D90004F8FBFF36F8FA16BE06B88421FD994F90F
:101DA0004500491CA163411C04D0401C84F8450037
:101DB000012015E0A06C012720B100212046FFF78B
:101DC000FDFC06E0606A0028F2D004F1240000F077
:101DD000C7FF0028ECD0002DEAD02F60E8E70020F4
:101DE00086F31188E8E430B4026C0B46002A0BD06D
:101DF000C1681144C1608468A14201D30168C16017
:101E000030BC184601F07CBF30BC70472DE9F74765
:101E100083B08A4604004FF0000607D14FF4A06259
:101E2000AFF2A431AFF2983001F0C4FEBAF1000F66
:101E300009D1206C38B140F20452AFF2BC31AFF29C
:101E4000B03001F0B7FE01F057F848B9059838B145
:101E500040F20952AFF2D831AFF2CC3001F0AAFE15
:101E600000274FF08058DFF81495FFF790FBA56B23
:101E7000BDB151462046FFF7B6FF6D1EA563206930
:101E800050B104F1100000F06BFF28B1C9F80080D8
:101E9000BFF34F8FBFF36F8FFFF793FB012006B0A7
:101EA00026E7059808B11EB106E0FFF78AFB27E098
:101EB000684600F0D9FF0126FFF783FB00F024FC01
:101EC000FFF765FB94F94400401C01D184F844708D
:101ED00094F94500401C01D184F84570FFF771FB6F
:101EE00005A9684600F0C7FF002820460AD0FFF782
:101EF0009BFC00F07BFB204600F032FA0028B4D0B7
:101F00000020CCE700F02CFA90B104F124000599F0
:101F100000F0CAFE2046FFF787FC00F067FB0028B0
:101F2000A3D1C9F80080BFF34F8FBFF36F8F9CE739
:101F30002046FFF779FC00F059FB96E72DE9F743BF
:101F400082B0894604004FF0000507D14FF4CD62FE
:101F5000AFF2D441AFF2C84001F02CFEB9F1000F4E
:101F600009D1206C38B140F26C62AFF2EC41AFF2B3
:101F7000E04001F01FFE00F0BFFF48B9049838B1FF
:101F800040F27162AFF20851AFF2FC4001F012FE74
:101F900000264FF08057DFF8E483FFF7F8FAA06BD4
:101FA000B0B149462046E568FFF71DFFE560606A6D
:101FB00050B104F1240000F0D3FE28B1C8F800703D
:101FC000BFF34F8FBFF36F8FFFF7FBFA01209EE542
:101FD000049808B11DB106E0FFF7F3FA27E0684660
:101FE00000F042FF0125FFF7ECFA00F08DFBFFF750
:101FF000CEFA94F94400401C01D184F8446094F96D
:102000004500401C01D184F84560FFF7DAFA04A9C5
:10201000684600F030FF002820460AD0FFF704FC95
:1020200000F0E4FA204600F09BF90028B5D000202B
:102030006DE500F095F990B104F12400049900F0E9
:1020400033FE2046FFF7F0FB00F0D0FA0028A4D1C1
:10205000C8F80070BFF34F8FBFF36F8F9DE7204626
:10206000FFF7E2FB00F0C2FA97E72DE9F047904650
:102070008946040007D140F2FB62AFF2FC51AFF297
:10208000F05001F097FDB9F1000F09D1206C38B183
:1020900040F2FC62AFF21861AFF20C6001F08AFD11
:1020A000FFF7B4FA5020EFF3118780F31188BFF3E4
:1020B0004F8FBFF36F8FA66BF6B194F9445049462A
:1020C0002046FFF790FE761EA663681C04D06D1CA8
:1020D00084F84450012010E020690028FAD004F16F
:1020E000100000F03DFE0028F4D0B8F1000FF1D050
:1020F0000121C8F80010EDE7002087F31188F7E50B
:102100002DE9F0410E46040007D140F25772AFF2BC
:102110009061AFF2846001F04DFD4EB9206C48B182
:102120004FF4EB62AFF2A861AFF29C6001F042FDA8
:10213000206C38B940F25972AFF2BC61AFF2B060B6
:1021400001F038FDFFF762FA5020EFF3118580F3BC
:102150001188BFF34F8FBFF36F8FA06B30B1314643
:102160002046E768FFF73FFE0120E76085F311880E
:1021700038E610B5040007D140F28A72AFF2007160
:10218000AFF2F46001F016FDFFF701FAA46BFFF760
:1021900018FA204610BD10B5040007D140F29B721A
:1021A000AFF22471AFF2187001F004FDFFF7EFF900
:1021B000D4E90E10441AFFF704FA204610BD10B5FA
:1021C000040007D140F2AC72AFF24C71AFF2407034
:1021D00001F0F0FCA06B10BD694A002102EBC103C5
:1021E0005B68834206D1002042F8310002EBC10156
:1021F00048607047491C0A29F0D3704710B50400A5
:1022000007D140F2B772AFF28871AFF27C7001F083
:10221000D1FC2046FFF7E0FF2046BDE81040FFF765
:1022200061B810B5040007D140F60912AFF2B071E1
:10223000AFF2A47001F0BEFCA06B08B1002010BD8D
:10224000012010BD10B5040007D140F63112AFF2E5
:10225000D071AFF2C47001F0ADFCA06BE16B8842AD
:1022600001D1012010BD002010BD10B5444B00224B
:1022700053F832401CB1521C0A2AF9D310BD43F85E
:10228000321003EBC201486010BD10B500243C4A77
:10229000214602EBC1035B68834202D152F8314010
:1022A00002E0491C0A29F4D3204610BD70B515463A
:1022B0000E460446FFF76BF994F944100020491CC0
:1022C00001D184F8440094F94510491C01D184F8E7
:1022D0004500FFF776F9A06B28B92A46314604F18C
:1022E000240000F021FD2046BDE87040FFF79CBAB5
:1022F00000220421FFF708BA70B50D460446FFF727
:1023000046F9A06C08B9A06B08B1002401E0A564EF
:102310000124FFF756F9204670BD10B50446806CC5
:10232000884201D1A06B08B1002010BDFFF72FF942
:102330000020A064FFF745F9012010BD08B5002377
:102340000A4669460093FFF761FD009808BD08B58D
:1023500000210A4600916946FFF787FE009808BDF4
:1023600010B50446FFF713F9A06B20B10024FFF766
:1023700028F9204610BD0124F9E7000004ED00E033
:10238000A83C00202DE9F0410546FFF700F9FE4E7C
:10239000B068401CB0603068FC4F10B1706930B359
:1023A0002BE03560B068012827D1002404EB8400BD
:1023B00007EB8000FFF704F8641C202CF6D3F448E8
:1023C000FEF7FEFFF2481430FEF7FAFFF04828301F
:1023D000FEF7F6FFEE483C30FEF7F2FFEC485030D7
:1023E000FEF7EEFFEA4870631430B06305E0306832
:1023F000E96AC06A884200D83560706A0121401CD1
:102400007062E86A326981401143316100EB8000FB
:1024100007EB8000291DFEF7E1FFFFF7D2F8706996
:1024200000280CD03068E96AC06A884207D2D949CE
:102430004FF080500860BFF34F8FBFF36F8FBDE840
:10244000F0812DE9FF5F8346DDE90E879946164648
:102450008A469000FEF7DCFE05001AD05420FEF7F5
:10246000D7FE040012D025630021CDE90241CDE959
:1024700000874B4632465146584601F014F8204634
:10248000FFF780FF012004B0BDE8F09F2846FEF76B
:1024900029FF4FF0FF30F6E770B50446FFF777F8F5
:1024A000B94D04B92C68201DFEF7BCFF58B9E06A8D
:1024B000B64A00EB800152F8211021B90121814078
:1024C000286988432861A06A18B104F11800FEF752
:1024D000A9FF686A401C68622868844208D1AC4839
:1024E000211D3C30FEF77AFF6868401C686007E0F9
:1024F000A868401EA860204601F02FF801F020F8DF
:10250000FFF75FF86869002812D0286884420FD16D
:10251000286B28B140F2D2429FA1A3A001F04AFB50
:102520009C494FF080500860BFF34F8FBFF36F8F0F
:1025300070BD2DE9F041944F0026386B38B1B86971
:10254000401CB861F86900B10126304677E7FD68A4
:102550006D1CFD6011D1786B006828B140F67F22B8
:102560008DA191A001F026FB786BB96B7963B863FC
:10257000386A401C386200F0E3FFB86ADFF80C826A
:10258000854209D3786B006880B1786BC068C468F5
:10259000606885420DD2B8623868C06A00EB80017D
:1025A00058F821000128CDD90126CBE74FF0FF30A4
:1025B000F1E7201DFEF736FFA06A18B104F11800FC
:1025C000FEF730FFE06A01213A6981401143396129
:1025D00000EB800108EB8100211DFEF7FFFEE06AA1
:1025E0003968C96A8842CDD30126CBE72DE9F04787
:1025F000654D00242746286B28B940F6850266A160
:1026000069A001F0D7FAFEF7C2FF286B401E2863CD
:10261000286BE0BBA8685E4928310126B8B3DFF813
:102620006C918846D8F80010E9B1D8F80C00C4685D
:1026300004F11800FEF7F6FE201DFEF7F3FEE06A37
:102640002A6906FA00F11143296100EB800109EBC8
:102650008100211DFEF7C2FEE06A2968C96A88422E
:10266000E0D3EE61DEE70CB100F06AFFAC693CB18B
:10267000FFF75FFF00B1EE61641EF9D10020A86191
:10268000E86920B1434901273807086000E003E00A
:10269000BFF34F8FBFF36F8FFEF793FF3846BDE850
:1026A000F0872DE9F041384E0F460446F568306852
:1026B000001DFEF7B7FE38B9306890F82C100120E5
:1026C0008840316981433161601C08D13FB1316874
:1026D000BDE8F0412E485030091DFEF77FBE30683E
:1026E0002C44AC424460316805D2B06BBDE8F04187
:1026F000091DFEF77FBE706B091DFEF77BFEB06AF9
:10270000844200D2B4629AE61F48016B491C0163FF
:1027100070472DE9F0410E4605004FF0000405D149
:1027200040F2E6421CA120A001F044FA2EB940F28A
:10273000E74219A11CA001F03DFA134F386B28B1F4
:102740004FF49D6214A118A001F034FAFFF7DCFFEA
:10275000FA6828688119904202D9884202D804E0B8
:10276000884201D8914200D9012429601CB1881AFD
:102770000021FFF796FFFFF739FF002820D1054918
:102780004FF08050086017E050000020F83C002017
:10279000783F002004ED00E02E2E5C6F735C7461C6
:1027A000736B732E630000004572726F723A25736B
:1027B0002C25640D0A000000BFF34F8FBFF36F8F0D
:1027C0003DE610B5040014D0FE49096B39B140F262
:1027D0003C52AFF23C01AFF2300001F0EBF9FFF7F1
:1027E00093FF00212046FFF75CFFFFF7FFFE002864
:1027F00007D1F5494FF080500860BFF34F8FBFF30A
:102800006F8F10BD2DE9F041040007D14FF4AD6288
:10281000AFF27C01AFF2700001F0CCF9E94E306804
:10282000844201D100200AE6FEF7B1FE6569776BAC
:10283000B66BFEF7C6FEBD4201D0B54201D1022003
:10284000FDE5E248854208D1A06A0028F7D194F856
:1028500050000128F3D00320F1E5DC48143885420C
:1028600002D00DB10120EAE50420E8E510B50446E8
:10287000FEF78DFE0CB9D3480468E46AFEF7A1FEAA
:10288000204610BD10B50446FEF7C0FE5020EFF301
:10289000118180F31188BFF34F8FBFF36F8F0CB995
:1028A000C8480468E06A81F3118810BD2DE9F04141
:1028B00000260D460446202908D340F20262AFF2FA
:1028C0002811AFF21C1001F075F91F25FEF75FFE0D
:1028D000BC4F04B93C68606CA8423FD0396885425F
:1028E00006D98C4207D03968C96AA94202D902E0E8
:1028F0008C4200D10126E16A8846884200D1E56217
:102900006564A069002802DBC5F12000A061B04D1C
:1029100008EB8800616905EB8000814215D1201D1C
:10292000FEF780FD012120B93A6901FA08F08243DF
:102930003A61E06A3A6981401143396100EB8000F5
:1029400005EB8000211DFEF749FD3EB19E494FF089
:1029500080500860BFF34F8FBFF36F8FBDE8F04129
:10296000FEF72FBE70B5974D286B10B10120E861BE
:1029700070BD0020E8612869954EB0FA80F0C0F182
:102980001F0000EB800456F8240038B940F6B73237
:10299000AFF2FC11AFF2F01001F00CF906EB84007D
:1029A00000F10802416849684160914201D14968DB
:1029B0004160C868286070BD70B50446FEF7E7FD49
:1029C000804D04B92C68201DFEF72CFD58B9E06A33
:1029D0007F4A00EB800152F8211021B9012181408A
:1029E000286988432861A06A18B104F11800FEF72D
:1029F00019FD211D7548FEF7F1FC94F850000026E2
:102A0000012801D184F85060FEF7DBFD686928B128
:102A1000FEF7BDFD00F094FDFEF7D3FD286884426B
:102A200013D1686990B1286B38B140F2E462AFF21B
:102A30009821AFF28C2001F0BDF863494FF080502F
:102A40000860BFF34F8FBFF36F8F70BD5F480068A2
:102A5000A968884201D12E6070BDBDE8704081E751
:102A600070B50025040007D140F20E72AFF2D821F4
:102A7000AFF2CC2001F09EF854496069884205D13C
:102A8000A06A2839884201D000B90125284670BDC6
:102A900070B5040007D14FF4E762AFF20431AFF232
:102AA000F82001F087F8474D2868844229D0002C8F
:102AB00027D0FEF76CFD2046FFF7D2FFE8B1201DBE
:102AC000FEF7B0FCE06A01212A69814011432961C7
:102AD0003F4900EB800001EB8000211DFEF77EFCEA
:102AE000E06A2968C96A884207D337494FF08050A5
:102AF0000860BFF34F8FBFF36F8FBDE87040FEF7E4
:102B000060BD70BD2DE9F0410026040007D140F200
:102B10006F72AFF27C31AFF2703001F04BF8FEF71C
:102B200075FD5020EFF3118580F31188BFF34F8FAF
:102B3000BFF36F8F2046FFF793FFF0B1214F386B43
:102B400020B1224804F11801283814E0E06A3968FD
:102B5000C96A884200D30126201DFEF763FCE06AA3
:102B600001213A69814011433961194900EB800024
:102B700001EB8000211DFEF731FC85F31188304602
:102B80005DE4124E0F4D143E114F4FF08058DFF8A8
:102B9000389011E0FEF7FBFCF068C468201DFEF7DA
:102BA00041FCA868401EA8606868401E6860FEF787
:102BB00008FD204600F0D1FC68680028EAD138689A
:102BC000012807E05000002004ED00E0C83F00208D
:102BD000F83C0020F0D9C9F80080BFF34F8FBFF355
:102BE0006F8FE9E71CB5FE480024CDE9004023467D
:102BF0008022FCA1FD48FFF724FC012803D100F04E
:102C0000C5FD01280CD0401C1DD14FF40262AFF26B
:102C10007841AFF26C4002B0BDE8104000F0CABF8E
:102C2000502080F31188BFF34F8FBFF36F8FEC48B4
:102C30004FF0FF312C38816201214161C460BDE851
:102C40001C40FEF74CBC1CBD502080F31188BFF324
:102C50004F8FBFF36F8FE24900202C394861FEF798
:102C60008ABCDF482C38C068704710B5FEF7CEFC30
:102C7000DB482C38C06810BDD9482C3880687047B4
:102C800010B510B1044624B10BE0D5482C380468C7
:102C9000F9E740F62912AFF20051AFF2F44000F02C
:102CA00089FF04F1340010BD70B50D46040007D152
:102CB00040F6CE32AFF22051AFF2145000F07AFF5E
:102CC000C7482C38016820461831FEF793FB284688
:102CD000BDE870400121E4E42DE9F04117460E46BD
:102CE000050007D140F6DF32AFF25451AFF2485041
:102CF00000F060FFBA4C2C3C206B38B940F6E33250
:102D0000AFF26C51AFF2605000F054FF216846F012
:102D100000408861216828461831FEF75FFB38467D
:102D2000BDE8F0410121BCE470B514460E46050033
:102D300007D140F6F932AFF2A051AFF2945000F053
:102D400039FFA7482C38016828461831FEF746FBA2
:102D50000CB14FF0FF3621463046BDE87040A0E48C
:102D60002DE9F041C068C4683CB940F62942AFF291
:102D7000D851AFF2CC5000F01DFF04F11800074607
:102D8000FEF750FB964D2C3D286B012658B1394675
:102D90009748FEF723FBE06A2968C96A884212D97E
:102DA0000120EE61AFE4201DFEF73CFBE06A2A69DA
:102DB00006FA00F1114329618E4900EB800001EB16
:102DC0008000211DE5E700209DE470B5844D064696
:102DD0002C3D0C46286B38B94FF44662AFF248617F
:102DE000AFF23C6000F0E6FE44F000403060F46872
:102DF0003CB940F66842AFF26061AFF2546000F057
:102E0000D9FE3046FEF70EFB201DFEF70BFBE06AF5
:102E100001262A6906FA00F111432961754900EB80
:102E2000800001EB8000211DFEF7D8FAE06A2968D6
:102E3000C96A884200D9EE6170BD10B5040007D19F
:102E400040F67E42AFF2B061AFF2A46000F0B2FE95
:102E5000FEF79DFB62482C38016A2160C068606003
:102E6000BDE81040FEF7ADBB5D492C390A6A02602F
:102E7000C968416070472DE9F0410C46050007D153
:102E800040F69442AFF2F061AFF2E46000F092FEDF
:102E90003CB940F69542AFF20071AFF2F46000F039
:102EA00089FEFEF774FB4E4E2C3EF1686B6822687B
:102EB000C81A571C07D02F68366AB74208D08B4211
:102EC00006D8012400E00024FEF77BFB20461AE42C
:102ED000824205D9101A20602846FFF7C5FFF2E7A5
:102EE00000202060EDE73E4901202C39C861704781
:102EF0003B482C380068704739482C38416919B173
:102F0000006B18B100207047012070470220704705
:102F100070B504004FF000003AD0314DE16A2C3D0D
:102F20002A68D26A914234D2A069002804DB28685A
:102F3000C06AC0F12000A061E06A2E4E00EB800064
:102F4000616906EB800081421ED1201DFEF76AFAFE
:102F5000012150B9E06A00EB800256F8222022B924
:102F60002A6901FA00F082432A612868C06AE06297
:102F70002A6981401143296100EB800006EB800043
:102F8000211DFEF72BFA02E02868C06AE0620120EA
:102F900070BD616C2A68D26A9142F8D370BD70B579
:102FA00004004FF000064ED00D4D2C3D28688442A1
:102FB00007D040F6D172AFF62001AFF6140000F052
:102FC000F9FDA06C38B940F6D272AFF63401AFF615
:102FD000280000F0EFFDA06C401EA064626C0BE0C6
:102FE0007C00002049444C4500000000832B000871
:102FF000A03F0020F83C0020E16A914223D010BBA2
:10300000201DFEF70FFAFE49012250B9E06A00EBDD
:10301000800351F8233023B92B6902FA00F083436F
:103020002B61606CE062C0F12000A061E06A2B6956
:1030300082401A432A6100EB800001EB8000211DD1
:10304000FEF7CCF90126304670BD70B50E4604007F
:103050004DD0A06C38B94FF48152AFF6C401AFF631
:10306000B80000F0A7FD656CB54200D23546E06AB5
:10307000A8423CD0A06C012839D1E24E306884428D
:1030800007D141F23B02AFF6F001AFF6E40000F0E9
:1030900091FDE06AE562A169002902DBC5F120012A
:1030A000A161D74D00EB8000616905EB8000814292
:1030B0001DD1201DFEF7B6F9012150B9E06A00EBE1
:1030C000800255F8222022B9326901FA00F08243C9
:1030D0003261E06A326981401143316100EB800066
:1030E00005EB8000211DBDE87040FEF777B970BD8B
:1030F000C44908680A688069D26A0968C2F1200276
:103100008A617047BF49086818B10868826C521C10
:1031100082640868704770B50C460646FEF737FAB9
:10312000B84D2868C06C80B92968012081F850002A
:103130005CB101212046FFF7B4FAB3494FF080504B
:103140000860BFF34F8FBFF36F8FFEF73AFAFEF7B9
:103150001EFA2868C46C002034B116B12968C8640E
:1031600002E02A68611ED164296881F85000FEF7E8
:1031700028FA204670BD2DE9F0411E4615468846C6
:103180000746FEF704FA9F4C206890F8500002288A
:1031900014D02068C16CB943C1642168012081F852
:1031A00050005EB101213046FFF77BFA96494FF09F
:1031B00080500860BFF34F8FBFF36F8FFEF701FAA7
:1031C000FEF7E5F915B12068C06C2860206890F81A
:1031D0005000022801D0002505E02068C16C21EADA
:1031E0000801C16401252168002081F85000FEF724
:1031F000E8F92846C4E42DE9F0411E4690460D4604
:1032000004004FF0010707D141F27022AFF6782198
:10321000AFF66C2000F0CEFCFEF7B9F90EB1E06C11
:10322000306094F85060022084F85000B8F1050F27
:1032300011D2DFE808F01B03060C0A00E06C2843FB
:1032400001E0E06C401CE06410E0022E01D0E56477
:103250000CE0002735E0E06C401C07D041F2A122D1
:10326000AFF6CC21AFF6C02000F0A4FC012E28D18F
:10327000201DFEF7D7F8634DE06A01212A698140DD
:10328000114329615E4900EB800001EB8000211DA4
:10329000FEF7A4F8A06A38B141F2B022AFF60831C7
:1032A000AFF6FC2000F086FCE06A2968C96A884213
:1032B00007D955494FF080500860BFF34F8FBFF3D7
:1032C0006F8FFEF77EF938465AE42DE9F0471E4627
:1032D000DDF8209092460D4604004FF0010807D11A
:1032E00041F2E322AFF65031AFF6443000F062FC19
:1032F000FEF78CF95020EFF3118780F31188BFF3AC
:103300004F8FBFF36F8F0EB1E06C306094F8506058
:10331000022084F85000BAF1050F12D2DFE80AF05B
:103320001C03060C0A00E06C284301E0E06C401C22
:10333000E06411E0022E01D0E5640DE04FF00008DA
:103340002AE0E06C401C07D041F22632AFF6B831DB
:10335000AFF6AC3000F02EFC012E1DD1A06A38B1C2
:1033600041F23132AFF6D031AFF6C43000F022FC7A
:10337000244D286B0126A0B104F118012348FEF763
:103380002DF8E06A2968C96A884205D9B9F1000FA9
:1033900001D0C9F80060EE6187F311884046BDE8AE
:1033A000F087201DFEF73EF8E06A2A6906FA00F170
:1033B0001143296100EB8001114800EB8100211DC0
:1033C000DDE72DE9F0418846040007D141F2633280
:1033D000AFF63C41AFF6304000F0ECFBFEF716F9DB
:1033E0005020EFF3118780F31188BFF34F8FBFF3A5
:1033F0006F8F94F85000022184F85010E16C07E0C0
:10340000F83C00205000002004ED00E0A03F002028
:10341000491CE16401281DD1A06A38B141F289320A
:10342000AFF68C41AFF6804000F0C4FB504D286BE6
:10343000012690B104F118014E48FDF7CFFFE06A74
:103440002968C96A884205D9B8F1000F01D0C8F8C7
:103450000060EE6187F31188A4E4201DFDF7E2FF10
:10346000E06A2A6906FA00F111432961424900EB3A
:10347000800001EB8000211DDFE710B558B1044644
:10348000FEF785F894F85000022807D00024FEF7D4
:1034900098F8204610BD36480468F1E7002084F80B
:1034A00050000124F3E72DE9F05F0E46DDE90B94AF
:1034B00083466FF00301206B01EB820108440A9DF3
:1034C00020F007079A46780705D040F261322BA119
:1034D0002EA000F06FFB4FF0000866B1002022180C
:1034E000315C82F83410315C11B1401C1028F6D3E5
:1034F00084F8438001E084F83480202D00D31F2518
:10350000E562C4E91158201DFDF765FF04F11800BC
:10351000FDF761FF2461C5F120006462A061C4F879
:103520004C8084F85080524659463846FDF7B7FF24
:103530002060B9F1000F01D0C9F80040BDE8F09F4C
:103540000B48416B096829B1416BC968C968496872
:10355000816270474FF0FF31FAE710B50446006B07
:10356000FDF7C0FE2046BDE81040FDF7BBBE0000E1
:1035700050000020A03F0020F83C00202E2E5C6F61
:10358000735C7461736B732E630000004572726F1D
:10359000723A25732C25640D0A00000070B50024D2
:1035A0004160FC4D0061914206D8D11A8269914276
:1035B00006D2011D286907E09A4203D2994201D33D
:1035C000012403E0011DE868FDF714FF204670BDEB
:1035D0002DE9FF479946DDF830A090460D460600DC
:1035E0004FF0000705D14FF4C172EBA1EEA000F03F
:1035F000E1FAE84C206880B1CDE900580296062D2A
:1036000011DAFFF779FC02284FF0000309D00022FD
:1036100069462068FEF744F9074604B03846BDE81D
:10362000F0875246F4E700234A466946FEF721FB3D
:10363000F2E770B586B0D74E6FE00198002806DA41
:10364000DDE90301029A90470198002865DB039C9D
:10365000606910B1201DFDF7E5FE05A800F08DF9A9
:10366000054601980A2858D2DFE800F00505052E26
:10367000344B05052E3494F824002A4640F001000E
:1036800084F824000298A169034601442046FFF70C
:1036900085FF002841D0216A2046884794F82400FD
:1036A00040073AD5002000900298A16900234218F3
:1036B00019462046FFF78CFF10BB40F21332B6A12B
:1036C000B9A000F077FA28E014F8240F20F00100E8
:1036D000207022E094F8240040F0010084F82400D7
:1036E0000298A06128B940F22B32ABA1AEA000F045
:1036F00061FAA0692B4641191A462046FFF74EFF92
:103700000BE094F82400810703D42046FDF7EAFD7E
:1037100003E020F0010084F82400002201A93068B1
:10372000FEF774FB002888D106B070BD994CE068A4
:10373000016839B1002139B1002000F05EF9FFF7CE
:1037400078FFF4E70121F6E7C0680068F5E710B5F7
:10375000FDF71DFF8F4C2068A0B99748FDF730FE9C
:1037600095481430FDF72CFE9348E060143020613A
:10377000002210210A20FDF7C7FF206010B18FA1A1
:10378000FEF773FDBDE81040FDF71BBF1CB500241C
:10379000FFF7DDFF7F48006868B17E491F20091DE3
:1037A000CDE9000100234FF4807286A18748FEF71F
:1037B00048FE040005D140F2131277A17AA000F070
:1037C000F9F920461CBD2DE9F047074699461646F3
:1037D0000D462820DDF820A0FDF71AFD04001ED0BC
:1037E000B84600204F4684F82400D1462DB940F257
:1037F000651277A17AA000F0DDF9FFF7A8FF04F1C8
:103800001801C4F8008081E8A002201DFDF7E3FD47
:103810002EB194F8240040F0040184F824102046CE
:10382000FDE610B55B4C606828B94FF4D6725AA11A
:103830005DA000F0BFF9606810BD10B5040005D1AF
:1038400040F2B51254A158A000F0B4F9A06910BD1F
:1038500070B50D46040005D14FF4DF724EA152A0A1
:1038600000F0A8F9FDF793FE14F8240F15B140F00D
:10387000040001E020F004002070BDE87040FDF776
:10388000A0BE10B5040005D140F2D31242A146A05B
:1038900000F090F9606810BD10B5040005D140F249
:1038A000DD123DA140A000F085F9206810BD10B5E3
:1038B000040005D14FF4737237A13BA000F07AF9F0
:1038C000FDF765FE94F82400C00704D00124FDF73D
:1038D00078FE204610BD0024F9E710B5040005D19C
:1038E00040F2E5322CA130A000F064F9FDF74FFE64
:1038F000E469FDF766FE204610BD70B50D46040074
:1039000005D140F2F53224A127A000F053F9FDF7CC
:103910003EFEE561BDE87040FDF753BE7FB56FF038
:10392000010401AE009486E807001A481D460023F2
:103930002A4669460068FEF79CF904B070BD2DE97F
:10394000FF41144C07469846206815460E4628B994
:1039500040F2214210A114A000F02CF94FF0FF30EA
:10396000CDE90007CDE9026500234246694620689B
:10397000FDF796FF04B0BDE8F08170B50546FFF78E
:1039800070F9044E0446B068844231D200F066F803
:1039900001202EE08C0000202E2E5C6F735C746979
:1039A0006D6572732E6300004572726F723A2573F3
:1039B0002C25640D0A000000DC3F0020546D72517C
:1039C00000000000546D7220537663002D3700080C
:1039D0002E2E5C6F735C74696D6572732E630000CC
:1039E0004572726F723A25732C25640D0A0000002F
:1039F000002028602046B46070BDF8B50D4606462C
:103A0000FEF782FE6846FFF7B8FF0446009810B143
:103A1000FEF7ECFDF8BD4448ADB101690968D9B1C4
:103A20000025311B2A460068FEF740FCFEF7DEFD4C
:103A30000028EFD13D494FF080500860BFF34F8F11
:103A4000BFF36F8FF8BDA642EBD8FEF7CFFD21463E
:103A5000304600F037F8F8BD0125E2E7F8B5324E00
:103A600028E0C068C4680568201DFDF7DBFC216AFA
:103A70002046884794F8240040071BD5A0692844B5
:103A8000A84206D924616060211DF068FDF7B2FCF0
:103A900010E000200346014600902A462046FFF72A
:103AA00097FD38B94FF46172AFF2DC01AFF2D0008C
:103AB00000F080F8F06801680029D2D13169C6E9C8
:103AC0000310F8BDF8B5054617480E46C068C06833
:103AD000C468201DFDF7A6FC94F82400410719D501
:103AE000A0692B46411932462046FFF757FDA8B181
:103AF00000200346014600902A462046FFF768FD55
:103B000060B94FF4FC72AFF23811AFF22C1000F034
:103B100051F803E020F0010084F82400216A01B08C
:103B20002046BDE8F04008478C00002004ED00E08E
:103B30001CB50B480324CDE900400023802209A1D5
:103B40000C48FEF77EFC06480023001DCDE900402E
:103B5000802209A10C48FEF774FC00201CBD000067
:103B6000A00000206F70656E5F6C65645F746173A8
:103B70006B0000008D3B0008636C6F73655F6C65C4
:103B8000645F7461736B0000A73B00084FF4FA7424
:103B9000FDF70DFB2046FEF714FEFDF70DFB20465A
:103BA000FEF70FFEF4E74FF4FA742046FEF709FE25
:103BB000FBE770470FB4044910B503AA029800F060
:103BC00057F910BC5DF814FB280000202DE9F041E6
:103BD0000E460446002020622046E168884730B344
:103BE000252805D0D4E901219047206A401CF2E73E
:103BF000E168204600278847050018D0A5F141005C
:103C0000192802D820354FF400673246294620464D
:103C10002760FCF7C7FA40B1012804D0F61D26F052
:103C200007060836D8E7361DD6E72846DAE7206AC1
:103C3000BDE8F08170B50C460546012A05D028780C
:103C4000800600D5EA69002302E0012305E05B1C41
:103C5000934202D2E05C0028F9D1A869E618C01AA4
:103C6000A861286A184428622846AFF3008004E05F
:103C7000D5E9012114F8010B9047B442F8D3284646
:103C8000AFF3008070BD00002DE9F041064600242E
:103C900010687529314616A510D0AFF300800028B2
:103CA00002DA404213A507E031688A0701D512A560
:103CB00002E0490704D511A5012401E0AFF300801B
:103CC00000210A2206F1240709E0B0FBF2FCB0FB58
:103CD000F2F302FB1C00303078541846491C0028CF
:103CE000F3D123462A463046BDE8F04100F051B8F2
:103CF000000000002D0000002B000000200000004C
:103D0000032A40F2308010F0030C00F0158011F807
:103D1000013BBCF1020F624498BF11F801CB00F8DF
:103D2000013B38BF11F8013BA2F1040298BF00F833
:103D300001CB38BF00F8013B11F0030300F0AA806B
:103D4000083AC0F0088051F8043B083A51F804CB17
:103D5000A0E80810F5E7121D5CBF51F8043B40F8DD
:103D6000043BAFF30080D20724BF11F8013B11F8E8
:103D700001CB48BF11F8012B24BF00F8013B00F82C
:103D800001CB48BF00F8012B704770477047704760
:103D900070472DE9F0470D4699469246044600F1DA
:103DA00024080168880604D5E06921F0100121602B
:103DB00000E00120A84201DD471B00E00027A169C7
:103DC0007A1902EB0900081AA0612078C00602D413
:103DD0002046AFF30080002608E0D4E901211AF85C
:103DE00006009047206A401C761C20624E45F4DB9A
:103DF0002078C0060AD52046AFF3008006E0D4E95B
:103E0000012130209047206A401C2062381EA7F113
:103E10000107F4DC07E0D4E9012118F80500904718
:103E2000206A401C2062281EA5F10105F3DC204613
:103E3000AFF300802078000602D50220BDE8F087AD
:103E40000120FBE710B5436913B1AFF3008001E037
:103E5000FFF7F0FE012010BD127800F124010A7076
:103E600000224A700122EDE711684FF0FF32E9E7C6
:103E7000074B70B50D467B4400F043F804462846D6
:103E800000F052F810B14FF0FF3070BD204670BD09
:103E900095CEFFFF10B5203AC0F00B80B1E8185066
:103EA000203AA0E81850B1E81850A0E81850BFF424
:103EB000F5AF5FEA027C24BFB1E81850A0E81850C3
:103EC00044BF18C918C0BDE810405FEA827C24BF17
:103ED00051F8043B40F8043B08BF7047D20728BFA5
:103EE00031F8023B48BF11F8012B28BF20F8023BF4
:103EF00048BF00F8012B704701694A1C026108782D
:103F0000704700B58FB0CDE9013100210591054919
:103F10007944CDE9031011466846FFF757FE0FB00C
:103F200000BD0000E5FFFFFF007B00F08000704750
:103F3000754600F029F8AE4605006946534620F064
:103F40000700854618B020B5FCF7A2F9BDE820406F
:103F50004FF000064FF000074FF000084FF0000B45
:103F600021F00701AC46ACE8C009ACE8C009ACE8F8
:103F7000C009ACE8C0098D4670470446AFF3008025
:103F80002046FCF724F90000004870470440002058
:103F9000B03F000800000020A80000006C010008ED
:103FA00058400008A8000020C04500008801000813
:103FB00002040608000000000102030401020304D9
:103FC0000607080900A24A040000000000000000E3
:103FD00001020304060708090000000000000000B9
:103FE00000000000000000000000000000000000D1
:103FF0000000000000000000AAAAAAAA0000000019
:1040000000000000000000000000000000000000B0
:1040100000000000000000000000000000000000A0
:104020000000000000000000000000000000000090
:104030000000000000000000000000000000000080
:104040000000000000000000000000000000000070
:08405000000000000000000068
:0400000508000131BD
:00000001FF
