:020000040800F2
:10000000C8480020C9020008910D0008930D00089F
:10001000950D0008970D0008990D000800000000DC
:100020000000000000000000000000003102000895
:100030009B0D0008000000007502000889440008BC
:100040000B3D0008E3020008E3020008E302000899
:10005000E3020008E30200082533000851330008DA
:100060007D330008A9330008D5330008373900086C
:1000700071390008AD390008F3390008393A000831
:100080007F3A0008C33A0008E3020008E3020008D0
:10009000E3020008E3020008E3020008013400085C
:1000A000E3020008E3020008E3020008E30200089C
:1000B000A92F0008AB2F0008C92F0008E302000891
:1000C000E3020008E3020008E3020008E30200087C
:1000D000E30200080325000817260008052700088A
:1000E000B5340008E3020008E3020008E302000858
:1000F000E3020008E3020008E3020008E30200084C
:10010000E3020008E3020008CB2F0008E302000826
:10011000F3270008E52800084B300008713000087C
:10012000093B00084B3B0008913B0008D33B00080B
:1001300000F002F800F06CF80AA090E8000C82448D
:100140008344AAF10107DA4501D100F061F8AFF26A
:10015000090EBAE80F0013F0010F18BFFB1A43F0A5
:1001600001031847F8C1000018C200000A444FF00C
:10017000000C10F8013B13F0070408BF10F8014B06
:100180001D1108BF10F8015B641E05D010F8016B4B
:10019000641E01F8016BF9D113F0080F1EBF10F8AF
:1001A000014BAD1C0C1B09D16D1E58BF01F801CBD2
:1001B000FAD505E014F8016B01F8016B6D1EF9D555
:1001C0009142D6D37047000000230024002500266A
:1001D000103A28BF78C1FBD8520728BF30C148BFAA
:1001E0000B6070471FB59DE803000BF055FB0BF04B
:1001F000C3FA0400002000210BF052FD401C606097
:100200000BF0A8FA1FBD10B500200BF0FCFC10BDD0
:100210000BF0E2FB1146FFF7E5FF04F05BF80BF093
:100220001FFC03B4FFF7EFFF03BC0BF0CFFB000094
:10023000224B19680868B0E8F00F80F30988BFF313
:100240006F8F4FF0000080F311884EF00D0E704755
:100250000000000006480068006880F3088862B665
:1002600061B6BFF34F8FBFF36F8F00DF00BF00BFDA
:1002700008ED00E0EFF30980BFF36F8F0F4B1A68B2
:1002800020E9F00F106008B54FF0500080F311889E
:10029000BFF34F8FBFF36F8F05F0B9FA4FF0000037
:1002A00080F31188BDE8084019680868B0E8F00FCD
:1002B00080F30988BFF36F8F704700BF5C00002098
:1002C000EFF3058070470000094880470948004760
:1002D000FEE77047FEE7FEE7FEE7FEE7FEE7FEE724
:1002E000FEE7FEE704480549054A064B7047000053
:1002F0007120000831010008C8420020C8480020D1
:10030000C8440020C8440020284908432849086000
:10031000704770B50F23C47801780122F4B1244CE2
:100320002468457804F4E064C4F5E064240AC4F168
:100330000406E3408478B5401C402C4301F1E021E1
:10034000230181F80034007800F01F018A40400941
:10035000800000F1E020C0F8002170BD01F01F0016
:1003600082404809800000F1E020C0F8802170BD83
:10037000104A114001430E48001F016070470C4AAB
:10038000121D0029116801D0014300E08143116072
:1003900070474FF0E0210428086903D020F00400E2
:1003A0000861704740F00400FAE700000000FA0519
:1003B0000CED00E080FFFF1F0E49012088607047B0
:1003C0000C4908600868704710B50022094B03E02B
:1003D00050F822401C60521C8A42F9D3186810BDA4
:1003E0000448006870470349087170470148007964
:1003F000704700000030024001684FF6FE72114065
:1004000001600021016041608160C1606A496A4AFF
:100410000839904203D1486840F00F0006E0664A70
:100420001432904204D1486840F0F00048607047B0
:10043000614A2832904203D1486840F47060F5E781
:100440005D4A3C32904203D1486840F47040EDE789
:10045000594A5032904203D1486840F47020E5E791
:10046000554A6432904203D1486840F47000DDE799
:10047000514A7832904203D1486840F07060D5E725
:100480004E4A111F904203D1086840F00F0006E069
:100490004A4A1432904204D1086840F0F0000860E3
:1004A0007047464A2832904203D1086840F4706091
:1004B000F5E7424A3C32904203D1086840F470406C
:1004C000EDE73E4A50329042EAD1086840F470208D
:1004D000E5E730B5036847F6F07293430C6A8A6823
:1004E0002243D1E904452C4322438C692243CC6941
:1004F00022434C6A22438C6A22431A430260CA6830
:1005000042600A6882604968C16030BD00210160B4
:1005100041608160C160016141618161C1610162CD
:100520004162816270470029016802D041F00101F7
:1005300002E04FF6FE72114001607047002A026827
:1005400001D00A4300E08A4302607047416070476F
:10055000406880B2704701460020CA0002D5174AA1
:10056000083A01E0144A083A12680A4200D0012011
:100570007047C10003D51149091F086070470E4933
:1005800008394860704701460020CA0002D50B4A6E
:10059000083A01E0084A083A12680A4200D00120ED
:1005A0007047C10003D50549091F0860704702491B
:1005B0000839486070470000080002400804024003
:1005C000374900200860091D0860091D0860091DE1
:1005D00008603349334814310860704730B53049FA
:1005E0008379026853B30B6893430B600A1D136849
:1005F0000468A343136002790A4413680468234320
:100600001360274A083213680468A3431360131D5C
:100610001C680568AC431C604479102C05D021444B
:100620000A68006802430A6030BD1168046821430B
:100630001160196800680143196030BD00790844F1
:1006400001689143016030BD0021016001710C22FD
:10065000427181717047124910310A6802430A6081
:10066000704701460E4A0020143212680A4200D038
:10067000012070470A49143108607047084A014652
:1006800000201268064B0A4014331B680B4202D04C
:10069000002A00D0012070470149143108607047DA
:1006A00000040140FFFF0F00FC4A116801F038010F
:1006B000014311607047F9490A6822F008020A6094
:1006C0000A6802430A607047F4490A6822F010027F
:1006D0000A600A6802430A607047F048F0494160C6
:1006E000F04941607047ED48ED494160ED49416096
:1006F0007047EA48016941F0800101617047E748AD
:10070000016941F0800101617047E4490420CA6831
:10071000D20701D001207047CA68520701D50220D4
:100720007047C968C906FBD50320704700B503466A
:10073000FFF7EBFF03E000BFFFF7E7FF5B1E0128B9
:1007400003D0002B00D1052000BD002BF4D1FAE727
:1007500070B505464FF430263046FFF7E7FF042812
:1007600011D1CE4C206940F0020020616561206902
:1007700040F0400020613046FFF7D8FF216941F684
:10078000FD721140216170BD30B54FF4302528460F
:10079000FFF7CCFF042810D1C04C206940F00400C2
:1007A0002061206940F0400020612846FFF7BEFF2D
:1007B000216941F6FB721140216130BD00B503464D
:1007C000FFF7A3FF03E000BFFFF79FFF5B1E0128B9
:1007D00003D0002B00D1052000BD002BF4D1FAE797
:1007E00030B54FF430252846FFF7E8FF042810D134
:1007F000AA4C206940F004002061206940F04000CC
:1008000020612846FFF7DAFF216941F6FB721140AB
:10081000216130BDA1490020C969890700D50120A7
:10082000704770B5A525FFF7F5FF00B100254FF41F
:1008300030263046FFF77AFF042827D1974C984896
:10084000A0609848A060206940F0200020612069E5
:1008500040F0400020613046FFF768FF41F6EF7638
:1008600004280ED1206941F6DF710840206120691B
:1008700040F0100020618C4805804FF40050FFF7D5
:1008800055FF052802D021693140216170BDF8B5BE
:10089000064600204FF4005C00900D466046FFF7CE
:1008A00045FF042816D17D4C206940F001002061ED
:1008B00035806046FFF73AFF41F6FE77042806D1FF
:1008C000B61C280C009630806046FFF72FFF216988
:1008D00039402161F8BDF0B506464FF400570D468A
:1008E0003846FFF723FF04280CD16C4C206940F0F8
:1008F0000100206135803846FFF718FF2169BA1ED4
:1009000011402161F0BDF0B506464FF400570D4689
:100910003846FFF70BFF042813D1604C6048A060F5
:100920006048A060206940F01000206135803846A2
:10093000FFF7FCFE052804D0216941F6EF72114053
:100940002161F0BD2DE9F041C04300F0FF0CC0F380
:100950000727C0F30746050E4FF400584046FFF73F
:10096000E5FE042837D14D4C4D49A1604D49A160A9
:10097000216941F010012161BCF1FF0F08D04A4804
:100980000830A0F800C04046FFF7D0FE04281BD175
:10099000FF2F07D044480A3007804046FFF7C6FEC5
:1009A000042811D1FF2E07D03F480C300680404666
:1009B000FFF7BCFE042807D1FF2D07D03A480E30C0
:1009C00005804046FFF7B2FE052804D0216941F6B4
:1009D000EF7211402161BDE8F08170B505464FF41A
:1009E00030263046FFF7A2FE042818D12B4C2C48A5
:1009F000A0602C48A060206940F0200020612069A0
:100A000040F0400020613046FFF790FE41F6DF7174
:100A1000042805D0052802D022690A40226170BD51
:100A2000206908402061206940F0100020611E48C4
:100A30000DB1002100E0A52101803046FFF776FED0
:100A40000528ECD0216941F6EF721140216170BD9B
:100A5000F0B5124C0746124816460D46A0601148E4
:100A6000A0604FF4005C6046FFF760FE042814D1DC
:100A7000206940F01000206135430B493D43891C3B
:100A800045F0F80008806046FFF750FE052804D0C6
:100A9000216941F6EF7211402161F0BD0020024052
:100AA00023016745AB89EFCD00F8FF1F1C48C069E3
:100AB000800870471A48006A704719490020096881
:100AC000890600D501207047154A0029116901D017
:100AD000014300E081431161704701460020104A44
:100AE000012903D0D2680A4203D17047D169C907EE
:100AF000FBD0012070470A49C860704708490420AC
:100B0000CA68D20701D001207047CA68520701D5D0
:100B100002207047C968C906FBD503207047000052
:100B200000200240914910B5884206D101210420DD
:100B300000F0C5FA002104203BE08D49884206D12F
:100B40000121082000F0BBFA0021082031E089498A
:100B5000884206D10121102000F0B1FA00211020B6
:100B600027E08549884206D10121202000F0A7FA1C
:100B7000002120201DE08149884206D1012140202A
:100B800000F09DFA0021402013E07D49884206D103
:100B90000121802000F093FA0021802009E07949AA
:100BA00088420AD184150121204600F088FA0021EC
:100BB0002046BDE8104000F082BA10BD10B50121FA
:100BC000084600F07CFA0021BDE81040012000F04A
:100BD00076BAF0B5CA78002502F00F03D20601D527
:100BE0008A7813430A784FF00F0E12F0FF0F4FF080
:100BF00001021DD0D0F800400F8802FA05F63740F8
:100C0000B74211D14FEA850C0EFA0CF724EA070718
:100C100003FA0CF43C43CF78282F02D0482F02D09F
:100C200002E0466100E006616D1C082DE4D304601B
:100C30000C88FF2C1ED944685FF0000606F10807F7
:100C400002FA07F50F882F40AF420FD14FEA860C0A
:100C50000EFA0CF7BC4303FA0CF73C43CF78282F6D
:100C600000D14561CF78482F00D10561761C082E50
:100C7000E4D34460F0BD4FF6FF7101800221817022
:100C80000421C17070470246002092680A4200D0D9
:100C900001207047806880B2704702460020D26809
:100CA0000A4200D001207047C06880B270470161DD
:100CB0007047416170470AB10161704741617047F7
:100CC000C160704741F480328261816182618169D3
:100CD000806970472C4B10B51A684FF6807422401B
:100CE00042EA00100843186010BD2849C8617047E7
:100CF000F0B5254C002801DAE36900E06368420D95
:100D0000120185B2C0F301579540C0F30346032F8B
:100D100005D0C2020AD50322B240934307E023F074
:100D20007062636823F07063636002E0AB4343F07A
:100D3000706201B12A43002801DAE261F0BD62600D
:100D4000F0BD10B58A0721F003040F49130F2144A9
:100D50000F228C689A4094438C608A6898400243C2
:100D60008A6010BD0949C1F8DC00704700080140E5
:100D7000000C014000100140001401400018014027
:100D8000001C014000200140000001400000204202
:100D900070477047FEE7FEE7FEE770470D490860C1
:100DA00070470C49486070470A4988607047094994
:100DB0004AF6AA200860704706494CF6CC40086005
:100DC0007047044A01460020D2680A4200D0012040
:100DD000704700000030004010B501210C0720468C
:100DE00000F076F92046BDE81040002100F070B90F
:100DF0002149086270472049086170471F4A1168FD
:100E000021F0E0010143116070471B49C1F8A000C7
:100E100070471A4B1A6822F0030202431A601848FE
:100E2000026842F004020260012905D020BF016877
:100E300021F004010160704730BFF8E70F480168F6
:100E400041F004010160016841F0020101600C48B9
:100E5000016841F00401016030BF7047074A014654
:100E6000002052680A4200D00120704703490A68F6
:100E700042EA80000860704700000E4200700040A7
:100E800010ED00E0A448016841F0010101604168F3
:100E9000A24A114041600168A14A11400160016805
:100EA00021F480210160416821F4FE0141604FF48A
:100EB0001F018160704798490A6822F480320A60F5
:100EC0000A6822F480220A60B0F5803F07D0B0F5AE
:100ED000802F03D1086840F4A0200860704708689C
:100EE00040F48030F9E70246002053098A49012B7B
:100EF0000AD0022B0AD0496A02F01F020123934054
:100F00000B4200D0012070470968F5E7096AF3E752
:100F100018B500204FF4A06400903120FFF7E3FFE4
:100F20000099491C0091A14201D00028F5D0312040
:100F3000FFF7D9FF002800D0012018BD76490A68C4
:100F400022F0F80242EAC000086070477549086064
:100F50007047714A5368084323F47C131843506068
:100F600070477049086670476B4A516821F0030169
:100F70000143516070476848406800F00C007047BA
:100F8000654A516821F0F001014351607047624A9F
:100F9000516821F4E0610143516070475E494A683D
:100FA00022F4605242EAC000486070475A4A002961
:100FB000517A01D0014300E0814351727047594991
:100FC000C1F8D8007047544A516821F440410143A8
:100FD000516070475049002281F8202081F820207C
:100FE000012802D0042802D1052081F82000704792
:100FF0004D490860704748490A6A02430A627047CF
:10100000494944390860704730B543494A6812F08D
:101010000C03464A03D0042B01D0082B21D00260D8
:101020004A680F23424C03EA1212A35C0268DA40BA
:1010300042604B68072505EA1323E35C22FA03F3B9
:1010400083604B6805EAD323E35CDA40C2604968F9
:10105000032303EA9131231F595CB2FBF1F10161D3
:1010600030BD4A684B6802F470124FF0020413F46A
:10107000803F04EB924202D04B689B0301D52D4B7D
:1010800000E02A4B5A43CAE7234A0029516901D09C
:10109000014300E08143516170471F4A0029916973
:1010A00001D0014300E08143916170471A4A002951
:1010B000D16901D0014300E08143D1617047164AF4
:1010C0000029D16801D0014300E08143D16070471D
:1010D000114A0029116901D0014300E081431161E7
:1010E000704711494039086070470E49C86470471D
:1010F0000949C87170470848416A41F080714162EE
:101100007047054A0146002092680A4200D001203B
:101110007047014988727047001002400000FFF8D4
:10112000FFFFF6FE000042428004424200127A00B5
:101130000400002000093D00F94910B5884202D1A1
:101140000121C41486E0B0F1804F09D0F5498842EE
:101150000DD101210220FFF7BBFF0021022064E036
:1011600001210846FFF7B4FF002101205DE0EE49B0
:10117000884206D101210420FFF7AAFF00210420A4
:1011800053E0EA49884206D101210820FFF7A0FF79
:101190000021082049E0E649884206D101211020BB
:1011A000FFF796FF002110203FE0E249884206D178
:1011B00001212020FFF78CFF0021202035E0DE49AF
:1011C000884202D10121441444E0DC49884202D122
:1011D0000121CC043EE0DA49884202D101210C050C
:1011E00038E0D849884202D101214C0532E0D64985
:1011F000884206D101214020FFF76AFF00214020EC
:1012000013E0D249884206D101218020FFF760FF18
:101210000021802009E0CE4988420AD184150121AD
:101220002046FFF755FF00212046BDE81040FFF79C
:101230004FBFC849884202D101210C040AE0C649C7
:10124000884202D101214C0404E0C44988420AD1F9
:1012500001218C042046FFF732FF2046BDE81040F4
:101260000021FFF72CBF10BD30B50288AC4BB24C4B
:1012700098420DD0A0420BD0B0F1804F08D0A94DBC
:10128000A84205D0A84DA84202D0A84DA84203D13B
:1012900022F070054A882A43A54DA84206D0A54DE4
:1012A000A84203D022F44075CA882A4302808A8863
:1012B00082850A88028598420AD0A04208D0A54AB1
:1012C000904205D0A44A904202D0A44A904201D153
:1012D000097A01860121818230BD30B5028C22F06D
:1012E00001020284028C8388048B22F0020224F023
:1012F00073050C882C430D8915434A882A43884D71
:10130000A8420BD08C4DA84208D0924DA84205D0DF
:10131000914DA84202D0914DA8420DD122F008056E
:101320004A8923F440732A4322F004058A882A4319
:101330008D891D43CB892B4383800483C988818693
:10134000028430BD70B5028C22F010020284028C3F
:101350008488038B0D8823F4E6464FF6FF7303EA77
:10136000052535430E8922F0200203EA06161643AE
:101370004A8803EA02123243694EB04202D06E4EEE
:10138000B04215D122F080064A8924F4406403EA71
:101390000212324322F040068A8803EA02123243E4
:1013A0008E8903EA86062643CC8903EA8404344303
:1013B00084800583C9880187028470BD70B5028C62
:1013C00022F480720284028C8488838B0D8823F03F
:1013D00073031D4322F400730E894FF6FF7202EA75
:1013E00006261E434B8802EA032333434C4EB04289
:1013F00002D0514EB04215D123F400664B8924F43B
:10140000405402EA0323334323F480668B8802EAC4
:10141000032333438E8902EA06162643CC8902EA67
:101420000414344384808583C9888187038470BD14
:1014300070B5028C22F480520284048C8288838BE3
:101440000D8823F4E6464FF6FF7303EA052535437E
:1014500024F400560C8903EA043434434E8803EA2A
:10146000063626432E4CA04202D0334CA04205D172
:1014700022F480448A8903EA82122243828085838F
:10148000C988A0F84010068470BD828B22F44062A7
:101490008283828B4FF6FF7303EA01210A43828322
:1014A0007047828B22F00C028283828B0A438283F4
:1014B0007047028B22F440620283028B4FF6FF7367
:1014C00003EA01210A4302837047F0B5048C24F03B
:1014D00010040484078B048C4FF6FF7527F47347C0
:1014E00005EA03333B4305EA02221A430C4B05EAA3
:1014F000011698420ED0104B98420BD0B0F1804F9D
:1015000008D0084B984205D0074B984202D0074BB1
:10151000984225D124F02001314341F0100124E00C
:10152000002C01400004004000080040000C004076
:10153000001000400014004000340140004C014005
:10154000005001400054014000180040001C0040C1
:10155000002000400040014000440140004801409C
:1015600024F0A0030B4343F0100102830184F0BD7B
:10157000028B22F00C020283028B0A430283704723
:1015800070B5048C24F001040484058B048C4FF6A0
:10159000FF7606EA0313134325F0F305F94A2B43BC
:1015A00090420ED0F84A90420BD0B0F1804F08D054
:1015B000F64A904205D0F64A904202D0F54A90424F
:1015C00002D124F0020201E024F00A020A4342F0B0
:1015D00001010383018470BD2DE9F05F0D460446CF
:1015E0000888E84FDFF8A0C3DFF8A0834988AA88FD
:1015F0002B894FF0804960B3042832D04FF6FF7E2C
:10160000082836D0208C9B4620F480502084A38B61
:10161000268C704600EA022223F473431A4300EA40
:101620000B3010430EEA013EBC420BD0644509D09A
:101630004C4507D0444505D0D54A944202D0D54BFD
:101640009C4245D126F4005141EA0E0141F48051FB
:1016500043E02046FFF794FFE9882046BDE8F05FAD
:1016600086E72046FFF731FFE9882046BDE8F05FB6
:101670001FE7208C20F480702084B4F81CA0208CFC
:101680000EEA031313432AF0F30A0EEA012B43EA8E
:101690000A03BC420BD0644509D04C4507D04445F1
:1016A00005D0BB4A944202D0BA4A944204D120F4F5
:1016B000007040EA0B0002E020F42060084340F490
:1016C0008070A3832084E9882046BDE8F05FE8E6C7
:1016D00026F402420A4342F48051A083204621842A
:1016E000E988BDE8F05FD0E62DE9F0410C46002620
:1016F00049880746012501B90226A288012A00D19E
:101700000225208823890028384610D0FFF7DDFE07
:10171000E1883846FFF7CDFE23892A463146384610
:10172000FFF72EFFE1883846BDE8F04120E7FFF7DC
:1017300027FFE1883846FFF71BFF23892A463146F9
:101740003846FFF7C2FEE1883846BDE8F041B0E612
:1017500010B50A884B88CC881A438B8823431A43D8
:101760000B891A434B8989891A430A43A0F84420FC
:1017700010BD4FF6FF71818000210180C180418042
:10178000017270470021018041808180C180018108
:1017900041818181C1817047002101804180012206
:1017A0008280C18001817047002101804180818059
:1017B000C18001814181818170470029018802D067
:1017C00041F0010101E021F0010101807047002991
:1017D00030F8441F02D041F4004101E0C1F30E0192
:1017E00001807047002A828901D00A4300E08A43C1
:1017F00082817047818270471143A0F8481070477A
:10180000002A828901D00A4300E08A43828170471E
:10181000018921F0070101817047028922F07002DD
:101820000A430281704700B50346FFF7F6FF1889A7
:1018300040F00700188100BD70B516460D466029BE
:1018400004464FF0010231460AD0FFF799FE2946BF
:101850002046FFF7E2FF208940F00700208170BD9D
:10186000FFF733FEF3E730B504894FF6FF7505EA5D
:1018700003231343E4B20B432343038130BD10B56C
:101880000446FFF7F0FF208940F07700208110BD6B
:1018900010B50446FFF7E7FF208940F4804020811F
:1018A00010BD018582827047028822F070020A43CF
:1018B0000280704770B50589048B068C25F00705FA
:1018C0000D434FF6FC410C4040F201110C434FF622
:1018D000FF7101EA031126F022061143314305810D
:1018E0000483018470BD028B22F070020A430283DC
:1018F0007047028B4FF6FF7322F4E04203EA0121A6
:10190000114301837047828B22F070020A43828365
:101910007047828B4FF6FF7322F4E04203EA012105
:101920001143818370470029018802D041F0800172
:1019300001E021F08001018070470029818802D0F8
:1019400041F0040101E021F0040181807047002989
:10195000818802D041F0080101E021F00801818076
:1019600070470029818802D041F0010101E021F097
:10197000010181807047028B22F008020A43028332
:1019800070470000002C014000340140000400407A
:1019900000080040000C0040028B4FF6FF7322F459
:1019A000006203EA012111430183E9E7828B22F0FF
:1019B00008020A438283E3E7828B4FF6FF7322F427
:1019C000006203EA012111438183D9E7028B22F0EF
:1019D00004020A430283D3E7028B4FF6FF7322F41B
:1019E000806203EA012111430183C9E7828B22F05F
:1019F00004020A438283C3E7828B4FF6FF7322F40B
:101A0000806203EA012111438183B9E7028B22F04E
:101A100080020A430283B3E7028B4FF6FF73C2F3DF
:101A20000E0203EA012111430183A9E7828B22F010
:101A300080020A438283A3E7828B4FF6FF73C2F3CF
:101A40000E0203EA01211143818399E7028C22F0FF
:101A500002020A43028493E7028C22F008020A433E
:101A600002848DE7028C4FF6FF7322F0200203EA16
:101A700001111143018483E7028C4FF6FF7322F0BA
:101A8000800203EA01111143018479E7028C4FF6C9
:101A9000FF7322F4007203EA0121114301846FE70E
:101AA000028C4FF6FF7322F4006203EA0121114316
:101AB000018465E7028C4FF6FF7322F4005203EABB
:101AC0000131114301845BE710B50123048C8B4085
:101AD0009C430484038C8A401343038410BD10B5D7
:101AE0000423048C8B409C430484038C8A4013435E
:101AF000038410BD30B50124058C00F118038C401F
:101B0000A543058489B108290FD0091FC1F34E00F0
:101B10001844016821F4E041016001684FF6FF7349
:101B200003EA02221143016030BD03EB510001685A
:101B300021F0700101600168F4E70029018802D0FA
:101B400041F0020101E021F00201018018E70029C3
:101B5000018802D041F0040101E021F0040101807C
:101B60000EE70029818802D041F0800101E021F0D8
:101B70008001818004E7028822F008020280028846
:101B80000A430280FCE6828822F07002828082880A
:101B90000A438280F4E6028922F007020281028968
:101BA0000A430281ECE6028922F080020281028966
:101BB0000A430281E4E68184E2E68185E0E68186EB
:101BC000DEE60187DCE68187DAE6A0F84010D7E69A
:101BD000028822F44072028002880A430280CFE623
:101BE000808ECDE6008FCBE6808FC9E6B0F840004E
:101BF000C6E6808CC4E6008DC2E602460020128A4A
:101C00000A4200D00120BBE6C9430182B8E6024681
:101C10000020138A92890B4202EA010202D0002AB4
:101C200000D00120ACE6C9430182A9E6C44910B541
:101C300088420AD101218C032046FFF740FA204652
:101C4000BDE810400021FFF73ABABE49884202D1F0
:101C500001214C0410E0BC49884202D101218C04CE
:101C60000AE0BA49884202D10121CC0404E0B84913
:101C700088420AD101210C052046FFF729FA2046A7
:101C8000BDE810400021FFF723BA10BD30B504466F
:101C9000008A85B00D464CF6FF710840E988014383
:101CA0002182A1894EF6F3100140A8882A891043A9
:101CB0006A890A431043A081A08A4FF6FF41084079
:101CC000A9890143A1826846FFF79EF99C48844296
:101CD00001D1039800E00298A189090400EBC0013A
:101CE00001EB0010296801D5490000E08900B0FB34
:101CF000F1F06422B0FBF2F109010B096FF0180555
:101D00006B4300EB8300A3891D044FF0320306D51B
:101D100003EBC000B0FBF2F000F0070005E003EBBE
:101D20000010B0FBF2F000F00F000843208105B076
:101D300030BD4FF41651016000218180C1800181C6
:101D40000C2242818181704710B5038A4FF2FF0255
:101D500013400A884C8822438C88C9880C4322434C
:101D60001A43028210BD0021018041808180C18020
:101D700070470029818902D041F4005101E021F42B
:101D800000518181704710B5C1F3421301F01F0467
:101D90000121A140012B07D0022B07D01430002ACB
:101DA000026805D00A4304E00C30F8E71030F6E78B
:101DB0008A43026010BD002A828A01D00A4300E0F3
:101DC0008A4382827047028A22F00F020282028ACC
:101DD0000A4302827047828922F4006282818289EA
:101DE0000A43828170470029818902D041F00201B3
:101DF00001E021F0020181817047028A22F0200275
:101E00000282028A0A43028270470029018A02D0B4
:101E100041F4804101E021F4804101827047C1F327
:101E20000801818070478088C0F30800704781896D
:101E300041F0010181817047028BD2B20283028B93
:101E400042EA012101837047028B02F47F42028340
:101E5000028B0A43028370470029818A02D041F035
:101E6000200101E021F02001818270470029818A50
:101E700002D041F0100101E021F010018182704791
:101E80000029818A02D041F0080101E021F0080117
:101E9000818270470029818902D041F4004101E02C
:101EA000C1F30E01818170470029818A02D041F47B
:101EB000006101E021F4006181827047828A22F092
:101EC00004028282828A0A43828270470029818AC0
:101ED00002D041F0020101E021F00201818270474D
:101EE0000246002012880A4200D001207047C943F0
:101EF0000180704730B501F01F0201240025C1F3B5
:101F0000421304FA02F2012B0FD0022B0FD0838A66
:101F10004FEA11210088134204FA01F400EA040098
:101F200001D000B10125284630BD8389F0E7038A3E
:101F3000EEE70A0A01219140C94301807047000081
:101F4000003801400044004000480040004C004080
:101F50000050004010B50121CC022046FFF7B8F830
:101F60002046BDE810400021FFF7B2B8164A1168BC
:101F700021F4C071014311607047134908B50A6824
:101F800000F07F0022F07F0210430090086008BD3F
:101F90000E490120C1F8A40070470B4900F07F00F2
:101FA000091F08607047084940F08000091F086059
:101FB00070470548001D0068C0B270470249002004
:101FC000091D086070470000042C00400080054295
:101FD0000CB500214B4801910091026842F4803217
:101FE00002604FF4A063026802F400320092019A8A
:101FF000521C0192009A12B9019A9A42F3D10268D6
:10200000920333D5012100913F490A6842F0100242
:102010000A600A6822F003020A600A6842F00202BB
:102020000A604168416041684160416841F48061F3
:102030004160416821F47C114160416841F4E8113C
:102040004160016841F08071016001688901FCD53F
:10205000416821F003014160416841F002014160A3
:102060004168C1F381010229FAD10CBD00910CBD78
:10207000244810B5016841F0010101604168234A1C
:10208000114041600168224A11400160016821F459
:1020900080210160416821F4FE0141604FF41F017D
:1020A0008160FFF795FF1B494FF00060086010BD8D
:1020B000144910B54868184A10F00C03174803D0AB
:1020C000042B01D0082B0AD002604968134AC1F3DF
:1020D0000311121D515C0268CA40026010BD4A68BB
:1020E0004B6802F470124FF0020413F4803F04EBCB
:1020F000924202D04B689B0301D5094B00E0064B8E
:102100005A43E1E700100240002002400000FFF8BF
:10211000FFFFF6FE08ED00E000127A001400002038
:1021200000093D00F0B5054687B001210520FEF706
:10213000B4FF01218803FEF7B0FFFE4E3046FFF7E3
:1021400075FD7015ADF8100018208DF81300FA4FCA
:1021500003248DF8124004A93846FEF73AFD3015E5
:10216000ADF8100004208DF8130004A93846FEF7DE
:1021700030FD25208DF814008DF815408DF816409F
:1021800001208DF8170005A8FEF7C3F80020ADF870
:102190000400ADF80600ADF80800ADF80C000C2006
:1021A000ADF80A00009569463046FFF76FFD012241
:1021B00040F225513046FFF7E6FD01213046FFF79A
:1021C000D8FD40213046FFF792FE07B0F0BD70B554
:1021D0000546012186B04804FEF768FF012104206E
:1021E000FEF75BFF0420ADF8100018208DF81300F7
:1021F000D14E03248DF8124004A93046FEF7E9FCC5
:102200000820ADF8100048208DF8130004A93046CE
:10221000FEF7DFFC26208DF814008DF815408DF8B0
:10222000164001208DF8170005A8FEF772F800206F
:10223000ADF80400ADF80600ADF80800ADF80C00EC
:102240000C20BE4CADF80A00009569462046FFF709
:102250001DFD012240F225512046FFF794FD01218A
:102260002046FFF786FD40212046FFF740FE06B0DE
:1022700070BD70B50546012186B08804FEF716FFD3
:1022800001210820FEF709FF4FF48060ADF810002F
:1022900018208DF81300AA4E03248DF8124004A9CB
:1022A0003046FEF796FCF014ADF8100048208DF88B
:1022B000130004A93046FEF78CFC27208DF814008B
:1022C0008DF815408DF8164001208DF8170005A8EF
:1022D000FEF71FF80020ADF80400ADF80600ADF8D9
:1022E0000800ADF80C000C20964CADF80A000095E3
:1022F00069462046FFF7CAFC012240F225512046DC
:10230000FFF741FD01212046FFF733FD4021204624
:10231000FFF7EDFDABE770B50546012186B0C804B7
:10232000FEF7C4FE01211020FEF7B7FE4FF48060D7
:10233000ADF8100018208DF81300834E03248DF89B
:10234000124004A93046FEF744FCF014ADF810002A
:1023500004208DF8130004A93046FEF73AFC34201F
:102360008DF814008DF815408DF8164001208DF879
:10237000170005A8FDF7CDFF0020ADF80400ADF86B
:102380000600ADF80800ADF80C000C206F4CADF85D
:102390000A00009569462046FFF778FC012240F2CA
:1023A00025512046FFF7EFFC01212046FFF7E1FC15
:1023B00040212046FFF79BFD59E730B50546012136
:1023C00087B00805FEF772FE01211020FEF765FEBA
:1023D0004FF48050ADF8100018208DF8130003243E
:1023E0008DF8124004A95848FEF7F3FB0420ADF81D
:1023F00010008DF8130004A95548FEF7EAFB3520BC
:102400008DF814008DF815408DF8164001208DF8D8
:10241000170005A8FDF77DFF0020ADF80400ADF81A
:102420000600ADF80800ADF80C000C20494CADF8E2
:102430000A00009569462046FFF728FC012240F279
:1024400025512046FFF79FFC01212046FFF791FC14
:1024500040212046FFF74BFD07B030BD10B50446C4
:10246000FFF7DDFC80212046FFF73AFD0028F9D078
:1024700010BD70B50C46064600250AE03046FFF751
:10248000CEFC80213046FFF72BFD0028F9D0641CDC
:102490006D1C21780029F1D1284670BD10B52E4A57
:1024A00091888029FCD2518853181873491CC81789
:1024B00001EB506020F07F00081A508072B69088BF
:1024C000401C9080012240F227711A48FFF75BFC04
:1024D00062B6002010BD204A50890028FCD0D18867
:1024E000501890F88C00491CCB1701EB536323F074
:1024F0007F03C91AD18072B65189491E518162B6D3
:10250000704770B50B4D40F2255631462846FFF70F
:10251000F1FC114C012829D12846FFF784FCC1B2F7
:10252000608980281ED2401C60812089221882F890
:102530008C1013E0003801400008014000440040C6
:10254000000C01400048004000100140004C0040D9
:102550000014014000500040C0020020401C00F068
:102560007F00208131462846FFF7E3FC40F22776C2
:1025700031462846FFF7BEFC01280DD1A288521E25
:102580000BD3A2802688A019017B2846FFF766FF9F
:10259000761C06F07F00208070BD00223146284660
:1025A000FFF7F1FB31462846BDE87040FFF7C1BC9C
:1025B00010B5EE4A91884029FCD2518853181873FF
:1025C000491CC81701EB906020F03F00081A5080AA
:1025D00072B69088401C9080012240F22771E44836
:1025E000FFF7D1FB62B6002010BDE04A50890028F9
:1025F000FCD0D188501890F84C00491CCB1701EB47
:10260000936323F03F03C91AD18072B65189491EE2
:10261000518162B6704770B5D54D40F225563146AE
:102620002846FFF767FCD14C012814D12846FFF754
:10263000FAFBC1B26089402809D2401C6081208920
:10264000221882F84C10401C00F03F0020813146D7
:102650002846FFF76EFC40F2277631462846FFF702
:1026600049FC01280DD1A288521E0BD3A2802688D6
:10267000A019017B2846FFF7F1FE761C06F03F000B
:10268000208070BD002231462846FFF77CFB314692
:102690002846BDE87040FFF74CBCB44A10B58C32F8
:1026A00091884029FCD2518853181873491CC817C7
:1026B00001EB906020F03F00081A508072B69088BD
:1026C000401C9080012240F22771AA48FFF75BFB73
:1026D00062B6002010BDA54A8C3250890028FCD07B
:1026E000D188501890F84C00491CCB1701EB93632C
:1026F00023F03F03C91AD18072B65189491E518116
:1027000062B6704770B59B4D40F22556314628465B
:10271000FFF7F0FB954C8C34012814D12846FFF7C5
:1027200082FBC1B26089402809D2401C60812089A7
:10273000221882F84C10401C00F03F0020813146E6
:102740002846FFF7F6FB40F2277631462846FFF78A
:10275000D1FB01280DD1A288521E0BD3A28026885E
:10276000A019017B2846FFF779FE761C06F03F0092
:10277000208070BD002231462846FFF704FB314619
:102780002846BDE87040FFF7D4BB10B57A4A91885F
:102790004029FCD2518853181873491CC81701EB03
:1027A000906020F03F00081A508072B69088401C5C
:1027B0009080012240F227717048FFF7E4FA62B678
:1027C000002010BD6C4A50890028FCD0D1885018D8
:1027D00090F84C00491CCB1701EB936323F03F03A7
:1027E000C91AD18072B6664A5189491E518162B6B2
:1027F000704770B5614D40F2255631462846FFF7C7
:1028000079FB5D4C012814D12846FFF70CFBC1B2BF
:102810006089402809D2401C60812089221882F8F2
:102820004C10401C00F03F00208131462846FFF745
:1028300080FB40F2277631462846FFF75BFB0128F4
:102840000ED1A288521E0CD34D4882802688A01932
:10285000017B2846FFF702FE761C06F03F00208031
:1028600070BD002231462846FFF78DFA31462846D2
:10287000BDE87040FFF75DBB3F4A10B58C329188D0
:102880004029FCD2518853181873491CC81701EB12
:10289000906020F03F00081A508072B69088401C6B
:1028A0009080012240F227713648FFF76CFA62B639
:1028B000002010BD304A8C3250890028FCD0D188CD
:1028C000501890F84C00491CCB1701EB936323F090
:1028D0003F03C91AD18072B6294A5189491E5181D4
:1028E00062B6704770B5274D40F2255631462846EE
:1028F000FFF700FB204C8C34012814D12846FFF749
:1029000092FAC1B26089402809D2401C60812089B6
:10291000221882F84C10401C00F03F002081314604
:102920002846FFF706FB40F2277631462846FFF798
:10293000E1FA01280ED1A288521E0CD310488280E1
:102940002688A019017B2846FFF788FD761C06F033
:102950003F00208070BD002231462846FFF713FA61
:1029600031462846BDE87040FFF7E3BACC030020AB
:102970000044004000480040E4040020004C0040B7
:10298000C002002000500040F8B501210820FEF7E9
:1029900084FB01214020FEF780FB1C4F3846FEF7E8
:1029A000C1F82024ADF8004003258DF80250102610
:1029B0008DF8036069463846FEF70BF9202138464A
:1029C000FEF775F9124F3846FEF7ACF8ADF8004047
:1029D0008DF802508DF8036069463846FEF7F9F825
:1029E00020213846FEF763F9F8BD20210748FEF79D
:1029F00060B920210548FEF75AB920210448FEF7A6
:102A000058B920210248FEF752B90000000C0140DD
:102A10000018014010B5FEF7EBF9002010BD08B515
:102A200001210520FEF739FB0120ADF80000282028
:102A30008DF8030069461348FEF7CBF8012108071B
:102A4000FEF734FB0120FEF7E0F9FEF7F7F908BDC9
:102A500010B501210807FEF729FB01210846FEF702
:102A6000D8F910BD012080F3138807480168074A90
:102A700001F4E06111430160BFF3408FFEE70020E5
:102A800070470000000801400CED00E00400FA056A
:102A900010B501214020FEF7F7FABDE81040FDF720
:102AA0008BBC10B5FDF78CFC0446FDF785FC204679
:102AB00010BD10B5FDF788FC0446FDF77DFC2046EF
:102AC00010BD000019480068704710B5FEF7DAF92C
:102AD0004FF480342046FEF7EEF9FEF719FA01288C
:102AE00022D11020FDF7F0FD0220FDF7DDFD0020D2
:102AF000FEF746FA0020FEF751FAA011FEF747FA5A
:102B00004FF4E0112046FEF724FA0120FEF729FADF
:102B10003920FEF7E8F90028FAD00220FEF724FA5F
:102B2000FEF729FA0828FBD110BD00001400002090
:102B30002DE9F0410F461D46164604460121FEF7D9
:102B4000FCFFA785268500212046FEF7F6FF002D15
:102B500005D12046BDE8F0410121FEF74BBEBDE89E
:102B6000F0810121FEF729BE0021FEF726BEFEF707
:102B7000E3BA7FB50C4605460121C802FEF796FA76
:102B8000ADF800400020ADF80450FE4CADF8060052
:102B9000ADF8020069462046FEF766FB01221146A9
:102BA0002046FEF71FFE18208DF80C0001208DF83E
:102BB0000D0003218DF80E108DF80F0003A8FDF70E
:102BC000A8FB7FBD7FB50C46054601210846FEF7F0
:102BD0006DFAADF800400020ADF80450ADF80600E5
:102BE000ADF802004FF0804469462046FEF73CFBFA
:102BF000012211462046FEF7F5FD1C208DF80C0041
:102C000001208DF80D0003218DF80E108DF80F00B6
:102C100003A8FDF77EFB7FBD7FB50C46054601216D
:102C20000220FEF743FAADF800400020ADF8045052
:102C3000D54CADF80600ADF8020069462046FEF717
:102C400013FB012211462046FEF7CCFD1D208DF816
:102C50000C0001208DF80D0003218DF80E108DF869
:102C60000F0003A8FDF755FB7FBD7FB50C46054659
:102C700001210420FEF71AFAADF800400020ADF85B
:102C80000450C24CADF80600ADF80200694620467B
:102C9000FEF7EAFA012211462046FEF7A3FD1E20A8
:102CA0008DF80C0001208DF80D0003218DF80E1019
:102CB0008DF80F0003A8FDF72CFB7FBD7FB50C46F8
:102CC000054601210820FEF7F1F9ADF8004000208B
:102CD000ADF80450AE4CADF80600ADF80200694600
:102CE0002046FEF7C1FA012211462046FEF77AFD82
:102CF00032208DF80C0001208DF80D0003218DF895
:102D00000E108DF80F0003A8FDF703FB7FBD7FB504
:102D10000C46054601211020FEF7C8F9ADF8004029
:102D20000020ADF804509B4CADF80600ADF8020051
:102D300069462046FEF798FA01212046FEF7F3FD8A
:102D4000012211462046FEF74DFD00212046FEF7E8
:102D5000FEFE36208DF80C0001208DF80D000321B9
:102D60008DF80E108DF80F0003A8FDF7D2FA7FBD85
:102D70007FB50C46054601212020FEF797F9ADF8F6
:102D800000400020ADF80450834CADF80600ADF8CB
:102D9000020069462046FEF767FA01212046FEF749
:102DA000C2FD012211462046FEF71CFD00212046EF
:102DB000FEF7CDFE37208DF80C0002208DF80D00B7
:102DC00003208DF80E0001208DF80F0003A8FDF7F9
:102DD000A0FA7FBD7FB50C46054601214803FEF7EA
:102DE00065F9ADF800400020ADF804506B4CADF82B
:102DF0000600ADF8020069462046FEF735FA0122CA
:102E000011462046FEF7EEFC2B208DF80C00012029
:102E10008DF80D0003218DF80E108DF80F0003A81A
:102E2000FDF777FA7FBD30B50C460546012189B024
:102E3000C802FEF732F901210420FEF72EF94FF403
:102E40008070ADF81C0018208DF81F0003208DF84D
:102E50001E0007A95248FDF7BCFEADF81450ADF8AE
:102E600010400024474DADF81640ADF8124004A9BB
:102E70002846FEF7F9F97020ADF800000120ADF802
:102E800002000220ADF80800ADF806406946284669
:102E9000FEF723FA01212846FEF799FC082128466F
:102EA000FEF769FD01212846FEF73DFD09B030BD62
:102EB00000240125214640F28330FFF7B4FF314E54
:102EC0004FF41677641C00E0641EA4B2BC4200D923
:102ED000002534B121463046FEF771FE002DF1D1B8
:102EE000F2E7012521463046FEF769FEEAE7F0B534
:102EF0000C46064689B001210820FEF7D7F80121CB
:102F00000420FEF7CAF80125ADF81C502820244FF4
:102F10008DF81F0007A93846FDF75BFE01213846F2
:102F2000FDF7C7FEADF81060ADF80C400024184E58
:102F3000ADF81240ADF80E4003A93046FEF794F903
:102F4000ADF80040ADF80450ADF80240ADF80640D1
:102F5000ADF8084069463046FEF73EFB32208DF85A
:102F6000180002218DF819108DF81A108DF81B50D9
:102F700006A8FDF7CEF9012203213046FEF732FC08
:102F800009B0F0BD002C01400004004000080040E2
:102F9000000C0040001000400014004000340140CC
:102FA0000008014070477047704710B5424C01213E
:102FB0002046FEF72CFE002805D02046BDE8104034
:102FC0000121FEF730BE10BD704770B53B4C3C4D43
:102FD0002078000633D401212846FEF718FE38B1C8
:102FE0002178480604D5C843800612D0491C2170B8
:102FF00002212846FEF70BFE08B3207841060FD5C4
:1030000040F0800020702846FEF7EAFDA0800021F5
:1030100012E041F0800020704FF6FF70A080E7E7DB
:1030200000202070A08001462846FEF7C4FD2078CD
:10303000022140F0400020702846FEF707FD284698
:10304000BDE870400321FEF7EEBD10B51D4C012117
:103050002046FEF7DCFD012809D1184A5178491CA9
:1030600051702046BDE810400121FEF7DCBD10BDC7
:1030700010B5154C01212046FEF7C9FD012809D1E4
:103080000E4A9178491C91702046BDE810400121FC
:10309000FEF7C9BD10BD704701B5009800280AD0E1
:1030A0004CF2503210460221491C8142FCD3009858
:1030B000401E0090F6D108BD000400403000002002
:1030C000000C0040001000400014004010B5022029
:1030D000FDF7EAFA0020FDF7EEFA002010BD10B56A
:1030E0000020FFF7F3FF08B1012010BDFDF7E2FC5F
:1030F000002801DB042010BD002010BD0420704713
:103100000420704770B514460D460020FFF7DEFF1F
:1031100008B1032070BD9DB1012D07D0022D08D04C
:10312000032D0AD0042D0BD0042070BD54B1002013
:1031300005E03CB14FF4007001E01CB102202060BA
:10314000002070BD012070BD01480088704700005C
:10315000E0F7FF1F2DE9FF5F9846DDE90E4B914632
:103160000D468246FE4F109E3915C31B4A00B842D9
:103170004ED00ADCFB4B1AEB03000ED088420FD076
:10318000904211D1012110200CE08B4243D0934298
:1031900044D0B3F5406F07D143E00121042001E0A2
:1031A00001210820FDF779FF01210846FDF775FF91
:1031B000ADF80C5004208DF80F0003278DF80E7029
:1031C00003A95046FDF705FD08F0FF0109F0FF00D7
:1031D000FDF7B7FD00208DF804008DF805B0012043
:1031E0008DF8060000946846FDF7F8F98DF8086040
:1031F0008DF809708DF80A7001208DF80B0002A877
:10320000FDF787F8204600F0AAFA411C0CD00FE029
:1032100001212020C6E701214020C3E701218020B1
:10322000C0E701210802BDE700F0A8FA411C1AD04E
:10323000CD4A119902EB4012CC48C2F800A0C2F866
:103240001080C2E90661111D81E8300282F814B0D5
:103250000168A1430160001D0168A14301600020D5
:1032600004B0BDE8F09F4FF0FF30F9E710B5044619
:1032700001210846FDF711FFBC48016821430160A8
:10328000001D0168A143016010BDB8490A6882436E
:103290000A60091D0A6882430A6000210120FDF7C7
:1032A000FCBEFDF7D8B92DE9FE431C46ADF8081069
:1032B00004218DF80B10DDE90A5603218DF80A1060
:1032C00017464FF0FF3802A9FDF783FCE1B2F8B2D0
:1032D000FDF737FD00248DF804408DF8056000955A
:1032E0008DF806406846FDF779F9284600F037FA70
:1032F000411C15D09C4901EB40119C48CC614C60AD
:103300000C608C610C61CC608C600C750168A94309
:103310000160001D0168A94301600020BDE8FE8333
:103320004046FBE710B50120FDF7A8F900280ED0B4
:10333000012000F014FA411C09D08B4901EB401028
:10334000C0698047BDE810400120FDF7A5B910BD58
:1033500010B50220FDF792F900280ED0022000F0EF
:10336000FEF9411C09D0804901EB4010C06980473B
:10337000BDE810400220FDF78FB910BD10B5042044
:10338000FDF77CF900280ED0042000F0E8F9411C7C
:1033900009D0754901EB4010C0698047BDE8104075
:1033A0000420FDF779B910BD10B50820FDF766F9C6
:1033B00000280ED0082000F0D2F9411C09D06A493B
:1033C00001EB4010C0698047BDE810400820FDF7C0
:1033D00063B910BD10B51020FDF750F900280ED0CC
:1033E000102000F0BCF9411C09D05F4901EB4010EE
:1033F000C0698047BDE810401020FDF74DB910BDF1
:1034000070B52020FDF73AF9574C58B1202000F054
:10341000A6F9411C06D004EB4010C069804720206B
:10342000FDF73AF94020FDF729F958B1402000F0A6
:1034300096F9411C06D004EB4010C069804740203B
:10344000FDF72AF98020FDF719F958B1802000F026
:1034500086F9411C06D004EB4010C06980478020EB
:10346000FDF71AF94FF480752846FDF707F958B1B2
:10347000284600F074F9411C06D004EB4010C069E6
:1034800080472846FDF708F94FF400752846FDF7F8
:10349000F5F800280DD0284600F061F9411C08D04D
:1034A00004EB4010C06980472846BDE87040FDF736
:1034B000F3B870BD70B54FF480652846FDF7DEF8AF
:1034C000294C58B1284600F04AF9411C06D004EBBB
:1034D0004010C06980472846FDF7DEF84FF40065CC
:1034E0002846FDF7CBF858B1284600F038F9411CC2
:1034F00006D004EB4010C06980472846FDF7CCF8A1
:103500004FF480552846FDF7B9F858B1284600F029
:1035100026F9411C06D004EB4010C06980472846BC
:10352000FDF7BAF84FF400552846FDF7A7F858B153
:10353000284600F014F9411C06D004EB4010C06985
:1035400080472846FDF7A8F84FF480452846FDF748
:1035500095F8A0B1284600F002F9411C0FD007E011
:103560000014014000F8FEBFFC05002000040140EB
:1035700004EB4010C06980472846FDF78DF84FF4F2
:1035800000452846FDF77AF800280DD0284600F0BF
:10359000E6F8411C08D004EB4010C069804728467B
:1035A000BDE87040FDF778B870BD2DE9FE4F0D46BF
:1035B0000CA9DFF8E4C191E8100A17464FF48061C6
:1035C0001E464A008046A0EB0C03604540D00ADC52
:1035D000724B18EB03000ED088420FD0904211D1ED
:1035E000012110200CE08B4235D0934236D0B3F548
:1035F000406F07D135E00121042001E001210820BE
:10360000FDF74BFD01210846FDF747FDADF80850D9
:103610004FF0040A8DF80BA003208DF80A0002A9D0
:103620004046FDF7D6FAF1B2F8B2FDF78AFB8DF805
:1036300004A08DF8059001208DF8060000946846DE
:10364000FCF7CCFF204600F08AF8411C0CD00FE0BC
:1036500001212020D4E701214020D1E70121802051
:10366000CEE701210802CBE700F088F8411C18D012
:103670004B49002201EB4010011DC0F8008006619B
:10368000C0E906B281E8B00080F8149045480168AE
:10369000A1430160001D0168A14301600020BDE855
:1036A000FE8F4FF0FF30FAE710B5044601210846BF
:1036B000FDF7F3FC3B480168A1430160001D016870
:1036C0002143016010BD37490A6882430A60091D21
:1036D0000A6882430A6000210120FDF7DEBCFCF786
:1036E000BABF2DE9FE430427ADF80810DDE90A58FA
:1036F0008DF80B7003218DF80A101C4616464FF00A
:10370000FF3902A9FDF765FAE1B2F0B2FDF719FB46
:103710008DF804708DF80580002400958DF8064022
:103720006846FCF75BFF284600F019F8411C14D0EE
:103730001B4901EB40111B48CC614C600C608C6153
:103740000C61CC608C600C750168A9430160001DA0
:103750000168A94301600020E0E54846DEE5014636
:103760000F4A002002EB40135B688B4205D0401CDF
:103770001028F7DB01D14FF0FF30704708490020D7
:1037800001EB40125268002A05D0401C1028F7DBDC
:1037900001D14FF0FF3070470014014000F8FEBF28
:1037A000FC0500200004014070B50C4606460121CE
:1037B0008CB015460846FDF767FC01210220FDF795
:1037C00063FC3046FCF718FECDE9014510250021C9
:1037D000CDE903518020CDE9051007914001089102
:1037E000CDE909100B9101A93046FCF772FE0B20C0
:1037F0008DF8000001248DF801408DF802408DF80D
:1038000003406846FCF785FD0C208DF800008DF81C
:1038100001408DF802408DF803406846FCF779FDC1
:103820000D208DF800008DF801408DF802408DF8D4
:1038300003406846FCF76DFD0E208DF800008DF802
:1038400001408DF802408DF803406846FCF761FDA9
:103850000F208DF800008DF801408DF802408DF8A2
:1038600003406846FCF755FD8DF800508DF8014087
:103870008DF802408DF803406846FCF74AFD1120A0
:103880008DF800008DF801408DF802408DF803405E
:103890006846FCF73EFD38208DF8000002258DF8C3
:1038A00001508DF802408DF803406846FCF731FD69
:1038B00039208DF800008DF801508DF802408DF808
:1038C00003406846FCF725FD3A208DF800008DF88E
:1038D00001508DF802408DF803406846FCF719FD51
:1038E0003B208DF800008DF801508DF802408DF8D6
:1038F00003406846FCF70DFD0CB070BD70B50C467A
:1039000005460021FCF70FFE012202212846FCF7A4
:1039100015FE012208212846FCF710FEA1B2284618
:10392000FCF714FE2846BDE870400121FCF7FBBD02
:103930000021FCF7F8BD10B50220FCF70CFEC34CCB
:10394000012804D10220FCF714FE0020206008208A
:10395000FCF701FE012806D10820FCF70AFEBC484E
:10396000FCF7F6FD2060BDE810400120FCF701BE29
:1039700010B52020FCF7EFFDB44C012804D1202025
:10398000FCF7F7FD002060608020FCF7E4FD0128D3
:1039900007D18020FCF7EDFDAD481430FCF7D8FDD1
:1039A0006060BDE810401020FCF7E3BD70B54FF437
:1039B00000752846FCF7CFFDA44C012804D1284609
:1039C000FCF7D7FD0020A0604FF400652846FCF707
:1039D000C2FD012807D12846FCF7CBFD9C482830C2
:1039E000FCF7B6FDA060BDE870404FF48070FCF7B6
:1039F000C0BD70B54FF400552846FCF7ACFD934CA4
:103A0000012804D12846FCF7B4FD0020E0604FF403
:103A100000452846FCF79FFD012807D12846FCF702
:103A2000A8FD8B483C30FCF793FDE060BDE870409A
:103A30004FF48050FCF79DBD70B54FF4003528461B
:103A4000FCF789FD814C012804D12846FCF791FD43
:103A5000002020614FF400252846FCF77CFD01285A
:103A600007D12846FCF785FD79485030FCF770FDFA
:103A70002061BDE870404FF48030FCF77ABD70B52E
:103A80004FF40010FCF767FD704C012804D10220B0
:103A9000FCF76FFD002060614FF400052846FCF73D
:103AA0005AFD012807D12846FCF763FD68486430B9
:103AB000FCF74EFD6061BDE870404FF48010FCF7EC
:103AC00058BD70B54FF000752846FCF744FD5F4CBB
:103AD000012804D12846FCF74CFD0020A0614FF0DE
:103AE00000652846FCF737FD012807D12846FCF77A
:103AF00040FD57487830FCF72BFDA061BDE87040D1
:103B00004FF08070FCF735BD70B5524D2846FCF77C
:103B100022FD4E4C012804D12846FCF72AFD002046
:103B2000E0614C4DAD1D2846FCF715FD012806D17E
:103B30002846FCF71EFD4848FCF70AFDE061BDE899
:103B400070404448401EFCF714BD70B5414D1E3511
:103B50002846FCF700FD3D4C012804D12846FCF71F
:103B600008FD002020623B4D7E352846FCF7F3FC23
:103B7000012807D12846FCF7FCFC37481430FCF735
:103B8000E7FC2062BDE8704032480E30FCF7F1BC23
:103B900070B5324D2846FCF7DEFC2C4C012804D1D0
:103BA0002846FCF7E6FC002060622D4D2846FCF715
:103BB000D2FC012807D12846FCF7DBFC2648283038
:103BC000FCF7C6FC6062BDE870402248FE30FCF79E
:103BD000D0BC70B5234E3046FCF7BDFC00251B4C15
:103BE000012803D13046FCF7C4FCA5621E4E3046C6
:103BF000FCF7B1FC012807D13046FCF7BAFC1448A9
:103C00003C30FCF7A5FCA0624FF01020FCF7B1FCA3
:103C1000164E3046FCF79FFC012803D13046FCF7D6
:103C2000A8FCE562124D2846FCF795FC012807D157
:103C30002846FCF79EFC06485030FCF789FCE06201
:103C4000BDE870400B48FCF794BC0000FC07002066
:103C500008000240020000100804024000020010A8
:103C6000000800100020001000800010000002106A
:103C7000000008100000011070B504460D4645F222
:103C80005550FDF78BF82046FDF78BF82846FDF7D9
:103C90008BF8BDE87040FDF78AB8FDF78DB8FDF7E9
:103CA00086B840F271210420E6E708B500208DF8BF
:103CB000000002208DF8010003208DF80200012091
:103CC0008DF803006846FCF724FB08BD2DE9F041A0
:103CD0000F46054601211646C802FDF7E7F9114CCB
:103CE0002078054025703046FEF740F93846FEF74B
:103CF00044F92078FEF757F9FEF760F9BDE8F04186
:103D0000D3E7FEF745B9FEF74EB910B5FEF756F901
:103D1000FEF74FF90128FBD002480078BDE81040BB
:103D2000FEF73BB93600002010B5182000F0B2F9BC
:103D3000040004D000202060201D00F085FA2046F9
:103D400010BD2DE9F04100278846040005D140F25E
:103D50001222B2A1B8A005F066FF5FEA186005D094
:103D600040F21322ADA1B4A005F05DFF261D04F1C1
:103D70000C0501F01FFC2168F06841EA0801216090
:103D800018E000BFD0E9001601F07F42530123681C
:103D900021F07F4102D40B4203D10AE031EA030350
:103DA00007D1D20100D50F43216841F0007101F025
:103DB0006FFF3046A842E5D12068B843206001F08B
:103DC0006BFB2068BDE8F0812DE9F04104461F46F9
:103DD00015468846100E04D0C62290A196A005F084
:103DE00022FF25B9C7228DA193A005F01CFF01F089
:103DF000E0FF28B927B1CA2288A18FA005F013FFE0
:103E000001F0D8FB204641462668FFF79AFF46EAB4
:103E1000080635EA060008D06FB145F0A0613A46C1
:103E2000201D01F0BEFE002606E02068A8432060A9
:103E300001F032FB1EE0266801F02EFBD7B138B945
:103E400081494FF080500860BFF34F8FBFF36F8FF1
:103E500002F0A9F8064680010AD400F0EAFA2668C2
:103E600035EA060002D126EA0500206000F0FBFAE0
:103E700026F07F463046A5E72DE9F0479A46DDF863
:103E8000209090460D4604004FF0000705D14FF4F6
:103E9000A07262A168A005F0C6FE280E05D040F20F
:103EA00041125EA164A005F0BEFE2DB94FF4A172CF
:103EB0005AA161A005F0B7FE01F07BFF40B9B9F14E
:103EC000000F05D040F2451254A15BA005F0ABFEF7
:103ED00001F070FB266852462946304600F093F800
:103EE00030B1B8F1000F1AD02068A843206016E066
:103EF000B9F1000F13D0B8F1000F01D04FF0807767
:103F0000BAF1000F01D047F0806745EA07014A4641
:103F1000201D01F046FE01F0BFFA18B10AE001F0E1
:103F2000BBFA1FE048494FF080500860BFF34F8F45
:103F3000BFF36F8F02F037F80646800110D400F00F
:103F400078FA266852462946304600F05CF828B1D7
:103F5000B8F1000F02D02068A843206000F083FA77
:103F600026F07F463046BDE8F08770B50E46040067
:103F700005D14FF4EA7229A12FA005F054FE300EAE
:103F800005D040F2D51225A12BA005F04CFE00F083
:103F900050FA256825EA0600206000F064FA2846F9
:103FA00070BD5022EFF3118182F31188BFF34F8F60
:103FB000BFF36F8F006881F3118870472DE9F041DE
:103FC0000546041D01F0F6FA04F1080640F27227D6
:103FD0004FF000780BE0E068B04204D13A460FA100
:103FE00015A005F020FE4146E06801F051FE206872
:103FF0000028F0D1284600F0B7F8BDE8F04101F004
:104000004BBA9EE6B1E70346002012B1994302D0B5
:1040100070470B42FCD00120704700002E2E5C6FD1
:10402000735C636F72655C6576656E745F67726FF3
:104030007570732E630000004572726F723A2573BB
:104040002C25640D0A00000004ED00E030B5734932
:1040500000E011460A688242FBD34B685C18844238
:1040600003D1406818444860084643681C189442CD
:1040700009D16A4C103C2468A24209D052681A4403
:1040800042600A6812680260814200D0086030BD58
:104090000460F9E72DE9F0410546002701F08AFAAE
:1040A0005E4E103E306808B900F097F8F06805429F
:1040B0004DD1002D4BD0083568070BD005F0070017
:1040C000C0F108000544680704D0952254A159A006
:1040D00005F0A9FDDDB37068854238D84F48014628
:1040E0000C6801E020460C466168A94202D22168B2
:1040F0000029F7D13168B0468C4228D00768216882
:10410000016060680837401B10280ED966197007D7
:1041100004D0C22242A147A005F085FD6068401B83
:10412000706030466560FFF791FF6268D8F8041050
:104130004046891AC8F80410D8F80830994200D2CD
:104140008160D8F80C0002430020C4E9000201F0AD
:10415000A3F9780705D04FF4817231A135A005F09D
:1041600062FD3846BDE8F08170B500282BD02B4D9C
:10417000A0F10804103D6068E968084205D14FF4D9
:104180008B7227A12BA005F04EFD206828B140F2CC
:10419000171223A127A005F046FD6168E8680142D7
:1041A00011D02268002A0ED18143616001F002FA29
:1041B00060686968084468602046FFF747FFBDE80B
:1041C000704001F069B970BD1448103840687047FC
:1041D000124810388068704770471A484FF44051B1
:1041E000420706D0C01D174920F00700411AC1F54B
:1041F00040510A4A00230144C2E900030839103A39
:1042000021F0070111604B600B600B1AC0E900132D
:1042100093604FF000405360D0607047480000202A
:104220002E2E5C6F735C636F72655C686561705F96
:10423000342E63004572726F723A25732C25640D1B
:104240000A0000002C08002000F108014FF0FF32A6
:10425000C0E90112C16001610021016070470021C5
:104260000161704742684A6093688B609368596047
:10427000916008610168491C0160704730B50B68A6
:104280005A1C02D000F1080202E0026904E0224652
:10429000546825689D42FAD953684B6099608A60DA
:1042A000516008610168491C016030BDD0E90132EC
:1042B00001699A60D0E901235A604A68824201D1BB
:1042C00082684A60002202610868401E086008682F
:1042D0007047000010B54FF4E1342046FDF722FF8F
:1042E0002046FDF774FF2046FDF7C3FFFEF74CFBA9
:1042F000FEF7CEFB0548006805A105F0C3FC02F0FF
:1043000009FC01F0DAFB002010BD000028000020AD
:10431000627370207365747570210D0A00000000CF
:1043200075484068401C04D0CA2274A178A005F0EA
:104330007AFC502080F31188BFF34F8FBFF36F8F4B
:10434000FEE710B5031F4FF080741C601B1F21F0A7
:1043500001011960191F724B0B60143940380A6053
:1043600010BD4FF0E0200021016181616D494FF4E3
:104370007A720968B1FBF2F1491E416107210161BE
:1043800070477CB5684D28780190FF202870287808
:104390008DF800009DF800009DF8001000F0F0007E
:1043A000884205D04FF48A7254A159A005F03BFC15
:1043B0009DF80000504C00F0500020700720A060D5
:1043C00006E000BF9DF8001049008DF80010401E67
:1043D0009DF800100906F5D4A060032805D04FF41D
:1043E000987246A14AA005F01EFC207A000200F453
:1043F000E060A060019828704C48016841F47001A9
:104400000160016841F070410160FFF7AAFF0020E0
:104410006060FBF71FFF00207CBD37484068B0F5A7
:104420007A7F05D04FF4AB7234A139A005F0FBBB05
:104430007047502080F31188BFF34F8FBFF36F8F09
:104440002D494868401C486001280BD137481C386A
:10445000006810F0FF0F05D04FF4B37227A12CA015
:1044600005F0E1BB704710B5234C606828B940F2F5
:104470006D1222A126A005F0D6FB6068401E606088
:1044800001D180F3118810BD10B5502080F3118840
:10449000BFF34F8FBFF36F8F00F0A1FF20B123490F
:1044A0004FF080501C390860002080F3118810BD47
:1044B00010B5FBF705FF104C10280CD300F1E020DD
:1044C00090F8F0032178884205D240F2A5220BA192
:1044D0000FA005F0A8FB154814380068A16800F487
:1044E000E060884207D9BDE8104040F2B52203A140
:1044F00007A005F098BB10BD500000202E2E5C6F69
:10450000735C636F72655C706F72742E6300000081
:104510004572726F723A25732C25640D0A000000F3
:10452000214300081400002000E400E020ED00E03A
:1045300070B50D46040005D140F20312F2A1F7A0B8
:1045400005F071FBFFF775FFD4E90F20216802FB2E
:104550000011A1600021A163216861600A46D4E9CD
:104560000F01401E00FB0121E16021464FF0FF30AA
:1045700001F8440F487004F110004DB1FFF764FEDC
:1045800004F12400FFF760FEFFF76DFF012070BD0E
:1045900021690029F8D001F046FB0028F4D0E34956
:1045A0004FF080500860BFF34F8FBFF36F8FEBE782
:1045B00070B50E46050005D14FF4BB72D2A1D7A04D
:1045C00005F031FBA6B105FB06F04C30FFF762FDAC
:1045D00004000CD004F14C0066B12060C4E90F5611
:1045E00020460121FFF7A4FF00212046A16470BDF1
:1045F0000020EAE72460F1E72DE9F041856B1746DA
:1046000004460026026C82B1C7B1E06806F0C7FF1D
:10461000E168206C091AE1602268914202D2A16827
:10462000081AE060022F16D017E02068A8B9A06829
:1046300001F01EFC06460020A0600EE0606806F057
:10464000AEFF216C606808446060A168884204D3B2
:104650002068606001E005B16D1E6D1CA5633046E9
:10466000BDE8F0812DE9F3410F4600980026846CE7
:104670002CB940F64532A4A1A8A005F0D4FAA06B4D
:10468000E16B884205D340F646329FA1A3A005F016
:10469000CAFAA06BE16B88420CD294F945503A46B5
:1046A00069462046FFF7A8FF0646681C05D06D1C2A
:1046B00084F845503046BDE8FC81606A0028F9D096
:1046C00004F1240001F0AFFA0028F3D00126F1E74D
:1046D0002DE9F0410446FFF7ACFE94F9455004F192
:1046E000240610E0A06C20B100212046FFF7BAFF9D
:1046F00004E0606A48B1304601F095FA08B101F073
:1047000051FB6D1E6DB2002DECDC4FF0FF3684F8CE
:104710004560FFF7A8FEFFF78CFE94F9445004F1C2
:10472000100709E0206948B1384601F07CFA08B169
:1047300001F038FB6D1E6DB2002DF3DC84F844608F
:10474000BDE8F041FFF78FBE2DE9FF4782B01D465F
:104750008A464FF00008040005D140F2F1226AA118
:104760006EA005F060FABAF1000F07D1206C28B1F5
:1047700040F2F22264A169A005F055FA022D08D199
:10478000E06B012805D040F2F3225FA163A005F0A1
:104790004AFA01F00EFB38B9049828B140F2F6222B
:1047A00059A15EA005F03FFA604F4FF000094FF0AD
:1047B000805600BFFFF73DFEA06BE16B884207D338
:1047C000022D05D0049840B3B8F1000F28D02CE09A
:1047D000D4F838802A4651462046FFF70DFFA16CD9
:1047E00049B1022D02D1B8F1000F10D1294620465F
:1047F000FFF738FF05E0616A19B104F1240001F008
:1048000012FA20B13E60BFF34F8FBFF36F8FFFF7F7
:104810002AFE012006B0BDE8F087FFF724FE22E063
:10482000684601F082FA4FF00108FFF71CFE00F025
:10483000C1FEFFF7FEFD94F94400401C01D184F84D
:10484000449094F94500401C01D184F84590FFF74D
:104850000AFE04A9684601F06EFA30B12046FFF75F
:1048600037FF00F019FE0020D4E7FFF7E2FDA06B50
:10487000E16B884213D1FFF7F6FD04F110000499B3
:1048800001F078F92046FFF723FF00F005FE00282D
:1048900090D13E60BFF34F8FBFF36F8F8AE7FFF772
:1048A000E2FD2046FFF714FF00F0F6FD82E710B5A9
:1048B000024600210120FFF77BFE040007D0002103
:1048C000816001600B460A46C160FFF73DFF20464C
:1048D00010BD10B5040005D140F259220AA10FA065
:1048E00005F0A1F901F062FAA168884220D1E068E0
:1048F000401EE06005D100231A4619462046FFF706
:1049000023FF012010BD00002E2E5C6F735C636FCF
:1049100072655C71756575652E6300004572726F16
:10492000723A25732C25640D0A00000004ED00E0A6
:104930000020E7E72DE9F343002683B00400354665
:1049400007D140F29152AFF24001AFF2300005F0D2
:104950006AF9206C38B140F29552AFF25401AFF2CF
:10496000440005F060F901F024FA48B9049838B120
:1049700040F29A52AFF27001AFF2600005F053F9C5
:104980004FF000094FF08057DFF89888FFF751FD8E
:10499000A06BC8B1401EA063206810B901F00DFBE8
:1049A000A060206950B104F1100001F03CF928B179
:1049B000C8F80070BFF34F8FBFF36F8FFFF753FD41
:1049C000012005B0BDE8F083049808B166B10FE09E
:1049D0003DB140F2E152AFF2D001AFF2C00005F0BC
:1049E00022F9FFF740FD5DE0684601F09EF90126DF
:1049F000FFF739FD00F0DEFDFFF71BFD94F94400E1
:104A0000401C01D184F8449094F94500401C01D128
:104A100084F84590FFF727FD04A9684601F08BF95B
:104A20000028204612D0FFF753FE00F035FD204647
:104A300000F0ECFB0028A9D09DB3FFF7FAFC606AF8
:104A400050B3206B0068C0F1200126E000F0DEFBCF
:104A5000E0B1206838B9FFF7ECFCA06801F0B4F9C8
:104A60000546FFF700FD04F12400049901F082F8E7
:104A70002046FFF72DFE00F00FFD002886D1C8F874
:104A80000070BFF34F8FBFF36F8F7FE72046FFF7B4
:104A90001FFE00F001FD79E70021A06801F030FA67
:104AA0009FE7FFE700208CE770B50D46040007D1B3
:104AB0004FF42472AFF2B011AFF2A01005F0B3F8CA
:104AC00001F074F9A168884204D1E068401CE060FC
:104AD000012070BD29462046FFF72CFF0028F8D0A2
:104AE000E168491CE16070BD70B50C46050007D156
:104AF00040F2D522AFF2F011AFF2E01005F093F8DA
:104B0000AC4207D940F2D622AFF20421AFF2F41042
:104B100005F089F8022200212846FFF749FD002808
:104B200000D0846370BD2DE9F0479846174689464A
:104B3000040007D140F2C332AFF23421AFF2242097
:104B400005F071F8B9F1000F09D1206C38B14FF4BC
:104B50007172AFF24C21AFF23C2005F064F8B8F16D
:104B6000020F0AD1E06B012807D040F2C532AFF244
:104B70006821AFF2582005F056F8FFF799FC502055
:104B8000EFF3118680F31188BFF34F8FBFF36F8F60
:104B9000A06BE16B884206D3B8F1020F03D000206E
:104BA00086F3118837E694F9455042464946204637
:104BB000FFF722FD681C04D06D1C84F845500120CD
:104BC000EEE7A06C012520B141462046FFF74AFDE3
:104BD00006E0606A0028F2D004F1240001F023F816
:104BE0000028ECD0002FEAD03D60E8E72DE9F04145
:104BF0000E46040007D14FF48C62AFF2F421AFF2FD
:104C0000E42005F010F8206C38B140F26442AFF2B5
:104C10000831AFF2F82005F006F8206848B9A0681E
:104C200038B140F26942AFF22031AFF2103004F0F7
:104C3000FAFFFFF73DFC5020EFF3118580F3118858
:104C4000BFF34F8FBFF36F8FA16BE06B88421FD90B
:104C500094F94500491CA163411C04D0401C84F810
:104C60004500012015E0A06C012720B1002120465D
:104C7000FFF7F8FC06E0606A0028F2D004F1240097
:104C800000F0D1FF0028ECD0002EEAD03760E8E732
:104C9000002085F31188E3E430B4026C0B46002A4F
:104CA0000BD0C1681144C1608468A14201D301687E
:104CB000C16030BC184606F072BC30BC70472DE9AC
:104CC000F747002683B08A46040007D14FF4A0625C
:104CD000AFF2CC31AFF2BC3004F0A5FFBAF1000F57
:104CE00009D1206C38B140F20452AFF2E431AFF296
:104CF000D43004F098FF01F05CF848B9059838B159
:104D000040F20952AFF20041AFF2F03004F08BFFF5
:104D10004FF000094FF08057DFF80885FFF789FB57
:104D2000A56BB5B151462046FFF7B6FF6D1EA563D2
:104D3000206950B104F1100000F075FF28B1C8F8E7
:104D40000070BFF34F8FBFF36F8FFFF78CFB012015
:104D500060E5059808B11EB106E0FFF784FB27E087
:104D6000684600F0E2FF0126FFF77DFB00F022FC21
:104D7000FFF75FFB94F94400401C01D184F8449094
:104D800094F94500401C01D184F84590FFF76BFB76
:104D900005A9684600F0CFFF002820460AD0FFF79B
:104DA00097FC00F079FB204600F030FA0028B5D0DF
:104DB00000202FE500F02AFA90B104F124000599B3
:104DC00000F0D8FE2046FFF783FC00F065FB0028CA
:104DD000A4D1C8F80070BFF34F8FBFF36F8F9DE76A
:104DE0002046FFF775FC00F057FB97E72DE9F743E6
:104DF000002582B08946040007D14FF4CD62AFF29E
:104E0000F841AFF2E84004F00EFFB9F1000F09D10C
:104E1000206C38B140F26C62AFF21451AFF2045022
:104E200004F001FF00F0C5FF48B9049838B140F222
:104E30007162AFF22C51AFF21C5004F0F4FE4FF04F
:104E400000084FF08056F74FFFF7F3FAA06BA8B1B8
:104E500049462046E568FFF71FFFE560606A48B1F4
:104E600004F1240000F0DFFE20B13E60BFF34F8F5D
:104E7000BFF36F8FFFF7F7FA0120A2E5049808B19E
:104E80001DB106E0FFF7EFFA27E0684600F04DFF9E
:104E90000125FFF7E8FA00F08DFBFFF7CAFA94F955
:104EA0004400401C01D184F8448094F94500401C22
:104EB00001D184F84580FFF7D6FA04A9684600F0CE
:104EC0003AFF002820460AD0FFF702FC00F0E4FA7F
:104ED000204600F09BF90028B6D0002071E500F0D4
:104EE00095F988B104F12400049900F043FE2046AE
:104EF000FFF7EEFB00F0D0FA0028A5D13E60BFF32B
:104F00004F8FBFF36F8F9FE72046FFF7E1FB00F065
:104F1000C3FA99E72DE9F04790468946040007D186
:104F200040F2FB62AFF22061AFF2106004F07BFE52
:104F3000B9F1000F09D1206C38B140F2FC62AFF238
:104F40003861AFF2286004F06EFEFFF7B1FA50202E
:104F5000EFF3118680F31188BFF34F8FBFF36F8F8C
:104F6000A76BF7B194F9445049462046FFF794FEE9
:104F70007F1EA763681C04D06D1C84F84450012078
:104F800010E020690028FAD004F1100000F04BFE78
:104F90000028F4D0B8F1000FF1D00121C8F80010BA
:104FA000EDE7002086F3118835E42DE9F0410E4647
:104FB000040007D140F25772AFF2B461AFF2A460BF
:104FC00004F031FE4EB9206C48B14FF4EB62AFF201
:104FD000C861AFF2B86004F026FE206C38B940F228
:104FE0005972AFF2DC61AFF2CC6004F01CFEFFF747
:104FF0005FFA5020EFF3118580F31188BFF34F8FD4
:10500000BFF36F8FA06B30B131462046E768FFF7E2
:1050100043FE0120E76085F311883CE610B50400EB
:1050200007D140F28A72AFF22071AFF2107004F033
:10503000FAFDFFF7FEF9A46BFFF715FA204661E4CD
:1050400010B5040007D140F29B72AFF24471AFF289
:10505000347004F0E8FDFFF7ECF9D4E90E10441ABF
:10506000FFF701FA20464DE410B5040007D140F2E5
:10507000AC72AFF26C71AFF25C7004F0D4FDA06B57
:1050800040E4694A002100BF02EBC1035B68834230
:1050900006D1002042F8310002EBC10148607047A0
:1050A000491C0A29F0D3704710B5040007D140F21B
:1050B000B772AFF2AC71AFF29C7004F0B4FD204651
:1050C000FFF7DFFF2046BDE81040FFF74DB810B5F1
:1050D000040007D140F60912AFF2D471AFF2C470E8
:1050E00004F0A1FDA06B08B100200BE4012009E44D
:1050F00010B5040007D140F63112AFF2F471AFF2EF
:10510000E47004F090FDA06BE16B884201D10120B6
:105110000FE400200DE410B5434B002253F8324059
:105120001CB1521C0A2AF9D303E443F8321003EBF2
:10513000C201486083E7034610B500203A4A0146A1
:1051400002EBC10464689C4202D152F8310076E758
:10515000491C0A29F4D372E770B515460E46044679
:10516000FFF767F994F944100020491C01D184F835
:10517000440094F94510491C01D184F84500FFF71B
:1051800072F9A06B28B92A46314604F1240000F0D8
:105190002FFD2046BDE87040FFF79ABA0022042197
:1051A000FFF706BA70B50D460446FFF742F9A06C4A
:1051B00008B9A06B08B1002401E0A5640124FFF741
:1051C00052F9204670BD10B50446806C884201D16A
:1051D000A06B08B1002032E7FFF72BF90020A06494
:1051E000FFF741F901202AE708B5002200920A469C
:1051F0006946FFF764FD009808BD08B500210A461E
:1052000000916946FFF786FE009808BD10B5044678
:10521000FFF70FF9A06B48B15FF00004FFF723F927
:1052200020460CE704ED00E02C3800200124F5E7CF
:105230002DE9F0410546FFF7FCF8F84CA068401C4A
:10524000A0602068F64F10B1606930B32BE0256094
:10525000A068012827D1002606EB860007EB800016
:10526000FEF7F2FF761C202EF6D3EE48FEF7ECFF99
:10527000EC481430FEF7E8FFEA482830FEF7E4FF78
:10528000E8483C30FEF7E0FFE6485030FEF7DCFF30
:10529000E44860631430A06305E02068E96AC06AEE
:1052A000884200D82560606A401C6062E96A01207B
:1052B000226988401043206101EB810007EB8000E8
:1052C000291DFEF7CFFFFFF7CEF8606900280CD04C
:1052D0002068E96AC06A884207D2D3494FF08050FB
:1052E0000860BFF34F8FBFF36F8FBDE8F0812DE9EA
:1052F000FF5F8346DDE90E87994616468A46900091
:10530000FEF7C8FE05001AD05420FEF7C3FE0400C5
:1053100012D025630021CDE90241CDE900874B463B
:1053200032465146584601F01BF82046FFF780FFF1
:10533000012004B0BDE8F09F2846FEF715FF4FF0AE
:10534000FF30F6E770B50546FFF773F8B34C05B9C3
:105350002568281DFEF7AAFF58B9E86AB04A00EB95
:10536000800152F8211021B9012181402069884330
:105370002061A86A18B105F11800FEF797FF606A6E
:10538000401C60622068854208D1A648291D3C3037
:10539000FEF768FF6068401C606007E0A068401E80
:1053A000A060284601F03FF801F030F8FFF75BF805
:1053B0006069002812D0206885420FD1206B28B187
:1053C00040F2D24299A19EA004F02DFC96494FF0E4
:1053D00080500860BFF34F8FBFF36F8F70BD2DE912
:1053E000F0418E4C0027206B38B1A069401CA061B1
:1053F000E06900B10127384677E7E668761CE66089
:1054000011D1606B006828B140F67F2287A18CA083
:1054100004F009FC606BA16B6163A063206A401C0F
:10542000206200F0F3FFA06ADFF8F481864209D31E
:10543000606B006880B1606BC068C5686868864250
:105440000DD2A0622068C06A00EB800158F82100EC
:105450000128CDD90127CBE74FF0FF30F1E7281D18
:10546000FEF724FFA86A18B105F11800FEF71EFF29
:10547000E86A0121226981401143216100EB80012A
:1054800008EB8100291DFEF7EDFEE86A2168C96A74
:105490008842CDD30127CBE72DE9F0475F4C0025AB
:1054A0002E46206B28B940F6850260A164A004F066
:1054B000BAFBFEF7BEFF206B401E2063206BE0BBF3
:1054C000A168584F28370120B9B3DFF854918046BE
:1054D0003868E8B1F868C56805F11800FEF7E6FE1F
:1054E000281DFEF7E3FEE86A226908FA00F111437D
:1054F000216100EB800109EB8100291DFEF7B2FE5E
:10550000E86A2168C96A8842E2D3C4F81C80DFE7F0
:105510000DB100F07BFFA56945B14746FFF75FFF7E
:1055200000B1E7616D1EF9D10020A061E06920B1F2
:105530003D4901263007086000E003E0BFF34F8FCC
:10554000BFF36F8FFEF78FFF3046BDE8F0872DE980
:10555000F041324C0F460546E6682068001DFEF714
:10556000A5FE38B9206890F82C10012088402169E8
:1055700081432161681C08D13FB12168BDE8F04139
:1055800028485030091DFEF76DBE20683544B542ED
:105590004560216805D2A06BBDE8F041091DFEF70A
:1055A0006DBE606B091DFEF769FEA06A854200D2E0
:1055B000A5629AE61948016B491C0163704770B5F2
:1055C0000D46040005D140F2E64218A11CA004F0EB
:1055D0002AFB2DB940F2E74214A119A004F023FBE5
:1055E0000E4E306B28B14FF49D6210A114A004F050
:1055F0001AFBFFF7DFFFF26823685919934204D9B9
:105600008B4225D9914202D822E08B42FAD9881ADE
:1056100021600021FFF79BFF1BE000005C000020E1
:105620007C380020FC3A002004ED00E02E2E5C6F58
:10563000735C636F72655C7461736B732E630000DF
:105640004572726F723A25732C25640D0A000000B2
:105650002160FFF721FF002807D1FF494FF080505C
:105660000860BFF34F8FBFF36F8F70BD10B504009C
:1056700014D0FA48006B38B140F23C52AFF25401FA
:10568000AFF2440004F0CFFAFFF794FF0021204668
:10569000FFF75DFFFFF700FF002807D1EE494FF04D
:1056A00080500860BFF34F8FBFF36F8F10BD2DE99F
:1056B000F041040007D14FF4AD62AFF29001AFF2B8
:1056C000800004F0B0FAE54E3068844201D1002039
:1056D0000BE6FEF7AEFE6569776BB66BFEF7C3FEB1
:1056E000BD4201D0B54201D10220FEE5DC48854231
:1056F00008D1A06A0028F7D194F850000128F3D00F
:105700000320F2E5D6481438854202D00DB10120BD
:10571000EBE50420E9E510B50446FEF78AFE0CB976
:10572000CE480468E46AFEF79EFE204610BD10B520
:105730000446FEF7BDFE5020EFF3118180F311887F
:10574000BFF34F8FBFF36F8F0CB9C4480468E06A92
:1057500081F3118810BD2DE9F04100270E46044663
:10576000202908D340F20262AFF24011AFF23010AC
:1057700004F059FA1F26FEF75CFEB84D04B92C68F8
:10578000606CB0423FD02968864206D98C4207D06F
:105790002968C96AB14202D902E08C4200D10127CE
:1057A000E16A8846884200D1E6626664A069002802
:1057B00002DBC6F12000A061AA4E08EB88006169F7
:1057C00006EB8000814215D1201DFEF76FFD0121FF
:1057D00020B92A6901FA08F082432A61E06A2A693D
:1057E00081401143296100EB800006EB8000211D00
:1057F000FEF738FD3FB198494FF080500860BFF385
:105800004F8FBFF36F8FBDE8F041FEF72CBE70B530
:10581000924C206B10B10120E06170BD0020E0616E
:1058200020684FF0A531006B02688A4208D14268B7
:105830008A4205D182688A4202D1C068884204D077
:1058400021682068343101F083F92069854DB0FA70
:1058500080F0C0F11F0000EB800655F8260038B933
:1058600040F6B732AFF23C21AFF22C2004F0DBF966
:1058700005EB860000F108024168496841609142E9
:1058800001D149684160C868206070BD70B50446A8
:10589000FEF7CFFD714D04B92C68201DFEF706FD03
:1058A00058B9E06A6F4A00EB800152F8211021B923
:1058B00001218140286988432861A06A18B104F158
:1058C0001800FEF7F3FC211D6548FEF7CBFC94F8A9
:1058D00050000026012801D184F85060FEF7C3FD76
:1058E000686928B1FEF7A5FD00F090FDFEF7BBFD4D
:1058F0002868844213D1686990B1286B38B140F2AE
:10590000E462AFF2D821AFF2C82004F08CF952491A
:105910004FF080500860BFF34F8FBFF36F8F70BDA3
:105920004F480068A968884201D12E6070BDBDE86B
:1059300070406CE770B50025040007D140F20E728C
:10594000AFF21831AFF2083004F06DF944496069E4
:10595000884205D1A06A2839884201D000B90125C2
:10596000284670BD70B5040007D14FF4E762AFF26E
:105970004431AFF2343004F056F9384D286884428F
:1059800029D0002C27D0FEF754FD2046FFF7D2FF88
:10599000E8B1201DFEF78AFCE06A01212A698140F6
:1059A000114329612F4900EB800001EB8000211D8C
:1059B000FEF758FCE06A2968C96A884207D326497D
:1059C0004FF080500860BFF34F8FBFF36F8FBDE87B
:1059D0007040FEF748BD70BD2DE9F041002704007E
:1059E00007D140F26F72AFF2BC31AFF2AC3004F0CD
:1059F0001AF9FEF75DFD5020EFF3118580F3118851
:105A0000BFF34F8FBFF36F8F2046FFF793FFF0B1C7
:105A1000124E306B20B1124804F11801283814E0FE
:105A2000E06A3168C96A884200D30127201DFEF769
:105A30003DFCE16A0120326988401043306101EB8E
:105A40008100084901EB8000211DFEF70BFC85F366
:105A50001188384649E4000004ED00E05C000020B5
:105A60004C3B00207C380020F74EF84CA6F52F77F1
:105A70004FF08058DFF8D89312E000BFFEF7D9FC52
:105A8000F068C568281DFEF711FCA068401EA060E4
:105A90006068401E6060FEF7E6FC284600F0C3FC2C
:105AA00060680028EAD138680128F9D9C9F800806F
:105AB000BFF34F8FBFF36F8FF2E71CB5E3480024AD
:105AC0002C30CDE9004023468022E2A1E348FFF7D5
:105AD0000EFC012803D100F0C0FD01280CD0401CB1
