:020000040800F2
:1000000008440020E1010008ED040008EF040008A6
:10001000F1040008F3040008F504000800000000E3
:10002000000000000000000000000000490100087E
:10003000F7040008000000008D010008BD1300084F
:10004000FB010008FB010008FB010008FB010008A0
:10005000FB010008FB010008FB010008FB01000890
:10006000FB010008FB010008FB010008FB01000880
:10007000FB010008FB010008FB010008FB01000870
:10008000FB010008FB010008FB010008FB01000860
:10009000FB010008FB010008FB010008FB01000850
:1000A000FB010008FB010008FB010008FB01000840
:1000B000FB010008FB010008FB010008FB01000830
:1000C000FB010008FB010008FB010008FB01000820
:1000D000FB010008190A00089D0A0008D50A00085B
:1000E000FB010008FB010008FB010008FB01000800
:1000F000FB010008FB010008FB010008FB010008F0
:10010000FB010008FB010008FB010008FB010008DF
:10011000FB010008FB010008FB010008FB010008CF
:10012000FB010008FB010008FB010008FB010008BF
:10013000DFF810D007F054F806F0F0FD0048004753
:100140003912000808440020224B19680868B0E8FA
:10015000F00F80F30988BFF36F8F4FF0000080F33A
:1001600011884EF00D0E7047000000000648006830
:10017000006880F3088862B661B6BFF34F8FBFF3A3
:100180006F8F00DF00BF00BF08ED00E0EFF30980D4
:10019000BFF36F8F0F4B1A6820E9F00F106008B59E
:1001A0004FF0500080F31188BFF34F8FBFF36F8F74
:1001B00001F075FF4FF0000080F31188BDE80840A2
:1001C00019680868B0E8F00F80F30988BFF36F8FF3
:1001D000704700BF60000020EFF30580704700000B
:1001E0000648804706480047FEE77047FEE7FEE7FF
:1001F000FEE7FEE7FEE7FEE7FEE7FEE7850800080C
:100200003101000870B50F23C47801780122F4B1E0
:10021000144C2468457804F4E064C4F5E064240ACE
:10022000C4F10406E3408478B5401C402C4301F13E
:10023000E021230181F80034007800F01F018A409A
:100240004009800000F1E020C0F8002170BD01F0FD
:100250001F0082404809800000F1E020C0F88021A2
:1002600070BD00000CED00E003490120886070477C
:10027000014908600868704700300240404A116830
:1002800001F038010143116070473D490A6822F0CE
:1002900008020A600A6802430A6070473848394910
:1002A00041603949416070473548016941F080013A
:1002B0000161704732490420CA68D20701D0012089
:1002C0007047CA68520701D502207047C968C9063D
:1002D000FBD50320704700B50346FFF7EBFF02E0B4
:1002E000FFF7E8FF5B1E012803D0002B00D105209B
:1002F00000BD002BF4D1FAE770B505464FF4302667
:100300003046FFF7E8FF042811D11D4C206940F06A
:10031000020020616561206940F0400020613046A4
:10032000FFF7D9FF216941F6FD721140216170BDCF
:10033000F8B5064600204FF4005C00900D4660467C
:10034000FFF7C9FF042816D10D4C206940F00100C9
:10035000206135806046FFF7BEFF41F6FE77042836
:1003600006D1B61C280C009630806046FFF7B3FF1C
:10037000216939402161F8BD0148006A70470000D9
:100380000020024023016745AB89EFCD504910B5ED
:10039000884206D10121042000F023F90021042025
:1003A0003BE04C49884206D10121082000F019F9B0
:1003B0000021082031E04849884206D1012110205F
:1003C00000F00FF90021102027E04449884206D1AF
:1003D0000121202000F005F9002120201DE04049E6
:1003E000884206D10121402000F0FBF80021402086
:1003F00013E03C49884206D10121802000F0F1F849
:100400000021802009E0384988420AD18415012161
:10041000204600F0E6F800212046BDE8104000F03C
:10042000E0B810BDF0B5CA78002502F00F03D2067F
:1004300001D58A7813430A784FF00F0E12F0FF0FA0
:100440004FF001021CD004680F8802FA05F637400D
:10045000B74211D14FEA850C0EFA0CF724EA0707D0
:1004600003FA0CF43C43CF78282F02D0482F02D057
:1004700002E0466100E006616D1C082DE4D30460D3
:100480000C88FF2C1ED944685FF0000606F10807AF
:1004900002FA07F50F882F40AF420FD14FEA860CC2
:1004A0000EFA0CF7BC4303FA0CF73C43CF78282F25
:1004B00000D14561CF78482F00D10561761C082E08
:1004C000E4D34460F0BD01617047416170470000B2
:1004D00000080140000C01400010014000140140E0
:1004E00000180140001C0140002001407047704787
:1004F000FEE7FEE7FEE770470949C1F8A000704734
:100500000848016841F004010160016841F00201FE
:1005100001600548016841F00401016030BF704787
:1005200000000E420070004010ED00E030B536498A
:100530004A6812F00C03354A03D0042B01D0082B73
:1005400021D002604A680F23314C03EA1212A35CE7
:100550000268DA4042604B68072505EA1323E35C32
:1005600022FA03F383604B6805EAD323E35CDA40A5
:10057000C2604968032303EA9131231F595CB2FB2F
:10058000F1F1016130BD4A684B6802F470124FF01E
:10059000020413F4803F04EB924202D04B689B03A9
:1005A00001D51C4B00E0194B5A43CAE7164A0029F3
:1005B000516901D0014300E0814351617047124A03
:1005C0000029916901D0014300E0814391617047A6
:1005D0000D4A0029D16901D0014300E08143D16176
:1005E0007047094A0029D16801D0014300E08143E6
:1005F000D1607047044A0029116901D0014300E02D
:1006000081431161704700000010024000127A001F
:100610000400002000093D006D4910B588420AD150
:1006200001218C032046FFF7DCFF2046BDE8104087
:100630000021FFF7D6BF6749884202D101214C044F
:1006400010E06549884202D101218C040AE0634927
:10065000884202D10121CC0404E0614988420AD1D8
:1006600001210C052046FFF7C5FF2046BDE81040DC
:100670000021FFF7BFBF10BD30B50446008A85B02A
:100680000D464CF6FF710840E98801432182A1899B
:100690004EF6F3100140A8882A8910436A890A435C
:1006A0001043A081A08A4FF6FF410840A989014369
:1006B000A1826846FFF73AFF4548844201D103987A
:1006C00000E00298A189090400EBC00101EB0010D1
:1006D000296801D5490000E08900B0FBF1F06422EF
:1006E000B0FBF2F109010B096FF018056B4300EB49
:1006F0008300A3891D044FF0320306D503EBC0002D
:10070000B0FBF2F000F0070005E003EB0010B0FBD7
:10071000F2F000F00F000843208105B030BD002941
:10072000818902D041F4005101E021F4005181811E
:10073000704710B5C1F3421301F01F040121A1401D
:10074000012B07D0022B07D01430002A026805D0F5
:100750000A4304E00C30F8E71030F6E78A43026001
:1007600010BDC1F30801818070478088C0F3080084
:1007700070470246002012880A4200D001207047CC
:10078000C9430180704730B501F01F0201240025E4
:10079000C1F3421304FA02F2012B0FD0022B0FD047
:1007A000838A4FEA11210088134204FA01F400EA17
:1007B000040001D000B10125284630BD8389F0E74F
:1007C000038AEEE70A0A01219140C943018070477C
:1007D000003801400044004000480040004C004008
:1007E000005000400CB5002136480191009102688C
:1007F00042F4803202604FF4A063026802F40032D7
:100800000092019A521C0192009A12B9019A9A42DE
:10081000F3D10268920333D5012100912A490A6875
:1008200042F010020A600A6822F003020A600A68B5
:1008300042F002020A6041684160416841604168DB
:1008400041F480614160416821F47C11416041685C
:1008500041F4E8114160016841F080710160016874
:100860008901FCD5416821F003014160416841F0F4
:10087000020141604168C1F381010229FAD10CBD36
:1008800000910CBD0F4810B5016841F001010160F5
:1008900041680E4A1140416001680D4A11400160F3
:1008A000016821F480210160416821F4FE0141606A
:1008B0004FF41F018160FFF795FF06494FF000607C
:1008C000086010BD00100240002002400000FFF848
:1008D000FFFFF6FE08ED00E08C490A885206FCD5C1
:1008E0008A4AC1B2121D11807047F0B5054687B023
:1008F00001210520FFF763FE01218803FFF75FFE5A
:10090000824E3046FFF788FE7015ADF810001820B3
:100910008DF813007E4F03248DF8124004A9384649
:10092000FFF780FD3015ADF8100048208DF813005A
:1009300004A93846FFF776FD25208DF814008DF8C0
:1009400015408DF8164001208DF8170005A8FFF717
:1009500059FC0020ADF80400ADF80600ADF8080021
:10096000ADF80C000C20ADF80A0000956946304641
:10097000FFF782FE012240F225513046FFF7D9FEF3
:1009800001213046FFF7CBFE40213046FFF7F8FE4D
:1009900007B0F0BD10B50446FFF7E3FE8021204606
:1009A000FFF7E7FE0028F9D010BD002070470020B7
:1009B000704710B5574A91888029FCD25188531846
:1009C0001873491CC81701EB506020F07F00081A0B
:1009D000508072B69088401C9080012240F22771AE
:1009E0004A48FFF7A6FE62B6002010BD494A50896A
:1009F0000028FCD0D188501890F88C00491CCB17E7
:100A000001EB536323F07F03C91AD18072B6518979
:100A1000491E518162B6704770B53C4D40F2255673
:100A200031462846FFF7AFFE3A4C012814D128463C
:100A3000FFF79BFEC1B26089802809D2401C60810B
:100A40002089221882F88C10401C00F07F00208141
:100A500031462846FFF7B6FE40F227763146284653
:100A6000FFF791FE01280DD1A288521E0BD3A28060
:100A70002688A019017B2846FFF78CFF761C06F01C
:100A80007F00208070BD002231462846FFF751FECE
:100A900031462846BDE87040FFF794BE70B51E4C45
:100AA00040F2255529462046FFF76DFE18B9294624
:100AB0002046FFF787FE40F2277529462046FFF7BC
:100AC00062FE002805D129462046BDE87040FFF7A8
:100AD00079BE70BD70B5114C40F2255529462046AF
:100AE000FFF751FE18B929462046FFF76BFE40F28A
:100AF000277529462046FFF746FE002805D12946DE
:100B00002046BDE87040FFF75DBE70BD0038014073
:100B100000080140C402002000440040004800409A
:100B200038B501211020FFF74AFD104D2846FFF788
:100B30002DFC6C14ADF8004003208DF8020010204D
:100B40008DF8030069462846FFF76CFC21462846CD
:100B5000FFF7B9FC38BD4FF400510448FFF7B5BCAE
:100B60004FF400510148FFF7AEBC000000100140F7
:100B700008B501210520FFF722FD0120ADF8000096
:100B800028208DF8030069460C48FFF74BFC012133
:100B90000807FFF71DFD0120FFF7AEFCFFF7B0FCD3
:100BA00008BD012080F3138805480168054A01F457
:100BB000E06111430160BFF3408FFEE70008014090
:100BC0000CED00E00400FA0510B501214020FFF70C
:100BD000EDFCBDE81040FFF747BB10B5FFF748FB41
:100BE0000446FFF741FB204610BD000001480068A5
:100BF000704700001400002010B50220FFF73EFBF4
:100C00000020FFF742FB002010BD10B50020FFF7C9
:100C1000F3FF08B1012010BDFFF7AEFB002801DB98
:100C2000042010BD002010BD2DE9F0411F461446E0
:100C30000E004FF000684FF0000502D0E019C02808
:100C400002D30420BDE8F0810020FFF7D5FF08B1F2
:100C50000320F7E7603408EB4420790204E000BF8A
:100C600010F8012B72556D1C8D42F9D30020E9E775
:100C70002DE9FF5F1D4614465FEA010B4FF0006748
:100C80004FF0000602D06019C02803D3042004B03E
:100C9000BDE8F09F0020FFF7AFFF08B10320F6E7A3
:100CA000FFF76AFB002801DB0220F0E7603404EB69
:100CB000050AAAF1010007EB442940F3000004F003
:100CC000010700F10108FFF7E9FA37B10123A4F1A8
:100CD000610242490098FFF7A7FF4FF40074B8F192
:100CE000000F06D0AAF1600201233D490098FFF7EA
:100CF0009BFFA246AE420CD809EB46200FB15146ED
:100D000000E00021401AFFF7F7FA042837D1B61C9B
:100D1000F0E76E027942314D09EB412477B10027AB
:100D2000E819C2780168204662F31F61FFF700FBF3
:100D3000042824D1241D3F1D5745F1D300270CE082
:100D40000BEB0700C2780168204662F31F61FFF7D2
:100D5000EFFA042813D1241D3F1DB742F0D3B8F198
:100D6000000F12D056464FF48067A819C278016868
:100D7000204662F31F61FFF7DBFA042801D001204F
:100D800085E7241D361DBE42EFD3FFF78DFA002004
:100D90007DE770B514460D460020FFF72DFF08B122
:100DA000032070BD9DB1012D07D0022D08D0032D69
:100DB0000AD0042D0BD0042070BD54B1C02005E032
:100DC0003CB14FF4007001E01CB102202060002013
:100DD00070BD012070BD034800887047D00300201B
:100DE000D0050020E0F7FF1F10B5182000F00CF927
:100DF000040004D000202060201D00F0D7F9204618
:100E000010BD2DE9F04100278846040005D140F2CD
:100E100012225FA165A004F0C3FC5FEA186005D050
:100E200040F213225AA161A004F0BAFC261D04F17D
:100E30000C0501F0B7F82168F06841EA080121606B
:100E400018E000BFD0E9001601F07F42530123688B
:100E500021F07F4102D40B4203D10AE031EA0303BF
:100E600007D1D20100D50F43216841F0007101F094
:100E7000D1FA3046A842E5D12068B843206001F09D
:100E800003F82068BDE8F0812DE9F0479A46DDF8C7
:100E9000209090460D4604004FF0000705D14FF416
:100EA000A0723BA141A004F07BFC280E05D040F2CB
:100EB000411237A13DA004F073FC2DB94FF4A1728B
:100EC00033A13AA004F06CFC01F02BFB40B9B9F15E
:100ED000000F05D040F245122DA134A004F060FCB3
:100EE00001F060F8266852462946304600F045F881
:100EF00030B1B8F1000F1AD02068A843206016E086
:100F0000B9F1000F13D0B8F1000F01D04FF0807786
:100F1000BAF1000F01D047F0806745EA07014A4661
:100F2000201D01F000FA00F0AFFF18B10AE000F058
:100F3000ABFF1FE021494FF080500860BFF34F8F97
:100F4000BFF36F8F01F0D8FB0646800110D400F08C
:100F50000AFA266852462946304600F00EF828B1B3
:100F6000B8F1000F02D02068A843206000F015FA05
:100F700026F07F463046BDE8F0870346002012B1D8
:100F8000994302D070470B42FCD00120704700000B
:100F90002E2E5C6F735C636F72655C6576656E7434
:100FA0005F67726F7570732E630000004572726F19
:100FB000723A25732C25640D0A00000004ED00E050
:100FC00030B56F4900E011460A688242FBD34B6896
:100FD0005C18844203D1406818444860084643685E
:100FE0001C18944209D1664C103C2468A24209D0D6
:100FF00052681A4442600A6812680260814200D056
:10100000086030BD0460F9E72DE9F041054600278E
:1010100000F0C8FF5A4E103E306808B900F08EF854
:10102000F06805424DD1002D4BD0083568070BD034
:1010300005F00700C0F108000544680704D09522B8
:1010400050A155A004F0ACFBDDB37068854238D8E0
:101050004B4801460C6801E020460C466168A942F5
:1010600002D221680029F7D13168B0468C4228D0DD
:1010700007682168016060680837401B10280ED996
:101080006619700704D0C2223EA143A004F088FB79
:101090006068401B706030466560FFF791FF6268D2
:1010A000D8F804104046891AC8F80410D8F8083057
:1010B000994200D28160D8F80C0002430020C4E9B4
:1010C000000200F0E1FE780705D04FF481722DA1F7
:1010D00031A004F065FB3846BDE8F08170B500280A
:1010E0002BD0274DA0F10804103D6068E968084244
:1010F00005D14FF48B7223A127A004F051FB206887
:1011000028B140F217121FA123A004F049FB616827
:10111000E868014211D02268002A0ED18143616043
:1011200000F040FF60686968084468602046FFF787
:1011300047FFBDE8704000F0A7BE70BD1A484FF4ED
:101140003051420706D0C01D174920F00700411A50
:10115000C1F530510A4A00230144C2E900030839AD
:10116000103A21F0070111604B600B600B1AC0E9C7
:10117000001393604FF000405360D0607047000050
:101180004C0000202E2E5C6F735C636F72655C6890
:101190006561705F342E63004572726F723A257319
:1011A0002C25640D0A000000D007002000F1080182
:1011B0004FF0FF32C0E90112C160016100210160FE
:1011C000704700210161704742684A6093688B60F4
:1011D00093685960916008610168491C016070471B
:1011E00030B50B685A1C02D000F1080202E0026917
:1011F00004E02246546825689D42FAD953684B6042
:1012000099608A60516008610168491C016030BDC5
:10121000D0E9013201699A60D0E901235A604A6835
:10122000824201D182684A60002202610868401E41
:10123000086008687047000010B54FF4E130FFF710
:1012400054FBFFF76DFCFFF7BFFC04A006F0F4F8B9
:1012500001F075FD01F01BF8002010BD62737020D5
:101260007365747570210D0A000000006F484068B6
:10127000401C04D0CA226EA172A004F091FA502042
:1012800080F31188BFF34F8FBFF36F8FFEE710B568
:10129000031F4FF080741C601B1F21F001011960B7
:1012A000191F6C4B0B60143940380A6010BD4FF0A9
:1012B000E02000210161816167494FF47A72096879
:1012C000B1FBF2F1491E41610721016170477CB514
:1012D000624D28780190FF20287028788DF8000052
:1012E0009DF800009DF8001000F0F000884205D045
:1012F0004FF48A724EA153A004F052FA9DF80000F8
:101300004A4C00F0500020700720A06006E000BFAB
:101310009DF8001049008DF80010401E9DF8001047
:101320000906F5D4A060032805D04FF4987240A1B7
:1013300044A004F035FA207A000200F4E060A060D6
:10134000019828704648016841F470010160016805
:1013500041F070410160FFF7AAFF00206060FEF7D6
:1013600005FF00207CBD502080F31188BFF34F8F14
:10137000BFF36F8F2D494868401C486001280BD18E
:1013800037481C38006810F0FF0F05D04FF4B372D7
:1013900027A12CA004F004BA704710B5234C606854
:1013A00028B940F26D1222A126A004F0F9F9606874
:1013B000401E606001D180F3118810BD10B550202F
:1013C00080F31188BFF34F8FBFF36F8F00F0FFFCE6
:1013D00020B123494FF080501C390860002080F371
:1013E000118810BD10B5FEF7F7FE104C10280CD375
:1013F00000F1E02090F8F0032178884205D240F215
:10140000A5220BA10FA004F0CBF9154814380068F1
:10141000A16800F4E060884207D9BDE8104040F2BE
:10142000B52203A107A004F0BBB910BD54000020F1
:101430002E2E5C6F735C636F72655C706F72742EBE
:10144000630000004572726F723A25732C25640D9B
:101450000A0000006D1200081400002000E400E003
:1014600020ED00E070B50D46040005D140F20312F6
:10147000F9A1FEA004F094F9FFF775FFD4E90F205D
:10148000216802FB0011A1600021A1632168616055
:101490000A46D4E90F01401E00FB0121E16021460C
:1014A0004FF0FF3001F8440F487004F110004DB1C7
:1014B000FFF77CFE04F12400FFF778FEFFF76DFFD5
:1014C000012070BD21690029F8D000F06EFF0028CE
:1014D000F4D0EA494FF080500860BFF34F8FBFF35C
:1014E0006F8FEBE770B50E46050005D14FF4BB7268
:1014F000D9A1DEA004F054F9A6B105FB06F04C30EA
:10150000FFF782FD04000CD004F14C0066B12060AE
:10151000C4E90F5620460121FFF7A4FF0021204611
:10152000A16470BD0020EAE72460F1E72DE9F041F5
:10153000856B174604460026026C82B1C7B1E0688D
:1015400005F00CFFE168206C091AE1602268914205
:1015500002D2A168081AE060022F16D017E02068B6
:10156000A8B9A06801F02DF806460020A0600EE0A2
:10157000606805F0F3FE216C606808446060A16853
:10158000884204D32068606001E005B16D1E6D1CC7
:10159000A5633046BDE8F0812DE9F3410F46009880
:1015A0000026846C2CB940F64532ABA1AFA004F004
:1015B000F7F8A06BE16B884205D340F64632A6A14E
:1015C000AAA004F0EDF8A06BE16B88420CD294F96C
:1015D00045503A4669462046FFF7A8FF0646681C74
:1015E00005D06D1C84F845503046BDE8FC81606A2A
:1015F0000028F9D004F1240000F0D7FE0028F3D031
:101600000126F1E72DE9F0410446FFF7ACFE94F91D
:10161000455004F1240610E0A06C20B100212046C2
:10162000FFF7BAFF04E0606A48B1304600F0BDFE43
:1016300008B100F072FF6D1E6DB2002DECDC4FF0B2
:10164000FF3684F84560FFF7A8FEFFF78CFE94F99B
:10165000445004F1100709E0206948B1384600F011
:10166000A4FE08B100F059FF6D1E6DB2002DF3DC31
:1016700084F84460BDE8F041FFF78FBE2DE9FF47D5
:1016800082B01D468A464FF00008040005D140F2A2
:10169000F12271A175A004F083F8BAF1000F07D10F
:1016A000206C28B140F2F2226BA170A004F078F80F
:1016B000022D08D1E06B012805D040F2F32266A18B
:1016C0006AA004F06DF800F02CFF38B9049828B136
:1016D00040F2F62260A165A004F062F8674F4FF077
:1016E00000094FF0805600BFFFF73DFEA06BE16B95
:1016F000884207D3022D05D0049840B3B8F1000FFB
:1017000028D02CE0D4F838802A4651462046FFF7EE
:101710000DFFA16C49B1022D02D1B8F1000F10D11B
:1017200029462046FFF738FF05E0616A19B104F148
:10173000240000F03AFE20B13E60BFF34F8FBFF3AC
:101740006F8FFFF72AFE012006B0BDE8F087FFF794
:1017500024FE22E0684600F0A3FE4FF00108FFF7E8
:101760001CFE00F01FFCFFF7FEFD94F94400401C36
:1017700001D184F8449094F94500401C01D184F8CB
:101780004590FFF70AFE04A9684600F08FFE30B1CD
:101790002046FFF737FF00F077FB0020D4E7FFF784
:1017A000E2FDA06BE16B884213D1FFF7F6FD04F177
:1017B0001000049900F0A0FD2046FFF723FF00F081
:1017C00063FB002890D13E60BFF34F8FBFF36F8F54
:1017D0008AE7FFF7E2FD2046FFF714FF00F054FB15
:1017E00082E72DE9F343002683B00400354605D196
:1017F00040F2915218A11DA003F0D2FF206C28B135
:1018000040F2955214A119A003F0CAFF00F089FE1E
:1018100038B9049828B140F29A520FA113A003F0EE
:10182000BFFFDFF858804FF000094FF0805700BF2E
:10183000FFF799FDA06B70B1401EA063206810B93E
:1018400000F064FFA060206900B304F1100000F014
:10185000ACFDD8B114E01FE02E2E5C6F735C636F9B
:1018600072655C71756575652E6300004572726FF7
:10187000723A25732C25640D0A00000004ED00E087
:10188000C8F80070BFF34F8FBFF36F8FFFF785FD70
:10189000012005B0BDE8F083049808B166B10FE0FF
:1018A0003DB140F2E152AFF25001AFF2400003F01F
:1018B00077FFFFF772FD5FE0684600F0F1FD01265B
:1018C000FFF76BFD00F06EFBFFF74DFD94F9440050
:1018D000401C01D184F8449094F94500401C01D18A
:1018E00084F84590FFF759FD04A9684600F0DEFD35
:1018F0000028204612D0FFF785FE00F0C5FA2046EA
:1019000000F07CF9002893D07DB3FFF72CFD606ACE
:1019100060B3206B0068C0F1200129E000F06EF98F
:10192000E8B1206838B9FFF71EFDA06800F004FE9A
:101930000546FFF732FD04F12400049900F0DCFCB9
:101940002046FFF75FFE00F09FFA00287FF470AF9B
:10195000C8F80070BFF34F8FBFF36F8F68E7204662
:10196000FFF750FE00F090FA62E705E0FFE7002184
:10197000A06800F06EFE9CE700208AE72DE9F047A2
:10198000984617468946040007D140F2C332AFF2A9
:101990003811AFF2281003F003FFB9F1000F09D19D
:1019A000206C38B14FF47172AFF25411AFF24410A1
:1019B00003F0F6FEB8F1020F0AD1E06B012807D060
:1019C00040F2C532AFF27011AFF2601003F0E8FEE2
:1019D000FFF708FD5020EFF3118680F31188BFF365
:1019E0004F8FBFF36F8FA06BE16B884207D3B8F1C5
:1019F000020F04D05FF0000086F31188A5E694F989
:101A00004550424649462046FFF790FD681C04D0E9
:101A10006D1C84F845500120EEE7A06C012520B133
:101A200041462046FFF7B8FD06E0606A0028F2D084
:101A300004F1240000F0B9FC0028ECD0002FEAD01B
:101A40003D60E8E730B4026C0B46002A0BD0C16859
:101A50001144C1608468A14201D30168C16030BCF7
:101A6000184605F07BBC30BC70472DE9F7470026CF
:101A700083B08A46040007D14FF4A062AFF2282158
:101A8000AFF2182003F08CFEBAF1000F09D1206CE0
:101A900038B140F20452AFF24021AFF2302003F0EF
:101AA0007FFE00F03EFD48B9059838B140F209527A
:101AB000AFF25C21AFF24C2003F072FE4FF0000950
:101AC0004FF08057DFF85081FFF74DFCA56BB5B1A3
:101AD00051462046FFF7B6FF6D1EA563206950B141
:101AE00004F1100000F061FC28B1C8F80070BFF3E9
:101AF0004F8FBFF36F8FFFF750FC012024E605984E
:101B000008B11EB106E0FFF748FC27E0684600F088
:101B1000C7FC0126FFF741FC00F044FAFFF723FC65
:101B200094F94400401C01D184F8449094F9450094
:101B3000401C01D184F84590FFF72FFC05A96846A9
:101B400000F0B4FC002820460AD0FFF75BFD00F04F
:101B50009BF9204600F052F80028B5D00020F3E5AC
:101B600000F04CF890B104F12400059900F0C4FB9A
:101B70002046FFF747FD00F087F90028A4D1C8F8F8
:101B80000070BFF34F8FBFF36F8F9DE72046FFF7C5
:101B900039FD00F079F997E710B5204B002200BF1E
:101BA00053F832401CB1521C0A2AF9D310BD43F835
:101BB000321003EBC201486010BD70B515460E46E9
:101BC0000446FFF7D0FB94F944100020491C01D1D2
:101BD00084F8440094F94510491C01D184F845006B
:101BE000FFF7DBFBA06B28B92A46314604F124003D
:101BF00000F0C0FB2046BDE8704003E510B5044688
:101C0000FFF7B1FBA06B28B15FF00004FFF7C5FB45
:101C1000204610BD0124F9E704ED00E0D033002098
:101C20002DE9F0410546FFF79EFBF84CA068401CEB
:101C3000A0602068F64F10B1606930B32BE02560DA
:101C4000A068012827D1002606EB860007EB80005C
:101C5000FFF7ACFA761C202EF6D3EE48FFF7A6FA73
:101C6000EC481430FFF7A2FAEA482830FFF79EFA52
:101C7000E8483C30FFF79AFAE6485030FFF796FA0A
:101C8000E44860631430A06305E02068E96AC06A34
:101C9000884200D82560606A401C6062E96A0120C1
:101CA000226988401043206101EB810007EB80002E
:101CB000291DFFF789FAFFF770FB606900280CD037
:101CC0002068E96AC06A884207D2D3494FF0805041
:101CD0000860BFF34F8FBFF36F8FBDE8F0812DE930
:101CE000FF5F8346DDE90E87994616468A469000D7
:101CF000FFF78AF905001AD05420FFF785F9040090
:101D000012D025630021CDE90241CDE900874B4681
:101D100032465146584600F002FD2046FFF780FF4C
:101D2000012004B0BDE8F09F2846FFF7D7F94FF037
:101D3000FF30F6E770B50546FFF715FBB34C05B964
:101D40002568281DFFF764FA58B9E86AB04A00EB25
:101D5000800152F8211021B9012181402069884376
:101D60002061A86A18B105F11800FFF751FA606AFE
:101D7000401C60622068854208D1A648291D3C307D
:101D8000FFF722FA6068401C606007E0A068401E10
:101D9000A060284600F01FFD00F010FDFFF7FDFADF
:101DA0006069002812D0206885420FD1206B28B1CD
:101DB00040F2D24299A19EA003F0F2FC96494FF066
:101DC00080500860BFF34F8FBFF36F8F70BD2DE958
:101DD000F0418E4C0027206B38B1A069401CA061F7
:101DE000E06900B10127384677E7E668761CE660CF
:101DF00011D1606B006828B140F67F2287A18CA0CA
:101E000003F0CEFC606BA16B6163A063206A401C91
:101E1000206200F0D3FCA06ADFF8F481864209D387
:101E2000606B006880B1606BC068C5686868864296
:101E30000DD2A0622068C06A00EB800158F8210032
:101E40000128CDD90127CBE74FF0FF30F1E7281D5E
:101E5000FFF7DEF9A86A18B105F11800FFF7D8F905
:101E6000E86A0121226981401143216100EB800170
:101E700008EB8100291DFFF7A7F9E86A2168C96A04
:101E80008842CDD30127CBE72DE9F0475F4C0025F1
:101E90002E46206B28B940F6850260A164A003F0AD
:101EA0007FFCFFF760FA206B401E2063206BE0BBD5
:101EB000A168584F28370120B9B3DFF85491804604
:101EC0003868E8B1F868C56805F11800FFF7A0F9AF
:101ED000281DFFF79DF9E86A226908FA00F111430D
:101EE000216100EB800109EB8100291DFFF76CF9EE
:101EF000E86A2168C96A8842E2D3C4F81C80DFE737
:101F00000DB100F05BFCA56945B14746FFF75FFFE7
:101F100000B1E7616D1EF9D10020A061E06920B138
:101F20003D4901263007086000E003E0BFF34F8F12
:101F3000BFF36F8FFFF731FA3046BDE8F0872DE928
:101F4000F041324C0F460546E6682068001DFFF759
:101F50005FF938B9206890F82C1001208840216979
:101F600081432161681C08D13FB12168BDE8F0417F
:101F700028485030091DFFF727B920683544B5427D
:101F80004560216805D2A06BBDE8F041091DFFF74F
:101F900027B9606B091DFFF723F9A06A854200D2BB
:101FA000A5629AE61948016B491C0163704770B538
:101FB0000D46040005D140F2E64218A11CA003F032
:101FC000EFFB2DB940F2E74214A119A003F0E8FBA2
:101FD0000E4E306B28B14FF49D6210A114A003F097
:101FE000DFFBFFF7DFFFF26823685919934204D93A
:101FF0008B4225D9914202D822E08B42FAD9881A25
:1020000021600021FFF79BFF1BE000006000002023
:1020100020340020A036002004ED00E02E2E5C6F5E
:10202000735C636F72655C7461736B732E63000025
:102030004572726F723A25732C25640D0A000000F8
:102040002160FFF721FF002807D1FF494FF08050A2
:102050000860BFF34F8FBFF36F8F70BD10B50400E2
:1020600014D0FA48006B38B140F23C52AFF2540140
:10207000AFF2440003F094FBFFF794FF00212046E9
:10208000FFF75DFFFFF700FF002807D1EE494FF093
:1020900080500860BFF34F8FBFF36F8F10BD70B5D6
:1020A000EA4C206B10B10120E06170BD0020E061BE
:1020B0002069E74EB0FA80F0C0F11F0000EB800508
:1020C00056F8250038B940F6B732AFF2B001AFF29A
:1020D000A00003F065FB06EB850000F108024168F3
:1020E00049684160914201D149684160C8682060F7
:1020F00070BD70B50446FFF736F9D44D04B92C68AD
:10210000201DFFF785F858B9E06AD14A00EB80013D
:1021100052F8211021B901218140286988432861A2
:10212000A06A18B104F11800FFF772F8211DC94820
:10213000FFF74AF894F850000026012801D184F8EE
:102140005060FFF72AF9686928B1FFF70CF900F031
:1021500035FBFFF722F92868844213D1686990B1F2
:10216000286B38B140F2E462AFF25011AFF2401088
:1021700003F016FBB4494FF080500860BFF34F8F57
:10218000BFF36F8F70BDB3480068A968884201D162
:102190002E6070BDBDE8704081E770B50025040079
:1021A00007D140F20E72AFF28C11AFF27C1003F047
:1021B000F7FAA8496069884205D1A06A283988429F
:1021C00001D000B90125284670BD70B5040007D1C3
:1021D0004FF4E762AFF2BC11AFF2AC1003F0E0FADB
:1021E0009A4D2868844229D0002C27D0FFF7BBF8ED
:1021F0002046FFF7D2FFE8B1201DFFF709F8E06A9B
:1022000001212A69814011432961914900EB800035
:1022100001EB8000211DFEF7D7FFE06A2968C96A3B
:10222000884207D388494FF080500860BFF34F8F32
:10223000BFF36F8FBDE87040FFF7AFB870BD854E3C
:10224000824C143E824F4FF08058DFF8FC9111E031
:10225000FFF789F8F068C568281DFEF7D9FFA06868
:10226000401EA0606068401E6060FFF796F8284638
:1022700000F0B1FA60680028EAD138680128F9D97D
:10228000C9F80080BFF34F8FBFF36F8FF2E71CB523
:102290006E4800242C30CDE90040234680226EA1F8
:1022A0006F48FFF71CFD012803D100F0ACFB0128AB
:1022B0000CD0401C1CD14FF40262AFF2A021AFF24F
:1022C000902002B0BDE8104003F06ABA502080F3BD
:1022D0001188BFF34F8FBFF36F8F5C484FF0FF3112
:1022E000816201214161C460BDE81C40FEF7EFBF7F
:1022F0001CBD5648C068704770B50D46040007D134
:1023000040F6CE32AFF2EC21AFF2DC2003F048FA17
:102310004E48016820461831FEF762FF2846BDE8A6
:10232000704001210BE62DE9F04116460F460500ED
:1023300007D140F6DF32AFF21C31AFF20C3003F0C0
:102340002FFA424C206B38B940F6E332AFF2343109
:10235000AFF2243003F024FA216847F0004088618E
:10236000216828461831FEF72FFF3046BDE8F041BE
:102370000121E4E570B514460D46060007D140F68C
:10238000F932AFF26831AFF2583003F009FA2F4852
:10239000016830461831FEF717FF0CB14FF0FF35DA
:1023A00021462846BDE87040C9E52DE9F041C068E6
:1023B000C4683CB940F62942AFF2A031AFF2903088
:1023C00003F0EEF904F118000746FEF721FF1F4D58
:1023D000286B012660B11F4839462838FEF7F4FE05
:1023E000E06A2968C96A884212D90120EE6174E462
:1023F000201DFEF70DFFE16A2A6906FA01F010437D
:10240000286101EB8100124901EB8000211DE5E705
:10241000002062E470B50D4D06460C46286B38B9B5
:102420004FF44662AFF20C41AFF2FC3003F0B8F962
:1024300044F000403060F468B4B940F66842AFF24E
:102440002441AFF214400DE004ED00E060000020F4
:1024500020340020F036002049444C4500000000A4
:102460003F22000803F09CF93046FEF7D1FE201D04
:10247000FEF7CEFEE16A01262A6906FA01F0104352
:10248000286101EB8100D94901EB8000211DFEF795
:102490009BFEE06A2968C96A884200D9EE6170BD76
:1024A000D3490A6A0260C968416070472DE9F0416A
:1024B0000C46050007D140F69442AFF2A041AFF2BE
:1024C000904003F06DF93CB940F69542AFF2B4414B
:1024D000AFF2A44003F064F9FEF745FFC44EF26882
:1024E0006B682068D11A471C07D02F68366AB7423C
:1024F00008D0934206D8012400E00024FEF74DFFE7
:10250000204671E4884205D9401A20602846FFF72A
:10251000C7FFF2E700202060EDE7B5490120C86160
:102520007047B348416919B1006B18B1002070477A
:10253000012070470220704770B504004FF0000082
:1025400038D0AB4DE16A2A68D26A914233D2A06991
:10255000002804DB2868C06AC0F12000A061A34EF7
:1025600001EB8101606906EB810188421ED1201DCB
:10257000FEF74EFE012150B9E06A00EB800256F8EA
:10258000222022B92A6901FA00F082432A612868D0
:10259000C06AE0622A6981401143296100EB800032
:1025A00006EB8000211DFEF70FFE02E02868C06ADE
:1025B000E062012070BD616C2A68D26A9142F8D352
:1025C00070BD70B504004FF0000640D0884D2868FB
:1025D000844207D040F6D172AFF2C051AFF2B05092
:1025E00003F0DEF8A06C38B940F6D272AFF2D451E5
:1025F000AFF2C45003F0D4F8A06C401EA064626C2B
:10260000E16A914223D010BB201DFEF701FE774AFC
:10261000012150B9E06A00EB800352F8233023B95E
:102620002B6901FA00F083432B61606CE062C0F11A
:102630002000A061E06A2B6981401943296100EB09
:10264000800002EB8000211DFEF7BEFD0126304612
:1026500070BD70B50D4604004DD0A06C38B94FF474
:102660008152AFF24861AFF2386003F099F8606CC4
:10267000A84200D30546E06AA8423CD0A06C0128DD
:1026800039D15B4E3068844207D141F23B02AFF250
:102690007461AFF2646003F083F8E06AE562A169F7
:1026A000002902DBC5F12001A161504D00EB800043
:1026B000616905EB800081421DD1201DFEF7A8FD58
:1026C000012150B9E06A00EB800255F8222022B9BE
:1026D000326901FA00F082433261E06A3269814076
:1026E0001143316100EB800005EB8000211DBDE846
:1026F0007040FEF769BD70BD3D4908680A68806991
:10270000D26A0968C2F120028A61704738490868B4
:1027100018B10868826C521C8264086870472DE901
:10272000F05F8846DDE90B9483466FF00301206B70
:1027300001EB820108440A9E20F007079A467807B9
:1027400005D040F261322BA12FA003F029F800251B
:10275000B8F1000F0ED00020221818F8001082F8EF
:10276000341018F8001011B1401C1028F4D384F86C
:10277000435001E084F83450202E00D31F26E66237
:10278000C4E91165201DFEF71CFD04F11800FEF7D9
:1027900018FD2461C6F120006462A061E56484F83C
:1027A0005050524659463846FEF771FD2060B9F147
:1027B000000F01D0C9F80040BDE8F09F0C48416B04
:1027C000096829B1416BC968C96849688162704765
:1027D0004FF0FF31FAE710B50446006BFEF77EFCC0
:1027E0002046BDE81040FEF779BC000020340020F0
:1027F000600000202E2E5C6F735C636F72655C74EA
:1028000061736B732E6300004572726F723A2573A9
:102810002C25640D0A00000070B500244160DC4DD9
:102820000061914206D8D11A8269914206D2011DF7
:10283000286907E09A4203D2994201D3012403E0B8
:10284000011DE868FEF7CCFC204670BD2DE9FF476E
:102850009946DDF830A090460E4607004FF0000480
:1028600005D14FF4C172CBA1CFA002F099FFC84DA2
:10287000286880B1CDE900680297062E11DAFFF7CB
:1028800050FE02284FF0000309D000226946286854
:10289000FEF7F4FE044604B02046BDE8F087524639
:1028A000F4E700234A466946FFF768F8F2E770B597
:1028B00086B0B74E70E00198002806DADDE9030122
:1028C000029A90470198002866DB039C606910B16A
:1028D000201DFEF79DFC05A800F0B2F80546019802
:1028E0000A2859D2DFE800F00505052F354C05050B
:1028F0002F3594F824002A4640F0010084F8240083
:102900000298A169034601442046FFF785FF00288D
:1029100042D0216A2046884794F8240040073BD5DE
:10292000002000900298A169002342181946204611
:10293000FFF78CFF00282FD140F2133295A19AA007
:1029400002F02EFF28E014F8240F20F00100207080
:1029500022E094F8240040F0010084F8240002985A
:10296000A06128B940F22B328AA18FA002F018FF93
:10297000A0692B4641191A462046FFF74DFF0BE090
:1029800094F82400810703D42046FEF7A7FB03E058
:1029900020F0010084F82400002201A93068FFF72C
:1029A00064F8002887D106B070BD794CE0680168F2
:1029B00039B1C0680021006800F054F8FFF777FFD4
:1029C000F4E701210020F7E710B5FEF7CCFC704CCE
:1029D0002068A0B97848FEF7E9FB77481430FEF785
:1029E000E5FB7548E06014302061002210210A20C8
:1029F000FEF778FD206010B170A1FFF7CDF8BDE8BB
:102A00001040FEF7CABC1CB50024FFF7DDFF60488C
:102A1000006868B15E491F20091DCDE9000100234F
:102A20004FF4807267A16948FFF759F9040005D196
:102A300040F2131257A15CA002F0B2FE20461CBD6A
:102A400070B50546FFF755FC514E0446B068844208
:102A500003D200F038F8012000E000202860204672
:102A6000B46070BDF8B50D460646FFF79BFA6846A0
:102A7000FFF7E6FF0446009810B1FFF705FAF8BD2E
:102A80004348ADB101690968D9B10025311B2A4617
:102A90000068FFF792F8FFF7F7F90028EFD14C49EB
:102AA0004FF080500860BFF34F8FBFF36F8FF8BDBA
:102AB000A642EBD8FFF7E8F92146304600F036F899
:102AC000F8BD0125E2E7F8B5314D27E0C068C468DC
:102AD0000668201DFEF79CFB216A2046884794F873
:102AE000240040071AD5A0693044B04206D92461B9
:102AF0006060211DE868FEF773FB0FE000200346CD
:102B00000146009032462046FFF7A0FE30B9314919
:102B10004FF4617201F1140002F042FEE8680168AE
:102B20000029D3D12969C5E90310F8BDF8B50546D8
:102B300017480E46C068C068C468201DFEF768FBD1
:102B400094F82400410718D5A0692B464119324654
:102B50002046FFF761FEA0B1002003460146009029
:102B60002A462046FFF772FE58B91A494FF4FC7204
:102B700001F1140002F014FE03E020F0010084F8DB
:102B80002400216A01B02046BDE8F040084700005B
:102B90009C0000202E2E5C6F735C636F72655C740A
:102BA000696D6572732E63004572726F723A257398
:102BB0002C25640D0A00000004370020546D72516A
:102BC00000000000546D722053766300AB290008AA
:102BD00004ED00E0382C00082DE9F047074699463F
:102BE00016460D462820DDF820A0FEF70DFA040059
:102BF0001ED0B84600204F4684F82400D1462DB997
:102C000040F265120CA111A002F0CAFDFFF7DCFE34
:102C100004F11801C4F8008081E8A002201DFEF72D
:102C2000D0FA2EB194F8240040F0040184F8241066
:102C30002046BDE8F08700002E2E5C6F735C636F4A
:102C400072655C74696D6572732E63004572726F94
:102C5000723A25732C25640D0A0000001CB5474804
:102C60000324CDE900400023802245A14948FFF715
:102C700036F849480023CDE90040802247A14B485F
:102C8000FFF72DF84A480023CDE90040802249A1F2
:102C90004C48FFF724F84C480023CDE9004080223F
:102CA0004AA15048FFF71BF84F480023CDE90040E8
:102CB00080224EA15348FFF712F853480023CDE974
:102CC0000040802251A15748FFF709F856480023D9
:102CD000CDE90040802255A15848FFF700F8584838
:102CE0000023CDE90040802256A15D48FEF7F7FFA2
:102CF0005C480023CDE9004080225BA15E48FEF7DE
:102D0000EEFF5E480023CDE9004080225CA16048D0
:102D1000FEF7E5FF5F480023CDE9004080225EA179
:102D20006148FEF7DCFF61490220CDE90001002384
:102D300080225FA16248FEF7D2FF00201CBD6148DF
:102D400010B50168604A1160406860490860FEF78C
:102D50004BF85F4908600121FEF753F80322002178
:102D60000120FEF7BFFB5B4900231A4608601946A5
:102D7000FEF784FCBDE8104070E700005002002020
:102D800073686F775F7379735F636C6F636B5F7486
:102D900061736B001D690008140200206F70656E7E
:102DA0005F6C65645F7461736B000000816700088D
:102DB00018020020636C6F73655F6C65645F7461FB
:102DC000736B0000A16700081C020020757361721C
:102DD000745F68656172745F626561745F7461736A
:102DE0006B000000C5670008280200207077725F42
:102DF0006D6F64655F7377697463685F7461736B2B
:102E000000000000E16700082C0200207077725F6C
:102E10006D6F64655F73656E645F6D73675F74612A
:102E2000736B00001B6800083C0200206372635F44
:102E300063616C5F7461736B00000000A16800083F
:102E4000400200206372635F706F73745F62696E2B
:102E50006172795F73656D5F7461736B0000000070
:102E6000DF68000858020020666C6173685F736950
:102E70007A655F7461736B007D69000868020020E9
:102E800066735F746573745F7461736B0000000038
:102E9000676A000870020020696F5F746573745F71
:102EA0007461736B00000000636B000878020020FF
:102EB0007368656C6C5F746573745F7461736B00C9
:102EC000456C000828000020BC000020C400002041
:102ED000480200206C02002070B50446C07800252E
:102EE00048B104F13801607801230E46626B02F0AC
:102EF000D6FA10B10125284670BD0020E070616B44
:102F0000A06A0A1A206A8242F5D2A278022AF2D175
:102F10000A1860780123314602F0C1FAEBE770B578
:102F20000446406B0D460026A8420FD02046FFF70E
:102F3000D3FF06000AD1607801232A4604F1380144
:102F400002F09EFA08B1751E01266563304670BD19
:102F500070B50446FFF7C0FF050036D1207803287E
:102F60002CD12079012829D1420204F13800002116
:102F7000064602F0FAF84AF6552104F2362002F02D
:102F8000DFF8FE49304602F0DFF8FD4904F507702E
:102F900002F0DAF804F50870616902F0D5F804F57A
:102FA0000970216902F0D0F8626A0123521C626341
:102FB0006078314602F073FA0020207100226078B8
:102FC000114602F07BFA00B10125284670BD2DE9BB
:102FD000F04104680D4602290BD3E069A84208D9E4
:102FE00020784FF0FF36012807D002282BD0032885
:102FF00039D001263046BDE8F081A06A05EB5507BF
:1030000000EB57212046FFF78AFF0028F2D1C7F3D3
:10301000080020447F1C90F83880A06A00EB5721FC
:103020002046FFF77CFF0028E4D1C7F308002044C6
:1030300090F8381048EA0120E90701D00609D9E7DD
:10304000C0F30B06D6E7A06A00EB15212046FFF778
:1030500066FF0028CED1E8B204EB4000383002F021
:103060005FF80646C6E7A06A00EBD5112046FFF7D9
:1030700056FF0028BED140F2FF1000EA8500204430
:10308000383002F052F820F07046B3E72DE9F047EF
:10309000022617460D460446022969D3E069A84274
:1030A00066D920784FF00109012804D0022836D0D3
:1030B00003285DD143E0A16A05EB550801EB5821D7
:1030C0002046FFF72CFF060052D1C8F30800204429
:1030D000383008F10108E90704D00178FAB262F348
:1030E0001F1100E03946017084F80390A16A204660
:1030F00001EB5821FFF713FF060039D1C8F3080090
:1031000020443830E90702D0C7F3071105E0017801
:10311000C7F3032201F0F0011143017026E0A06A19
:1031200000EB15212046FFF7FAFE060020D1E8B299
:1031300004EB4000B9B2383002F002F816E0A06AA1
:1031400000EBD5112046FFF7EAFE060010D140F251
:10315000FF1000EA850020443830054601F0E5FF05
:1031600067F31B000146284601F0EEFF84F8039048
:103170003046BDE8F0872DE9F041056813460E465C
:10318000074602292CD3E869B04229D93BB14FF058
:10319000FF3219462846FFF779FF00281FD1314634
:1031A0003846FFF714FF040018D0012C18D0601C1B
:1031B00018D0002231462846FFF768FF00280ED1BC
:1031C000E8696969821E914205D2491C69612979C1
:1031D00041F0010129712646B042E0D800200AE7FB
:1031E000022008E7012006E72DE9F04106680F00FC
:1031F000804605D0FFF7EBFE022808D20120FAE650
:10320000346914B1F069A04207D8012405E0411CDB
:10321000F5D0F1698142F2D83C4670690028EED0C1
:10322000BC4216D1F069651CA84200D80225294687
:103230004046FFF7CCFE0128E1D0411CDFD038B179
:103240003069022805D3F169814202D9044600E0C1
:10325000A5B92546F0696D1CA84202D80225022CAA
:103260000AD329464046FFF7B2FE38B10128C6D03E
:10327000411CC4D0A542EDD10020BCE64FF0FF3484
:10328000224629463046FFF701FF30B95FB12A4692
:1032900039463046FFF7FAFE28B1012800D0012454
:1032A00025462846A7E63561F1697069891E88427E
:1032B00001D8401E7061307940F001003071F0E7B4
:1032C0002DE9F0410C460546FFF706FE00BB2146FE
:1032D000284601F068FF0646686305F138004FF4A0
:1032E00000720021044601F040FFA046012700249F
:1032F00000E03C446889A04207D9321968783B460F
:10330000414602F0CCF80028F3D06889A04201D0F1
:10331000012070E600206EE62DE9F04107680E46B8
:103320000546B1F5001F3AD2F00638D12E61AC68DF
:1033300024B93878032805D3FC6A1CB178894FEA90
:10334000402812E03889B0EB561F28D9F86A12E0FD
:103350002846FFF73CFE0446401C1ED0022C1ED31C
:10336000F869A0421BD9A6EB080646452146EFD2D4
:10337000384601F018FFC5E9054003E052526141AB
:103380007272416158B100EB5620A861C6F3080083
:1033900038443830E86100202DE601202BE6022079
:1033A00029E62DE9F0470669076820368946044674
:1033B0004FF00008B6F5001F34D2A06910B1F10536
:1033C00002D03CE00420D4E6401CA061616929B130
:1033D0007889401E10EA562F05D030E03889B0EBCE
:1033E000561F1FD92BE02046FFF7F1FD05460128A7
:1033F0001DD9681C14D0F869A8421AD8B9F1000F79
:1034000010D020466169FFF7EFFE05000DD0012DB9
:103410000DD0681C04D029463846FFF751FF40B153
:103420000120A6E6C4F81880CCE70720A1E6022018
:103430009FE629463846656101F0B5FEA061C6F3F6
:103440000800384438302661E061002091E62DE91B
:10345000F0470426FF24894605462746D0F8008019
:1034600047E04046FFF75BFD060046D1E969087872
:1034700080B1CA7AE52802F03F02AA7108D02E284E
:1034800006D022F02003082B06D0B446CC4506D047
:10349000FF241EE0042630E04FF0010CF6E70F2A6F
:1034A00001D014BB1CE0420605D54F7B00F0BF00E5
:1034B0002A690446EA62A04209D1487BB84206D193
:1034C000D8F80C0001F000FF08B1641E00E0FF24F2
:1034D000E4B200212846FFF764FF060009D00CE0A3
:1034E000084601F06EFFB84209D04FF0FF30E862A5
:1034F00005E0A9690029B4D10EB10020A8613046C9
:1035000037E62DE9F04705460021D0F80090FFF797
:1035100003FF002852D1FF24471EA046EF62484611
:10352000A969FFF7FCFC060047D1E969087850B1AA
:10353000CA7AE52802F03F02AA7136D0130704D5F3
:103540000F2A32D105E0042637E00F2A01D0E4B17A
:1035500020E095F82B20520629D4420606D591F892
:103560000D8000F0BF002A690446EA62A04209D13A
:103570004A7B424506D1D9F80C0001F068FE08B13B
:10358000641E00E0FF24E4B211E0084601F019FFD8
:10359000404512D095F82B00C00706D10B2205F14B
:1035A0002001E86901F0E7FD38B1FF24EF62002156
:1035B0002846FFF7F6FE0600B1D03046D9E52DE9E2
:1035C000F04F0446D0F8009090F82B0089B010F02E
:1035D000A00F03D0062009B0BDE8F08F0025D9F870
:1035E0000C0000E06D1C30F815100029FAD104F130
:1035F00020010C226846039101F0AEFD9DF80B00FE
:10360000C00719D0402084F82B00012633466946B4
:10361000D9F80C20039801F08FFE2046FFF771FFC8
:1036200010B9761C642EF1D3642E0FD00428D2D1A9
:103630009DF80B0084F82B009DF80B00800707D540
:103640000D200C35B5FBF0F56D1C02E00720C2E73C
:103650000125002120462768FFF75EFE88B9002675
:103660003846A169FFF75BFC58B9E0690078E528A6
:103670000AD048B1002601212046FFF792FE00281B
:10368000EED0042812D012E0761C2846AE42F2D1C9
:10369000451E059567D02169684201EB401120461F
:1036A000FFF73AFE5FEA000803D076E00720804685
:1036B00073E0039801F085FE4FF6FF7B07904846C4
:1036C000A169FFF72CFC5FEA000866D1D9F80C006D
:1036D00006900598D4F81C80C0B20490079988F829
:1036E0000D100F2188F80B10002188F80C1008F13C
:1036F0001A0001F025FD0498DFF8FCA6401E00EB3F
:10370000800101EBC006002701E05D4503D006986B
:1037100030F81650761C1AF8071001EB08002946FD
:1037200001F00EFD05B95D467F1C0D2FEDD35D4503
:1037300005D0069830F8160008B1049803E0049804
:1037400040F04000049088F80000012189F803103F
:1037500000212046FFF725FE5FEA00081DD10598ED
:10376000401E0590ABD14846A169FFF7D8FB5FEA40
:10377000000812D120220021E06901F0F6FC0B22A2
:10378000E069039901F0E8FC94F82B00E16900F08E
:1037900018000873012089F8030040461BE72DE953
:1037A000F041C16A044606690568481C04D02046F9
:1037B000FFF7B2FD002817D1E5274FF00108284692
:1037C000A169FFF7ACFB60B9E1690F7085F8038070
:1037D0002169B14208D200212046FFF7E2FD00280E
:1037E000EDD0042800D1022005E42DE9F84F4FF078
:1037F000000AD0F80090064681F816A080690C46B1
:1038000000287DD0F06A401C1BD00025A846474602
:1038100009E07F1CB8F1000F1ED1A0F55841B1F5A9
:10382000006F19D28046D9F80C0030F81700002834
:10383000EFD100BFB8F1000F00D00025601980F86B
:1038400016A0002001462E23F269125C401C202A9B
:1038500030D0052A23D023E0611901F1160BC5F100
:10386000FF01009140EA084040F2B51101F038FE36
:10387000FF2809D9009902290FD3020A8BF80020EA
:103880008BF80100022005E038B1009929B18BF8CE
:103890000000012005440020C4E70025CAE7E52216
:1038A000092804D10C2902D26518491C6B726518CD
:1038B000491C6A720B28C7D36018524680F809A0C9
:1038C000A07D18BB19B100210B46082513E03F204D
:1038D000A075012113E02E2819D0A0F14107192F5E
:1038E00005D8F7693F7B2F4201D0203080B267189E
:1038F000491CB8755B1CE018407A0028EBD100E049
:103900001AE060188275F069007B10B102E01025A2
:10391000EDE76272F069C07A2072F0691C3001F044
:1039200004FC2060F069163001F0FAFBE080F069D9
:10393000183001F0F5FBA080BDE8F88FFFB583B02B
:103940001E461446054604E004A801F047FD002881
:103950001AD0641EF8D2287800B9A6B90498009548
:103960000190009800783F2810D02A280ED0684691
:1039700001F034FD074601A801F030FD0446A742DE
:103980001AD1002FEDD1012007B0F0BD002213465F
:10399000009810F8011B00903F2915D001230078F2
:1039A0003F28F5D02A28F3D0DDE90001FFF7C6FF54
:1039B0000028E8D10198047804A801F00FFD0EB1A9
:1039C000002CCBD10020DFE7521CE8E72DE9F84FAF
:1039D000804600680F688946C568002417F8016BA7
:1039E000304601F0DCFBE8BB36B140F2B5113046A1
:1039F00001F091FD060059D0701C57D0B6F5803FFC
:103A000003D3300C25F81400641C202E10D32F2E65
:103A100010D05C2E0ED0802E04D23146F7A001F0DB
:103A2000B6FBF8B9FF2C41D225F81460641CD5E729
:103A3000042607E0002600E07F1C38782F28FBD002
:103A40005C28F9D00021C9F80070012C04D0022CA8
:103A500025D168882E2819D128882E2816D125F836
:103A6000141000E022E00020A04201D22E2100E04C
:103A7000202108EB0002401C82F820100B28F3D311
:103A8000404446F0200280F82020D4E005EB4400BA
:103A900030F8020C202801D02E2802D1641E002C00
:103AA000F4D125F814100CB1002702E0062043E7FA
:103AB0007F1C35F817002028FAD017B928882E283F
:103AC00003D146F0030600E0641E2CB105EB440070
:103AD00030F8020C2E28F7D10B22202108F120000B
:103AE00001F043FB4FF000094FF0080BCDF80090B8
:103AF00035F8170007F101075FEA000A24D0BAF190
:103B0000200F04D0BAF12E0F04D1A74202D046F004
:103B10000306EDE70098584501D2A74219D1BBF141
:103B20000B0F0FD0A74201D046F003060CD84FF080
:103B3000080000904FEA896027464FF00B0B4FEAD0
:103B40001069D5E746F0030698F82000E52850D024
:103B500052E05046BAF1800F0ED346F0020640F212
:103B6000B51101F0BDFC8246000605D5A2490AF058
:103B70007F000D3111F800A05046BAF1FF0F13D9A4
:103B80000099ABF10100814204D346F00306CDF861
:103B900000B0ADE708EB01004FEA1A2280F82020C0
:103BA0000098401C00901BE0BAF1000F04D00146C1
:103BB00095A001F0ECFA20B14FF05F0A46F0030641
:103BC0000EE0AAF14100192801D849F00209AAF132
:103BD0006100192804D8413049F001091FFA80FA20
:103BE000009A08EB020181F820A00098401C009088
:103BF0007EE7052188F82010BBF1080F03D14FEABA
:103C000089604FEA1069C9F38100032803D06FEA85
:103C10000900800701D146F00206B00709D45FEA27
:103C2000C97001D046F010065FEA497001D546F030
:103C3000080688F82B6000207EE673B50446056808
:103C4000019800782F2803D05C2801D0A86908E0EB
:103C50000198401C019000782F28F9D05C28F7D0FB
:103C60000020A060019880260078202806D284F8E1
:103C70002B6000212046FFF74FFB7CBD01A92046A9
:103C8000FFF7A4FE0028F8D12046FFF73AFC94F88D
:103C90002B1068B10428F0D18A0605D54807EDD568
:103CA00084F82B6000207CBD4907FCD405207CBD36
:103CB0004907FCD4A079C006F8D5208AC0F30800D3
:103CC00041192846383101F07AFAA060D6E7F0B5FC
:103CD00006464FF0FF3031680D460A0010D000BF95
:103CE00011F8013B202B2CD33A2BF9D11378303B20
:103CF000092B06D8921C8A4203D11A46012B1DDBE0
:103D0000F0BD3D4B00221B1FD3F8007015F8014B8E
:103D100017F8013BA3F1610CBCF1190F01D8203B4E
:103D2000DBB2A4F1610CBCF1190F01D8203CE4B264
:103D300013B1A342EAD0F0BD8D42FCD110463160F0
:103D4000F0BD33480078F0BD10B504460020E070A7
:103D5000401E60632046FFF7E2F808B1042010BD62
:103D600004F2362001F0DCF9A0F52A41553901D0E2
:103D7000032010BD94F83800E92803D0EB2801D0C7
:103D8000E8280FD1032223A104F16E0001F0F3F91A
:103D90000028EED0052220A104F18A0001F0EBF901
:103DA0000028E6D0022010BD2DE9FF4100279046F3
:103DB0000E460F60FFF78BFF050002D50B2004B005
:103DC00012E51348001D50F825409CB1346020785E
:103DD00008F0FE0620B1607801F034FBC1071FD067
:103DE0002770E8B2B846607001F03BFBC1071CD0F9
:103DF0000320E4E70C20E2E7E47E0008222A3A3CB4
:103E00003E3F7C7F000000002B2C3B3D5B5D0000B3
:103E1000B0000020464154004641543332000000B7
:103E20000EB1400704D40020C9E71EB1400701D5F8
:103E30000A20C4E700212046FFF786FF02281AD196
:103E400000256E4604EB051000F5FF7001F06DF9DA
:103E500046F825006D1C042DF4D3002556F82510D6
:103E600029B12046FFF770FF022801D203E00320AA
:103E70006D1C042DF2D304280AD0022874D204F158
:103E80004300676B01F04CF9B0F5007F6CD101E0A5
:103E9000012094E704F14E0001F042F918B904F151
:103EA0005C0001F042F9206294F84860A670012E8F
:103EB00001D0022E58D1464394F845006081B0B33A
:103EC000411E084250D104F1490001F029F9208136
:103ED000000749D104F14B0001F022F9050004D19B
:103EE00004F1580001F021F9054604F1460001F003
:103EF00017F9010038D02389881900EB1312954275
:103F000032D3A81A6589B0FBF5F080B1DFF8B0C4F0
:103F10000025604500D803254FF6F57C604500D8A4
:103F2000022540F6F57C604502D8012501E01BE042
:103F3000D5B1801C3A4422633944E061C4E9097177
:103F4000032D13D083B13144E162022D1FD000F064
:103F5000010100EB400001EB500000BF216A00F2BC
:103F6000FF10B1EB502F14D20D2028E704F16200AE
:103F700001F0D6F80028F7D120890028F4D104F107
:103F8000640001F0D2F8E062E0698000E6E74000FA
:103F9000E4E74FF0FF306061206180202071032D45
:103FA00027D104F1680001F0BBF8012821D1791C68
:103FB0002046FEF7B4FFE0B984F8048004F236200E
:103FC00001F0AEF8A0F52A41553912D104F13800BC
:103FD00001F0ABF8FB4988420BD104F5077001F002
:103FE000A4F8F949884204D104F5097001F09DF85C
:103FF0002061F64925704888401C4880E080F448DC
:10400000C4F81880E0600EE770B50E4604004FF06B
:1040100009050CD0206850B1017841B1A188C2884F
:10402000914204D1407801F00DFAC00703D000207E
:104030003060284670BD00252068F9E717B581B0CB
:104040001446029800906846FFF741FE002802DA05
:104050000B2004B010BDDD4A121D002352F82010C1
:1040600001B10B70019901B10B7042F820102CB115
:10407000002201A902A8FFF797FEEAE70020E8E77F
:104080002DE9F7438EB005000BD002F03F06324613
:1040900069460FA8FFF788FE04004FF0000804D01F
:1040A000B9E0092011B0BDE8F0830098019001A8A3
:1040B0000F99FFF7C2FD040004D19DF82F00000600
:1040C00000D5062416F01C0F46D04CB1042C03D1A9
:1040D00001A8FFF774FA044646F008065CB19AE0BE
:1040E0009DF80A0010F0110F01D0072493E070072B
:1040F00001D508248FE030073DD50899009801F0DC
:104100005EF807460898B3490E3001F01DF808998B
:1041100020200022C8720899009801F085F80898BC
:1041200000211C3001F010F800980121C17007B384
:10413000D0F834900022394601A8FFF71CF804009B
:1041400069D149460098FEF7EAFE04000098A7F1FD
:10415000010707610BD05EE0C4BB9DF80A00C106F1
:1041600001D5042457E0B10701D5C007BDD1300700
:1041700001D546F040060098416B296208996962B2
:10418000089901F01CF8A86008981C3000F0CDFFD9
:10419000E860009828604FF40072C088A8802E74F0
:1041A00085F81180C5F81C8005F1280000218146A2
:1041B000C5F8148000F0D9FFB0062ED5EE6866B3BE
:1041C0006E610098A968408947020FE023E0284605
:1041D000FEF7FDFE0146012800D80224481C02D04B
:1041E000F61B1CB104E00124F61B01E0BE42EED830
:1041F000A96184B9F00510D0009800F0D4FF70B127
:1042000000EB5622EA61009801234946407801F00C
:1042100037F910B10124C5F80080204642E7022496
:10422000F9E72DE9FE4F88460021196099461546A9
:10423000044602A9FFF7E8FE002812D1607C00289E
:104240000FD1207CC0070BD06169E0680127401ABC
:104250004FF0020A04F1280B854200D905467EE0A2
:104260000720BDE8FE8F6069C10560D102994989C8
:10427000491E11EA502609D108B32046A169FEF76C
:10428000A6FE02281DD3411C4CD0A061A169029852
:1042900000F089FFA8B130440190680A009027D04F
:1042A000029932184889824201D9801B0090DDE9C9
:1042B00000324878414601F0E3F898BB05E0A06879
:1042C000DFE784F811A00220CBE7207C00060CD5A4
:1042D000E1690198081A0099884206D208EB40204B
:1042E0004FF40072594600F037FF009846022CE068
:1042F000E2690198824218D0207C00060AD5029813
:1043000001235946407801F0CAF858B9207C00F0E2
:104310007F0020740298012359464078019A01F0E9
:10432000AFF810B1677401209BE70198E061A08AA3
:10433000C0F30800C0F50076AE4200D92E46011940
:1043400032464046283100F007FFD9F80000AD1B87
:104350008119C9F800106069B04430446061002DD3
:1043600081D100207DE72DE9FE4F044600208846DC
:1043700018609946154602A92046FFF745FE002819
:1043800006D1607C002803D1207C800701D407205F
:1043900067E76069012742194FF0020A04F1280B10
:1043A000824200D2C543A1E06069C1057BD1029978
:1043B0004989491E11EA50261ED168B1A1690EE053
:1043C000F5FFFF0F5252614172724161B00000204F
:1043D0002C3700200000214EA06828B9002120467B
:1043E000FEF702FF00287DD001282DD0411C54D0BB
:1043F000A061A16801B9A060207C00060BD50298DD
:10440000E26901234078594601F049F8A0BB207CBD
:1044100000F07F002074A169029800F0C4FE98B1FA
:1044200030440190680A009027D0321802984189E0
:104430008A4201D9891B0091DDE90032407841466A
:1044400001F02DF8C0B903E084F811A0022008E7BC
:10445000E1690198081A009988420AD208EB4021C4
:104460004FF40072584600F077FE207C00F07F0089
:1044700020740098460228E00FE0E169019881422B
:104480000FD0E168606988420BD202980123594637
:104490004078019A00F0F4FF18B167740120E0E65B
:1044A00001E00198E061A08AC0F30800C0F5007641
:1044B000AE4200D92E46204432464146283000F014
:1044C0004BFE207C40F080002074D9F80000AD1B2A
:1044D0008119C9F800106069B04430446061E16836
:1044E000884200E005E000D80846E060002D7FF437
:1044F0005BAF207C40F0400020740020B1E6F8B5AE
:1045000004466946FFF780FD00280ED1217C4A064B
:104510000BD508060ED50098E2690123407804F116
:10452000280100F0BCFF08B10120F8BD207C00F09C
:104530007F002074FD4E216A0098FEF7F0FC0028F1
:10454000F3D1656A2946E87A40F02000E872A26853
:10455000206800F069FE05F11C00E16800F0F4FD40
:10456000314605F1160000F0EFFD002105F11200C3
:1045700000F0E6FD00980121C170FEF7E9FC217C06
:1045800001F0BF012174F8BD38B50446FFF7B7FF4D
:10459000002807D169462046FFF736FD002801D1E3
:1045A0000021216038BD11B58FB0002269460FA8E7
:1045B000FFF7FAFB040009D10098019001A80F99B8
:1045C000FFF73BFB040004D0042C13D010B02046AE
:1045D00010BD9DF82F00000601D5039807E09DF857
:1045E0000A00C00606D50899009800F0E8FD009979
:1045F0008861EBE70524E9E72DE9F34FD9B04FF0E7
:104600000009599E0F464A4686F8009053A959A8BA
:10461000FFF7CAFB050064D1539846903C46806979
:10462000EB464FF02F0A48904AE0202146A8FEF7BB
:1046300073FE050055D14C995398FEF770FC0500A8
:104640004FD14D99539800F0BAFD4890002146A8EB
:10465000FEF762FE050044D1002146A8FEF7F7FEF2
:1046600005000BD14D99539800F0A9FD404508D0A5
:10467000002146A8FEF795FE0500EDD0042D07D0D9
:104680002FE0694646A8FFF7B0F80020594602E03F
:10469000022526E0401C0A18927D002AFAD1421C0D
:1046A000944207D211251CE0401E4318641E9B7DD6
:1046B000135500E0599A0028F6D1641E02F804A0B0
:1046C00048985FEA0008B0D1BC4203D15999641EF2
:1046D00001F804A05998005D641C06F8010BBC4267
:1046E000F8D386F800905BB02846BDE8F08F13B58C
:1046F00082B0040006D00022694603A8FFF754FBED
:1047000010B11FE00920A4E400982060204603991E
:10471000FFF793FA90B994F82B00000607D4A0791C
:10472000C00612D5E169009800F049FDA06000982C
:104730000021C088A0802046FEF7EEFD042804D0AA
:104740000028E0D00021216083E40520FAE738B595
:1047500004466946FFF758FC002801D1002121607A
:1047600038BD38B50C4605466946FFF74DFC0028B4
:1047700013D1014628468CB1FEF769FE042801D00A
:1047800000280AD121462846FFF72FF800212846A5
:10479000FEF707FE042800D1002038BDFEF7BCFD5F
:1047A00038BD2DE9F74386B0144689460022694694
:1047B00006A8FFF7F9FA5FEA000851D100982060D7
:1047C000C6694169B21E914202D8C9F8001047E09B
:1047D00001780025012902D00024876A18E002240C
:1047E0000190214601A8FEF7F2FB411C03D00128ED
:1047F00003D028B105E0012000E00220804627E038
:104800006D1C0098641CC0698442EAD320E03CB966
:1048100039467F1C0098FEF782FB5FEA000817D13B
:10482000009801782044022900F1380004D000F0FB
:104830007CFC000106D006E000F072FC00B96D1CA3
:10484000A41C01E06D1C241DC4F30804761EDED1F7
:10485000C9F8005000984561017941F001010171EA
:10486000404609B01FE411B59DB002220DA91DA854
:10487000FFF79AFA00280ED10D98009068461D990E
:10488000FFF7DBF9002806D19DF82B00810601D443
:10489000000602D506201EB010BD9DF80600C00718
:1048A00001D00720F7E707990D9800F088FC04462F
:1048B0009DF80600C00613D50D988169A142F0D07D
:1048C0000F90002111940FA8FEF726FD0028E2D1D9
:1048D00000210FA8FEF7BBFD0028E2D00428DAD1A2
:1048E0006846FEF75CFF0028D5D134B1002221468E
:1048F0006846FEF740FC0028CDD10D98FEF728FB56
:10490000C9E72DE9F14195B00222694615A8FFF7E4
:104910004BFA040065D10098029002A81599FFF7A0
:104920008CF9040004D0042C04D05AE00000214E7D
:10493000082456E09DF83300800601D5062450E097
:1049400000981190002111A8FEF74EFC0500FE48CA
:104950004FF0000404D0012D06D0691C06D000E001
:104960000724804624B137E0022435E0012433E0F7
:1049700029460098FEF7A4FC04002DD100980B22D4
:104980002021383000F0F1FB00982E24102680F80A
:10499000384080F8436041464E3000F0D5FB009827
:1049A0002A4600F1380100F03FFC0099202201F175
:1049B0005800383100F0D0FB009800F1580180F821
:1049C0005940049A00F030FC00980127C77002A8F3
:1049D000FEF7F5FD040008D00022294611A8FEF7D5
:1049E000CAFB16B02046BDE8F08109984146163052
:1049F00000F0AAFB2A460999009800F015FC0998D6
:104A0000C6720098C770FEF7A3FA0446E9E72DE9DD
:104A1000FF4F81B09B466A460121019800F04EFD90
:104A200000287DD108264FF03F09F101009F03E0E7
:104A3000700010F0FF0606D006FB09F0B7FBF0F09F
:104A40008842F5D806B9FF264FF400720021584677
:104A500000F08BFB0BF5DF754FF0000A4C465DE074
:104A6000029850F82A80B8F1640F09D801D138466D
:104A700005E04FF06400B7FBF0F000FB08F0804663
:104A800004EB0800B84201D8A04201D2A7EB040809
:104A9000B8F1000F46D0214605F1080000F054FBA4
:104AA000414605F10C0000F04FFBB4FBF9F2B2FBFC
:104AB000F6F303982871B4FBF9FC09FB06F006FB3A
:104AC0001322B4FBF0F109FB1C436A70C02202EA16
:104AD000910C5B1C4CEA030C85F802C0E97004EBF6
:104AE00008014C1EB4FBF9F3B3FBF6FCB4FBF9F878
:104AF000B4FBF0F006FB1C3C09FB184302EA9002F1
:104B00005B1C85F805C01A43AA71E8710AF1010A15
:104B100010350C46BAF1040F04D21CB1BC4200E0BF
:104B20000EE09DD34AF655210BF5FF7000F008FB0F
:104B3000012300225946019800F0B1FC002800D062
:104B4000012005B0D1E52DE9FF4F97B09846924678
:104B50000D4617A8FFF7BBF8002802DA0B201BB0A0
:104B6000C3E57A49002451F8201001B10C70C0B29D
:104B7000049005B9764D00F074FCC10701D0032004
:104B8000EDE7400701D50A20E9E768680127FE0341
:104B90000F9048B90FAA0321049800F08FFC08B1C8
:104BA0000F9703E00F9828B1B04203D80F98411E29
:104BB000084200D00F9728784FF4007900F00F00DA
:104BC00014906878421E012A00D901208346A86803
:104BD000421EB24205D21022B0FBF2F302FB1302D6
:104BE00002B148461590E868B0F1807F02D8411EB6
:104BF000084200D00020B0FBF9F7B8FBF9F05FEAFB
:104C000000080DD05FEA0A050AD00020109002903B
:104C100010AA0121049800F051FC00287DD101E088
:104C200011209CE71498000706D410983F2803D958
:104C30003F213F38029110901098864680286DD30E
:104C4000802F00D98027149840F6F57280071498B9
:104C50004FEAC07002D500287ED000E008B10226DD
:104C6000B1E013207BE73C000FD13949002001243B
:104C70004FEA5E43103901E06400401C31F810C077
:104C8000BCF1000F01D09C45F6D9BEFBF4F009EB56
:104C90008001C91DB1FBF9F1069100210A914FF67F
:104CA000F5714FF0200A884238D92A49884235D810
:104CB0002BE000BF2649002001244FEA1E331E3995
:104CC00001E06400401C31F810C0BCF1000F01D0BD
:104CD0009C45F6D9BEFBF4F0904203D9042101EBC8
:104CE000400006E0012600EB40000321401C01EBE0
:104CF00050004844401EB0FBF9F0069015984FF064
:104D0000010A4101B1FBF9F00A90029901EB0A0096
:104D10000A9909904318069801E04DE166E000FB0E
:104D20000B310F980B18401E5B1E8343581A032E3D
:104D300031D0B0FBFBFC0BFB1C037BB1099B0AF1E0
:104D4000010A5B1C401E08E00000214EB400002058
:104D5000907F0008F5FFFF0F3BE00993B0FBFBF3EA
:104D600006981844CDF81800029801EB0411091AAE
:104D700071453BD80698AEEB0A0300FB1B310A983D
:104D8000081AB0FBF4F00190032E09D0022E10D0C7
:104D9000012E29D02CE0099B824418440990E3E7B6
:104DA0004FF6F571884223D807BB67087FF45BAFE5
:104DB0001CE04FF6F571884211D93FB94020B0EBA5
:104DC000440F03D367003C0084D173E71498800735
:104DD00007D5032647E76700802FF4D906E0904205
:104DE00006D8002FF7D001E0904201D90E20B6E698
:104DF0004A460021284600F0B8F90B22F9A12846BE
:104E000000F0AAF9494605F10B0000F099F96C731E
:104E10001FFA8AF105F10E0000F092F985F810B042
:104E2000032E0FD0159881B205F1110000F088F91A
:104E30001099B1F5803F07D289B205F1130000F057
:104E40007FF905E00020EEE705F1200000F07CF995
:104E5000F82068753F2105F1180000F071F9FF2175
:104E600005F11A0000F06CF905F11C00029900F040
:104E70006BF98027DE494FF0290A032E25D005F172
:104E8000270000F061F9069881B205F1160000F0E4
:104E900057F985F8247085F826A01322D5A105F1CD
:104EA0002B0000BF00F058F94AF6552705F5FF70B2
:104EB0003946824600F044F901232946029A0498B3
:104EC00000F0EDFA002877D120E005F1430000F072
:104ED0003BF905F12400069900F036F9022105F1AD
:104EE0002C0000F031F9012105F1300000F028F923
:104EF000062105F1320000F023F985F8407085F8AD
:104F000042A01322C0A105F14700CBE7032E31D107
:104F1000029A01232946921D049800F0C0FA4A46DD
:104F20000021284600F021F9BC49284600F00CF980
:104F3000BB4905F5F27000F007F9019905F5F47029
:104F4000491E00F001F9022105F5F67000F0FCF8A9
:104F50003946504600F0F4F8029A01232946D21D42
:104F6000049800F09CFA029A01232946521C0498E6
:104F700000F095FA08FB09F20021284600F0F5F848
:104F80000020DDF824A034E0032E16D0012E23D01B
:104F90006FF007014FEA050000F0D6F8069F404683
:104FA000474500D8384603460190524629460498A2
:104FB00000F075FA00B911E055E06FF007012846DE
:104FC00000F0C2F84FF0FF31281D00F0BDF86FF07F
:104FD000704105F10800DFE79249DBE74A4600210E
:104FE000284600F0C2F801998A447F1AD7D1089860
:104FF000401C08905845C7D3032E00D00A9C404659
:10500000444501D9074600E027463B46524629461B
:10501000049800F044FA30BBBA44E41BEFD1032EED
:1050200005D01098B0F5803F03D3062204E00C228F
:1050300002E0022E19D00122149800070BD4109818
:105040001290002013902B4612A90498FFF7DFFC62
:1050500000287FF495AD00221146049800F02EFA46
:1050600000283FF48DAD012079E50422E4E72DE925
:10507000FC4100259046074604464E1E11E001AB58
:10508000012269464046FFF7CCF8019801280AD171
:105090009DF800000D2804D06D1C04F8010B0A28AF
:1050A00001D0B542EBDB0020207015B13846BDE8D9
:1050B000FC810020FBE7F8B50F4604460A2902D11F
:1050C0000D21FFF7F8FF6568002D16DB6019A66853
:1050D0006D1C07733C2D0DDB6B462A4604F10C0159
:1050E0002068FFF740F90098A84201D1002501E0AF
:1050F0004FF0FF35761CC4E90156F8BD10B594B0E9
:105100000446684600F090F902E0641CFFF7D3FF04
:10511000217868460029F8D100F071F914B010BD6B
:105120004178007840EA01207047C178827842EAED
:1051300001214278007842EA012140EA01207047CB
:105140000170090A417070470170090A4170090A2B
:105150008170090AC1707047002A05D011F8013B1F
:1051600000F8013B521EF9D17047C9B200F8011B8B
:10517000521EFBD1704710B510F8013B11F8014BDE
:105180001B1B521E01D0002BF6D0184610BD00E0AC
:10519000401C02780AB18A42FAD1D0B27047002886
:1051A00000D000207047C269891E921E8A4201D831
:1051B00000207047026B408900FB0120704770B5EA
:1051C00006460D4601F11A00FFF7AAFF04463078A3
:1051D000032805D105F11400FFF7A2FF44EA0044BB
:1051E000204670BDEBFE904D53444F53352E30009A
:1051F0000000214E4E4F204E414D4520202020469C
:1052000041542020202020004E4F204E414D45206B
:105210002020204641543332202020005252614148
:1052200072724161F8FFFF0070B50C4606461546E4
:1052300091B204F11A00FFF783FF30780328D0D130
:10524000290C04F11400BDE8704079E7C9E72DE9A5
:10525000F05F82460C4601F11A00FFF761FF70BB58
:105260002078012700F03F00401E00EB8001DFF8AE
:10527000CC9101EBC00500264FF6FF7B19F8060024
:105280002044FFF74DFF80466FB1FF2D17D800F087
:1052900057F907463AF815006D1C00F051F987429E
:1052A0000DD1474601E0D84509D1761C0D2EE5D336
:1052B0002078400606D52FB13AF8150010B100202D
:1052C000BDE8F09F0120FBE72DE9F04781460E463F
:1052D00001F11A00FFF724FF30BB3078012420F0E1
:1052E0004000401E00EB8001DFF8508101EBC0055B
:1052F00000274FF6FF7A00BF18F807003044FFF789
:105300000FFF34B1FF2D0FD829F8150004466D1C8E
:1053100001E0504508D17F1C0D2FEDD330784006B9
:1053200008D53CB1FF2D02D90020BDE8F08700214F
:1053300029F815100120F8E72DE9FC4115461C4617
:1053400007460B22FFF708FF052C11D93C4A0CE059
:105350000021AD1C2346044663F35F044008E303C9
:1053600000D55440491C1029F4D328880028EFD1D7
:1053700007256E4604F00F003030392800D9C01DD3
:1053800070556D1E2409F5D17E207055A5F10108D8
:1053900007E000BFFFF703FF10B1444506D0641CCF
:1053A000641CAC4202D2385D2028F3D1082D02D211
:1053B000705D6D1C00E020203855641C082CF5D36E
:1053C00075E6014600200B22430803EBC01011F8DC
:1053D000013B521E1844C0B2F6D1704701684A1C06
:1053E00002600878A0F16101192900D820388028CE
:1053F00004D312490D31084410F8800C704738B5B9
:1054000042680446002A0CDB6B4604F10C0120685C
:10541000FEF7A9FF28B960680099884201D1A06809
:1054200038BD4FF0FF3038BD70B50D4604464C22F4
:105430000021FFF79AFE2560D3E60000E47E000815
:105440002110010010B5010005D0012902D0022869
:1054500000D0012010BD2148416800208847C0B21B
:1054600010BD10B5010005D0012902D0022800D0DE
:10547000012010BD1948016800208847C0B210BD46
:1054800010B528B1012808D0022806D0042010BD8C
:10549000124884680020A047C1B2084610BD10B56C
:1054A00028B1012808D0022806D0042010BD0B48DE
:1054B000C4680020A047C1B2084610BD10B528B18D
:1054C000012808D0022806D0042010BD0348036933
:1054D0000020984710BD084610BD0000C47E00089B
:1054E000024610B50020364B802A01D290B210BD82
:1054F000B2F5803FFBD2A1F58074B53C04D010BD5D
:10550000401C80B2802803D233F810109142F7D1AA
:105510008030C0B210BD10B50022294B802801D2C6
:1055200002460BE0A1F58074B53C07D1FF2805D8F1
:1055300003EB4000A0F58050B0F8002F104610BDDE
:1055400030B5B0F5803F1FD280B2B0F5805F01D298
:105550001C4900E01C4931F8022B002A14D090426B
:1055600012D331F8024B230AE4B21519854221D92E
:10557000092B09D2DFE803F005090E1012141618E2
:105580001A00801A31F8100030BD811A01F00101B3
:10559000401A0DE010380BE0203809E0303807E001
:1055A0001A3805E0083003E0503801E0A0F5E35078
:1055B00080B230BD002BCED101EB4401CBE700001F
:1055C000A07F0008A08000089282000810B5044661
:1055D0000A2802D10D20FFF7F9FFA3498A681AB102
:1055E00002F8014B8A6010BD49680029FBD02046B3
:1055F000BDE81040084710B5044602E0641CFFF700
:10560000E5FF20780028F9D110BD2DE9FF5F8A461B
:105610000546E94615F8010B00286FD0252802D071
:10562000FFF7D4FFF6E715F8010B4FF0000830281C
:1056300002D02D2802D005E0012000E002208046A3
:1056400015F8010B002606E006EB860100EB41068B
:1056500015F8010B303EA0F130010929F4D96C286E
:1056600001D04C2803D115F8010B48F0040800289C
:1056700044D00246612801D3203AD2B24F2A3ED00C
:1056800006DC422A38D0432A33D0442AC8D138E035
:10569000532A0FD0552A34D0582AC1D15FF01003B5
:1056A0005FEA487101D4442A2DD05AF8041B442AD9
:1056B0002BD02FE05AF8047B002400E0641C385DF6
:1056C0000028FBD102E02020FFF780FF5FEA88700E
:1056D00003D42046641CB042F5D33846FFF78BFF55
:1056E00002E02020FFF772FF2046641CB04291D2F6
:1056F000F7E71AF8040B93E70223D1E74EE00823FB
:10570000CEE70A23CCE75AF8041B002902DA494203
:1057100048F0080800244F46B1FBF3F203FB1212D5
:10572000B1FBF3F1D2B2092A05D9782816D04FF08F
:10573000070C6244D2B230323A55641C09B1102CC5
:10574000EAD35FEA087003D52D2009F80400641C31
:1057500027465FEAC87004D0302003E04FF0270CE2
:10576000E7E72020834602E05846FFF72FFF5FEA75
:10577000887003D438467F1CB042F5D3641E19F8F4
:105780000400FFF723FF002CF8D102E02020FFF7F0
:105790001DFF38467F1CB042A9D2F7E7BDE8FF9F46
:1057A0000FB410B5304C206858B9012003220021F5
:1057B0002060FBF797FE00231A4619462060FBF78E
:1057C0005DFF01212068FCF70CF80128F9D103A93D
:1057D0000298FFF71AFF00231A4619462068FBF7C4
:1057E0004DFF10BC5DF814FB0FB410B51E4C04A99E
:1057F000A0600398FFF709FFA16800200870A0606F
:10580000EFE71948C068002800D0004770472DE92D
:10581000F041154E0746F068002822D000244D1EA6
:10582000F068804700281CD00D2811D0082801D02E
:105830007F2803D114B1C0B2641E06E02028EFDB3C
:10584000AC42EDDAC0B23855641CFFF7BFFEE7E7A3
:10585000002038550D20FFF7B9FE0A20FFF7B6FEED
:105860000120BDE8F0810000B800002002460020C1
:1058700000E0401C0B5C934202D0002BF9D102E007
:1058800013F0FF0F01D14FF0FF30704700214A1E87
:105890004160028000F10802895400F8801F4170C5
:1058A000704700214A1E416020F8082B09547047B8
:1058B0002DE9F041054691F881000C46002601F1E2
:1058C0006C0710B1012841D05FE034492846FFF74A
:1058D000CDFF002807DB3149683151F8201051B362
:1058E0002046884753E01B2D09D0606804F1080169
:1058F000622821D2B4F9002082420BD30EE00120AD
:1059000084F8810094F88000C55540E02218401EBC
:10591000D3791372B4F900208242F7DB2088401C4F
:1059200000B220806268521C626045546068465430
:105930002846FFF74BFE2AE061206060B4F90020A2
:10594000612A01D360222280465420E094F880002E
:10595000C555A5F16100192802D9203019280ED8A3
:105960000E492846491DFFF781FF0C491C3151F8AB
:1059700020102046884704F8806F667007E094F88E
:105980008000122806D984F8806081F8816028465A
:10599000BDE8F081401C81F88000F8E750830008E2
:1059A00070B50D460646002403E0305DFFF70EFE9D
:1059B000641CAC42F9D370BD70B50546002405E007
:1059C000281990F86C00FFF701FE641C95F8800020
:1059D000A042F5D870BD10B54FF0FF310180002115
:1059E00041606648018D01B1012141850D20FFF71D
:1059F000EDFDBDE810400A20FFF7E8BD0A20FFF7E3
:105A0000E5BD10B5B0F90010002904DA10BD421848
:105A1000491C537A137242688A42F8D80188491E99
:105A20000180511E41600820FFF7D0FDBDE8104005
:105A300053A0FFF7B5BE70B5504C0546608D0028E9
:105A400020D0401C80B26085218D884200D9012081
:105A500060854DA0FFF7A4FE4848FFF7A1FE474828
:105A6000618D05F108021446243000F032FA204618
:105A700001F036F9411E6860298001462046BDE8E4
:105A800070408DE770BD70B53C4C0546608D0028B8
:105A90001FD0401E0004000C608500D1208D608561
:105AA00039A0FFF77DFE3548FFF77AFE3348618D58
:105AB00005F108021446243000F00BFA204601F0EC
:105AC0000FF9411E6860298001462046BDE87040FC
:105AD00066E770BDB0F90010002904DB491E0180A3
